:020000040800F2
:1000000000280020DD230008FD1D0008031E000855
:10001000091E00080F1E0008151E00080000000041
:100020000000000000000000000000001B1E00088F
:10003000271E000800000000331E00083F1E0008B5
:10004000252400082524000825240008252400086C
:10005000252400082524000825240008252400085C
:10006000252400082524000825240008252400084C
:10007000252400082524000825240008252400083C
:10008000252400082524000825240008252400082C
:10009000252400082524000825240008252400081C
:1000A000252400082524000825240008252400080C
:1000B0004D1E00082524000800000000252400082B
:1000C000252400080000000000000000252400088E
:1000D000000000002524000825240008000000007E
:1000E000252400082524000825240008000000001D
:1000F0000000000000000000000000000000000000
:0C01000000000000000000005FF808F1A3
:10010C0010B5054C237833B9044B13B10448AFF345
:10011C0000800123237010BD20000020000000008F
:10012C00543A000808B5034B1BB103490348AFF31D
:10013C00008008BD0000000024000020543A000894
:10014C0080B500AF01224FF48041084802F067FCF3
:10015C0001224FF40041054802F061FC0A2000F036
:10016C00CFF80A2000F07EFA00BF80BD000C0140E1
:10017C0080B500AF184B1B68002B15D1092000F07F
:10018C00BFF8092000F06EFA00224FF480411348AA
:10019C0002F045FC01224FF40041104802F03FFCF4
:1001AC000D4B01221A6014E0092000F0A9F8092077
:1001BC0000F058FA01224FF48041084802F02FFC5D
:1001CC0000224FF40041054802F029FC024B0022AA
:1001DC001A6000BF80BD00BF3C000020000C014035
:1001EC0080B500AF1C4B1B68002B19D11B4B1B6837
:1001FC00184600F085F8194B5B68184600F032FA87
:10020C0000224FF48041164802F009FC01224FF401
:10021C000041134802F003FC0F4B01221A6018E056
:10022C000E4B9B68184600F06BF80C4BDB681846BD
:10023C0000F018FA01224FF48041094802F0EFFB5C
:10024C0000224FF40041064802F0E9FB024B002269
:10025C001A6000BF80BD00BF3C00002040000020A1
:10026C00000C014080B485B000AF786039607B68C9
:10027C00204A82FB03125211DB17D31AFB603B6836
:10028C001C4A82FB03125211DB17D31ABB60FB68AA
:10029C00194A82FB03129210DB17D31A174A136008
:1002AC00F968154B83FB01239A10CB17D21A13460E
:1002BC009B0013445B00CA1A104B5A60BB680E4A71
:1002CC0082FB03129210DB17D31A0C4A9360B968A5
:1002DC00094B83FB01239A10CB17D21A13469B00B0
:1002EC0013445B00CA1A054BDA6000BF1437BD46D5
:1002FC0080BC70471F85EB51676666664000002026
:10030C0080B582B000AF78607B68092B00F28081E9
:10031C0001A252F823F000BF4D030008950300081A
:10032C00DD030008250400086D040008B50400086E
:10033C00FD040008450500088D050008D5050008DA
:10034C0000220121C64802F06AFB00220221C448A7
:10035C0002F065FB00220421C14802F060FB002280
:10036C000821BF4802F05BFB00221021BC4802F0C0
:10037C0056FB00222021BA4802F051FB01224021F9
:10038C00B74802F04CFB67E101220121B44802F0AE
:10039C0046FB00220221B24802F041FB002204215C
:1003AC00AF4802F03CFB01220821AD4802F037FBBC
:1003BC0001221021AA4802F032FB01222021A84878
:1003CC0002F02DFB01224021A54802F028FB43E15D
:1003DC0000220121A24802F022FB00220221A048A7
:1003EC0002F01DFB012204219D4802F018FB0022A3
:1003FC0008219B4802F013FB00221021984802F0C0
:10040C000EFB01222021964802F009FB002240211C
:10041C00934802F004FB1FE100220121904802F0F6
:10042C00FEFA002202218E4802F0F9FA0022042181
:10043C008B4802F0F4FA00220821894802F0EFFA06
:10044C0001221021864802F0EAFA01222021844878
:10045C0002F0E5FA00224021814802F0E0FAFBE0CC
:10046C00012201217E4802F0DAFA002202217C48A6
:10047C0002F0D5FA00220421794802F0D0FA0122C8
:10048C000821774802F0CBFA01221021744802F0BF
:10049C00C6FA00222021724802F0C1FA0022402143
:1004AC006F4802F0BCFAD7E0002201216C4802F040
:1004BC00B6FA012202216A4802F0B1FA00220421A4
:1004CC00674802F0ACFA00220821654802F0A7FA4E
:1004DC0001221021624802F0A2FA00222021604879
:1004EC0002F09DFA002240215D4802F098FAB3E038
:1004FC00002201215A4802F092FA012202215848A6
:10050C0002F08DFA00220421554802F088FA0022EC
:10051C000821534802F083FA00221021504802F0BF
:10052C007EFA002220214E4802F079FA0022402166
:10053C004B4802F074FA8FE000220121484802F087
:10054C006EFA00220221464802F069FA00220421C8
:10055C00434802F064FA01220821414802F05FFA94
:10056C00012210213E4802F05AFA012220213C4877
:10057C0002F055FA01224021394802F050FA6BE0A2
:10058C0000220121364802F04AFA002202213448A6
:10059C0002F045FA00220421314802F040FA002210
:1005AC0008212F4802F03BFA002210212C4802F0BF
:1005BC0036FA002220212A4802F031FA002240218A
:1005CC00274802F02CFA47E000220121244802F0CF
:1005DC0026FA00220221224802F021FA00220421EC
:1005EC001F4802F01CFA002208211D4802F017FADD
:1005FC00012210211A4802F012FA00222021184878
:10060C0002F00DFA00224021154802F008FA23E00E
:10061C0001220121124802F002FA012202211048A3
:10062C0002F0FDF9012204210D4802F0F8F9012233
:10063C0008210B4802F0F3F901221021084802F0BE
:10064C00EEF901222021064802F0E9F901224021AD
:10065C00034802F0E4F900BF00BF0837BD4680BD77
:10066C00000C014080B582B000AF78607B68092B2C
:10067C0000F2BE8101A252F823F000BFB1060008BF
:10068C000507000859070008AD0700080108000815
:10069C0055080008A9080008FD08000851090008C1
:1006AC00A509000800228021D04802F0B8F90022E8
:1006BC004FF48071CD4802F0B2F900224FF4007172
:1006CC00CA4802F0ACF900224FF48061C74802F02E
:1006DC00A6F900224FF40061C44802F0A0F90022F0
:1006EC004FF48051C14802F09AF901224FF40051A5
:1006FC00BE4802F094F9A5E101228021BB4802F02A
:10070C008EF900224FF48071B84802F088F900226B
:10071C004FF40071B54802F082F901224FF4806168
:10072C00B24802F07CF901224FF40061AF4802F0AC
:10073C0076F901224FF48051AC4802F070F9012295
:10074C004FF40051A94802F06AF97BE100228021A4
:10075C00A64802F064F900224FF48071A34802F01D
:10076C005EF901224FF40071A04802F058F9002202
:10077C004FF480619D4802F052F900224FF4006161
:10078C009A4802F04CF901224FF48051974802F03C
:10079C0046F900224FF40051944802F040F951E11F
:1007AC0000228021914802F03AF900224FF4807126
:1007BC008E4802F034F900224FF400718B4802F09D
:1007CC002EF900224FF48061884802F028F90122AA
:1007DC004FF40061854802F022F901224FF4805158
:1007EC00824802F01CF900224FF400517F4802F0BD
:1007FC0016F927E1012280217C4802F010F9002231
:10080C004FF48071794802F00AF900224FF400711C
:10081C00764802F004F901224FF48061734802F02B
:10082C00FEF801224FF40061704802F0F8F8002243
:10083C004FF480516D4802F0F2F800224FF4005151
:10084C006A4802F0ECF8FDE000228021674802F0D3
:10085C00E6F801224FF48071644802F0E0F80022BF
:10086C004FF40071614802F0DAF800224FF4806115
:10087C005E4802F0D4F801224FF400615B4802F0AC
:10088C00CEF800224FF48051584802F0C8F80022EC
:10089C004FF40051554802F0C2F8D3E000228021F9
:1008AC00524802F0BCF801224FF480714F4802F01C
:1008BC00B6F800224FF400714C4802F0B0F8002258
:1008CC004FF48061494802F0AAF800224FF400610D
:1008DC00464802F0A4F800224FF48051434802F03D
:1008EC009EF800224FF40051404802F098F8A9E01D
:1008FC00002280213D4802F092F800224FF48071D2
:10090C003A4802F08CF800224FF40071374802F09C
:10091C0086F801224FF48061344802F080F80122FD
:10092C004FF40061314802F07AF801224FF4805103
:10093C002E4802F074F801224FF400512B4802F0BB
:10094C006EF87FE000228021284802F068F800222F
:10095C004FF48071254802F062F800224FF40071C8
:10096C00224802F05CF800224FF480611F4802F02C
:10097C0056F800224FF400611C4802F050F8002297
:10098C004FF48051194802F04AF800224FF40051FC
:10099C00164802F044F855E000228021134802F07A
:1009AC003EF800224FF48071104802F038F8002213
:1009BC004FF400710D4802F032F800224FF48061C0
:1009CC000A4802F02CF801224FF40061074802F0AB
:1009DC0026F800224FF48051044802F020F800223F
:1009EC004FF40051014802F01AF82BE0000C0140C2
:1009FC0001228021154802F012F801224FF4807177
:100A0C00124802F00CF801224FF400710F4802F06A
:100A1C0006F801224FF480610C4802F000F8012224
:100A2C004FF40061094801F0FAFF01224FF48051A4
:100A3C00064801F0F4FF01224FF40051034801F085
:100A4C00EEFF00BF00BF0837BD4680BD000C014063
:100A5C0080B500AF2021024801F0F9FF00BF80BD36
:100A6C000008014080B500AF40F61211024801F0B9
:100A7C00EEFF00BF80BD00BF0008014080B500AF95
:100A8C0041F24421024801F0E2FF00BF80BD00BFEB
:100A9C000008014080B500AF42F28841024801F0E5
:100AAC00D6FF00BF80BD00BF0008014080B500AF7D
:100ABC004FF40251024801F0CAFF00BF80BD00BFD5
:100ACC000008014080B483B000AF00237B603FE09E
:100ADC00244A7B68012142F82310224A7B6852F891
:100AEC00232021497B6841F823201F4A7B6852F858
:100AFC0023201E497B6841F823201D4A7B68012175
:100B0C0042F823101B4A7B68002142F823101A4A32
:100B1C007B68002142F82310184A7B68002142F8B8
:100B2C002310174A7B68002142F82310154A7B6872
:100B3C00002142F82310144A7B68002142F823104C
:100B4C00124A7B68002142F823107B6801337B60DA
:100B5C007B68022BBCDD00BF00BF0C37BD4680BCE0
:100B6C00704700BF680000205C000020500000208F
:100B7C0074000020800000208C00002098000020D1
:100B8C00A4000020B0000020BC000020C800002001
:100B9C0080B582B000AF00237B60DDE0734A7B68D8
:100BAC0052F8232072497B6841F82320714A7B68F4
:100BBC0052F823206D497B6841F823206E4A7B68EC
:100BCC0052F823206D497B6831F8133019461046D2
:100BDC0001F00EFF03461946664A7B6842F8231063
:100BEC00634A7B6852F8232060497B6851F82330B4
:100BFC009A4240F0AE805D4A7B6852F823205D49F2
:100C0C007B6851F823309A4240F0A3805C4A7B68A1
:100C1C0052F8232057497B6851F823309A424ED022
:100C2C00574A7B6852F82330002B34D1514A7B68E9
:100C3C0052F82330012B2ED1524A7B68012142F805
:100C4C002310514A7B6852F823305A1C4E497B685A
:100C5C0041F823204C4A7B6852F82330012B05D1F4
:100C6C004A4A7B68282142F8231014E0464A7B68E4
:100C7C0052F82330022B0ED1454A7B68012142F8F1
:100C8C002310414A7B68002142F823103F4A7B68BD
:100C9C00002142F82310374A7B6852F82320384948
:100CAC007B6841F82320334A7B6852F82330002BB1
:100CBC002AD1384A7B68642142F8231024E02D4A5B
:100CCC007B6852F82330002B1ED1324A7B6852F8D5
:100CDC002330002B18DD2F4A7B6852F823305A1E24
:100CEC002C497B6841F823202A4A7B6852F8233030
:100CFC00002B09DC284A7B68012142F82310254A85
:100D0C007B68322142F82310204A7B6852F823304A
:100D1C00002B1EDD1D4A7B6852F823305A1E1B49DE
:100D2C007B6841F82320194A7B6852F82330002B4A
:100D3C000FD1154A7B6852F82330012B04D1174A86
:100D4C007B68012142F823100F4A7B68002142F88E
:100D5C0023107B6801337B607B68022B7FF71EAF0F
:100D6C0000BF00BF0837BD4680BD00BF5C0000203F
:100D7C005000002068000020000000200C00002023
:100D8C0074000020A4000020BC000020C80000203B
:100D9C00B000002080000020980000208C00002073
:100DAC0080B483B000AF78607B68002B02DB7B687B
:100DBC00022B01DD00230DE0094A7B6852F8233039
:100DCC00012B06D1064A7B68002142F8231001232F
:100DDC0000E0002318460C37BD4680BC704700BFAE
:100DEC008C00002080B483B000AF78607B68002B4F
:100DFC0002DB7B68022B01DD00230DE0094A7B68D6
:100E0C0052F82330012B06D1064A7B68002142F8A8
:100E1C002310012300E0002318460C37BD4680BC8C
:100E2C00704700BF9800002080B483B000AF78609A
:100E3C007B68002B02DB7B68022B01DD00230DE0BD
:100E4C00094A7B6852F82330012B06D1064A7B688D
:100E5C00002142F82310012300E0002318460C3730
:100E6C00BD4680BC704700BFB000002080B500AF0D
:100E7C000020FFF795FF0346002B23D0144B0122D3
:100E8C001A60144B1B68013B032B1DD801A252F8AE
:100E9C0023F000BFB10E0008B90E0008C10E000807
:100EAC00C90E00080C4B02221A600EE00A4B0322FA
:100EBC001A600AE0084B04221A6006E0064B012275
:100ECC001A6002E000BF00E000BF00BF80BD00BFA1
:100EDC00EC000020E4000020E800002080B500AF0A
:100EEC00174B1B68032B29D10120FFF759FF034631
:100EFC00002B05D10120FFF775FF0346002B03D013
:100F0C00104B01221A7019E00220FFF749FF03462B
:100F1C00002B05D10220FFF765FF0346002B03D001
:100F2C00084B02221A7009E00220FFF77DFF0346EE
:100F3C00002B03D0034B03221A70FFE700BF80BDC8
:100F4C00E4000020F000002080B500AF074B1B68C8
:100F5C00042B08D10220FFF767FF0346002B02D0B9
:100F6C00034B01221A6000BF80BD00BFE4000020CB
:100F7C00F400002080B500AF40F6B8324FF4FA61AF
:100F8C0041F2883001F05CF800BF80BD80B500AF45
:100F9C00424B1B78022B49D0022B76DC002B02D063
:100FAC00012B2AD071E0032000F09CFE0346002B9D
:100FBC0005D0FFF757FDFA21032000F03BFE04207B
:100FCC0000F090FE0346002B05D0FFF7D1F850211E
:100FDC00042000F02FFE324B1B68002B57D02F4BF8
:100FEC0001221A702F4B00221A70FFF7A9F800F09B
:100FFC0037FF2B4B00221A6049E001F035F9284BE2
:10100C001B68002B45D0254B02221A70FFF798F86D
:10101C0000F026FFFA21032000F00CFE50210420E2
:10102C0000F008FE1E4B00221A6032E0032000F094
:10103C0059FE0346002B05D0FFF720FDFA210320B3
:10104C0000F0F8FD042000F04DFE0346002B05D007
:10105C00FFF78EF85021042000F0ECFD104B1B68BC
:10106C00002B18D00D4B00221A70FFF769F800F016
:10107C00F7FEFA21032000F0DDFD5021042000F0E2
:10108C00D9FD074B00221A6005E000BF04E000BF49
:10109C0002E000BF00E000BF00BF80BDF1000020F7
:1010AC00F4000020F401002080B500AFA54B1B78A4
:1010BC000B3B032B00F2438101A252F823F000BF3B
:1010CC00DD10000899110008591200081F130008C0
:1010DC00032000F007FE0346002B05D0FFF7C2FCEF
:1010EC00FA21032000F0A6FD052000F0FBFD0346CD
:1010FC00002B0DD0944B1B68642202FB03F364217C
:10110C001846FFF7AFF84FF4FA71052000F092FD86
:10111C00042000F0E7FD0346002B05D0FFF760F834
:10112C005021042000F086FD884B1B78032B1AD02D
:10113C00032B22DC012B02D0022B0AD01DE0824BA8
:10114C001B68622B1BDC804B1B6801337E4A1360CF
:10115C0015E07D4B1B68012B13DD7B4B1B68013BA2
:10116C00794A13600DE000F07BFE764B0C221A706E
:10117C00FA21032000F05EFD04E000BF02E000BF96
:10118C0000E000BF714B00221A70D9E0032000F080
:10119C00A9FD0346002B05D0FFF770FCFA210320B4
:1011AC0000F048FD052000F09DFD0346002B0DD0FE
:1011BC00674B1B68642202FB03F3C8211846FFF738
:1011CC0051F84FF4FA71052000F034FD042000F0C2
:1011DC0089FD0346002B05D0FFF702F850210420AF
:1011EC0000F028FD594B1B78032B1CD0032B24DC5F
:1011FC00012B02D0022B0CD01FE0554B1A68524B1E
:10120C001B689A421BDA524B1B680133504A13601D
:10121C0015E04F4B1B68012B13DD4D4B1B68013B3D
:10122C004B4A13600DE000F01BFE464B0D221A706A
:10123C00FA21032000F0FEFC04E000BF02E000BF36
:10124C0000E000BF414B00221A7079E0032000F04F
:10125C0049FD0346002B05D0FFF71CFCFA210320A7
:10126C0000F0E8FC052000F03DFD0346002B0ED0FD
:10127C00384B1B68642202FB03F34FF4967118463B
:10128C00FEF7F0FF4FF4FA71052000F0D3FC0420B8
:10129C0000F028FD0346002B05D0FEF7A1FF5021DE
:1012AC00042000F0C7FC294B1B78032B1FD0032B09
:1012BC0026DC012B02D0022B0FD021E0224B1A6826
:1012CC00234B1B68D21A234B1B689A421ADD214B05
:1012DC001B6801331F4A136014E01E4B1B68012B63
:1012EC0012DD1C4B1B68013B1A4A13600CE000F02A
:1012FC00B7FD194B00221A70124B0E221A7004E023
:10130C0000BF02E000BF00E000BF104B00221A70CB
:10131C0016E00D4B1B684FF47A7202FB03F00C4B7A
:10132C001B684FF47A7202FB03F10A4B1B684FF4F3
:10133C007A7202FB03F31A4600F082FE00E000BF53
:10134C0000BF80BD12000020D4000020F00000205F
:10135C00D8000020DC000020F401002080B582B011
:10136C0000AF78607B68013B032B2ED801A252F8AA
:10137C0023F000BF911300089B130008AB13000867
:10138C00C113000800F06CFDFEF7DAFE1EE0FEF75C
:10139C00D7FE00F065FD0F4B00221A7016E0FEF729
:1013AC00CFFE00F05DFD0C4B0B221A70094B002296
:1013BC001A700BE0FEF7C4FE00F052FD054B002244
:1013CC001A70064B00221A7000E000BF00BF0837ED
:1013DC00BD4680BDF401002012000020F100002069
:1013EC0080B582B000AF78607B68013B032B14D8CA
:1013FC0001A252F823F000BF2714000815140008AE
:10140C001B14000821140008FFF7B4FD06E0FFF7D9
:10141C004BFE03E0FFF7BAFD00E000BF00BF08374A
:10142C00BD4680BD80B500AF002000F05BFC0346DC
:10143C00002B06D0FFF70CFB4FF47A71002000F064
:10144C00F9FB104B1A68104B1B689A4208D00E4BD4
:10145C001B681846FFF782FF0B4B1B68094A136089
:10146C00094B1B681846FFF7BBFF084B1B68002B8A
:10147C0006D0074B1B68044A1360044B00221A6009
:10148C0000BF80BDE0000020E4000020EC00002044
:10149C00E800002080B500AF064B01221A60064B15
:1014AC0001221A60FFF70EFB642000F097FB00BFCF
:1014BC0080BD00BFE4000020E800002080B500AF34
:1014CC0000F0ACFF00F03AF800F0C0F800F072F851
:1014DC00FFF7E0FF00F03CF901220021104800F07A
:1014EC009DF9012200210F4800F098F901220021FA
:1014FC000D4800F093F9012200210C4800F08EF900
:10150C00012200210A4800F089F901220121094831
:10151C0000F084F9084801F0DFFE00F01FFBFCE747
:10152C00911C00089D0B0008790E0008E90E0008BC
:10153C00550F000831140008F801002080B590B058
:10154C0000AF07F1180328220021184602F074FAA4
:10155C003B1D00221A605A609A60DA601A610223FD
:10156C00BB610123BB621023FB6200237B6307F189
:10157C001803184601F084FA0346002B01D000F042
:10158C00E1F80F237B600023BB600023FB6000238A
:10159C003B6100237B613B1D0021184601F0F0FCF0
:1015AC000346002B01D000F0CDF800BF4037BD46FC
:1015BC0080BD000080B586B000AF07F108030022A3
:1015CC001A605A609A60DA603B4600221A605A60D0
:1015DC001D4B4FF080421A601B4B41F63F725A6014
:1015EC00194B00229A60184B0922DA60164B002224
:1015FC001A61154B00229A61134801F01DFE034637
:10160C00002B01D000F09EF84FF48053BB6007F123
:10161C00080319460C4801F09BFF0346002B01D030
:10162C0000F090F800233B6000237B603B4619469A
:10163C00054802F073F90346002B01D000F082F844
:10164C0000BF1837BD4680BDF801002080B588B0BA
:10165C0000AF07F1100300221A605A609A60DA603A
:10166C002F4B9B692E4A43F0100393612C4B9B69C3
:10167C0003F01003FB60FB68294B9B69284A43F07D
:10168C0004039361264B9B6903F00403BB60BB68A6
:10169C00234B9B69224A43F008039361204B9B69BF
:1016AC0003F008037B607B68002243F6FE711D4843
:1016BC0001F0B5F900224FF6FF711B4801F0AFF9AC
:1016CC004FF460433B6100237B610123BB6107F155
:1016DC0010031946154801F011F843F6FE733B61EF
:1016EC0001237B610023BB610223FB6107F1100323
:1016FC0019460C4801F002F84FF6FF733B610123C9
:10170C007B610023BB610223FB6107F110031946C7
:10171C00054800F0F3FF00BF2037BD4680BD00BF79
:10172C000010024000080140000C01400010014074
:10173C0080B582B000AF786000F050F800BF083779
:10174C00BD4680BD80B400AF72B600BFFEE700009E
:10175C0080B483B000AF00237B6033E01E497A680D
:10176C0013469B0013449B000B4400221A601A4939
:10177C007A6813469B0013449B000B4404330022ED
:10178C001A6015497A6813469B0013449B000B445E
:10179C00083300221A6010497A6813469B001344E0
:1017AC009B000B440C3300221A700B497A681346C9
:1017BC009B0013449B000B44103300221A607B687F
:1017CC0001337B607B68092BC8DD00BF00BF0C3781
:1017DC00BD4680BC704700BFF800002080B400AF4D
:1017EC000D4B1B68002B13D00B4B1B7B002B0FD10D
:1017FC00094B5B68002B04D0074B5B68013B064A26
:10180C005360054B5B68002B02D1034B01221A730A
:10181C0000BFBD4680BC7047F8000020B0B588B052
:10182C0000AFF860B9607A600023FB770023BB61DE
:10183C000023FB77E7E0FA7F774913469B001344BC
:10184C009B000B4404331B68BA691344BB61BA692F
:10185C00BB689A427CD9FA7F6F4913469B001344AC
:10186C009B000B4404331A68BB69D31ABA6813443F
:10187C003B61FA7FB969BB68C91A674813469B007C
:10188C0013449B0003440433196009237B6117E064
:10189C007B695A1E604879690B469B000B449B0080
:1018AC0018445D4913469B0013449B000B440446AB
:1018BC001D460FCD0FC42B6823607B69013B7B61F8
:1018CC00FB7F7A699A42E3DCFA7F534913469B000B
:1018DC0013449B000B44FA681A60FA7F4E49134676
:1018EC009B0013449B000B4404333A691A60FA7F43
:1018FC00494913469B0013449B000B4408337A68F8
:10190C001A603B69002B0CBF01230023DBB2FA7F6A
:10191C001846414913469B0013449B000B440C335F
:10192C0002461A70FC7F00F041F902463A49234600
:10193C009B0023449B000B4410331A60FA7F3649FA
:10194C0013469B0013449B000B4410331B685FE051
:10195C00FA7F314913469B0013449B000B441B68D0
:10196C00002B4DD1FA7F2C4913469B0013449B004E
:10197C000B44FA681A60FA7FB968BB69C91A264821
:10198C0013469B0013449B00034404331960FA7FF5
:10199C00214913469B0013449B000B4408337A687F
:1019AC001A60FA7F1C4913469B0013449B000B449E
:1019BC0004331B68002B0CBF01230023DBB2FA7F1E
:1019CC001846154913469B0013449B000B440C33DB
:1019DC0002461A70FC7F00F0E9F802460E492346D5
:1019EC009B0023449B000B4410331A60FA7F0A4976
:1019FC0013469B0013449B000B4410331B6807E0F9
:101A0C00FB7F0133FB77FB7F092B7FF614AF0023A1
:101A1C0018462037BD46B0BDF8000020B0B485B0E4
:101A2C0000AF78600023FB738BE0FA7B4A491346C6
:101A3C009B0013449B000B4410331B687A689A423A
:101A4C007CD1FB7B082B28D8FB7B5A1C42491346C4
:101A5C009B0013449B000B441B68002B1DD0FB7B8D
:101A6C005A1C3D4913469B0013449B000B44043302
:101A7C001968FA7B384813469B0013449B000344B7
:101A8C0004331B68FA7B01321944334813469B001C
:101A9C0013449B00034404331960FB7BBB7317E0B6
:101AAC00BB7B5A1CB97B2C480B469B000B449B0000
:101ABC001844294913469B0013449B000B440446CD
:101ACC001D460FCD0FC42B682360BB7B0133BB734A
:101ADC00BB7B082BE4D9BA7B1F4913469B001344EC
:101AEC009B000B4400221A60BA7B1B4913469B00D7
:101AFC0013449B000B44043300221A60BA7B164932
:101B0C0013469B0013449B000B44083300221A60BD
:101B1C00BA7B114913469B0013449B000B440C33B6
:101B2C0000221A70BA7B0C4913469B0013449B008D
:101B3C000B44103300221A60012307E0FB7B0133B6
:101B4C00FB73FB7B092B7FF670AF00231846143711
:101B5C00BD46B0BC704700BFF8000020B0B586B0E1
:101B6C0000AF114B1B7B002B19D00F4B1B689847F8
:101B7C000D4B00221A730C4B3C1D1D460FCD0FC490
:101B8C002B6823607B691846FFF748FFFB68002B26
:101B9C0005D07B68F968FA681846FFF73FFE00BF6E
:101BAC001837BD46B0BD00BFF800002080B400AFB0
:101BBC00094B1B680133084A1360074B1B68002B49
:101BCC0004D1054B1B680133034A1360024B1B689D
:101BDC001846BD4680BC7047C001002080B485B05B
:101BEC0000AF78607B68104A82FB03129210DB17FF
:101BFC00D31ABB600023FB600CE00C49FB68BA688D
:101C0C0041F823200A4AFB68002142F82310FB68A4
:101C1C000133FB60FB68052BEFDD00BF00BF143701
:101C2C00BD4680BC704700BF67666666C401002075
:101C3C00DC01002080B483B000AF786039607B6831
:101C4C00002B13DB7B68052B10DC3B680A4A82FBFC
:101C5C0003129210DB17D21A08497B6841F8232033
:101C6C00074A7B68002142F8231000E000BF0C37C4
:101C7C00BD4680BC704700BF67666666C401002025
:101C8C00DC01002080B483B000AF00237B601CE03B
:101C9C00124A7B6852F82330002B13DD0F4A7B6805
:101CAC0052F823305A1E0D497B6841F823200B4A09
:101CBC007B6852F82330002B04DC094A7B68012135
:101CCC0042F823107B6801337B607B68052BDFDDDA
:101CDC0000BF00BF0C37BD4680BC7047C40100205C
:101CEC00DC01002080B483B000AF78607B68002BEF
:101CFC0002DB7B68052B01DD002303E0044A7B68D3
:101D0C0052F8233018460C37BD4680BC704700BFD4
:101D1C00DC01002080B483B000AF78607B68002BBE
:101D2C0002DB7B68052B01DD002303E0044A7B68A2
:101D3C0052F8233018460C37BD4680BC704700BFA4
:101D4C00C401002080B485B000AF154B9B69144AC8
:101D5C0043F001039361124B9B6903F00103BB60D9
:101D6C00BB680F4BDB690E4A43F08053D3610C4BBD
:101D7C00DB6903F080537B607B680A4B5B68FB601C
:101D8C00FB6823F0E063FB60FB6843F08063FB605F
:101D9C00044AFB68536000BF1437BD4680BC7047D3
:101DAC00001002400000014080B584B000AF7860A4
:101DBC007B681B68B3F1804F13D10C4BDB690B4A6A
:101DCC0043F00103D361094BDB6903F00103FB60B2
:101DDC00FB68002200211C2000F059FC1C2000F0A4
:101DEC0072FC00BF1037BD4680BD00BF0010024022
:101DFC0080B400AFFEE780B400AFFEE780B400AF64
:101E0C00FEE780B400AFFEE780B400AFFEE780B41D
:101E1C0000AF00BFBD4680BC704780B400AF00BFB0
:101E2C00BD4680BC704780B400AF00BFBD4680BCCF
:101E3C00704780B500AF00F037FB00BF80BD0000DD
:101E4C0080B500AF024801F093FA00BF80BD00BF1F
:101E5C00F801002080B400AF00BFBD4680BC7047C5
:101E6C0080B500AF01220221204800F0D8FD0122EC
:101E7C0004211E4800F0D3FD012208211B4800F06C
:101E8C00CEFD01221021194800F0C9FD012240218C
:101E9C00164800F0C4FD01228021144800F0BFFD5B
:101EAC0001224FF48071114800F0B9FD01224FF46A
:101EBC0000710E4800F0B3FD01224FF480610B4815
:101ECC0000F0ADFD01224FF40061084800F0A7FDC1
:101EDC0001224FF48051054800F0A1FD01224FF47E
:101EEC000051024800F09BFD00BF80BD000801407E
:101EFC0080B500AF002202210A4800F090FD0122BB
:101F0C000421084800F08BFD00224FF48071054835
:101F1C0000F085FD01224FF40071024800F07FFDB6
:101F2C0000BF80BD0008014080B500AF0122022136
:101F3C000A4800F074FD00220821084800F06FFDEB
:101F4C0001224FF48071054800F069FD00224FF426
:101F5C008061024800F063FD00BF80BD00080140B5
:101F6C0080B500AF012208210A4800F058FD00227C
:101F7C000421084800F053FD01224FF4806105480C
:101F8C0000F04DFD00224FF40071024800F047FDB7
:101F9C0000BF80BD0008014080B500AF00221021B9
:101FAC000A4800F03CFD01224021084800F037FDB2
:101FBC0000224FF40061054800F031FD01224FF47E
:101FCC008051024800F02BFD00BF80BD000801408D
:101FDC0080B500AF012210210A4800F020FD00223C
:101FEC008021084800F01BFD01224FF400610548D8
:101FFC0000F015FD00224FF40051024800F00FFDD7
:10200C0000BF80BD0008014080B500AF01228021D7
:10201C000A4800F004FD00224021084800F0FFFCB3
:10202C0001224FF40051054800F0F9FC00224FF456
:10203C008051024800F0F3FC00BF80BD0008014055
:10204C0090B585B000AFF860B9607A60854B1B78AD
:10205C00042B00F2FA8001A252F823F07D20000834
:10206C00A5200008112100087F210008E9210008A3
:10207C007C4B01221A70F9680120FFF7DBFD7968AF
:10208C000220FFF7D7FD0A210420FFF7D3FD0A2118
:10209C000520FFF7CFFDE1E0FFF72AFFFFF798FFE0
:1020AC000520FFF71FFE0346002B10D00120FFF781
:1020BC0031FE04460220FFF72DFE0346194620464A
:1020CC00FEF7D0F84FF4FA710520FFF7B3FD0420AA
:1020DC00FFF708FE0346002B05D0FEF781F85021D0
:1020EC000420FFF7A7FD0220FFF7FCFD0346002BA1
:1020FC0000F0AD805B4B02221A70B9680220FFF72A
:10210C0099FDA4E0FFF780FF0520FFF7EBFD0346E8
:10211C00002B10D00120FFF7FDFD04460220FFF735
:10212C00F9FD034619462046FEF79CF84FF4FA7168
:10213C000520FFF77FFD0420FFF7D4FD0346002B9D
:10214C0005D0FEF74DF850210420FFF773FD012058
:10215C00FFF7C8FD0346002B7BD0424B03221A70BD
:10216C0079680120FFF766FDF9680220FFF762FD30
:10217C006FE0FFF7D9FEFFF70FFF0520FFF7B2FD69
:10218C000346002B10D00120FFF7C4FD04460220AB
:10219C00FFF7C0FD034619462046FEF763F84FF4DF
:1021AC00FA710520FFF746FD0420FFF79BFD03465F
:1021BC00002B05D0FEF714F850210420FFF73AFD50
:1021CC000120FFF78FFD0346002B44D0254B042242
:1021DC001A70B9680120FFF72DFD3CE0FFF7C0FE37
:1021EC000520FFF77FFD0346002B10D00120FFF7E1
:1021FC0091FD04460220FFF78DFD0346194620464B
:10220C00FEF730F84FF4FA710520FFF713FD0420A8
:10221C00FFF768FD0346002B05D0FDF7E1FF5021C9
:10222C000420FFF707FD0120FFF75CFD0346002BA0
:10223C0013D00C4B01221A70F9680120FFF7FAFC3D
:10224C0079680220FFF7F6FC07E000BF06E000BF4C
:10225C0004E000BF02E000BF00E000BF00BF143785
:10226C00BD4690BDF401002080B500AF554B1B78E6
:10227C00012B40F09480544B1B78062B00F291807C
:10228C0001A252F823F000BFB1220008E522000899
:10229C002D23000845230008932300080123000880
:1022AC00612300080320FFF71DFD0346002B05D01A
:1022BC00FEF7D8FBFA210320FFF7BCFC0120FEF748
:1022CC006FFD0346002B6ED03F4B01221A70FA2192
:1022DC000320FFF7AFFC66E0FFF70AFEFFF778FE7E
:1022EC000120FEF75DFD0346002B5ED0364B052228
:1022FC001A705AE00320FFF7F5FC0346002B05D0BB
:10230C00FEF7D4FBFA210320FFF794FC0120FEF723
:10231C0047FD0346002B4AD02B4B02221A7046E095
:10232C00FFF772FE0120FEF73BFD0346002B40D069
:10233C00254B03221A703CE0FFF72EFEFFF7F4FD4D
:10234C000120FEF72DFD0346002B34D01E4B062238
:10235C001A7030E00320FFF7C5FC0346002B08D0B1
:10236C004FF48161194800F072FBFA210320FFF74A
:10237C0061FC0120FEF714FD0346002B1DD0124B0F
:10238C0004221A7019E0FFF7EBFD0120FEF708FD9F
:10239C000346002B13D00C4B01221A700FE000BF28
:1023AC000EE000BF0CE000BF0AE000BF08E000BF79
:1023BC0006E000BF04E000BF02E000BF00E000BF89
:1023CC0000BF80BDF1000020F40100200008014096
:1023DC00FFF740FD0B480C490C4A002302E0D4588F
:1023EC00C4500433C4188C42F9D3094A094C002355
:1023FC0001E013600432A242FBD301F0F9FAFFF7BB
:10240C005DF870470000002020000020983A00087A
:10241C002000002044020020FEE7000080B500AF41
:10242C00084B1B68074A43F010031360032000F0AD
:10243C0023F90F2000F008F8FFF784FC002318465E
:10244C0080BD00BF0020024080B582B000AF786034
:10245C00124B1A68124B1B7819464FF47A73B3FB64
:10246C00F1F3B2FBF3F3184600F03BF90346002BF3
:10247C0001D001230EE07B680F2B0AD8002279686B
:10248C004FF0FF3000F003F9064A7B68136000231D
:10249C0000E0012318460837BD4680BD140000201B
:1024AC001C0000201800002080B400AF054B1B78E6
:1024BC001A46054B1B681344034A136000BFBD4604
:1024CC0080BC70471C0000204002002080B400AF8C
:1024DC00024B1B681846BD4680BC7047400200206A
:1024EC0080B485B000AF78607B6803F00703FB60B5
:1024FC000C4BDB68BB60BA684FF6FF031340BB6044
:10250C00FB681A02BB68134343F0BF6343F4003308
:10251C00BB60044ABB68D36000BF1437BD4680BCA7
:10252C00704700BF00ED00E080B400AF044BDB68E7
:10253C001B0A03F007031846BD4680BC704700BF5A
:10254C0000ED00E080B483B000AF0346FB7197F957
:10255C000730002B0BDBFB7903F01F02064997F9C0
:10256C0007305B09012000FA02F241F8232000BF7A
:10257C000C37BD4680BC704700E100E080B483B0EE
:10258C0000AF03463960FB7197F90730002B0ADB6B
:10259C003B68DAB20C4997F907301201D2B20B44FE
:1025AC0083F800230AE03B68DAB20849FB7903F0B0
:1025BC000F03043B1201D2B20B441A7600BF0C3746
:1025CC00BD4680BC704700BF00E100E000ED00E0BC
:1025DC0080B489B000AFF860B9607A60FB6803F032
:1025EC000703FB61FB69C3F10703042B28BF04231A
:1025FC00BB61FB690433062B02D9FB69033B00E08A
:10260C0000237B614FF0FF32BB6902FA03F3DA431C
:10261C00BB681A407B699A404FF0FF317B6901FA25
:10262C0003F3D9437B680B40134318462437BD464C
:10263C0080BC704780B582B000AF78607B68013B8E
:10264C00B3F1807F01D301230FE00A4A7B68013B81
:10265C0053600F214FF0FF30FFF790FF054B002226
:10266C009A60044B07221A60002318460837BD46AF
:10267C0080BD00BF10E000E080B582B000AF786094
:10268C007868FFF72DFF00BF0837BD4680BD80B5C9
:10269C0086B000AF0346B9607A60FB7300237B61A0
:1026AC00FFF742FF78617A68B9687869FFF790FFA5
:1026BC00024697F90F3011461846FFF75FFF00BF2F
:1026CC001837BD4680BD80B582B000AF0346FB71A4
:1026DC0097F907301846FFF735FF00BF0837BD469E
:1026EC0080BD80B582B000AF78607868FFF7A2FF3C
:1026FC00034618460837BD4680BD000080B48BB039
:10270C0000AF7860396000237B6200233B6248E1B4
:10271C0001227B6A02FA03F3FB613B681B68FA69CE
:10272C001340BB61BA69FB699A4240F037813B6840
:10273C005B68A34A93425ED0A14A934275D8A14AE2
:10274C00934258D09F4A93426FD89F4A934252D09B
:10275C009D4A934269D89D4A93424CD09B4A9342DE
:10276C0063D89B4A934246D0994A93425DD8122B28
:10277C002AD8122B59D801A252F823F003280008AA
:10278C00DD270008EF27000831280008372800084B
:10279C003728000837280008372800083728000891
:1027AC003728000837280008372800083728000881
:1027BC003728000837280008372800083728000871
:1027CC00E5270008F9270008824A934213D02CE031
:1027DC003B68DB683B6229E03B68DB6804333B62A7
:1027EC0024E03B68DB6808333B621FE03B68DB6836
:1027FC000C333B621AE03B689B68002B02D104232C
:10280C003B6213E03B689B68012B05D108233B62BC
:10281C007B68FA691A6109E008233B627B68FA69F4
:10282C005A6103E000233B6200E000BFBB69FF2B51
:10283C0001D87B6801E07B6804337B61BB69FF2BAB
:10284C0002D87B6A9B0002E07B6A083B9B003B61E1
:10285C007B691A680F213B6901FA03F3DB431A40C9
:10286C00396A3B6901FA03F31A437B691A603B68C6
:10287C005B6803F08053002B00F09080564B9B69F3
:10288C00554A43F001039361534B9B6903F00103D9
:10289C00BB60BB68514A7B6A9B08023352F82330F9
:1028AC00FB607B6A03F003039B000F2202FA03F325
:1028BC00DB43FA681340FB607B68494A93420DD0B6
:1028CC007B68484A934207D07B68474A934201D1C0
:1028DC00022304E0032302E0012300E000237A6AD0
:1028EC0002F0030292009340FA681343FB603B49E9
:1028FC007B6A9B080233FA6841F823203B685B68CB
:10290C0003F48013002B06D0384B9A683749BB6907
:10291C0013438B6006E0354B9A68BB69DB43334944
:10292C0013408B603B685B6803F40013002B06D0EC
:10293C002E4BDA682D49BB691343CB6006E02B4B59
:10294C00DA68BB69DB4329491340CB603B685B68A1
:10295C0003F40033002B06D0244B5A682349BB697F
:10296C0013434B6006E0214B5A68BB69DB431F499C
:10297C0013404B603B685B6803F48033002B06D03C
:10298C001A4B1A681949BB6913430B6006E0174BC5
:10299C001A68BB69DB43154913400B607B6A013332
:1029AC007B623B681A687B6A22FA03F3002B7FF484
:1029BC00AFAE00BF00BF2C37BD4680BC704700BF18
:1029CC000000321000003110000022100000211015
:1029DC000000121000001110001002400000014015
:1029EC0000080140000C01400010014000040140AF
:1029FC0080B485B000AF78600B467B807B689A68AA
:102A0C007B881340002B02D00123FB7301E00023D1
:102A1C00FB73FB7B18461437BD4680BC704780B4F3
:102A2C0083B000AF78600B467B8013467B707B785D
:102A3C00002B03D07A887B681A6103E07B881A0428
:102A4C007B681A6100BF0C37BD4680BC704780B4F0
:102A5C0085B000AF78600B467B807B68DB68FB60E1
:102A6C007A88FB6813401A04FB68D9437B880B40B7
:102A7C001A437B681A6100BF1437BD4680BC70478F
:102A8C0080B586B000AF78607B68002B01D1012344
:102A9C006CE27B681B6803F00103002B00F087805D
:102AAC00924B5B6803F00C03042B0CD08F4B5B68D0
:102ABC0003F00C03082B12D18C4B5B6803F48033AE
:102ACC00B3F5803F0BD1894B1B6803F40033002B0B
:102ADC006CD07B685B68002B68D1012346E27B6875
:102AEC005B68B3F5803F06D1804B1B687F4A43F48B
:102AFC00803313602EE07B685B68002B0CD17B4B22
:102B0C001B687A4A23F480331360784B1B68774A2E
:102B1C0023F4802313601DE07B685B68B3F5A02F62
:102B2C000CD1724B1B68714A43F4802313606F4BBA
:102B3C001B686E4A43F4803313600BE06B4B1B68CD
:102B4C006A4A23F480331360684B1B68674A23F48A
:102B5C00802313607B685B68002B13D0FFF7B6FCF7
:102B6C00386108E0FFF7B2FC02463B69D31A642BCC
:102B7C0001D90323FAE15D4B1B6803F40033002BEE
:102B8C00F0D014E0FFF7A2FC386108E0FFF79EFCE0
:102B9C0002463B69D31A642B01D90323E6E1534B5C
:102BAC001B6803F40033002BF0D100E000BF7B68FE
:102BBC001B6803F00203002B63D04C4B5B6803F0E3
:102BCC000C03002B0BD0494B5B6803F00C03082B58
:102BDC001CD1464B5B6803F48033002B16D1434B5E
:102BEC001B6803F00203002B05D07B681B69012BCB
:102BFC0001D00123BAE13D4B1B6823F0F8027B683E
:102C0C005B69DB00394913430B603AE07B681B6955
:102C1C00002B20D0364B01221A60FFF757FC38618D
:102C2C0008E0FFF753FC02463B69D31A022B01D98B
:102C3C0003239BE12D4B1B6803F00203002BF0D008
:102C4C002A4B1B6823F0F8027B685B69DB00274981
:102C5C0013430B6015E0264B00221A60FFF736FC7D
:102C6C00386108E0FFF732FC02463B69D31A022BAD
:102C7C0001D903237AE11D4B1B6803F00203002BDF
:102C8C00F0D17B681B6803F00803002B3AD07B68FB
:102C9C009B69002B19D0174B01221A60FFF716FC09
:102CAC00386108E0FFF712FC02463B69D31A022B8D
:102CBC0001D903235AE10D4B5B6A03F00203002B8D
:102CCC00F0D0012000F09AFA1CE00A4B00221A60A6
:102CDC00FFF7FCFB38610FE0FFF7F8FB02463B699E
:102CEC00D31A022B08D9032340E100BF0010024085
:102CFC0000004242800442429E4B5B6A03F0020396
:102D0C00002BE9D17B681B6803F00403002B00F057
:102D1C00A6800023FB75974BDB6903F08053002BD7
:102D2C000DD1944BDB69934A43F08053D361914BA3
:102D3C00DB6903F08053BB60BB680123FB758E4BD2
:102D4C001B6803F48073002B18D18B4B1B688A4AC9
:102D5C0043F480731360FFF7B9FB386108E0FFF7A9
:102D6C00B5FB02463B69D31A642B01D90323FDE062
:102D7C00814B1B6803F48073002BF0D07B68DB68FD
:102D8C00012B06D17B4B1B6A7A4A43F00103136279
:102D9C002DE07B68DB68002B0CD1764B1B6A754AE7
:102DAC0023F001031362734B1B6A724A23F0040372
:102DBC0013621CE07B68DB68052B0CD16D4B1B6A26
:102DCC006C4A43F0040313626A4B1B6A694A43F072
:102DDC00010313620BE0674B1B6A664A23F0010385
:102DEC001362644B1B6A634A23F0040313627B680F
:102DFC00DB68002B15D0FFF769FB38610AE0FFF7A1
:102E0C0065FB02463B69D31A41F28832934201D9E1
:102E1C000323ABE0574B1B6A03F00203002BEED0ED
:102E2C0014E0FFF753FB38610AE0FFF74FFB024653
:102E3C003B69D31A41F28832934201D9032395E0BE
:102E4C004C4B1B6A03F00203002BEED1FB7D012BD4
:102E5C0005D1484BDB69474A23F08053D3617B682B
:102E6C00DB69002B00F08180424B5B6803F00C03A4
:102E7C00082B61D07B68DB69022B46D13F4B0022CB
:102E8C001A60FFF723FB386108E0FFF71FFB0246CF
:102E9C003B69D31A022B01D9032367E0354B1B681E
:102EAC0003F00073002BF0D17B681B6AB3F5803FF5
:102EBC0008D1304B5B6823F400327B689B682D494A
:102ECC0013434B602B4B5B6823F474127B68196AB9
:102EDC007B685B6A0B43274913434B60274B0122EA
:102EEC001A60FFF7F3FA386108E0FFF7EFFA0246D1
:102EFC003B69D31A022B01D9032337E01D4B1B6806
:102F0C0003F00073002BF0D02FE01C4B00221A6052
:102F1C00FFF7DCFA386108E0FFF7D8FA02463B69A4
:102F2C00D31A022B01D9032320E0124B1B6803F0A8
:102F3C000073002BF0D118E07B68DB69012B01D109
:102F4C00012313E00B4B5B68FB60FB6803F48032DE
:102F5C007B681B6A9A4206D1FB6803F470127B688B
:102F6C005B6A9A4201D0012300E00023184618370F
:102F7C00BD4680BD0010024000700040600042421F
:102F8C0080B584B000AF786039607B68002B01D1CC
:102F9C000123D0E06A4B1B6803F007033A689A429E
:102FAC0010D9674B1B6823F0070265493B68134334
:102FBC000B60634B1B6803F007033A689A4201D01D
:102FCC000123B8E07B681B6803F00203002B20D0C0
:102FDC007B681B6803F00403002B05D0594B5B681E
:102FEC00584A43F4E06353607B681B6803F00803A2
:102FFC00002B05D0534B5B68524A43F4605353602B
:10300C00504B5B6823F0F0027B689B684D4913437F
:10301C004B607B681B6803F00103002B40D07B687E
:10302C005B68012B07D1474B1B6803F40033002B63
:10303C0015D101237FE07B685B68022B07D1414BE4
:10304C001B6803F00073002B09D1012373E03D4B87
:10305C001B6803F00203002B01D101236BE0394BF9
:10306C005B6823F003027B685B68364913434B6053
:10307C00FFF72CFAF8600AE0FFF728FA0246FB6823
:10308C00D31A41F28832934201D9032353E02D4BDA
:10309C005B6803F00C027B685B689B009A42EBD187
:1030AC00274B1B6803F007033A689A4210D2244B53
:1030BC001B6823F0070222493B6813430B60204B2B
:1030CC001B6803F007033A689A4201D0012332E0EF
:1030DC007B681B6803F00403002B08D0194B5B685A
:1030EC0023F4E0627B68DB68164913434B607B6812
:1030FC001B6803F00803002B09D0124B5B6823F408
:10310C0060527B681B69DB000E4913434B6000F077
:10311C0021F802460B4B5B681B0903F00F030A49AD
:10312C00CB5C22FA03F3094A1360094B1B6818465F
:10313C00FFF78AF9002318461037BD4680BD00BF43
:10314C0000200240001002406C3A000814000020DD
:10315C001800002080B487B000AF0023FB60002370
:10316C00BB6000237B6100237B6000233B611E4B13
:10317C005B68FB60FB6803F00C03042B02D0082B8C
:10318C0003D027E0194B3B6127E0FB689B0C03F055
:10319C000F03174AD35C7B60FB6803F48033002B6E
:1031AC0010D0114B5B685B0C03F00103114AD35C2C
:1031BC00BB607B680D4A02FB03F2BB68B2FBF3F306
:1031CC007B6104E07B680C4A02FB03F37B617B6947
:1031DC003B6102E0054B3B6100BF3B6918461C3765
:1031EC00BD4680BC704700BF0010024000127A0040
:1031FC007C3A00088C3A000800093D0080B485B088
:10320C0000AF78600A4B1B680A4AA2FB03235B0AD7
:10321C007A6802FB03F3FB6000BFFB685A1EFA607E
:10322C00002BF9D100BF00BF1437BD4680BC7047DE
:10323C0014000020D34D621080B582B000AF7860CE
:10324C007B68002B01D1012341E07B6893F83D3072
:10325C00DBB2002B06D17B68002283F83C20786817
:10326C00FEF7A2FD7B68022283F83D207B681A687A
:10327C007B6804331946104600F056FA7B6801222D
:10328C0083F846207B68012283F83E207B6801226C
:10329C0083F83F207B68012283F840207B68012261
:1032AC0083F841207B68012283F842207B6801224D
:1032BC0083F843207B68012283F844207B68012239
:1032CC0083F845207B68012283F83D2000231846B3
:1032DC000837BD4680BD000080B485B000AF786073
:1032EC007B6893F83D30DBB2012B01D0012335E034
:1032FC007B68022283F83D207B681B68DA687B6858
:10330C001B6842F00102DA607B681B68164A934224
:10331C0009D07B681B68B3F1804F04D07B681B68B5
:10332C00124A934211D17B681B689B6803F0070318
:10333C00FB60FB68062B10D07B681B681A687B68E7
:10334C001B6842F001021A6007E07B681B681A6870
:10335C007B681B6842F001021A6000231846143780
:10336C00BD4680BC704700BF002C014000040040EB
:10337C0080B584B000AF78607B681B68DB68FB604D
:10338C007B681B681B69BB60BB6803F00203002BE6
:10339C0020D0FB6803F00203002B1BD07B681B685A
:1033AC006FF002021A617B6801221A777B681B6836
:1033BC009B6903F00303002B03D0786800F098F9A5
:1033CC0005E0786800F08BF9786800F09AF97B6872
:1033DC0000221A77BB6803F00403002B20D0FB6893
:1033EC0003F00403002B1BD07B681B686FF00402F6
:1033FC001A617B6802221A777B681B689B6903F44D
:10340C004073002B03D0786800F072F905E07868FF
:10341C0000F065F9786800F074F97B6800221A777F
:10342C00BB6803F00803002B20D0FB6803F00803F3
:10343C00002B1BD07B681B686FF008021A617B683D
:10344C0004221A777B681B68DB6903F00303002BEB
:10345C0003D0786800F04CF905E0786800F03FF98B
:10346C00786800F04EF97B6800221A77BB6803F08D
:10347C001003002B20D0FB6803F01003002B1BD093
:10348C007B681B686FF010021A617B6808221A7740
:10349C007B681B68DB6903F44073002B03D07868EE
:1034AC0000F026F905E0786800F019F9786800F06A
:1034BC0028F97B6800221A77BB6803F00103002B04
:1034CC000CD0FB6803F00103002B07D07B681B6852
:1034DC006FF001021A617868FEF72AF9BB6803F0F5
:1034EC008003002B0CD0FB6803F08003002B07D06B
:1034FC007B681B686FF080021A61786800F06FFAC5
:10350C00BB6803F04003002B0CD0FB6803F04003B6
:10351C00002B07D07B681B686FF040021A6178683B
:10352C0000F0F8F8BB6803F02003002B0CD0FB680C
:10353C0003F02003002B07D07B681B686FF0200280
:10354C001A61786800F042FA00BF1037BD4680BDA2
:10355C0080B584B000AF786039600023FB737B6862
:10356C0093F83C30012B01D10223B4E07B6801229B
:10357C0083F83C207B68022283F83D207B681B6823
:10358C009B68BB60BB6823F07703BB60BB6823F40C
:10359C007F43BB607B681B68BA689A603B681B689A
:1035AC00B3F5005F3ED0B3F5005F00F28780B3F552
:1035BC00805F00F08680B3F5805F7FD8702B1AD0C7
:1035CC00702B7BD8602B50D0602B77D8502B3CD0F5
:1035DC00502B73D8402B58D0402B6FD8302B64D045
:1035EC00302B6BD8202B60D0202B67D8002B5CD0D5
:1035FC00102B5AD062E07B6818683B6899683B686E
:10360C005A683B68DB6800F06AF97B681B689B684A
:10361C00BB60BB6843F07703BB607B681B68BA6810
:10362C009A604FE07B6818683B6899683B685A68F9
:10363C003B68DB6800F053F97B681B689A687B6811
:10364C001B6842F480429A603CE07B6818683B68D7
:10365C0059683B68DB681A4600F0CAF87B681B683F
:10366C005021184600F021F92CE07B6818683B6863
:10367C0059683B68DB681A4600F0E8F87B681B6801
:10368C006021184600F011F91CE07B6818683B6853
:10369C0059683B68DB681A4600F0AAF87B681B681F
:1036AC004021184600F001F90CE07B681A683B6871
:1036BC001B681946104600F0F8F803E00123FB7371
:1036CC0000E000BF7B68012283F83D207B6800226C
:1036DC0083F83C20FB7B18461037BD4680BD80B478
:1036EC0083B000AF786000BF0C37BD4680BC70471C
:1036FC0080B483B000AF786000BF0C37BD4680BC8F
:10370C00704780B483B000AF786000BF0C37BD4603
:10371C0080BC704780B483B000AF786000BF0C37BA
:10372C00BD4680BC7047000080B485B000AF7860A7
:10373C0039607B681B68FB607B682B4A934207D01F
:10374C007B68B3F1804F03D07B68284A934208D141
:10375C00FB6823F07003FB603B685B68FA681343FB
:10376C00FB607B68204A934207D07B68B3F1804FA3
:10377C0003D07B681D4A934208D1FB6823F4407345
:10378C00FB603B68DB68FA681343FB60FB6823F063
:10379C0080023B685B691343FB607B68FA681A60C4
:1037AC003B689A687B68DA623B681A687B689A6245
:1037BC007B680D4A934203D13B681A697B681A6394
:1037CC007B6801225A617B681B6903F00103002BA3
:1037DC0005D07B681B6923F001027B681A6100BF6E
:1037EC001437BD4680BC7047002C014000040040DB
:1037FC0080B487B000AFF860B9607A60FB681B6A70
:10380C007B61FB681B6A23F00102FB681A62FB6890
:10381C009B693B613B6923F0F0033B617B681B01B7
:10382C003A6913433B617B6923F00A037B617A6934
:10383C00BB6813437B61FB683A699A61FB687A69E0
:10384C001A6200BF1C37BD4680BC704780B487B07D
:10385C0000AFF860B9607A60FB681B6A7B61FB683B
:10386C001B6A23F01002FB681A62FB689B693B61C0
:10387C003B6923F470433B617B681B033A69134338
:10388C003B617B6923F0A0037B61BB681B017A69F8
:10389C0013437B61FB683A699A61FB687A691A6227
:1038AC0000BF1C37BD4680BC704780B485B000AFEC
:1038BC00786039607B689B68FB60FB6823F0700361
:1038CC00FB603A68FB68134343F00703FB607B68BB
:1038DC00FA689A6000BF1437BD4680BC704780B44C
:1038EC0087B000AFF860B9607A603B60FB689B689A
:1038FC007B617B6923F47F437B613B681A027B68A5
:10390C001A43BB6813437A6913437B61FB687A697A
:10391C009A6000BF1C37BD4680BC704780B485B030
:10392C0000AF786039607B6893F83C30012B01D193
:10393C00022341E07B68012283F83C207B68022251
:10394C0083F83D207B681B685B68FB607B681B68A9
:10395C009B68BB60FB6823F07003FB603B681B68D3
:10396C00FA681343FB607B681B68FA685A607B68D3
:10397C001B68144A934209D07B681B68B3F1804FD3
:10398C0004D07B681B68104A93420CD1BB6823F0AF
:10399C008003BB603B685B68BA681343BB607B68A1
:1039AC001B68BA689A607B68012283F83D207B68AB
:1039BC00002283F83C20002318461437BD4680BCF7
:1039CC00704700BF002C01400004004080B483B05D
:1039DC0000AF786000BF0C37BD4680BC704780B428
:1039EC0083B000AF786000BF0C37BD4680BC704719
:1039FC0070B500260C4D0D4C641BA410A64209D1C9
:103A0C0000F022F800260A4D0A4C641BA410A642B2
:103A1C0005D170BD55F8043B98470136EEE755F8D3
:103A2C00043B98470136F2E7903A0008903A0008B8
:103A3C00903A0008943A000803460244934200D19D
:103A4C00704703F8011BF9E7F8B500BFF8BC08BCD8
:103A5C009E467047F8B500BFF8BC08BC9E46704740
:103A6C000000000000000000010203040607080922
:103A7C0002030405060708090A0B0C0D0E0F1010A3
:043A8C000102000033
:043A900031010008F8
:043A94000D01000818
:103A980000100140001001400010014000200040CB
:103AA80000800B0000127A001000000001000000E6
:04000005080023DDEF
:00000001FF
