:020000040800F2
:100000000028002061230008951D00089B1D0008A2
:10001000A11D0008A71D0008AD1D0008000000007C
:10002000000000000000000000000000B31D0008F8
:10003000BF1D000800000000CB1D0008D71D0008F0
:10004000A9230008A9230008A9230008A923000860
:10005000A9230008A9230008A9230008A923000850
:10006000A9230008A9230008A9230008A923000840
:10007000A9230008A9230008A9230008A923000830
:10008000A9230008A9230008A9230008A923000820
:10009000A9230008A9230008A9230008A923000810
:1000A000A9230008A9230008A9230008A923000800
:1000B000E51D0008A923000800000000A92300088E
:1000C000A92300080000000000000000A923000888
:1000D00000000000A9230008A92300080000000078
:1000E000A9230008A9230008A92300080000000094
:1000F0000000000000000000000000000000000000
:0C01000000000000000000005FF808F1A3
:10010C0010B5054C237833B9044B13B10448AFF345
:10011C0000800123237010BD20000020000000008F
:10012C00D839000808B5034B1BB103490348AFF39A
:10013C00008008BD0000000024000020D839000811
:10014C0080B500AF01224FF48041084802F029FC31
:10015C0001224FF40041054802F023FC0A2000F074
:10016C00CFF80A2000F07EFA00BF80BD000C0140E1
:10017C0080B500AF184B1B68002B15D1092000F07F
:10018C00BFF8092000F06EFA00224FF480411348AA
:10019C0002F007FC01224FF40041104802F001FC70
:1001AC000D4B01221A6014E0092000F0A9F8092077
:1001BC0000F058FA01224FF48041084802F0F1FB9C
:1001CC0000224FF40041054802F0EBFB024B0022E9
:1001DC001A6000BF80BD00BF3C000020000C014035
:1001EC0080B500AF1C4B1B68002B19D11B4B1B6837
:1001FC00184600F085F8194B5B68184600F032FA87
:10020C0000224FF48041164802F0CBFB01224FF440
:10021C000041134802F0C5FB0F4B01221A6018E095
:10022C000E4B9B68184600F06BF80C4BDB681846BD
:10023C0000F018FA01224FF48041094802F0B1FB9A
:10024C0000224FF40041064802F0ABFB024B0022A7
:10025C001A6000BF80BD00BF3C00002040000020A1
:10026C00000C014080B485B000AF786039607B68C9
:10027C00204A82FB03125211DB17D31AFB603B6836
:10028C001C4A82FB03125211DB17D31ABB60FB68AA
:10029C00194A82FB03129210DB17D31A174A136008
:1002AC00F968154B83FB01239A10CB17D21A13460E
:1002BC009B0013445B00CA1A104B5A60BB680E4A71
:1002CC0082FB03129210DB17D31A0C4A9360B968A5
:1002DC00094B83FB01239A10CB17D21A13469B00B0
:1002EC0013445B00CA1A054BDA6000BF1437BD46D5
:1002FC0080BC70471F85EB51676666664000002026
:10030C0080B582B000AF78607B68092B00F28081E9
:10031C0001A252F823F000BF4D030008950300081A
:10032C00DD030008250400086D040008B50400086E
:10033C00FD040008450500088D050008D5050008DA
:10034C0000220121C64802F02CFB00220221C448E5
:10035C0002F027FB00220421C14802F022FB0022FC
:10036C000821BF4802F01DFB00221021BC4802F0FE
:10037C0018FB00222021BA4802F013FB0122402175
:10038C00B74802F00EFB67E101220121B44802F0EC
:10039C0008FB00220221B24802F003FB00220421D8
:1003AC00AF4802F0FEFA01220821AD4802F0F9FA3A
:1003BC0001221021AA4802F0F4FA01222021A848B7
:1003CC0002F0EFFA01224021A54802F0EAFA43E1DB
:1003DC0000220121A24802F0E4FA00220221A048E6
:1003EC0002F0DFFA012204219D4802F0DAFA002221
:1003FC0008219B4802F0D5FA00221021984802F0FF
:10040C00D0FA01222021964802F0CBFA002240219A
:10041C00934802F0C6FA1FE100220121904802F035
:10042C00C0FA002202218E4802F0BBFA00220421FD
:10043C008B4802F0B6FA00220821894802F0B1FA82
:10044C0001221021864802F0ACFA012220218448B6
:10045C0002F0A7FA00224021814802F0A2FAFBE048
:10046C00012201217E4802F09CFA002202217C48E4
:10047C0002F097FA00220421794802F092FA012244
:10048C000821774802F08DFA01221021744802F0FD
:10049C0088FA00222021724802F083FA00224021BF
:1004AC006F4802F07EFAD7E0002201216C4802F07E
:1004BC0078FA012202216A4802F073FA0022042120
:1004CC00674802F06EFA00220821654802F069FACA
:1004DC0001221021624802F064FA002220216048B7
:1004EC0002F05FFA002240215D4802F05AFAB3E0B4
:1004FC00002201215A4802F054FA012202215848E4
:10050C0002F04FFA00220421554802F04AFA002268
:10051C000821534802F045FA00221021504802F0FD
:10052C0040FA002220214E4802F03BFA00224021E2
:10053C004B4802F036FA8FE000220121484802F0C5
:10054C0030FA00220221464802F02BFA0022042144
:10055C00434802F026FA01220821414802F021FA10
:10056C00012210213E4802F01CFA012220213C48B5
:10057C0002F017FA01224021394802F012FA6BE01E
:10058C0000220121364802F00CFA002202213448E4
:10059C0002F007FA00220421314802F002FA00228C
:1005AC0008212F4802F0FDF9002210212C4802F0FE
:1005BC00F8F9002220212A4802F0F3F90022402108
:1005CC00274802F0EEF947E000220121244802F00E
:1005DC00E8F900220221224802F0E3F9002204216A
:1005EC001F4802F0DEF9002208211D4802F0D9F95B
:1005FC00012210211A4802F0D4F9002220211848B7
:10060C0002F0CFF900224021154802F0CAF923E08C
:10061C0001220121124802F0C4F9012202211048E2
:10062C0002F0BFF9012204210D4802F0BAF90122AF
:10063C0008210B4802F0B5F901221021084802F0FC
:10064C00B0F901222021064802F0ABF90122402129
:10065C00034802F0A6F900BF00BF0837BD4680BDB5
:10066C00000C014080B582B000AF78607B68092B2C
:10067C0000F2BE8101A252F823F000BFB1060008BF
:10068C000507000859070008AD0700080108000815
:10069C0055080008A9080008FD08000851090008C1
:1006AC00A509000800228021D04802F07AF9002226
:1006BC004FF48071CD4802F074F900224FF40071B0
:1006CC00CA4802F06EF900224FF48061C74802F06C
:1006DC0068F900224FF40061C44802F062F900226C
:1006EC004FF48051C14802F05CF901224FF40051E3
:1006FC00BE4802F056F9A5E101228021BB4802F068
:10070C0050F900224FF48071B84802F04AF90022E7
:10071C004FF40071B54802F044F901224FF48061A6
:10072C00B24802F03EF901224FF40061AF4802F0EA
:10073C0038F901224FF48051AC4802F032F9012211
:10074C004FF40051A94802F02CF97BE100228021E2
:10075C00A64802F026F900224FF48071A34802F05B
:10076C0020F901224FF40071A04802F01AF900227E
:10077C004FF480619D4802F014F900224FF400619F
:10078C009A4802F00EF901224FF48051974802F07A
:10079C0008F900224FF40051944802F002F951E19B
:1007AC0000228021914802F0FCF800224FF4807165
:1007BC008E4802F0F6F800224FF400718B4802F0DC
:1007CC00F0F800224FF48061884802F0EAF8012228
:1007DC004FF40061854802F0E4F801224FF4805197
:1007EC00824802F0DEF800224FF400517F4802F0FC
:1007FC00D8F827E1012280217C4802F0D2F80022AF
:10080C004FF48071794802F0CCF800224FF400715B
:10081C00764802F0C6F801224FF48061734802F06A
:10082C00C0F801224FF40061704802F0BAF80022BF
:10083C004FF480516D4802F0B4F800224FF400518F
:10084C006A4802F0AEF8FDE000228021674802F011
:10085C00A8F801224FF48071644802F0A2F800223B
:10086C004FF40071614802F09CF800224FF4806153
:10087C005E4802F096F801224FF400615B4802F0EA
:10088C0090F800224FF48051584802F08AF8002268
:10089C004FF40051554802F084F8D3E00022802137
:1008AC00524802F07EF801224FF480714F4802F05A
:1008BC0078F800224FF400714C4802F072F80022D4
:1008CC004FF48061494802F06CF800224FF400614B
:1008DC00464802F066F800224FF48051434802F07B
:1008EC0060F800224FF40051404802F05AF8A9E099
:1008FC00002280213D4802F054F800224FF4807110
:10090C003A4802F04EF800224FF40071374802F0DA
:10091C0048F801224FF48061344802F042F8012279
:10092C004FF40061314802F03CF801224FF4805141
:10093C002E4802F036F801224FF400512B4802F0F9
:10094C0030F87FE000228021284802F02AF80022AB
:10095C004FF48071254802F024F800224FF4007106
:10096C00224802F01EF800224FF480611F4802F06A
:10097C0018F800224FF400611C4802F012F8002213
:10098C004FF48051194802F00CF800224FF400513A
:10099C00164802F006F855E000228021134802F0B8
:1009AC0000F800224FF48071104801F0FAFF002289
:1009BC004FF400710D4801F0F4FF00224FF48061F8
:1009CC000A4801F0EEFF01224FF40061074801F0E4
:1009DC00E8FF00224FF48051044801F0E2FF0022AE
:1009EC004FF40051014801F0DCFF2BE0000C0140FA
:1009FC0001228021154801F0D4FF01224FF48071AF
:100A0C00124801F0CEFF01224FF400710F4801F0A3
:100A1C00C8FF01224FF480610C4801F0C2FF012293
:100A2C004FF40061094801F0BCFF01224FF48051E2
:100A3C00064801F0B6FF01224FF40051034801F0C3
:100A4C00B0FF00BF00BF0837BD4680BD000C0140A1
:100A5C0080B500AF2021024801F0BBFF00BF80BD74
:100A6C000008014080B500AF40F61211024801F0B9
:100A7C00B0FF00BF80BD00BF0008014080B500AFD3
:100A8C0041F24421024801F0A4FF00BF80BD00BF29
:100A9C000008014080B500AF42F28841024801F0E5
:100AAC0098FF00BF80BD00BF0008014080B500AFBB
:100ABC004FF40251024801F08CFF00BF80BD00BF13
:100ACC000008014080B483B000AF00237B603FE09E
:100ADC00244A7B68012142F82310224A7B6852F891
:100AEC00232021497B6841F823201F4A7B6852F858
:100AFC0023201E497B6841F823201D4A7B68012175
:100B0C0042F823101B4A7B68002142F823101A4A32
:100B1C007B68002142F82310184A7B68002142F8B8
:100B2C002310174A7B68002142F82310154A7B6872
:100B3C00002142F82310144A7B68002142F823104C
:100B4C00124A7B68002142F823107B6801337B60DA
:100B5C007B68022BBCDD00BF00BF0C37BD4680BCE0
:100B6C00704700BF680000205C000020500000208F
:100B7C0074000020800000208C00002098000020D1
:100B8C00A4000020B0000020BC000020C800002001
:100B9C0080B582B000AF00237B60DDE0734A7B68D8
:100BAC0052F8232072497B6841F82320714A7B68F4
:100BBC0052F823206D497B6841F823206E4A7B68EC
:100BCC0052F823206D497B6831F8133019461046D2
:100BDC0001F0D0FE03461946664A7B6842F82310A2
:100BEC00634A7B6852F8232060497B6851F82330B4
:100BFC009A4240F0AE805D4A7B6852F823205D49F2
:100C0C007B6851F823309A4240F0A3805C4A7B68A1
:100C1C0052F8232057497B6851F823309A424ED022
:100C2C00574A7B6852F82330002B34D1514A7B68E9
:100C3C0052F82330012B2ED1524A7B68012142F805
:100C4C002310514A7B6852F823305A1C4E497B685A
:100C5C0041F823204C4A7B6852F82330012B05D1F4
:100C6C004A4A7B68282142F8231014E0464A7B68E4
:100C7C0052F82330022B0ED1454A7B68012142F8F1
:100C8C002310414A7B68002142F823103F4A7B68BD
:100C9C00002142F82310374A7B6852F82320384948
:100CAC007B6841F82320334A7B6852F82330002BB1
:100CBC002AD1384A7B68642142F8231024E02D4A5B
:100CCC007B6852F82330002B1ED1324A7B6852F8D5
:100CDC002330002B18DD2F4A7B6852F823305A1E24
:100CEC002C497B6841F823202A4A7B6852F8233030
:100CFC00002B09DC284A7B68012142F82310254A85
:100D0C007B68322142F82310204A7B6852F823304A
:100D1C00002B1EDD1D4A7B6852F823305A1E1B49DE
:100D2C007B6841F82320194A7B6852F82330002B4A
:100D3C000FD1154A7B6852F82330012B04D1174A86
:100D4C007B68012142F823100F4A7B68002142F88E
:100D5C0023107B6801337B607B68022B7FF71EAF0F
:100D6C0000BF00BF0837BD4680BD00BF5C0000203F
:100D7C005000002068000020000000200C00002023
:100D8C0074000020A4000020BC000020C80000203B
:100D9C00B000002080000020980000208C00002073
:100DAC0080B483B000AF78607B68002B02DB7B687B
:100DBC00022B01DD00230DE0094A7B6852F8233039
:100DCC00012B06D1064A7B68002142F8231001232F
:100DDC0000E0002318460C37BD4680BC704700BFAE
:100DEC008C00002080B483B000AF78607B68002B4F
:100DFC0002DB7B68022B01DD00230DE0094A7B68D6
:100E0C0052F82330012B06D1064A7B68002142F8A8
:100E1C002310012300E0002318460C37BD4680BC8C
:100E2C00704700BF9800002080B483B000AF78609A
:100E3C007B68002B02DB7B68022B01DD00230DE0BD
:100E4C00094A7B6852F82330012B06D1064A7B688D
:100E5C00002142F82310012300E0002318460C3730
:100E6C00BD4680BC704700BFB000002080B500AF0D
:100E7C000020FFF795FF0346002B23D0144B0122D3
:100E8C001A60144B1B68013B032B1DD801A252F8AE
:100E9C0023F000BFB10E0008B90E0008C10E000807
:100EAC00C90E00080C4B02221A600EE00A4B0322FA
:100EBC001A600AE0084B04221A6006E0064B012275
:100ECC001A6002E000BF00E000BF00BF80BD00BFA1
:100EDC00EC000020E4000020E800002080B500AF0A
:100EEC00174B1B68032B29D10120FFF759FF034631
:100EFC00002B05D10120FFF775FF0346002B03D013
:100F0C00104B01221A7019E00220FFF749FF03462B
:100F1C00002B05D10220FFF765FF0346002B03D001
:100F2C00084B02221A7009E00220FFF77DFF0346EE
:100F3C00002B03D0034B03221A70FFE700BF80BDC8
:100F4C00E4000020F000002080B500AF074B1B68C8
:100F5C00042B08D10120FFF767FF0346002B02D0BA
:100F6C00034B01221A6000BF80BD00BFE4000020CB
:100F7C00F400002080B500AF40F6B8324FF4FA61AF
:100F8C0041F2883001F028F800BF80BD80B500AF79
:100F9C00424B1B78022B49D0022B76DC002B02D063
:100FAC00012B2AD071E0032000F068FE0346002BD1
:100FBC0005D0FFF757FDFA21032000F007FE0420AF
:100FCC0000F05CFE0346002B05D0FFF7D1F8502152
:100FDC00042000F0FBFD324B1B68002B57D02F4B2D
:100FEC0001221A702F4B00221A70FFF7A9F800F09B
:100FFC0003FF2B4B00221A6049E001F001F9284B4A
:10100C001B68002B45D0254B02221A70FFF798F86D
:10101C0000F0F2FEFA21032000F0D8FD502104204C
:10102C0000F0D4FD1E4B00221A6032E0032000F0C9
:10103C0025FE0346002B05D0FFF720FDFA210320E7
:10104C0000F0C4FD042000F019FE0346002B05D06F
:10105C00FFF78EF85021042000F0B8FD104B1B68F0
:10106C00002B18D00D4B00221A70FFF769F800F016
:10107C00C3FEFA21032000F0A9FD5021042000F04A
:10108C00A5FD074B00221A6005E000BF04E000BF7D
:10109C0002E000BF00E000BF00BF80BDF1000020F7
:1010AC00F4000020F401002080B500AFA54B1B78A4
:1010BC000B3B032B00F2438101A252F823F000BF3B
:1010CC00DD10000899110008591200081F130008C0
:1010DC00032000F0D3FD0346002B05D0FFF7C2FC24
:1010EC00FA21032000F072FD052000F0C7FD034635
:1010FC00002B0DD0944B1B68642202FB03F364217C
:10110C001846FFF7AFF84FF4FA71052000F05EFDBA
:10111C00042000F0B3FD0346002B05D0FFF760F868
:10112C005021042000F052FD884B1B78032B1AD061
:10113C00032B22DC012B02D0022B0AD01DE0824BA8
:10114C001B68622B1BDC804B1B6801337E4A1360CF
:10115C0015E07D4B1B68012B13DD7B4B1B68013BA2
:10116C00794A13600DE000F047FE764B0C221A70A2
:10117C00FA21032000F02AFD04E000BF02E000BFCA
:10118C0000E000BF714B00221A70D9E0032000F080
:10119C0075FD0346002B05D0FFF770FCFA210320E8
:1011AC0000F014FD052000F069FD0346002B0DD066
:1011BC00674B1B68642202FB03F3C8211846FFF738
:1011CC0051F84FF4FA71052000F000FD042000F0F6
:1011DC0055FD0346002B05D0FFF702F850210420E3
:1011EC0000F0F4FC594B1B78032B1CD0032B24DC94
:1011FC00012B02D0022B0CD01FE0554B1A68524B1E
:10120C001B689A421BDA524B1B680133504A13601D
:10121C0015E04F4B1B68012B13DD4D4B1B68013B3D
:10122C004B4A13600DE000F0E7FD464B0D221A709F
:10123C00FA21032000F0CAFC04E000BF02E000BF6A
:10124C0000E000BF414B00221A7079E0032000F04F
:10125C0015FD0346002B05D0FFF71CFCFA210320DB
:10126C0000F0B4FC052000F009FD0346002B0ED065
:10127C00384B1B68642202FB03F34FF4967118463B
:10128C00FEF7F0FF4FF4FA71052000F09FFC0420EC
:10129C0000F0F4FC0346002B05D0FEF7A1FF502113
:1012AC00042000F093FC294B1B78032B1FD0032B3D
:1012BC0026DC012B02D0022B0FD021E0224B1A6826
:1012CC00234B1B68D21A234B1B689A421ADD214B05
:1012DC001B6801331F4A136014E01E4B1B68012B63
:1012EC0012DD1C4B1B68013B1A4A13600CE000F02A
:1012FC0083FD194B00221A70124B0E221A7004E057
:10130C0000BF02E000BF00E000BF104B00221A70CB
:10131C0016E00D4B1B684FF47A7202FB03F00C4B7A
:10132C001B684FF47A7202FB03F10A4B1B684FF4F3
:10133C007A7202FB03F31A4600F04EFE00E000BF87
:10134C0000BF80BD12000020D4000020F00000205F
:10135C00D8000020DC000020F401002080B582B011
:10136C0000AF78607B68013B032B2ED801A252F8AA
:10137C0023F000BF911300089B130008AB13000867
:10138C00C113000800F038FDFEF7DAFE1EE0FEF790
:10139C00D7FE00F031FD0F4B00221A7016E0FEF75D
:1013AC00CFFE00F029FD0C4B0B221A70094B0022CA
:1013BC001A700BE0FEF7C4FE00F01EFD054B002278
:1013CC001A70064B00221A7000E000BF00BF0837ED
:1013DC00BD4680BDF401002012000020F100002069
:1013EC0080B582B000AF78607B68013B032B14D8CA
:1013FC0001A252F823F000BF2714000815140008AE
:10140C001B14000821140008FFF7B4FD06E0FFF7D9
:10141C004BFE03E0FFF7BAFD00E000BF00BF08374A
:10142C00BD4680BD80B500AF002000F027FC034610
:10143C00002B06D0FFF70CFB4FF47A71002000F064
:10144C00C5FB104B1A68104B1B689A4208D00E4B08
:10145C001B681846FFF782FF0B4B1B68094A136089
:10146C00094B1B681846FFF7BBFF084B1B68002B8A
:10147C0006D0074B1B68044A1360044B00221A6009
:10148C0000BF80BDE0000020E4000020EC00002044
:10149C00E800002080B500AF064B01221A60064B15
:1014AC0001221A60FFF70EFB642000F063FB00BF03
:1014BC0080BD00BFE4000020E800002080B500AF34
:1014CC0000F06EFF00F03AF800F0C0F800F072F88F
:1014DC00134801F0C3FEFFF7DDFF00F038F90A22D4
:1014EC000021104800F05AF90A2200210E4800F0A1
:1014FC0055F90A2200210D4800F050F90A2200216A
:10150C000B4800F04BF90A2200210A4800F046F97A
:10151C000A220A21084800F041F900F0E5FAFCE73C
:10152C00F8010020291C00089D0B0008790E00080A
:10153C00E90E0008550F00083114000880B590B072
:10154C0000AF07F1180328220021184602F036FAE2
:10155C003B1D00221A605A609A60DA601A610223FD
:10156C00BB610123BB621023FB6200237B6307F189
:10157C001803184601F046FA0346002B01D000F080
:10158C00E1F80F237B600023BB600023FB6000238A
:10159C003B6100237B613B1D0021184601F0B2FC2E
:1015AC000346002B01D000F0CDF800BF4037BD46FC
:1015BC0080BD000080B586B000AF07F108030022A3
:1015CC001A605A609A60DA603B4600221A605A60D0
:1015DC001D4B4FF080421A601B4B41F63F725A6014
:1015EC00194B00229A60184B0922DA60164B002224
:1015FC001A61154B00229A61134801F0DFFD034676
:10160C00002B01D000F09EF84FF48053BB6007F123
:10161C00080319460C4801F05DFF0346002B01D06E
:10162C0000F090F800233B6000237B603B4619469A
:10163C00054802F035F90346002B01D000F082F882
:10164C0000BF1837BD4680BDF801002080B588B0BA
:10165C0000AF07F1100300221A605A609A60DA603A
:10166C002F4B9B692E4A43F0100393612C4B9B69C3
:10167C0003F01003FB60FB68294B9B69284A43F07D
:10168C0004039361264B9B6903F00403BB60BB68A6
:10169C00234B9B69224A43F008039361204B9B69BF
:1016AC0003F008037B607B68002243F6FE711D4843
:1016BC0001F077F900224FF6FF711B4801F071F928
:1016CC004FF460433B6100237B610123BB6107F155
:1016DC0010031946154800F0D3FF43F6FE733B6127
:1016EC0001237B610023BB610223FB6107F1100323
:1016FC0019460C4800F0C4FF4FF6FF733B61012301
:10170C007B610023BB610223FB6107F110031946C7
:10171C00054800F0B5FF00BF2037BD4680BD00BFB7
:10172C000010024000080140000C01400010014074
:10173C0080B582B000AF786000F010F800BF0837B9
:10174C00BD4680BD80B400AF72B600BFFEE780B569
:10175C0000AF00F0F1F900BF80BD000080B400AF15
:10176C000D4B1B68002B13D00B4B1B7B002B0FD18D
:10177C00094B5B68002B04D0074B5B68013B064AA6
:10178C005360054B5B68002B02D1034B01221A738B
:10179C0000BFBD4680BC7047F8000020B0B588B0D3
:1017AC0000AFF860B9607A600023FB770023BB615F
:1017BC0000233B610023FB77E7E0FA7F7749134670
:1017CC009B0013449B000B4404331B68BA691344FD
:1017DC00BB61BA69BB689A427CD9FA7F6F491346E0
:1017EC009B0013449B000B4404331A68BB69D31A47
:1017FC00BA6813443B61FA7FB969BB68C91A674878
:10180C0013469B0013449B000344043319600923C3
:10181C007B6117E07B695A1E604879690B469B0017
:10182C000B449B0018445D4913469B0013449B00DA
:10183C000B4404461D460FCD0FC42B6823607B69F7
:10184C00013B7B61FB7F7A699A42E3DCFA7F534967
:10185C0013469B0013449B000B44FA681A60FA7FF2
:10186C004E4913469B0013449B000B4404333A69C6
:10187C001A60FA7F494913469B0013449B000B44A2
:10188C0008337A681A603B69002B0CBF01230023D4
:10189C00DBB2FA7F1846414913469B0013449B0068
:1018AC000B440C3302461A70FC7F00F04BF90246D5
:1018BC003A4923469B0023449B000B4410331A6087
:1018CC00FA7F364913469B0013449B000B4410339C
:1018DC001B685FE0FA7F314913469B0013449B0061
:1018EC000B441B68002B4DD1FA7F2C4913469B00EF
:1018FC0013449B000B44FA681A60FA7FB968BB6901
:10190C00C91A264813469B0013449B000344043316
:10191C001960FA7F214913469B0013449B000B442A
:10192C0008337A681A60FA7F1C4913469B001344EB
:10193C009B000B4404331B68002B0CBF01230023BA
:10194C00DBB2FA7F1846154913469B0013449B00E3
:10195C000B440C3302461A70FC7F00F0F3F802467D
:10196C000E4923469B0023449B000B4410331A6002
:10197C00FA7F0A4913469B0013449B000B44103317
:10198C001B6807E0FB7F0133FB77FB7F092B7FF69E
:10199C0014AF002318462037BD46B0BDF800002018
:1019AC00B0B485B000AF78607B68002B00F09380FA
:1019BC000023FB738BE0FA7B4A4913469B001344CC
:1019CC009B000B4410331B687A689A427CD1FB7BDA
:1019DC00082B28D8FB7B5A1C424913469B00134406
:1019EC009B000B441B68002B1DD0FB7B5A1C3D49F4
:1019FC0013469B0013449B000B4404331968FA7B79
:101A0C00384813469B0013449B00034404331B6863
:101A1C00FA7B01321944334813469B0013449B0054
:101A2C00034404331960FB7BBB7317E0BB7B5A1C6C
:101A3C00B97B2C480B469B000B449B00184429494E
:101A4C0013469B0013449B000B4404461D460FCDCC
:101A5C000FC42B682360BB7B0133BB73BB7B082B90
:101A6C00E4D9BA7B1F4913469B0013449B000B44DB
:101A7C0000221A60BA7B1B4913469B0013449B003F
:101A8C000B44043300221A60BA7B164913469B00A0
:101A9C0013449B000B44083300221A60BA7B114993
:101AAC0013469B0013449B000B440C3300221A700A
:101ABC00BA7B0C4913469B0013449B000B44103318
:101ACC0000221A60012307E0FB7B0133FB73FB7BD5
:101ADC00092B7FF670AF002318461437BD46B0BCF7
:101AEC00704700BFF8000020B0B586B000AF114BB6
:101AFC001B7B002B19D00F4B1B6898470D4B0022FA
:101B0C001A730C4B3C1D1D460FCD0FC42B68236064
:101B1C007B691846FFF744FFFB68002B05D07B68F8
:101B2C00F968FA681846FFF739FE00BF1837BD464A
:101B3C00B0BD00BFF800002080B400AF00BFBD46B0
:101B4C0080BC704780B400AF094B1B680133084A56
:101B5C001360074B1B68002B04D1054B1B6801332A
:101B6C00034A1360024B1B681846BD4680BC704785
:101B7C00C001002080B485B000AF78607B68104A4B
:101B8C0082FB03129210DB17D31ABB600023FB609D
:101B9C000CE00C49FB68BA6841F823200A4AFB6840
:101BAC00002142F82310FB680133FB60FB68052B16
:101BBC00EFDD00BF00BF1437BD4680BC704700BFCF
:101BCC0067666666C4010020DC01002080B483B027
:101BDC0000AF786039607B68002B13DB7B68052BCA
:101BEC0010DC3B680A4A82FB03129210DB17D21AF4
:101BFC0008497B6841F82320074A7B68002142F89A
:101C0C00231000E000BF0C37BD4680BC704700BFFE
:101C1C0067666666C4010020DC01002080B483B0D6
:101C2C0000AF00237B601CE0124A7B6852F8233023
:101C3C00002B13DD0F4A7B6852F823305A1E0D49D6
:101C4C007B6841F823200B4A7B6852F82330002B29
:101C5C0004DC094A7B68012142F823107B680133BC
:101C6C007B607B68052BDFDD00BF00BF0C37BD46FA
:101C7C0080BC7047C4010020DC01002080B483B01C
:101C8C0000AF78607B68002B02DB7B68052B01DDE5
:101C9C00002303E0044A7B6852F8233018460C37C3
:101CAC00BD4680BC704700BFDC01002080B483B00F
:101CBC0000AF78607B68002B02DB7B68052B01DDB5
:101CCC00002303E0044A7B6852F8233018460C3793
:101CDC00BD4680BC704700BFC401002080B485B0F5
:101CEC0000AF154B9B69144A43F001039361124BEF
:101CFC009B6903F00103BB60BB680F4BDB690E4AA9
:101D0C0043F08053D3610C4BDB6903F080537B6051
:101D1C007B680A4B5B68FB60FB6823F0E063FB604D
:101D2C00FB6843F08063FB60044AFB68536000BFB0
:101D3C001437BD4680BC70470010024000000140C3
:101D4C0080B584B000AF78607B681B68B3F1804FBE
:101D5C0013D10C4BDB690B4A43F00103D361094BE4
:101D6C00DB6903F00103FB60FB68002200211C20EF
:101D7C0000F04FFC1C2000F068FC00BF1037BD4683
:101D8C0080BD00BF0010024080B400AFFEE780B4FD
:101D9C0000AFFEE780B400AFFEE780B400AFFEE713
:101DAC0080B400AFFEE780B400AF00BFBD4680BC7E
:101DBC00704780B400AF00BFBD4680BC704780B494
:101DCC0000AF00BFBD4680BC704780B500AF00F0CF
:101DDC002DFB00BF80BD000080B500AF024801F0B4
:101DEC0089FA00BF80BD00BFF801002080B400AFAD
:101DFC0000BFBD4680BC704780B500AF01220221F8
:101E0C00204800F0CEFD012204211E4800F0C9FD3F
:101E1C00012208211B4800F0C4FD012210211948A1
:101E2C0000F0BFFD01224021164800F0BAFD01224E
:101E3C008021144800F0B5FD01224FF48071114847
:101E4C0000F0AFFD01224FF400710E4800F0A9FD27
:101E5C0001224FF480610B4800F0A3FD01224FF4E6
:101E6C000061084800F09DFD01224FF480510548A7
:101E7C0000F097FD01224FF40051024800F091FD53
:101E8C0000BF80BD0008014080B500AF00220221D8
:101E9C000A4800F086FD01220421084800F081FD6B
:101EAC0000224FF48071054800F07BFD01224FF4B5
:101EBC000071024800F075FD00BF80BD00080140B4
:101ECC0080B500AF012202210A4800F06AFD002211
:101EDC000821084800F065FD01224FF48071054887
:101EEC0000F05FFD00224FF48061024800F059FDC4
:101EFC0000BF80BD0008014080B500AF0122082161
:101F0C000A4800F04EFD00220421084800F049FD6B
:101F1C0001224FF48061054800F043FD00224FF48C
:101F2C000071024800F03DFD00BF80BD000801407B
:101F3C0080B500AF002210210A4800F032FD0122CA
:101F4C004021084800F02DFD00224FF400610548A7
:101F5C0000F027FD01224FF48051024800F021FDD2
:101F6C0000BF80BD0008014080B500AF01221021E8
:101F7C000A4800F016FD00228021084800F011FDEF
:101F8C0001224FF40061054800F00BFD00224FF4D4
:101F9C000051024800F005FD00BF80BD0008014063
:101FAC0080B500AF012280210A4800F0FAFC002223
:101FBC004021084800F0F5FC01224FF4005105487F
:101FCC0000F0EFFC00224FF48051024800F0E9FCD5
:101FDC0000BF80BD0008014090B585B000AFF8602F
:101FEC00B9607A60854B1B78042B00F2FA8001A251
:101FFC0052F823F0152000083D200008A920000805
:10200C0017210008812100087C4B01221A70F96805
:10201C000120FFF7DBFD79680220FFF7D7FD0A21CD
:10202C000420FFF7D3FD0A210520FFF7CFFDE1E0E7
:10203C00FFF72AFFFFF798FF0520FFF71FFE034667
:10204C00002B10D00120FFF731FE04460220FFF7D1
:10205C002DFE034619462046FEF704F94FF4FA719B
:10206C000520FFF7B3FD0420FFF708FE0346002B05
:10207C0005D0FEF7B5F850210420FFF7A7FD02208C
:10208C00FFF7FCFD0346002B00F0AD805B4B0222FA
:10209C001A70B9680220FFF799FDA4E0FFF780FFE2
:1020AC000520FFF7EBFD0346002B10D00120FFF7B6
:1020BC00FDFD04460220FFF7F9FD034619462046B4
:1020CC00FEF7D0F84FF4FA710520FFF77FFD0420DE
:1020DC00FFF7D4FD0346002B05D0FEF781F8502105
:1020EC000420FFF773FD0120FFF7C8FD0346002B0A
:1020FC007BD0424B03221A7079680120FFF766FDF2
:10210C00F9680220FFF762FD6FE0FFF7D9FEFFF7D9
:10211C000FFF0520FFF7B2FD0346002B10D0012066
:10212C00FFF7C4FD04460220FFF7C0FD0346194625
:10213C002046FEF797F84FF4FA710520FFF746FD9D
:10214C000420FFF79BFD0346002B05D0FEF748F853
:10215C0050210420FFF73AFD0120FFF78FFD0346C5
:10216C00002B44D0254B04221A70B9680120FFF7CC
:10217C002DFD3CE0FFF7C0FE0520FFF77FFD034679
:10218C00002B10D00120FFF791FD04460220FFF731
:10219C008DFD034619462046FEF764F84FF4FA719C
:1021AC000520FFF713FD0420FFF768FD0346002B05
:1021BC0005D0FEF715F850210420FFF707FD01208C
:1021CC00FFF75CFD0346002B13D00C4B01221A7059
:1021DC00F9680120FFF7FAFC79680220FFF7F6FC9A
:1021EC0007E000BF06E000BF04E000BF02E000BF54
:1021FC0000E000BF00BF1437BD4690BDF4010020C5
:10220C0080B500AF514B1B78062B00F28E8001A2DB
:10221C0052F823F03D22000871220008B922000870
:10222C00D12200081F2300088D220008ED2200088F
:10223C000320FFF723FD0346002B05D0FEF712FC0D
:10224C00FA210320FFF7C2FC0120FEF7A9FD03468B
:10225C00002B6CD03D4B01221A70FA210320FFF7A2
:10226C00B5FC64E0FFF710FEFFF77EFE0120FEF7E1
:10227C0097FD0346002B5CD0344B05221A7058E0B6
:10228C000320FFF7FBFC0346002B05D0FEF70EFCEA
:10229C00FA210320FFF79AFC0120FEF781FD03468B
:1022AC00002B48D0294B02221A7044E0FFF778FE2D
:1022BC000120FEF775FD0346002B3ED0234B032275
:1022CC001A703AE0FFF734FEFFF7FAFD0120FEF733
:1022DC0067FD0346002B32D01C4B06221A702EE0F1
:1022EC000320FFF7CBFC0346002B08D04FF4816191
:1022FC00174800F06EFBFA210320FFF767FC012062
:10230C00FEF74EFD0346002B1BD0104B04221A7017
:10231C0017E0FFF7F1FD0120FEF742FD0346002B0D
:10232C0011D00A4B01221A700DE000BF0CE000BF67
:10233C000AE000BF08E000BF06E000BF04E000BFF9
:10234C0002E000BF00E000BF00BF80BDF401002030
:10235C0000080140FFF74AFD0B480C490C4A0023CA
:10236C0002E0D458C4500433C4188C42F9D3094A3F
:10237C00094C002301E013600432A242FBD301F0AC
:10238C00F9FAFFF79BF870470000002020000020AE
:10239C001C3A00082000002044020020FEE7000048
:1023AC0080B500AF084B1B68074A43F0100313605D
:1023BC00032000F023F90F2000F008F8FFF78EFC43
:1023CC000023184680BD00BF0020024080B582B0BB
:1023DC0000AF7860124B1A68124B1B7819464FF4F9
:1023EC007A73B3FBF1F3B2FBF3F3184600F03BF94D
:1023FC000346002B01D001230EE07B680F2B0AD87B
:10240C00002279684FF0FF3000F003F9064A7B6830
:10241C001360002300E0012318460837BD4680BD39
:10242C00140000201C0000201800002080B400AF15
:10243C00054B1B781A46054B1B681344034A136063
:10244C0000BFBD4680BC70471C000020400200202D
:10245C0080B400AF024B1B681846BD4680BC704769
:10246C004002002080B485B000AF78607B6803F038
:10247C000703FB600C4BDB68BB60BA684FF6FF03CD
:10248C001340BB60FB681A02BB68134343F0BF6385
:10249C0043F40033BB60044ABB68D36000BF1437FD
:1024AC00BD4680BC704700BF00ED00E080B400AFBB
:1024BC00044BDB681B0A03F007031846BD4680BCBF
:1024CC00704700BF00ED00E080B483B000AF03465E
:1024DC00FB7197F90730002B0BDBFB7903F01F0224
:1024EC00064997F907305B09012000FA02F241F81E
:1024FC00232000BF0C37BD4680BC704700E100E0D4
:10250C0080B483B000AF03463960FB7197F9073094
:10251C00002B0ADB3B68DAB20C4997F90730120141
:10252C00D2B20B4483F800230AE03B68DAB20849C4
:10253C00FB7903F00F03043B1201D2B20B441A7661
:10254C0000BF0C37BD4680BC704700BF00E100E007
:10255C0000ED00E080B489B000AFF860B9607A603B
:10256C00FB6803F00703FB61FB69C3F10703042B52
:10257C0028BF0423BB61FB690433062B02D9FB691A
:10258C00033B00E000237B614FF0FF32BB6902FA92
:10259C0003F3DA43BB681A407B699A404FF0FF3172
:1025AC007B6901FA03F3D9437B680B40134318464C
:1025BC002437BD4680BC704780B582B000AF7860D0
:1025CC007B68013BB3F1807F01D301230FE00A4A02
:1025DC007B68013B53600F214FF0FF30FFF790FFFA
:1025EC00054B00229A60044B07221A600023184600
:1025FC000837BD4680BD00BF10E000E080B582B05A
:10260C0000AF78607868FFF72DFF00BF0837BD4634
:10261C0080BD80B586B000AF0346B9607A60FB73AD
:10262C0000237B61FFF742FF78617A68B9687869AB
:10263C00FFF790FF024697F90F3011461846FFF747
:10264C005FFF00BF1837BD4680BD80B582B000AFBC
:10265C000346FB7197F907301846FFF735FF00BFAB
:10266C000837BD4680BD80B582B000AF7860786811
:10267C00FFF7A2FF034618460837BD4680BD000091
:10268C0080B48BB000AF7860396000237B6200238C
:10269C003B6248E101227B6A02FA03F3FB613B686F
:1026AC001B68FA691340BB61BA69FB699A4240F036
:1026BC0037813B685B68A34A93425ED0A14A934240
:1026CC0075D8A14A934258D09F4A93426FD89F4ADB
:1026DC00934252D09D4A934269D89D4A93424CD022
:1026EC009B4A934263D89B4A934246D0994A934261
:1026FC005DD8122B2AD8122B59D801A252F823F0EC
:10270C00872700086127000873270008B5270008F1
:10271C00BB270008BB270008BB270008BB27000805
:10272C00BB270008BB270008BB270008BB270008F5
:10273C00BB270008BB270008BB270008BB270008E5
:10274C00BB270008692700087D270008824A9342AE
:10275C0013D02CE03B68DB683B6229E03B68DB680C
:10276C0004333B6224E03B68DB6808333B621FE0C8
:10277C003B68DB680C333B621AE03B689B68002BC0
:10278C0002D104233B6213E03B689B68012B05D10B
:10279C0008233B627B68FA691A6109E008233B62F3
:1027AC007B68FA695A6103E000233B6200E000BFDA
:1027BC00BB69FF2B01D87B6801E07B6804337B612C
:1027CC00BB69FF2B02D87B6A9B0002E07B6A083B4B
:1027DC009B003B617B691A680F213B6901FA03F38B
:1027EC00DB431A40396A3B6901FA03F31A437B69EC
:1027FC001A603B685B6803F08053002B00F09080FC
:10280C00564B9B69554A43F001039361534B9B69AB
:10281C0003F00103BB60BB68514A7B6A9B0802331F
:10282C0052F82330FB607B6A03F003039B000F22FA
:10283C0002FA03F3DB43FA681340FB607B68494AF6
:10284C0093420DD07B68484A934207D07B68474A35
:10285C00934201D1022304E0032302E0012300E0B0
:10286C0000237A6A02F0030292009340FA68134341
:10287C00FB603B497B6A9B080233FA6841F82320D2
:10288C003B685B6803F48013002B06D0384B9A68C6
:10289C003749BB6913438B6006E0354B9A68BB69BB
:1028AC00DB43334913408B603B685B6803F40013D4
:1028BC00002B06D02E4BDA682D49BB691343CB6035
:1028CC0006E02B4BDA68BB69DB4329491340CB602C
:1028DC003B685B6803F40033002B06D0244B5A682A
:1028EC002349BB6913434B6006E0214B5A68BB6913
:1028FC00DB431F4913404B603B685B6803F4803338
:10290C00002B06D01A4B1A681949BB6913430B608C
:10291C0006E0174B1A68BB69DB43154913400B6083
:10292C007B6A01337B623B681A687B6A22FA03F389
:10293C00002B7FF4AFAE00BF00BF2C37BD4680BC70
:10294C00704700BF00003210000031100000221050
:10295C0000002110000012100000111000100240A5
:10296C000000014000080140000C01400010014033
:10297C000004014080B485B000AF78600B467B80CA
:10298C007B689A687B881340002B02D00123FB7371
:10299C0001E00023FB73FB7B18461437BD4680BC5B
:1029AC00704780B483B000AF78600B467B801346D1
:1029BC007B707B78002B03D07A887B681A6103E0EC
:1029CC007B881A047B681A6100BF0C37BD4680BC3B
:1029DC00704780B485B000AF78600B467B807B6815
:1029EC00DB68FB607A88FB6813401A04FB68D943E8
:1029FC007B880B401A437B681A6100BF1437BD46B5
:102A0C0080BC704780B586B000AF78607B68002BC7
:102A1C0001D101236CE27B681B6803F00103002BDE
:102A2C0000F08780924B5B6803F00C03042B0CD0F6
:102A3C008F4B5B6803F00C03082B12D18C4B5B683B
:102A4C0003F48033B3F5803F0BD1894B1B6803F43F
:102A5C000033002B6CD07B685B68002B68D10123A2
:102A6C0046E27B685B68B3F5803F06D1804B1B6800
:102A7C007F4A43F4803313602EE07B685B68002B45
:102A8C000CD17B4B1B687A4A23F480331360784B50
:102A9C001B68774A23F4802313601DE07B685B6816
:102AAC00B3F5A02F0CD1724B1B68714A43F48023F1
:102ABC0013606F4B1B686E4A43F4803313600BE05A
:102ACC006B4B1B686A4A23F480331360684B1B689A
:102ADC00674A23F4802313607B685B68002B13D058
:102AEC00FFF7B6FC386108E0FFF7B2FC02463B6921
:102AFC00D31A642B01D90323FAE15D4B1B6803F451
:102B0C000033002BF0D014E0FFF7A2FC386108E092
:102B1C00FFF79EFC02463B69D31A642B01D90323B1
:102B2C00E6E1534B1B6803F40033002BF0D100E0BB
:102B3C0000BF7B681B6803F00203002B63D04C4B77
:102B4C005B6803F00C03002B0BD0494B5B6803F064
:102B5C000C03082B1CD1464B5B6803F48033002B11
:102B6C0016D1434B1B6803F00203002B05D07B6886
:102B7C001B69012B01D00123BAE13D4B1B6823F0EB
:102B8C00F8027B685B69DB00394913430B603AE060
:102B9C007B681B69002B20D0364B01221A60FFF793
:102BAC0057FC386108E0FFF753FC02463B69D31A27
:102BBC00022B01D903239BE12D4B1B6803F002036D
:102BCC00002BF0D02A4B1B6823F0F8027B685B6962
:102BDC00DB00274913430B6015E0264B00221A60DB
:102BEC00FFF736FC386108E0FFF732FC02463B6920
:102BFC00D31A022B01D903237AE11D4B1B6803F076
:102C0C000203002BF0D17B681B6803F00803002B38
:102C1C003AD07B689B69002B19D0174B01221A60A4
:102C2C00FFF716FC386108E0FFF712FC02463B691F
:102C3C00D31A022B01D903235AE10D4B5B6A03F023
:102C4C000203002BF0D0012000F09AFA1CE00A4B92
:102C5C0000221A60FFF7FCFB38610FE0FFF7F8FB6E
:102C6C0002463B69D31A022B08D9032340E100BF6B
:102C7C000010024000004242800442429E4B5B6ABC
:102C8C0003F00203002BE9D17B681B6803F00403FB
:102C9C00002B00F0A6800023FB75974BDB6903F03B
:102CAC008053002B0DD1944BDB69934A43F0805336
:102CBC00D361914BDB6903F08053BB60BB6801238C
:102CCC00FB758E4B1B6803F48073002B18D18B4B58
:102CDC001B688A4A43F480731360FFF7B9FB3861B1
:102CEC0008E0FFF7B5FB02463B69D31A642B01D908
:102CFC000323FDE0814B1B6803F48073002BF0D0A1
:102D0C007B68DB68012B06D17B4B1B6A7A4A43F04C
:102D1C00010313622DE07B68DB68002B0CD1764B32
:102D2C001B6A754A23F001031362734B1B6A724AC8
:102D3C0023F0040313621CE07B68DB68052B0CD1C9
:102D4C006D4B1B6A6C4A43F0040313626A4B1B6A9B
:102D5C00694A43F0010313620BE0674B1B6A664A36
:102D6C0023F001031362644B1B6A634A23F00403D0
:102D7C0013627B68DB68002B15D0FFF769FB3861A9
:102D8C000AE0FFF765FB02463B69D31A41F2883231
:102D9C00934201D90323ABE0574B1B6A03F00203A8
:102DAC00002BEED014E0FFF753FB38610AE0FFF77D
:102DBC004FFB02463B69D31A41F28832934201D948
:102DCC00032395E04C4B1B6A03F00203002BEED15E
:102DDC00FB7D012B05D1484BDB69474A23F080531F
:102DEC00D3617B68DB69002B00F08180424B5B6810
:102DFC0003F00C03082B61D07B68DB69022B46D1F6
:102E0C003F4B00221A60FFF723FB386108E0FFF705
:102E1C001FFB02463B69D31A022B01D9032367E03F
:102E2C00354B1B6803F00073002BF0D17B681B6AD9
:102E3C00B3F5803F08D1304B5B6823F400327B68DC
:102E4C009B682D4913434B602B4B5B6823F4741226
:102E5C007B68196A7B685B6A0B43274913434B6099
:102E6C00274B01221A60FFF7F3FA386108E0FFF7ED
:102E7C00EFFA02463B69D31A022B01D9032337E040
:102E8C001D4B1B6803F00073002BF0D02FE01C4B84
:102E9C0000221A60FFF7DCFA386108E0FFF7D8FA75
:102EAC0002463B69D31A022B01D9032320E0124BB3
:102EBC001B6803F00073002BF0D118E07B68DB6912
:102ECC00012B01D1012313E00B4B5B68FB60FB680A
:102EDC0003F480327B681B6A9A4206D1FB6803F4C8
:102EEC0070127B685B6A9A4201D0012300E00023D8
:102EFC0018461837BD4680BD0010024000700040D7
:102F0C006000424280B584B000AF786039607B6865
:102F1C00002B01D10123D0E06A4B1B6803F007039F
:102F2C003A689A4210D9674B1B6823F0070265492F
:102F3C003B6813430B60634B1B6803F007033A6851
:102F4C009A4201D00123B8E07B681B6803F00203AE
:102F5C00002B20D07B681B6803F00403002B05D0EA
:102F6C00594B5B68584A43F4E06353607B681B68B9
:102F7C0003F00803002B05D0534B5B68524A43F413
:102F8C0060535360504B5B6823F0F0027B689B6886
:102F9C004D4913434B607B681B6803F00103002B06
:102FAC0040D07B685B68012B07D1474B1B6803F44F
:102FBC000033002B15D101237FE07B685B68022B6B
:102FCC0007D1414B1B6803F00073002B09D101237F
:102FDC0073E03D4B1B6803F00203002B01D101236E
:102FEC006BE0394B5B6823F003027B685B68364906
:102FFC0013434B60FFF72CFAF8600AE0FFF728FA4E
:10300C000246FB68D31A41F28832934201D903235A
:10301C0053E02D4B5B6803F00C027B685B689B00F4
:10302C009A42EBD1274B1B6803F007033A689A428C
:10303C0010D2244B1B6823F0070222493B68134330
:10304C000B60204B1B6803F007033A689A4201D0CF
:10305C00012332E07B681B6803F00403002B08D0CB
:10306C00194B5B6823F4E0627B68DB6816491343F9
:10307C004B607B681B6803F00803002B09D0124BD4
:10308C005B6823F460527B681B69DB000E491343B9
:10309C004B6000F021F802460B4B5B681B0903F0F8
:1030AC000F030A49CB5C22FA03F3094A1360094B5C
:1030BC001B681846FFF78AF9002318461037BD46DF
:1030CC0080BD00BF0020024000100240F039000813
:1030DC00140000201800002080B487B000AF00233B
:1030EC00FB600023BB6000237B6100237B6000231B
:1030FC003B611E4B5B68FB60FB6803F00C03042B0D
:10310C0002D0082B03D027E0194B3B6127E0FB686A
:10311C009B0C03F00F03174AD35C7B60FB6803F432
:10312C008033002B10D0114B5B685B0C03F0010358
:10313C00114AD35CBB607B680D4A02FB03F2BB688F
:10314C00B2FBF3F37B6104E07B680C4A02FB03F3F4
:10315C007B617B693B6102E0054B3B6100BF3B69D6
:10316C0018461C37BD4680BC704700BF001002409B
:10317C0000127A00003A0008103A000800093D00DD
:10318C0080B485B000AF78600A4B1B680A4AA2FB7A
:10319C0003235B0A7A6802FB03F3FB6000BFFB6846
:1031AC005A1EFA60002BF9D100BF00BF1437BD4680
:1031BC0080BC704714000020D34D621080B582B0E3
:1031CC0000AF78607B68002B01D1012341E07B6864
:1031DC0093F83D30DBB2002B06D17B68002283F8DC
:1031EC003C207868FEF7ACFD7B68022283F83D201A
:1031FC007B681A687B6804331946104600F056FA4F
:10320C007B68012283F846207B68012283F83E20EC
:10321C007B68012283F83F207B68012283F84020E1
:10322C007B68012283F841207B68012283F84220CD
:10323C007B68012283F843207B68012283F84420B9
:10324C007B68012283F845207B68012283F83D20AE
:10325C00002318460837BD4680BD000080B485B0F9
:10326C0000AF78607B6893F83D30DBB2012B01D066
:10327C00012335E07B68022283F83D207B681B68C4
:10328C00DA687B681B6842F00102DA607B681B68B5
:10329C00164A934209D07B681B68B3F1804F04D067
:1032AC007B681B68124A934211D17B681B689B6830
:1032BC0003F00703FB60FB68062B10D07B681B68D0
:1032CC001A687B681B6842F001021A6007E07B6891
:1032DC001B681A687B681B6842F001021A600023A5
:1032EC0018461437BD4680BC704700BF002C014007
:1032FC000004004080B584B000AF78607B681B6828
:10330C00DB68FB607B681B681B69BB60BB6803F0F8
:10331C000203002B20D0FB6803F00203002B1BD010
:10332C007B681B686FF002021A617B6801221A77B6
:10333C007B681B689B6903F00303002B03D0786840
:10334C0000F098F905E0786800F08BF9786800F0E7
:10335C009AF97B6800221A77BB6803F00403002BF0
:10336C0020D0FB6803F00403002B1BD07B681B6888
:10337C006FF004021A617B6802221A777B681B6863
:10338C009B6903F44073002B03D0786800F072F94A
:10339C0005E0786800F065F9786800F074F97B68EE
:1033AC0000221A77BB6803F00803002B20D0FB68BF
:1033BC0003F00803002B1BD07B681B686FF008021E
:1033CC001A617B6804221A777B681B68DB6903F03F
:1033DC000303002B03D0786800F04CF905E0786803
:1033EC0000F03FF9786800F04EF97B6800221A77FC
:1033FC00BB6803F01003002B20D0FB6803F0100314
:10340C00002B1BD07B681B686FF010021A617B6865
:10341C0008221A777B681B68DB6903F44073002B66
:10342C0003D0786800F026F905E0786800F019F907
:10343C00786800F028F97B6800221A77BB6803F0E3
:10344C000103002B0CD0FB6803F00103002B07D009
:10345C007B681B686FF001021A617868FEF768F9E7
:10346C00BB6803F08003002B0CD0FB6803F08003D7
:10347C00002B07D07B681B686FF080021A6178689C
:10348C0000F06FFABB6803F04003002B0CD0FB6814
:10349C0003F04003002B07D07B681B686FF04002E1
:1034AC001A61786800F0F8F8BB6803F02003002B71
:1034BC000CD0FB6803F02003002B07D07B681B6843
:1034CC006FF020021A61786800F042FA00BF1037E2
:1034DC00BD4680BD80B584B000AF786039600023F4
:1034EC00FB737B6893F83C30012B01D10223B4E0D1
:1034FC007B68012283F83C207B68022283F83D2004
:10350C007B681B689B68BB60BB6823F07703BB6060
:10351C00BB6823F47F43BB607B681B68BA689A6006
:10352C003B681B68B3F5005F3ED0B3F5005F00F25B
:10353C008780B3F5805F00F08680B3F5805F7FD81D
:10354C00702B1AD0702B7BD8602B50D0602B77D877
:10355C00502B3CD0502B73D8402B58D0402B6FD8CD
:10356C00302B64D0302B6BD8202B60D0202B67D81D
:10357C00002B5CD0102B5AD062E07B6818683B683B
:10358C0099683B685A683B68DB6800F06AF97B68AD
:10359C001B689B68BB60BB6843F07703BB607B68B0
:1035AC001B68BA689A604FE07B6818683B6899683A
:1035BC003B685A683B68DB6800F053F97B681B6812
:1035CC009A687B681B6842F480429A603CE07B6896
:1035DC0018683B6859683B68DB681A4600F0CAF803
:1035EC007B681B685021184600F021F92CE07B68A1
:1035FC0018683B6859683B68DB681A4600F0E8F8C5
:10360C007B681B686021184600F011F91CE07B6890
:10361C0018683B6859683B68DB681A4600F0AAF8E2
:10362C007B681B684021184600F001F90CE07B68B0
:10363C001A683B681B681946104600F0F8F803E05E
:10364C000123FB7300E000BF7B68012283F83D205F
:10365C007B68002283F83C20FB7B18461037BD4664
:10366C0080BD80B483B000AF786000BF0C37BD461E
:10367C0080BC704780B483B000AF786000BF0C375B
:10368C00BD4680BC704780B483B000AF786000BF8B
:10369C000C37BD4680BC704780B483B000AF7860F7
:1036AC0000BF0C37BD4680BC7047000080B485B0AD
:1036BC0000AF786039607B681B68FB607B682B4AC5
:1036CC00934207D07B68B3F1804F03D07B68284AC4
:1036DC00934208D1FB6823F07003FB603B685B6886
:1036EC00FA681343FB607B68204A934207D07B68DF
:1036FC00B3F1804F03D07B681D4A934208D1FB681D
:10370C0023F44073FB603B68DB68FA681343FB608F
:10371C00FB6823F080023B685B691343FB607B68AA
:10372C00FA681A603B689A687B68DA623B681A68C8
:10373C007B689A627B680D4A934203D13B681A6995
:10374C007B681A637B6801225A617B681B6903F0F2
:10375C000103002B05D07B681B6923F001027B68F9
:10376C001A6100BF1437BD4680BC7047002C014065
:10377C000004004080B487B000AFF860B9607A6094
:10378C00FB681B6A7B61FB681B6A23F00102FB6808
:10379C001A62FB689B693B613B6923F0F0033B6158
:1037AC007B681B013A6913433B617B6923F00A0375
:1037BC007B617A69BB6813437B61FB683A699A61E8
:1037CC00FB687A691A6200BF1C37BD4680BC704723
:1037DC0080B487B000AFF860B9607A60FB681B6A90
:1037EC007B61FB681B6A23F01002FB681A62FB68A2
:1037FC009B693B613B6923F470433B617B681B0312
:10380C003A6913433B617B6923F0A0037B61BB687E
:10381C001B017A6913437B61FB683A699A61FB6807
:10382C007A691A6200BF1C37BD4680BC704780B4F1
:10383C0085B000AF786039607B689B68FB60FB6883
:10384C0023F07003FB603A68FB68134343F00703F3
:10385C00FB607B68FA689A6000BF1437BD4680BC79
:10386C00704780B487B000AFF860B9607A603B6095
:10387C00FB689B687B617B6923F47F437B613B68BE
:10388C001A027B681A43BB6813437A6913437B6142
:10389C00FB687A699A6000BF1C37BD4680BC7047D4
:1038AC0080B485B000AF786039607B6893F83C30A9
:1038BC00012B01D1022341E07B68012283F83C20DB
:1038CC007B68022283F83D207B681B685B68FB6089
:1038DC007B681B689B68BB60FB6823F07003FB6014
:1038EC003B681B68FA681343FB607B681B68FA68CB
:1038FC005A607B681B68144A934209D07B681B682A
:10390C00B3F1804F04D07B681B68104A93420CD1F2
:10391C00BB6823F08003BB603B685B68BA681343E9
:10392C00BB607B681B68BA689A607B68012283F86D
:10393C003D207B68002283F83C2000231846143776
:10394C00BD4680BC704700BF002C01400004004005
:10395C0080B483B000AF786000BF0C37BD4680BC2C
:10396C00704780B483B000AF786000BF0C37BD46A1
:10397C0080BC704770B500260C4D0D4C641BA41018
:10398C00A64209D100F022F800260A4D0A4C641B0D
:10399C00A410A64205D170BD55F8043B98470136DA
:1039AC00EEE755F8043B98470136F2E7143A000865
:1039BC00143A0008143A0008183A00080346024466
:1039CC00934200D1704703F8011BF9E7F8B500BF2B
:1039DC00F8BC08BC9E467047F8B500BFF8BC08BCE4
:0439EC009E4670473C
:1039F000000000000000000001020304060708099F
:103A000002030405060708090A0B0C0D0E0F10101F
:043A100001020000AF
:043A14003101000874
:043A18000D01000894
:103A1C000010014000100140001001400020004047
:103A2C0000800B0000127A00100000000100000062
:04000005080023616B
:00000001FF
