:020000040800F2
:1000000000280020110A000899090008A109000829
:10001000A9090008B1090008B9090008000000009A
:10002000000000000000000000000000C1090008FE
:10003000CD09000800000000D9090008E509000802
:10004000590A0008590A0008590A0008590A000804
:10005000590A0008590A0008590A0008590A0008F4
:10006000590A0008590A0008590A0008590A0008E4
:10007000590A0008590A0008590A0008590A0008D4
:10008000590A0008590A0008590A0008590A0008C4
:10009000590A0008590A0008590A0008590A0008B4
:1000A000590A0008590A0008590A0008590A0008A4
:1000B000F1090008590A000800000000590A000868
:1000C000590A00080000000000000000590A00085A
:1000D00000000000590A0008590A0008000000004A
:1000E000590A0008590A0008590A000800000000CF
:1000F0000000000000000000000000000000000000
:0C01000000000000000000005FF808F1A3
:10010C0010B5054C237833B9044B13B10448AFF345
:10011C0000800123237010BD24000020000000008B
:10012C002423000808B5034B1BB103490348AFF364
:10013C00008008BD000000002800002024230008D7
:10014C0080B582B000AF00237B60DDE0734A7B6832
:10015C0052F8232072497B6841F82320714A7B684E
:10016C0052F823206D497B6841F823206E4A7B6846
:10017C0052F823206D497B6831F81330194610462C
:10018C0000F052FF03461946664A7B6842F823107A
:10019C00634A7B6852F8232060497B6851F823300E
:1001AC009A4240F0AE805D4A7B6852F823205D494C
:1001BC007B6851F823309A4240F0A3805C4A7B68FC
:1001CC0052F8232057497B6851F823309A424ED07D
:1001DC00574A7B6852F82330002B34D1514A7B6844
:1001EC0052F82330012B2ED1524A7B68012142F860
:1001FC002310514A7B6852F823305A1C4E497B68B5
:10020C0041F823204C4A7B6852F82330012B05D14E
:10021C004A4A7B68282142F8231014E0464A7B683E
:10022C0052F82330022B0ED1454A7B68012142F84B
:10023C002310414A7B68002142F823103F4A7B6817
:10024C00002142F82310374A7B6852F823203849A2
:10025C007B6841F82320334A7B6852F82330002B0B
:10026C002AD1384A7B68642142F8231024E02D4AB5
:10027C007B6852F82330002B1ED1324A7B6852F82F
:10028C002330002B18DD2F4A7B6852F823305A1E7E
:10029C002C497B6841F823202A4A7B6852F823308A
:1002AC00002B09DC284A7B68012142F82310254ADF
:1002BC007B68322142F82310204A7B6852F82330A5
:1002CC00002B1EDD1D4A7B6852F823305A1E1B4939
:1002DC007B6841F82320194A7B6852F82330002BA5
:1002EC000FD1154A7B6852F82330012B04D1174AE1
:1002FC007B68012142F823100F4A7B68002142F8E9
:10030C0023107B6801337B607B68032B7FF71EAF68
:10031C0000BF00BF0837BD4680BD00BF50000020A5
:10032C004000002060000020000000201000002091
:10033C0070000020B0000020D0000020E000002061
:10034C00C000002080000020A000002090000020B1
:10035C0080B483B000AF78607B68002B02DB7B68D5
:10036C00032B01DD00230DE0094A7B6852F8233092
:10037C00012B06D1064A7B68002142F82310012389
:10038C0000E0002318460C37BD4680BC704700BF08
:10039C009000002080B483B000AF78607B68002BA5
:1003AC0002DB7B68032B01DD00230DE0094A7B682F
:1003BC0052F82330012B06D1064A7B68002142F803
:1003CC002310012300E0002318460C37BD4680BCE7
:1003DC00704700BFC000002080B500AF00F05CF893
:1003EC0000F034F800F014F800F002F800BF80BD03
:1003FC0080B500AF0020FFF7ABFF0346002B02D007
:10040C00024B01221A6000BF80BD00BFF400002027
:10041C0080B500AF0B4B1B68162B07D0094B1B6824
:10042C00172B03D0074B1B68152B08D10220FFF7A5
:10043C00B1FF0346002B02D0034B01221A6000BF10
:10044C0080BD00BFF0000020FC00002080B500AF94
:10045C000F4B1B68102B0FD00D4B1B68142B0BD0A4
:10046C000B4B1B68132B07D0094B1B68122B03D0AB
:10047C00074B1B68112B08D10120FFF769FF0346BE
:10048C00002B02D0034B01221A6000BF80BD00BFBD
:10049C00F0000020F800002080B500AF094B1B686D
:1004AC000C2B03D0074B1B680E2B08D10320FFF736
:1004BC004FFF0346002B02D0034B01221A6000BFF2
:1004CC0080BD00BFF00000200001002080B500AF0F
:1004DC0000F0BEFA00F00EF800F0C2F800F074F86C
:1004EC0000F044F8024801F05FFB00BFFDE700BFDD
:1004FC005801002080B590B000AF07F118032822F6
:10050C000021184601F0DCFE3B1D00221A605A60E7
:10051C009A60DA601A610223BB610123BB6210236B
:10052C00FB6200237B6307F11803184600F0F0FE12
:10053C000346002B01D000F03FF90F237B60002312
:10054C00BB600023FB6000233B6100237B613B1DF0
:10055C000021184601F05EF90346002B01D000F093
:10056C002BF900BF4037BD4680BD000080B500AF01
:10057C00124B134A1A60114B124A5A600F4B00224D
:10058C009A600E4B0022DA600C4B4FF480421A61D9
:10059C000A4B00225A61094B00229A61074B002238
:1005AC00DA61064B00221A62044800F06DFD034626
:1005BC00002B01D000F000F900BF80BD0401002029
:1005CC0000540040A086010080B586B000AF07F152
:1005DC00080300221A605A609A60DA603B460022D7
:1005EC001A605A601D4B4FF080421A601B4B41F64B
:1005FC003F725A60194B00229A60184B0922DA603C
:10060C00164B00221A61154B00229A61134801F017
:10061C007BFA0346002B01D000F0CEF84FF4805348
:10062C00BB6007F1080319460C4801F0F9FB0346BF
:10063C00002B01D000F0C0F800233B6000237B604E
:10064C003B461946054801F0D1FD0346002B01D06D
:10065C0000F0B2F800BF1837BD4680BD580100202D
:10066C0080B58AB000AF07F1140300221A605A60FB
:10067C009A60DA60424B9B69414A43F010039361E4
:10068C003F4B9B6903F010033B613B693C4B9B69FF
:10069C003B4A43F020039361394B9B6903F02003E1
:1006AC00FB60FB68364B9B69354A43F0040393614E
:1006BC00334B9B6903F00403BB60BB68304B9B69F5
:1006CC002F4A43F0080393612D4B9B6903F00803F9
:1006DC007B607B6800224FF6FE712A4800F0BBFC61
:1006EC0000224FF63F71284800F0B5FC4FF46043F0
:1006FC007B610023BB610123FB6107F114031946E5
:10070C00224800F015FB01237B610023BB61002311
:10071C00FB6107F1140319461D4800F009FB4FF665
:10072C00FE737B610123BB610023FB6102233B62EF
:10073C0007F114031946134800F0FAFA4FF63F7309
:10074C007B610123BB610023FB6102233B6207F148
:10075C00140319460C4800F0EBFA0E4B5B687B62F5
:10076C007B6A43F0E0637B627B6A43F400437B6209
:10077C00084A7B6A536000BF2837BD4680BD00BF66
:10078C000010024000080140000C01400010014024
:10079C00001401400000014080B582B000AF7860C9
:1007AC0000F010F800F02EF8FFF716FEFFF7C8FC6B
:1007BC0000BF0837BD4680BD80B400AF72B600BF25
:1007CC0000BFFDE780B400AF0D4B1B68002B13D0AE
:1007DC000B4B1B7B002B0FD1094B5B68002B04D000
:1007EC00074B5B68013B064A5360054B5B68002B6B
:1007FC0002D1034B01221A7300BFBD4680BC704767
:10080C00A001002080B483B000AF00237B601CE00B
:10081C00124A7B6852F82330002B13DD0F4A7B6899
:10082C0052F823305A1E0D497B6841F823200B4A9D
:10083C007B6852F82330002B04DC094A7B680121C9
:10084C0042F823107B6801337B607B68072BDFDD6C
:10085C0000BF00BF0C37BD4680BC7047680200204B
:10086C008802002080B485B000AF154B9B69144AF8
:10087C0043F001039361124B9B6903F00103BB60CE
:10088C00BB680F4BDB690E4A43F08053D3610C4BB2
:10089C00DB6903F080537B607B680A4B5B68FB6011
:1008AC00FB6823F0E063FB60FB6843F08063FB6054
:1008BC00044AFB68536000BF1437BD4680BC7047C8
:1008CC00001002400000014080B588B000AF786095
:1008DC0007F1100300221A605A609A60DA607B6894
:1008EC001B68154A934223D1144B9B69134A43F05E
:1008FC0008039361114B9B6903F00803FB60FB68D1
:10090C00C0233B6112237B610023BB6107F1100301
:10091C0019460B4800F00CFA084BDB69074A43F404
:10092C000013D361054BDB6903F40013BB60BB6898
:10093C0000BF2037BD4680BD00540040001002406F
:10094C00000C014080B584B000AF78607B681B68F8
:10095C00B3F1804F13D10C4BDB690B4A43F001030D
:10096C00D361094BDB6903F00103FB60FB680022D8
:10097C0000211C2000F0A5F91C2000F0BEF900BFDE
:10098C001037BD4680BD00BF0010024080B400AFE0
:10099C0000BFFDE780B400AF00BFFDE780B400AF3F
:1009AC0000BFFDE780B400AF00BFFDE780B400AF2F
:1009BC0000BFFDE780B400AF00BFBD4680BC7047F0
:1009CC0080B400AF00BFBD4680BC704780B400AFA0
:1009DC0000BFBD4680BC704780B500AF00F07EF80C
:1009EC0000BF80BD80B500AF024801F029F900BFFF
:1009FC0080BD00BF5801002080B400AF00BFBD46D1
:100A0C0080BC7047FFF7F8FF0B480C490C4A0023D9
:100A1C0002E0D458C4500433C4188C42F9D3094AA8
:100A2C00094C002301E013600432A242FBD301F015
:100A3C004FFCFFF74BFD7047000000202400002006
:100A4C007023000824000020AC020020FEE7000008
:100A5C0080B500AF084B1B68074A43F010031360C6
:100A6C00032000F023F90F2000F008F8FFF7FAFE3E
:100A7C000023184680BD00BF0020024080B582B024
:100A8C0000AF7860124B1A68124B1B7819464FF462
:100A9C007A73B3FBF1F3B2FBF3F3184600F03BF9B6
:100AAC000346002B01D001230EE07B680F2B0AD8E4
:100ABC00002279684FF0FF3000F003F9064A7B689A
:100ACC001360002300E0012318460837BD4680BDA3
:100ADC0018000020200000201C00002080B400AF73
:100AEC00054B1B781A46054B1B681344034A1360CD
:100AFC0000BFBD4680BC704720000020A80200202B
:100B0C0080B400AF024B1B681846BD4680BC7047D2
:100B1C00A802002080B485B000AF78607B6803F039
:100B2C000703FB600C4BDB68BB60BA684FF6FF0336
:100B3C001340BB60FB681A02BB68134343F0BF63EE
:100B4C0043F40033BB60044ABB68D36000BF143766
:100B5C00BD4680BC704700BF00ED00E080B400AF24
:100B6C00044BDB681B0A03F007031846BD4680BC28
:100B7C00704700BF00ED00E080B483B000AF0346C7
:100B8C00FB7197F90730002B0BDBFB7903F01F028D
:100B9C00064997F907305B09012000FA02F241F887
:100BAC00232000BF0C37BD4680BC704700E100E03D
:100BBC0080B483B000AF03463960FB7197F90730FE
:100BCC00002B0ADB3B68DAB20C4997F907301201AB
:100BDC00D2B20B4483F800230AE03B68DAB208492E
:100BEC00FB7903F00F03043B1201D2B20B441A76CB
:100BFC0000BF0C37BD4680BC704700BF00E100E071
:100C0C0000ED00E080B489B000AFF860B9607A60A4
:100C1C00FB6803F00703FB61FB69C3F10703042BBB
:100C2C0028BF0423BB61FB690433062B02D9FB6983
:100C3C00033B00E000237B614FF0FF32BB6902FAFB
:100C4C0003F3DA43BB681A407B699A404FF0FF31DB
:100C5C007B6901FA03F3D9437B680B4013431846B5
:100C6C002437BD4680BC704780B582B000AF786039
:100C7C007B68013BB3F1807F01D301230FE00A4A6B
:100C8C007B68013B53600F214FF0FF30FFF790FF63
:100C9C00054B00229A60044B07221A600023184669
:100CAC000837BD4680BD00BF10E000E080B582B0C3
:100CBC0000AF78607868FFF72DFF00BF0837BD469E
:100CCC0080BD80B586B000AF0346B9607A60FB7317
:100CDC0000237B61FFF742FF78617A68B968786915
:100CEC00FFF790FF024697F90F3011461846FFF7B1
:100CFC005FFF00BF1837BD4680BD80B582B000AF26
:100D0C000346FB7197F907301846FFF735FF00BF14
:100D1C000837BD4680BD80B582B000AF786078687A
:100D2C00FFF7A2FF034618460837BD4680BD0000FA
:100D3C0080B48BB000AF7860396000237B620023F5
:100D4C003B6261E101227B6A02FA03F3FB613B68BF
:100D5C001B68FA691340BB61BA69FB699A4240F09F
:100D6C0050813B685B68974A93425ED0954A9342A8
:100D7C0075D8954A934258D0934A93426FD8934A68
:100D8C00934252D0914A934269D8914A93424CD0A3
:100D9C008F4A934263D88F4A934246D08D4A9342EE
:100DAC005DD8122B2AD8122B59D801A252F823F055
:100DBC00370E0008110E0008230E0008650E0008FF
:100DCC006B0E00086B0E00086B0E00086B0E000813
:100DDC006B0E00086B0E00086B0E00086B0E000803
:100DEC006B0E00086B0E00086B0E00086B0E0008F3
:100DFC006B0E0008190E00082D0E0008764A93425F
:100E0C0013D02CE03B68DB683B6229E03B68DB6875
:100E1C0004333B6224E03B68DB6808333B621FE031
:100E2C003B68DB680C333B621AE03B689B68002B29
:100E3C0002D104233B6213E03B689B68012B05D174
:100E4C0008233B627B68FA691A6109E008233B625C
:100E5C007B68FA695A6103E000233B6200E000BF43
:100E6C00BB69FF2B01D87B6801E07B6804337B6195
:100E7C00BB69FF2B02D87B6A9B0002E07B6A083BB4
:100E8C009B003B617B691A680F213B6901FA03F3F4
:100E9C00DB431A40396A3B6901FA03F31A437B6955
:100EAC001A603B685B6803F08053002B00F0A9804C
:100EBC004A4B9B69494A43F001039361474B9B6939
:100ECC0003F00103BB60BB68454A7B6A9B08023395
:100EDC0052F82330FB607B6A03F003039B000F2264
:100EEC0002FA03F3DB43FA681340FB607B683D4A6C
:100EFC0093420DD07B683C4A934207D07B683B4AB7
:100F0C00934201D1022304E0032302E0012300E019
:100F1C0000237A6A02F0030292009340FA681343AA
:100F2C00FB602F497B6A9B080233FA6841F8232047
:100F3C003B685B6803F48013002B06D02C4B9A683B
:100F4C002B49BB6913438B6006E0294B9A68BB693C
:100F5C00DB43274913408B603B685B6803F4001349
:100F6C00002B06D0224BDA682149BB691343CB60B6
:100F7C0006E01F4BDA68BB69DB431D491340CB60AD
:100F8C003B685B6803F40033002B06D0184B5A689F
:100F9C001749BB6913434B6006E0154B5A68BB6994
:100FAC00DB43134913404B603B685B6803F48033AD
:100FBC00002B1FD00E4B1A680D49BB6913430B60F5
:100FCC001FE000BF000032100000311000002210A2
:100FDC00000021100000121000001110001002403F
:100FEC000000014000080140000C014000100140CD
:100FFC00000401400B4B1A68BB69DB4309491340E1
:10100C000B607B6A01337B623B681A687B6A22FA4D
:10101C0003F3002B7FF496AE00BF00BF2C37BD4608
:10102C0080BC70470004014080B485B000AF78608C
:10103C000B467B807B689A687B881340002B02D020
:10104C000123FB7301E00023FB73FB7B1846143771
:10105C00BD4680BC704780B483B000AF78600B464F
:10106C007B8013467B707B78002B03D07A887B685F
:10107C001A6103E07B881A047B681A6100BF0C3785
:10108C00BD4680BC7047000080B584B000AF78606E
:10109C007B68002B01D101232BE17B6893F83D3059
:1010AC00DBB2002B06D17B68002283F83C207868E9
:1010BC00FFF70AFC7B68242283F83D207B681B68C1
:1010CC001A687B681B6822F001021A607B681B6837
:1010DC001A687B681B6842F400421A607B681B68C4
:1010EC001A687B681B6822F400421A6000F0DAFC74
:1010FC00F8607B685B68814A934207D8FB68804A3A
:10110C00934294BF01230023DBB206E0FB687D4AC7
:10111C00934294BF01230023DBB2002B01D00123A7
:10112C00E7E0FB68784AA2FB03239B0CBB607B685F
:10113C001B685B6823F03F017B681B68BA680A4335
:10114C005A607B681B681B6A23F03F017B685B68F5
:10115C006A4A934202D8BB68013309E0BB684FF47A
:10116C00967202FB03F3694AA2FB03239B0901332A
:10117C007A6812680B4313627B681B68DB6923F483
:10118C004F4222F0FF027B685B685C498B4219D8A6
:10119C00FB68591E7B685B685B00B1FBF3F3591C61
:1011AC0040F6FC730B40002B0AD0FB68591E7B6881
:1011BC005B685B00B1FBF3F30133C3F30B0351E04A
:1011CC0004234FE07B689B68002B11D1FB68581EF1
:1011DC007B6859680B465B000B44B0FBF3F301339F
:1011EC00C3F30B03002B0CBF01230023DBB212E073
:1011FC00FB68581E7B6859680B469B000B44990092
:10120C000B44B0FBF3F30133C3F30B03002B0CBF04
:10121C0001230023DBB2002B01D0012322E07B68E9
:10122C009B68002B0ED1FB68581E7B6859680B46D7
:10123C005B000B44B0FBF3F30133C3F30B0343F438
:10124C0000430FE0FB68581E7B6859680B469B00F7
:10125C000B4499000B44B0FBF3F30133C3F30B03C2
:10126C0043F44043796809681343CB617B681B687E
:10127C001B6823F0C0017B68DA697B681B6A1A4320
:10128C007B681B680A431A607B681B689B6823F4A5
:10129C00034323F0FF037A6811697A68D26811431B
:1012AC007A6812680B4393607B681B68DB6823F0D9
:1012BC00FF017B685A697B689B691A437B681B68D2
:1012CC000A43DA607B681B681A687B681B6842F00B
:1012DC0001021A607B6800221A647B68202283F862
:1012EC003D207B6800221A637B68002283F83E2035
:1012FC00002318461037BD4680BD00BFA0860100F4
:10130C007F841E00FF083D0083DE1B43D34D62101B
:10131C0080B586B000AF78607B68002B01D10123CB
:10132C0072E27B681B6803F00103002B00F08780DE
:10133C00924B5B6803F00C03042B0CD08F4B5B6857
:10134C0003F00C03082B12D18C4B5B6803F4803335
:10135C00B3F5803F0BD1894B1B6803F40033002B92
:10136C006CD07B685B68002B68D101234CE27B68F6
:10137C005B68B3F5803F06D1804B1B687F4A43F412
:10138C00803313602EE07B685B68002B0CD17B4BA9
:10139C001B687A4A23F480331360784B1B68774AB6
:1013AC0023F4802313601DE07B685B68B3F5A02FEA
:1013BC000CD1724B1B68714A43F4802313606F4B42
:1013CC001B686E4A43F4803313600BE06B4B1B6855
:1013DC006A4A23F480331360684B1B68674A23F412
:1013EC00802313607B685B68002B13D0FFF788FBAE
:1013FC00386108E0FFF784FB02463B69D31A642B83
:10140C0001D9032300E25D4B1B6803F40033002B6E
:10141C00F0D014E0FFF774FB386108E0FFF770FBC5
:10142C0002463B69D31A642B01D90323ECE1534BDD
:10143C001B6803F40033002BF0D100E000BF7B6885
:10144C001B6803F00203002B63D04C4B5B6803F06A
:10145C000C03002B0BD0494B5B6803F00C03082BDF
:10146C001CD1464B5B6803F48033002B16D1434BE5
:10147C001B6803F00203002B05D07B681B69012B52
:10148C0001D00123C0E13D4B1B6823F0F8027B68BF
:10149C005B69DB00394913430B603AE07B681B69DD
:1014AC00002B20D0364B01221A60FFF729FB386144
:1014BC0008E0FFF725FB02463B69D31A022B01D942
:1014CC000323A1E12D4B1B6803F00203002BF0D08A
:1014DC002A4B1B6823F0F8027B685B69DB00274909
:1014EC0013430B6015E0264B00221A60FFF708FB34
:1014FC00386108E0FFF704FB02463B69D31A022B64
:10150C0001D9032380E11D4B1B6803F00203002B60
:10151C00F0D17B681B6803F00803002B3AD07B6882
:10152C009B69002B19D0174B01221A60FFF7E8FAC0
:10153C00386108E0FFF7E4FA02463B69D31A022B44
:10154C0001D9032360E10D4B5B6A03F00203002B0E
:10155C00F0D0012000F0BAFA1CE00A4B00221A600D
:10156C00FFF7CEFA38610FE0FFF7CAFA02463B6983
:10157C00D31A022B08D9032346E100BF0010024006
:10158C000000424280044242924B5B6A03F0020329
:10159C00002BE9D17B681B6803F00403002B00F0DF
:1015AC00A6800023FB758B4BDB6903F08053002B6B
:1015BC000DD1884BDB69874A43F08053D361854B4F
:1015CC00DB6903F08053BB60BB680123FB75824B66
:1015DC001B6803F48073002B18D17F4B1B687E4A69
:1015EC0043F480731360FFF78BFA386108E0FFF760
:1015FC0087FA02463B69D31A642B01D9032303E112
:10160C00754B1B6803F48073002BF0D07B68DB6890
:10161C00012B06D16F4B1B6A6E4A43F00103136218
:10162C002DE07B68DB68002B0CD16A4B1B6A694A86
:10163C0023F001031362674B1B6A664A23F0040311
:10164C0013621CE07B68DB68052B0CD1614B1B6AB9
:10165C00604A43F0040313625E4B1B6A5D4A43F01D
:10166C00010313620BE05B4B1B6A5A4A23F0010324
:10167C001362584B1B6A574A23F0040313627B68AE
:10168C00DB68002B15D0FFF73BFA38610AE0FFF757
:10169C0037FA02463B69D31A41F28832934201D998
:1016AC000323B1E04B4B1B6A03F00203002BEED07B
:1016BC0014E0FFF725FA38610AE0FFF721FA024639
:1016CC003B69D31A41F28832934201D903239BE040
:1016DC00404B1B6A03F00203002BEED1FB7D012B68
:1016EC0005D13C4BDB693B4A23F08053D3617B68CB
:1016FC00DB69002B00F08780364B5B6803F00C0332
:10170C00082B61D07B68DB69022B46D1334B00225E
:10171C001A60FFF7F5F9386108E0FFF7F1F90246B6
:10172C003B69D31A022B01D903236DE0294B1B68AB
:10173C0003F00073002BF0D17B681B6AB3F5803F7C
:10174C0008D1244B5B6823F400327B689B682149E9
:10175C0013434B601F4B5B6823F474127B68196A4C
:10176C007B685B6A0B431B4913434B601B4B012289
:10177C001A60FFF7C5F9386108E0FFF7C1F90246B6
:10178C003B69D31A022B01D903233DE0114B1B6893
:10179C0003F00073002BF0D035E0104B00221A60E0
:1017AC00FFF7AEF9386108E0FFF7AAF902463B698A
:1017BC00D31A022B01D9032326E0064B1B6803F036
:1017CC000073002BF0D11EE07B68DB69012B07D185
:1017DC00012319E0001002400070004060004242FA
:1017EC000B4B5B68FB60FB6803F480327B681B6A05
:1017FC009A4206D1FB6803F470127B685B6A9A42CA
:10180C0001D0012300E0002318461837BD4680BDE7
:10181C000010024080B584B000AF786039607B68FE
:10182C00002B01D10123D0E06A4B1B6803F00703A6
:10183C003A689A4210D9674B1B6823F00702654936
:10184C003B6813430B60634B1B6803F007033A6858
:10185C009A4201D00123B8E07B681B6803F00203B5
:10186C00002B20D07B681B6803F00403002B05D0F1
:10187C00594B5B68584A43F4E06353607B681B68C0
:10188C0003F00803002B05D0534B5B68524A43F41A
:10189C0060535360504B5B6823F0F0027B689B688D
:1018AC004D4913434B607B681B6803F00103002B0D
:1018BC0040D07B685B68012B07D1474B1B6803F456
:1018CC000033002B15D101237FE07B685B68022B72
:1018DC0007D1414B1B6803F00073002B09D1012386
:1018EC0073E03D4B1B6803F00203002B01D1012375
:1018FC006BE0394B5B6823F003027B685B6836490D
:10190C0013434B60FFF7FCF8F8600AE0FFF7F8F8B8
:10191C000246FB68D31A41F28832934201D9032361
:10192C0053E02D4B5B6803F00C027B685B689B00FB
:10193C009A42EBD1274B1B6803F007033A689A4293
:10194C0010D2244B1B6823F0070222493B68134337
:10195C000B60204B1B6803F007033A689A4201D0D6
:10196C00012332E07B681B6803F00403002B08D0D2
:10197C00194B5B6823F4E0627B68DB681649134300
:10198C004B607B681B6803F00803002B09D0124BDB
:10199C005B6823F460527B681B69DB000E491343C0
:1019AC004B6000F021F802460B4B5B681B0903F0FF
:1019BC000F030A49CB5C22FA03F3094A1360094B63
:1019CC001B681846FFF75AF8002318461037BD4617
:1019DC0080BD00BF00200240001002403C230008E4
:1019EC00180000201C00002080B487B000AF00233A
:1019FC00FB600023BB6000237B6100237B60002322
:101A0C003B611E4B5B68FB60FB6803F00C03042B13
:101A1C0002D0082B03D027E0194B3B6127E0FB6871
:101A2C009B0C03F00F03174AD35C7B60FB6803F439
:101A3C008033002B10D0114B5B685B0C03F001035F
:101A4C00114AD35CBB607B680D4A03FB02F2BB6896
:101A5C00B2FBF3F37B6104E07B680C4A02FB03F3FB
:101A6C007B617B693B6102E0054B3B6100BF3B69DD
:101A7C0018461C37BD4680BC704700BF00100240A2
:101A8C0000127A00542300086423000800093D006A
:101A9C0080B400AF024B1B681846BD4680BC704733
:101AAC001800002080B500AFFFF7F2FF0246054B8F
:101ABC005B681B0A03F007030349CB5C22FA03F3B0
:101ACC00184680BD001002404C23000880B485B03D
:101ADC0000AF78600A4B1B680A4AA2FB03235B0A1F
:101AEC007A6802FB03F3FB6000BFFB685A1EFA60C6
:101AFC00002BF9D100BF00BF1437BD4680BC704726
:101B0C0018000020D34D621080B582B000AF786011
:101B1C007B68002B01D1012341E07B6893F83D30B9
:101B2C00DBB2002B06D17B68002283F83C2078685E
:101B3C00FEF708FF7B68022283F83D207B681A6859
:101B4C007B6804331946104600F056FA7B68012274
:101B5C0083F846207B68012283F83E207B680122B3
:101B6C0083F83F207B68012283F840207B680122A8
:101B7C0083F841207B68012283F842207B68012294
:101B8C0083F843207B68012283F844207B68012280
:101B9C0083F845207B68012283F83D2000231846FA
:101BAC000837BD4680BD000080B485B000AF7860BA
:101BBC007B6893F83D30DBB2012B01D0012335E07B
:101BCC007B68022283F83D207B681B68DA687B689F
:101BDC001B6842F00102DA607B681B68164A93426C
:101BEC0009D07B681B68B3F1804F04D07B681B68FD
:101BFC00124A934211D17B681B689B6803F0070360
:101C0C00FB60FB68062B10D07B681B681A687B682E
:101C1C001B6842F001021A6007E07B681B681A68B7
:101C2C007B681B6842F001021A60002318461437C7
:101C3C00BD4680BC704700BF002C01400004004032
:101C4C0080B584B000AF78607B681B68DB68FB6094
:101C5C007B681B681B69BB60BB6803F00203002B2D
:101C6C0020D0FB6803F00203002B1BD07B681B68A1
:101C7C006FF002021A617B6801221A777B681B687D
:101C8C009B6903F00303002B03D0786800F098F9EC
:101C9C0005E0786800F08BF9786800F09AF97B68B9
:101CAC0000221A77BB6803F00403002B20D0FB68DA
:101CBC0003F00403002B1BD07B681B686FF004023D
:101CCC001A617B6802221A777B681B689B6903F494
:101CDC004073002B03D0786800F072F905E0786847
:101CEC0000F065F9786800F074F97B6800221A77C7
:101CFC00BB6803F00803002B20D0FB6803F008033B
:101D0C00002B1BD07B681B686FF008021A617B6884
:101D1C0004221A777B681B68DB6903F00303002B32
:101D2C0003D0786800F04CF905E0786800F03FF9D2
:101D3C00786800F04EF97B6800221A77BB6803F0D4
:101D4C001003002B20D0FB6803F01003002B1BD0DA
:101D5C007B681B686FF010021A617B6808221A7787
:101D6C007B681B68DB6903F44073002B03D0786835
:101D7C0000F026F905E0786800F019F9786800F0B1
:101D8C0028F97B6800221A77BB6803F00103002B4B
:101D9C000CD0FB6803F00103002B07D07B681B6899
:101DAC006FF001021A617868FEF7F6FCBB6803F06D
:101DBC008003002B0CD0FB6803F08003002B07D0B2
:101DCC007B681B686FF080021A61786800F06FFA0C
:101DDC00BB6803F04003002B0CD0FB6803F04003FE
:101DEC00002B07D07B681B686FF040021A61786883
:101DFC0000F0F8F8BB6803F02003002B0CD0FB6854
:101E0C0003F02003002B07D07B681B686FF02002C7
:101E1C001A61786800F042FA00BF1037BD4680BDE9
:101E2C0080B584B000AF786039600023FB737B68A9
:101E3C0093F83C30012B01D10223B4E07B680122E2
:101E4C0083F83C207B68022283F83D207B681B686A
:101E5C009B68BB60BB6823F07703BB60BB6823F453
:101E6C007F43BB607B681B68BA689A603B681B68E1
:101E7C00B3F5005F3ED0B3F5005F00F28780B3F599
:101E8C00805F00F08680B3F5805F7FD8702B1AD00E
:101E9C00702B7BD8602B50D0602B77D8502B3CD03C
:101EAC00502B73D8402B58D0402B6FD8302B64D08C
:101EBC00302B6BD8202B60D0202B67D8002B5CD01C
:101ECC00102B5AD062E07B6818683B6899683B68B5
:101EDC005A683B68DB6800F06AF97B681B689B6892
:101EEC00BB60BB6843F07703BB607B681B68BA6858
:101EFC009A604FE07B6818683B6899683B685A6841
:101F0C003B68DB6800F053F97B681B689A687B6858
:101F1C001B6842F480429A603CE07B6818683B681E
:101F2C0059683B68DB681A4600F0CAF87B681B6886
:101F3C005021184600F021F92CE07B6818683B68AA
:101F4C0059683B68DB681A4600F0E8F87B681B6848
:101F5C006021184600F011F91CE07B6818683B689A
:101F6C0059683B68DB681A4600F0AAF87B681B6866
:101F7C004021184600F001F90CE07B681A683B68B8
:101F8C001B681946104600F0F8F803E00123FB73B8
:101F9C0000E000BF7B68012283F83D207B680022B3
:101FAC0083F83C20FB7B18461037BD4680BD80B4BF
:101FBC0083B000AF786000BF0C37BD4680BC704763
:101FCC0080B483B000AF786000BF0C37BD4680BCD6
:101FDC00704780B483B000AF786000BF0C37BD464B
:101FEC0080BC704780B483B000AF786000BF0C3702
:101FFC00BD4680BC7047000080B485B000AF7860EF
:10200C0039607B681B68FB607B682B4A934207D066
:10201C007B68B3F1804F03D07B68284A934208D188
:10202C00FB6823F07003FB603B685B68FA68134342
:10203C00FB607B68204A934207D07B68B3F1804FEA
:10204C0003D07B681D4A934208D1FB6823F440738C
:10205C00FB603B68DB68FA681343FB60FB6823F0AA
:10206C0080023B685B691343FB607B68FA681A600B
:10207C003B689A687B68DA623B681A687B689A628C
:10208C007B680D4A934203D13B681A697B681A63DB
:10209C007B6801225A617B681B6903F00103002BEA
:1020AC0005D07B681B6923F001027B681A6100BFB5
:1020BC001437BD4680BC7047002C01400004004022
:1020CC0080B487B000AFF860B9607A60FB681B6AB7
:1020DC007B61FB681B6A23F00102FB681A62FB68D8
:1020EC009B693B613B6923F0F0033B617B681B01FF
:1020FC003A6913433B617B6923F00A037B617A697C
:10210C00BB6813437B61FB683A699A61FB687A6927
:10211C001A6200BF1C37BD4680BC704780B487B0C4
:10212C0000AFF860B9607A60FB681B6A7B61FB6882
:10213C001B6A23F01002FB681A62FB689B693B6107
:10214C003B6923F470433B617B681B033A6913437F
:10215C003B617B6923F0A0037B61BB681B017A693F
:10216C0013437B61FB683A699A61FB687A691A626E
:10217C0000BF1C37BD4680BC704780B485B000AF33
:10218C00786039607B689B68FB60FB6823F07003A8
:10219C00FB603A68FB68134343F00703FB607B6802
:1021AC00FA689A6000BF1437BD4680BC704780B493
:1021BC0087B000AFF860B9607A603B60FB689B68E1
:1021CC007B617B6923F47F437B613B681A027B68EC
:1021DC001A43BB6813437A6913437B61FB687A69C2
:1021EC009A6000BF1C37BD4680BC704780B485B078
:1021FC0000AF786039607B6893F83C30012B01D1DB
:10220C00022341E07B68012283F83C207B68022298
:10221C0083F83D207B681B685B68FB607B681B68F0
:10222C009B68BB60FB6823F07003FB603B681B681A
:10223C00FA681343FB607B681B68FA685A607B681A
:10224C001B68144A934209D07B681B68B3F1804F1A
:10225C0004D07B681B68104A93420CD1BB6823F0F6
:10226C008003BB603B685B68BA681343BB607B68E8
:10227C001B68BA689A607B68012283F83D207B68F2
:10228C00002283F83C20002318461437BD4680BC3E
:10229C00704700BF002C01400004004080B483B0A4
:1022AC0000AF786000BF0C37BD4680BC704780B46F
:1022BC0083B000AF786000BF0C37BD4680BC704760
:1022CC0003460244934200D1704703F8011BF9E71F
:1022DC0070B500260C4D0D4B5B1B9C10A64209D112
:1022EC00002600F019F80A4D0A4B5B1B9C10A64205
:1022FC0005D170BD55F8043B98470136EEE755F80B
:10230C00043B98470136F2E768230008682300086D
:10231C00682300086C230008F8B500BFF8BC08BCA3
:10232C009E467047F8B500BFF8BC08BC9E46704787
:10233C000000000000000000010203040607080969
:10234C00000000000102030402030405060708094B
:0C235C000A0B0C0D0E0F10100102000007
:042368003101000837
:04236C000D01000857
:102370000010014000100140001001400014014015
:10238000002000400080010000127A0010000000D0
:042390000100000048
:0400000508000A11D4
:00000001FF
