:020000040800F2
:100000000028002065170008DD120008E312000830
:10001000E9120008EF120008F512000800000000C5
:10002000000000000000000000000000FB120008BB
:100030000713000800000000131300081F13000836
:10004000AD170008AD170008AD170008AD17000880
:10005000AD170008AD170008AD170008AD17000870
:10006000AD170008AD170008AD170008AD17000860
:10007000AD170008AD170008AD170008AD17000850
:10008000AD170008AD170008AD170008AD17000840
:10009000AD170008AD170008AD170008AD17000830
:1000A000AD170008AD170008AD170008AD17000820
:1000B0002D130008AD17000800000000AD17000860
:1000C000AD1700080000000000000000AD17000898
:1000D00000000000AD170008AD1700080000000088
:1000E000AD170008AD170008AD17000800000000AC
:1000F0000000000000000000000000000000000000
:0C01000000000000000000005FF808F1A3
:10010C0010B5054C237833B9044B13B10448AFF345
:10011C0000800123237010BD20000020000000008F
:10012C00AC2D000808B5034B1BB103490348AFF3D2
:10013C00008008BD0000000024000020AC2D000849
:10014C0080B500AF01224FF48041084801F02BFE2E
:10015C0001224FF40041054801F025FE0A2000F071
:10016C0097F80A2000F046FA00BF80BD000C014051
:10017C0080B500AF1C4B1B68002B19D11B4B1B68A7
:10018C00184600F085F8194B5B68184600F032FAF7
:10019C0000224FF48041164801F005FE01224FF475
:1001AC000041134801F0FFFD0F4B01221A6018E0CB
:1001BC000E4B9B68184600F06BF80C4BDB6818462E
:1001CC0000F018FA01224FF48041094801F0EBFDD0
:1001DC0000224FF40041064801F0E5FD024B0022DD
:1001EC001A6000BF80BD00BF3C0000204000002012
:1001FC00000C014080B485B000AF786039607B683A
:10020C00204A82FB03125211DB17D31AFB603B68A6
:10021C001C4A82FB03125211DB17D31ABB60FB681A
:10022C00194A82FB03129210DB17D31A174A136078
:10023C00F968154B83FB01239A10CB17D21A13467E
:10024C009B0013445B00CA1A104B5A60BB680E4AE1
:10025C0082FB03129210DB17D31A0C4A9360B96815
:10026C00094B83FB01239A10CB17D21A13469B0020
:10027C0013445B00CA1A054BDA6000BF1437BD4645
:10028C0080BC70471F85EB51676666664000002096
:10029C0080B582B000AF78607B68092B00F280815A
:1002AC0001A252F823F000BFDD020008250300086C
:1002BC006D030008B5030008FD03000845040008A1
:1002CC008D040008D50400081D050008650500080C
:1002DC0000220121C64801F066FD00220221C4481B
:1002EC0001F061FD00220421C14801F05CFD0022F7
:1002FC000821BF4801F057FD00221021BC4801F035
:10030C0052FD00222021BA4801F04DFD012240216E
:10031C00B74801F048FD67E101220121B44801F022
:10032C0042FD00220221B24801F03DFD00220421D1
:10033C00AF4801F038FD01220821AD4801F033FD32
:10034C0001221021AA4801F02EFD01222021A848EB
:10035C0001F029FD01224021A54801F024FD43E1D3
:10036C0000220121A24801F01EFD00220221A0481A
:10037C0001F019FD012204219D4801F014FD002219
:10038C0008219B4801F00FFD00221021984801F034
:10039C000AFD01222021964801F005FD0022402192
:1003AC00934801F000FD1FE100220121904801F06B
:1003BC00FAFC002202218E4801F0F5FC00220421F7
:1003CC008B4801F0F0FC00220821894801F0EBFC7D
:1003DC0001221021864801F0E6FC012220218448EC
:1003EC0001F0E1FC00224021814801F0DCFCFBE043
:1003FC00012201217E4801F0D6FC002202217C481A
:10040C0001F0D1FC00220421794801F0CCFC01223E
:10041C000821774801F0C7FC01221021744801F033
:10042C00C2FC00222021724801F0BDFC00224021B8
:10043C006F4801F0B8FCD7E0002201216C4801F0B4
:10044C00B2FC012202216A4801F0ADFC0022042119
:10045C00674801F0A8FC00220821654801F0A3FCC4
:10046C0001221021624801F09EFC002220216048EC
:10047C0001F099FC002240215D4801F094FCB3E0AE
:10048C00002201215A4801F08EFC01220221584819
:10049C0001F089FC00220421554801F084FC002263
:1004AC000821534801F07FFC00221021504801F034
:1004BC007AFC002220214E4801F075FC00224021DC
:1004CC004B4801F070FC8FE000220121484801F0FC
:1004DC006AFC00220221464801F065FC002204213E
:1004EC00434801F060FC01220821414801F05BFC0B
:1004FC00012210213E4801F056FC012220213C48EB
:10050C0001F051FC01224021394801F04CFC6BE018
:10051C0000220121364801F046FC00220221344819
:10052C0001F041FC00220421314801F03CFC002286
:10053C0008212F4801F037FC002210212C4801F033
:10054C0032FC002220212A4801F02DFC00224021FF
:10055C00274801F028FC47E000220121244801F043
:10056C0022FC00220221224801F01DFC0022042161
:10057C001F4801F018FC002208211D4801F013FC53
:10058C00012210211A4801F00EFC002220211848EB
:10059C0001F009FC00224021154801F004FC23E085
:1005AC0001220121124801F0FEFB01220221104818
:1005BC0001F0F9FB012204210D4801F0F4FB0122AA
:1005CC0008210B4801F0EFFB01221021084801F033
:1005DC00EAFB01222021064801F0E5FB0122402123
:1005EC00034801F0E0FB00BF00BF0837BD4680BDEB
:1005FC00000C014080B582B000AF78607B68092B9D
:10060C0000F2BE8101A252F823F000BF410600089F
:10061C0095060008E90600083D0700089107000848
:10062C00E5070008390800088D080008E1080008F3
:10063C003509000800228021D04801F0B4FB0022CB
:10064C004FF48071CD4801F0AEFB00224FF40071E5
:10065C00CA4801F0A8FB00224FF48061C74801F0A2
:10066C00A2FB00224FF40061C44801F09CFB002265
:10067C004FF48051C14801F096FB01224FF4005118
:10068C00BE4801F090FBA5E101228021BB4801F09E
:10069C008AFB00224FF48071B84801F084FB0022E1
:1006AC004FF40071B54801F07EFB01224FF48061DC
:1006BC00B24801F078FB01224FF40061AF4801F021
:1006CC0072FB01224FF48051AC4801F06CFB01220B
:1006DC004FF40051A94801F066FB7BE10022802118
:1006EC00A64801F060FB00224FF48071A34801F092
:1006FC005AFB01224FF40071A04801F054FB002278
:10070C004FF480619D4801F04EFB00224FF40061D4
:10071C009A4801F048FB01224FF48051974801F0B0
:10072C0042FB00224FF40051944801F03CFB51E194
:10073C0000228021914801F036FB00224FF4807199
:10074C008E4801F030FB00224FF400718B4801F011
:10075C002AFB00224FF48061884801F024FB01221F
:10076C004FF40061854801F01EFB01224FF48051CB
:10077C00824801F018FB00224FF400517F4801F031
:10078C0012FB27E1012280217C4801F00CFB0022A6
:10079C004FF48071794801F006FB00224FF4007190
:1007AC00764801F000FB01224FF48061734801F0A0
:1007BC00FAFA01224FF40061704801F0F4FA0022B9
:1007CC004FF480516D4801F0EEFA00224FF40051C5
:1007DC006A4801F0E8FAFDE000228021674801F048
:1007EC00E2FA01224FF48071644801F0DCFA002235
:1007FC004FF40071614801F0D6FA00224FF4806189
:10080C005E4801F0D0FA01224FF400615B4801F020
:10081C00CAFA00224FF48051584801F0C4FA002261
:10082C004FF40051554801F0BEFAD3E0002280216C
:10083C00524801F0B8FA01224FF480714F4801F090
:10084C00B2FA00224FF400714C4801F0ACFA0022CD
:10085C004FF48061494801F0A6FA00224FF4006180
:10086C00464801F0A0FA00224FF48051434801F0B1
:10087C009AFA00224FF40051404801F094FAA9E092
:10088C00002280213D4801F08EFA00224FF4807145
:10089C003A4801F088FA00224FF40071374801F011
:1008AC0082FA01224FF48061344801F07CFA012273
:1008BC004FF40061314801F076FA01224FF4805177
:1008CC002E4801F070FA01224FF400512B4801F030
:1008DC006AFA7FE000228021284801F064FA0022A5
:1008EC004FF48071254801F05EFA00224FF400713C
:1008FC00224801F058FA00224FF480611F4801F0A1
:10090C0052FA00224FF400611C4801F04CFA00220C
:10091C004FF48051194801F046FA00224FF400516F
:10092C00164801F040FA55E000228021134801F0EE
:10093C003AFA00224FF48071104801F034FA002288
:10094C004FF400710D4801F02EFA00224FF4806133
:10095C000A4801F028FA01224FF40061074801F01F
:10096C0022FA00224FF48051044801F01CFA0022B4
:10097C004FF40051014801F016FA2BE0000C014035
:10098C0001228021154801F00EFA01224FF48071EA
:10099C00124801F008FA01224FF400710F4801F0DF
:1009AC0002FA01224FF480610C4801F0FCF901229B
:1009BC004FF40061094801F0F6F901224FF480511F
:1009CC00064801F0F0F901224FF40051034801F000
:1009DC00EAF900BF00BF0837BD4680BD000C0140DE
:1009EC0080B483B000AF00237B603FE0244A7B6877
:1009FC00012142F82310224A7B6852F82320214916
:100A0C007B6841F823201F4A7B6852F823201E493B
:100A1C007B6841F823201D4A7B68012142F8231092
:100A2C001B4A7B68002142F823101A4A7B6800217C
:100A3C0042F82310184A7B68002142F82310174A09
:100A4C007B68002142F82310154A7B68002142F88C
:100A5C002310144A7B68002142F82310124A7B6849
:100A6C00002142F823107B6801337B607B68022BEA
:100A7C00BCDD00BF00BF0C37BD4680BC704700BF5B
:100A8C00680000205C000020500000207400002052
:100A9C00800000208C00002098000020A400002082
:100AAC00B0000020BC000020C800002080B582B03F
:100ABC0000AF00237B60DDE0734A7B6852F8232093
:100ACC0072497B6841F82320714A7B6852F82320D5
:100ADC006D497B6841F823206E4A7B6852F82320CD
:100AEC006D497B6831F813301946104601F044F912
:100AFC0003461946664A7B6842F82310634A7B68B2
:100B0C0052F8232060497B6851F823309A4240F018
:100B1C00AE805D4A7B6852F823205D497B6851F8B2
:100B2C0023309A4240F0A3805C4A7B6852F8232021
:100B3C0057497B6851F823309A424ED0574A7B680C
:100B4C0052F82330002B34D1514A7B6852F82330B1
:100B5C00012B2ED1524A7B68012142F82310514AB5
:100B6C007B6852F823305A1C4E497B6841F823208D
:100B7C004C4A7B6852F82330012B05D14A4A7B68DA
:100B8C00282142F8231014E0464A7B6852F823309F
:100B9C00022B0ED1454A7B68012142F82310414AB1
:100BAC007B68002142F823103F4A7B68002142F801
:100BBC002310374A7B6852F8232038497B6841F868
:100BCC002320334A7B6852F82330002B2AD1384A31
:100BDC007B68642142F8231024E02D4A7B6852F88C
:100BEC002330002B1ED1324A7B6852F82330002B65
:100BFC0018DD2F4A7B6852F823305A1E2C497B682B
:100C0C0041F823202A4A7B6852F82330002B09DC58
:100C1C00284A7B68012142F82310254A7B6832213F
:100C2C0042F82310204A7B6852F82330002B1EDD3B
:100C3C001D4A7B6852F823305A1E1B497B6841F8C9
:100C4C002320194A7B6852F82330002B0FD1154A08
:100C5C007B6852F82330012B04D1174A7B680121A1
:100C6C0042F823100F4A7B68002142F823107B685E
:100C7C0001337B607B68022B7FF71EAF00BF00BF88
:100C8C000837BD4680BD00BF5C000020500000202E
:100C9C0068000020000000200C00002074000020E0
:100CAC00A4000020BC000020C8000020B0000020E0
:100CBC0080000020980000208C00002080B483B0BD
:100CCC0000AF78607B68002B02DB7B68022B01DDB8
:100CDC0000230DE0094A7B6852F82330012B06D122
:100CEC00064A7B68002142F82310012300E0002310
:100CFC0018460C37BD4680BC704700BF8C000020E6
:100D0C0080B500AF40F6B8324FF4FA6141F288304A
:100D1C0000F006FC00BF80BD80B582B000AF7860EB
:100D2C007B68013B032B10D801A252F823F000BFC3
:100D3C004D0D0008570D0008570D0008570D000801
:100D4C0000F0FEFAFFF7FCF900E000BF00BF083727
:100D5C00BD4680BD80B582B000AF78607B68013B3A
:100D6C00032B0ED801A252F823F000BF8F0D000800
:100D7C00890D00088F0D00088F0D0008FFF7C0FFCC
:100D8C0000E000BF00BF0837BD4680BD80B500AF96
:100D9C00104B1A68104B1B689A4208D00E4B1B68FC
:100DAC001846FFF7B9FF0C4B1B680A4A13600A4B35
:100DBC001B681846FFF7CEFF084B1B68002B06D0AC
:100DCC00074B1B68044A1360044B00221A6000BFD7
:100DDC0080BD00BFD4000020D8000020E00000201F
:100DEC00DC00002080B500AF0020FFF767FF034652
:100DFC00002B23D0134B01221A60134B1B68013BB1
:100E0C00032B1CD801A252F823F000BF290E0008B6
:100E1C00310E0008390E0008410E00080B4B02225F
:100E2C001A600CE0094B03221A6008E0074B0422FD
:100E3C001A6004E0054B01221A6000E000BF00BFFD
:100E4C0080BD00BFE0000020D8000020DC000020A6
:100E5C0080B500AF064B01221A60064B01221A60C6
:100E6C00FFF7BEFD642000F029F900BF80BD00BF74
:100E7C00D8000020DC00002080B500AF00F092FC10
:100E8C0000F00EF800F094F800F046F8034801F07A
:100E9C00CFFBFFF7DDFFFFF779FFFCE71801002020
:100EAC0080B590B000AF07F1180328220021184636
:100EBC0001F06EFF3B1D00221A605A609A60DA60E6
:100ECC001A610223BB610123BB621023FB62002366
:100EDC007B6307F11803184600F07EFF0346002BD6
:100EEC0001D000F0E5F80F237B600023BB600023EA
:100EFC00FB6000233B6100237B613B1D00211846F6
:100F0C0001F0EAF90346002B01D000F0D1F800BF44
:100F1C004037BD4680BD000080B586B000AF07F1FC
:100F2C00080300221A605A609A60DA603B4600227D
:100F3C001A605A601D4B4FF080421A601B4B41F6F1
:100F4C003F725A60194B00229A60184B0922DA60E2
:100F5C00164B00221A61154B00229A61134801F0BE
:100F6C0017FB0346002B01D000F0A2F84FF480537E
:100F7C00BB6007F1080319460C4801F095FC0346C9
:100F8C00002B01D000F094F800233B6000237B6021
:100F9C003B461946054801F06DFE0346002B01D077
:100FAC0000F086F800BF1837BD4680BD1801002040
:100FBC0080B588B000AF07F1100300221A605A60A8
:100FCC009A60DA602F4B9B692E4A43F010039361B1
:100FDC002C4B9B6903F01003FB60FB68294B9B694E
:100FEC00284A43F004039361264B9B6903F00403E6
:100FFC00BB60BB68234B9B69224A43F00803936197
:10100C00204B9B6903F008037B607B68002243F64E
:10101C00FE711D4800F0C7FE00224FF6FF711B4801
:10102C0000F0C1FE4FF460433B6100237B61012360
:10103C00BB6107F110031946154800F023FD43F678
:10104C00FE733B6101237B610023BB610223FB61C7
:10105C0007F1100319460C4800F014FD4FF6FF730E
:10106C003B6101237B610023BB610223FB6107F120
:10107C0010031946054800F005FD00BF2037BD469A
:10108C0080BD00BF0010024000080140000C014070
:10109C000010014080B582B000AF786000F062F8BB
:1010AC00FFF704FDFFF79EFE00BF0837BD4680BD6D
:1010BC0080B400AF72B600BFFEE7000080B485B00C
:1010CC0000AF78607B68104A82FB03129210DB172A
:1010DC00D31ABB600023FB600CE00C49FB68BA68B8
:1010EC0041F823200A4AFB68002142F82310FB68D0
:1010FC000133FB60FB68052BEFDD00BF00BF14372D
:10110C00BD4680BC704700BF67666666E400002081
:10111C00FC00002080B483B000AF786039607B683D
:10112C00002B13DB7B68052B10DC3B680A4A82FB27
:10113C0003129210DB17D21A08497B6841F823205E
:10114C00074A7B68002142F8231000E000BF0C37EF
:10115C00BD4680BC704700BF67666666E400002031
:10116C00FC00002080B483B000AF00237B601CE047
:10117C00124A7B6852F82330002B13DD0F4A7B6830
:10118C0052F823305A1E0D497B6841F823200B4A34
:10119C007B6852F82330002B04DC094A7B68012160
:1011AC0042F823107B6801337B607B68052BDFDD05
:1011BC0000BF00BF0C37BD4680BC7047E400002068
:1011CC00FC00002080B483B000AF78607B68002BFB
:1011DC0002DB7B68052B01DD002303E0044A7B68FE
:1011EC0052F8233018460C37BD4680BC704700BF00
:1011FC00FC00002080B483B000AF78607B68002BCB
:10120C0002DB7B68052B01DD002303E0044A7B68CD
:10121C0052F8233018460C37BD4680BC704700BFCF
:10122C00E400002080B485B000AF154B9B69144AD4
:10123C0043F001039361124B9B6903F00103BB6004
:10124C00BB680F4BDB690E4A43F08053D3610C4BE8
:10125C00DB6903F080537B607B680A4B5B68FB6047
:10126C00FB6823F0E063FB60FB6843F08063FB608A
:10127C00044AFB68536000BF1437BD4680BC7047FE
:10128C00001002400000014080B584B000AF7860CF
:10129C007B681B68B3F1804F13D10C4BDB690B4A95
:1012AC0043F00103D361094BDB6903F00103FB60DD
:1012BC00FB68002200211C2000F0ADFB1C2000F07C
:1012CC00C6FB00BF1037BD4680BD00BF00100240FA
:1012DC0080B400AFFEE780B400AFFEE780B400AF8F
:1012EC00FEE780B400AFFEE780B400AFFEE780B449
:1012FC0000AF00BFBD4680BC704780B400AF00BFDC
:10130C00BD4680BC704780B400AF00BFBD4680BCFA
:10131C00704780B500AF00F08BFA00BF80BD0000B5
:10132C0080B500AF024801F0CFF900BF80BD00BF0F
:10133C001801002080B400AF00BFBD4680BC7047D0
:10134C0080B500AF01220221204800F02CFD0122C3
:10135C0004211E4800F027FD012208211B4800F043
:10136C0022FD01221021194800F01DFD012240210F
:10137C00164800F018FD01228021144800F013FDDE
:10138C0001224FF48071114800F00DFD01224FF441
:10139C0000710E4800F007FD01224FF480610B48EC
:1013AC0000F001FD01224FF40061084800F0FBFC45
:1013BC0001224FF48051054800F0F5FC01224FF456
:1013CC000051024800F0EFFC00BF80BD0008014056
:1013DC0080B500AF002202210A4800F0E4FC012293
:1013EC000421084800F0DFFC00224FF4807105480E
:1013FC0000F0D9FC01224FF40071024800F0D3FC3C
:10140C0000BF80BD0008014080B500AF0122022161
:10141C000A4800F0C8FC00220821084800F0C3FC70
:10142C0001224FF48071054800F0BDFC00224FF4FE
:10143C008061024800F0B7FC00BF80BD000801408D
:10144C0080B500AF012208210A4800F0ACFC002254
:10145C000421084800F0A7FC01224FF480610548E4
:10146C0000F0A1FC00224FF40071024800F09BFC3C
:10147C0000BF80BD0008014080B500AF00221021E4
:10148C000A4800F090FC01224021084800F08BFC37
:10149C0000224FF40061054800F085FC01224FF456
:1014AC008051024800F07FFC00BF80BD0008014065
:1014BC0080B500AF012210210A4800F074FC002214
:1014CC008021084800F06FFC01224FF400610548B0
:1014DC0000F069FC00224FF40051024800F063FC5C
:1014EC0000BF80BD0008014080B500AF0122802103
:1014FC000A4800F058FC00224021084800F053FC38
:10150C0001224FF40051054800F04DFC00224FF42D
:10151C008051024800F047FC00BF80BD000801402C
:10152C0090B585B000AFF860B9607A60884B1B78D5
:10153C00042B00F2008101A252F823F05D15000883
:10154C0091150008FD1500086B160008D51600084B
:10155C00012241F244217F4800F025FC7C4B012202
:10156C001A70F9680120FFF7D5FD79680220FFF7A2
:10157C00D1FD0A210420FFF7CDFD0A210520FFF73C
:10158C00C9FDE1E0FFF724FFFFF792FF0520FFF70D
:10159C0019FE0346002B10D00120FFF72BFE04464A
:1015AC000220FFF727FE034619462046FEF722FECF
:1015BC004FF4FA710520FFF7ADFD0420FFF702FE92
:1015CC000346002B05D0FEF7D3FD50210420FFF776
:1015DC00A1FD0220FFF7F6FD0346002B00F0AD80C5
:1015EC005B4B02221A70B9680220FFF793FDA4E04E
:1015FC00FFF77AFF0520FFF7E5FD0346002B10D01F
:10160C000120FFF7F7FD04460220FFF7F3FD034628
:10161C0019462046FEF7EEFD4FF4FA710520FFF750
:10162C0079FD0420FFF7CEFD0346002B05D0FEF715
:10163C009FFD50210420FFF76DFD0120FFF7C2FD37
:10164C000346002B7BD0424B03221A707968012091
:10165C00FFF760FDF9680220FFF75CFD6FE0FFF714
:10166C00D3FEFFF709FF0520FFF7ACFD0346002B67
:10167C0010D00120FFF7BEFD04460220FFF7BAFD93
:10168C00034619462046FEF7B5FD4FF4FA710520C6
:10169C00FFF740FD0420FFF795FD0346002B05D016
:1016AC00FEF766FD50210420FFF734FD0120FFF703
:1016BC0089FD0346002B44D0254B04221A70B968CF
:1016CC000120FFF727FD3CE0FFF7BAFE0520FFF7EE
:1016DC0079FD0346002B10D00120FFF78BFD04464B
:1016EC000220FFF787FD034619462046FEF782FDD0
:1016FC004FF4FA710520FFF70DFD0420FFF762FD92
:10170C000346002B05D0FEF733FD50210420FFF7D4
:10171C0001FD0120FFF756FD0346002B13D00C4BA7
:10172C0001221A70F9680120FFF7F4FC7968022095
:10173C00FFF7F0FC07E000BF06E000BF04E000BFCD
:10174C0002E000BF00E000BF00BF1437BD4690BDF3
:10175C001401002000080140FFF7ECFD0B480C4978
:10176C000C4A002302E0D458C4500433C4188C42F1
:10177C00F9D3094A094C002301E013600432A24258
:10178C00FBD301F0E1FAFFF777FB70470000002074
:10179C0020000020F02D0008200000206401002013
:1017AC00FEE7000080B500AF084B1B68074A43F00A
:1017BC0010031360032000F023F90F2000F008F849
:1017CC00FFF730FD0023184680BD00BF002002400B
:1017DC0080B582B000AF7860124B1A68124B1B7840
:1017EC0019464FF47A73B3FBF1F3B2FBF3F31846DB
:1017FC0000F03BF90346002B01D001230EE07B687F
:10180C000F2B0AD8002279684FF0FF3000F003F953
:10181C00064A7B681360002300E001231846083752
:10182C00BD4680BD140000201C00002018000020C4
:10183C0080B400AF054B1B781A46054B1B6813444C
:10184C00034A136000BFBD4680BC70471C000020DB
:10185C006001002080B400AF024B1B681846BD46E7
:10186C0080BC70476001002080B485B000AF786008
:10187C007B6803F00703FB600C4BDB68BB60BA684A
:10188C004FF6FF031340BB60FB681A02BB6813439F
:10189C0043F0BF6343F40033BB60044ABB68D360BE
:1018AC0000BF1437BD4680BC704700BF00ED00E0A0
:1018BC0080B400AF044BDB681B0A03F00703184627
:1018CC00BD4680BC704700BF00ED00E080B483B023
:1018DC0000AF0346FB7197F90730002B0BDBFB794C
:1018EC0003F01F02064997F907305B09012000FA43
:1018FC0002F241F8232000BF0C37BD4680BC704774
:10190C0000E100E080B483B000AF03463960FB71A6
:10191C0097F90730002B0ADB3B68DAB20C4997F9D0
:10192C0007301201D2B20B4483F800230AE03B6863
:10193C00DAB20849FB7903F00F03043B1201D2B26F
:10194C000B441A7600BF0C37BD4680BC704700BFF5
:10195C0000E100E000ED00E080B489B000AFF86079
:10196C00B9607A60FB6803F00703FB61FB69C3F1A4
:10197C000703042B28BF0423BB61FB690433062B2C
:10198C0002D9FB69033B00E000237B614FF0FF327F
:10199C00BB6902FA03F3DA43BB681A407B699A40CD
:1019AC004FF0FF317B6901FA03F3D9437B680B409D
:1019BC00134318462437BD4680BC704780B582B0AF
:1019CC0000AF78607B68013BB3F1807F01D30123CA
:1019DC000FE00A4A7B68013B53600F214FF0FF3048
:1019EC00FFF790FF054B00229A60044B07221A6008
:1019FC00002318460837BD4680BD00BF10E000E04C
:101A0C0080B582B000AF78607868FFF72DFF00BF1B
:101A1C000837BD4680BD80B586B000AF0346B960BF
:101A2C007A60FB7300237B61FFF742FF78617A6871
:101A3C00B9687869FFF790FF024697F90F301146A5
:101A4C001846FFF75FFF00BF1837BD4680BD80B555
:101A5C0082B000AF0346FB7197F907301846FFF7C9
:101A6C0035FF00BF0837BD4680BD80B582B000AFE2
:101A7C0078607868FFF7A2FF034618460837BD4622
:101A8C0080BD000080B48BB000AF7860396000235B
:101A9C007B6200233B6248E101227B6A02FA03F37A
:101AAC00FB613B681B68FA691340BB61BA69FB694F
:101ABC009A4240F037813B685B68A34A93425ED000
:101ACC00A14A934275D8A14A934258D09F4A934257
:101ADC006FD89F4A934252D09D4A934269D89D4AEF
:101AEC0093424CD09B4A934263D89B4A934246D034
:101AFC00994A93425DD8122B2AD8122B59D801A29D
:101B0C0052F823F08B1B0008651B0008771B00089C
:101B1C00B91B0008BF1B0008BF1B0008BF1B000837
:101B2C00BF1B0008BF1B0008BF1B0008BF1B000821
:101B3C00BF1B0008BF1B0008BF1B0008BF1B000811
:101B4C00BF1B0008BF1B00086D1B0008811B000891
:101B5C00824A934213D02CE03B68DB683B6229E05D
:101B6C003B68DB6804333B6224E03B68DB6808338A
:101B7C003B621FE03B68DB680C333B621AE03B685E
:101B8C009B68002B02D104233B6213E03B689B68EB
:101B9C00012B05D108233B627B68FA691A6109E0C5
:101BAC0008233B627B68FA695A6103E000233B62BD
:101BBC0000E000BFBB69FF2B01D87B6801E07B68AC
:101BCC0004337B61BB69FF2B02D87B6A9B0002E06C
:101BDC007B6A083B9B003B617B691A680F213B6960
:101BEC0001FA03F3DB431A40396A3B6901FA03F348
:101BFC001A437B691A603B685B6803F08053002BC7
:101C0C0000F09080564B9B69554A43F00103936159
:101C1C00534B9B6903F00103BB60BB68514A7B6A61
:101C2C009B08023352F82330FB607B6A03F00303FA
:101C3C009B000F2202FA03F3DB43FA681340FB60AC
:101C4C007B68494A93420DD07B68484A934207D03F
:101C5C007B68474A934201D1022304E0032302E04C
:101C6C00012300E000237A6A02F003029200934001
:101C7C00FA681343FB603B497B6A9B080233FA68A2
:101C8C0041F823203B685B6803F48013002B06D0DB
:101C9C00384B9A683749BB6913438B6006E0354B68
:101CAC009A68BB69DB43334913408B603B685B68C4
:101CBC0003F40013002B06D02E4BDA682D49BB69B8
:101CCC001343CB6006E02B4BDA68BB69DB43294935
:101CDC001340CB603B685B6803F40033002B06D0E9
:101CEC00244B5A682349BB6913434B6006E0214BD4
:101CFC005A68BB69DB431F4913404B603B685B6808
:101D0C0003F48033002B06D01A4B1A681949BB69AF
:101D1C0013430B6006E0174B1A68BB69DB4315498C
:101D2C0013400B607B6A01337B623B681A687B6AE9
:101D3C0022FA03F3002B7FF4AFAE00BF00BF2C37A9
:101D4C00BD4680BC704700BF00003210000031104F
:101D5C0000002210000021100000121000001110D1
:101D6C00001002400000014000080140000C01403E
:101D7C00001001400004014080B485B000AF7860D1
:101D8C000B467B807B689A687B881340002B02D0C3
:101D9C000123FB7301E00023FB73FB7B1846143714
:101DAC00BD4680BC704780B483B000AF78600B46F2
:101DBC007B8013467B707B78002B03D07A887B6802
:101DCC001A6103E07B881A047B681A6100BF0C3728
:101DDC00BD4680BC7047000080B586B000AF78600F
:101DEC007B68002B01D101236CE27B681B6803F03C
:101DFC000103002B00F08780924B5B6803F00C030F
:101E0C00042B0CD08F4B5B6803F00C03082B12D106
:101E1C008C4B5B6803F48033B3F5803F0BD1894B5B
:101E2C001B6803F40033002B6CD07B685B68002BC1
:101E3C0068D1012346E27B685B68B3F5803F06D12D
:101E4C00804B1B687F4A43F4803313602EE07B6821
:101E5C005B68002B0CD17B4B1B687A4A23F48033D4
:101E6C001360784B1B68774A23F4802313601DE0C2
:101E7C007B685B68B3F5A02F0CD1724B1B68714A61
:101E8C0043F4802313606F4B1B686E4A43F480331A
:101E9C0013600BE06B4B1B686A4A23F480331360AE
:101EAC00684B1B68674A23F4802313607B685B686C
:101EBC00002B13D0FFF7CEFC386108E0FFF7CAFC0B
:101ECC0002463B69D31A642B01D90323FAE15D4B1B
:101EDC001B6803F40033002BF0D014E0FFF7BAFCBE
:101EEC00386108E0FFF7B6FC02463B69D31A642B55
:101EFC0001D90323E6E1534B1B6803F40033002B99
:101F0C00F0D100E000BF7B681B6803F00203002BDC
:101F1C0063D04C4B5B6803F00C03002B0BD0494B8C
:101F2C005B6803F00C03082B1CD1464B5B6803F475
:101F3C008033002B16D1434B1B6803F00203002B9C
:101F4C0005D07B681B69012B01D00123BAE13D4B05
:101F5C001B6823F0F8027B685B69DB00394913438B
:101F6C000B603AE07B681B69002B20D0364B0122BA
:101F7C001A60FFF76FFC386108E0FFF76BFC024654
:101F8C003B69D31A022B01D903239BE12D4B1B6810
:101F9C0003F00203002BF0D02A4B1B6823F0F8024D
:101FAC007B685B69DB00274913430B6015E0264B0C
:101FBC0000221A60FFF74EFC386108E0FFF74AFC7C
:101FCC0002463B69D31A022B01D903237AE11D4B3C
:101FDC001B6803F00203002BF0D17B681B6803F035
:101FEC000803002B3AD07B689B69002B19D0174B48
:101FFC0001221A60FFF72EFC386108E0FFF72AFC7B
:10200C0002463B69D31A022B01D903235AE10D4B2B
:10201C005B6A03F00203002BF0D0012000F09AFA67
:10202C001CE00A4B00221A60FFF714FC38610FE029
:10203C00FFF710FC02463B69D31A022B08D9032385
:10204C0040E100BF001002400000424280044242C6
:10205C009E4B5B6A03F00203002BE9D17B681B6883
:10206C0003F00403002B00F0A6800023FB75974BB4
:10207C00DB6903F08053002B0DD1944BDB69934A41
:10208C0043F08053D361914BDB6903F08053BB6009
:10209C00BB680123FB758E4B1B6803F48073002B0C
:1020AC0018D18B4B1B688A4A43F480731360FFF77B
:1020BC00D1FB386108E0FFF7CDFB02463B69D31A30
:1020CC00642B01D90323FDE0814B1B6803F480735F
:1020DC00002BF0D07B68DB68012B06D17B4B1B6A95
:1020EC007A4A43F0010313622DE07B68DB68002B16
:1020FC000CD1764B1B6A754A23F001031362734BA8
:10210C001B6A724A23F0040313621CE07B68DB68D1
:10211C00052B0CD16D4B1B6A6C4A43F00403136204
:10212C006A4B1B6A694A43F0010313620BE0674B6D
:10213C001B6A664A23F001031362644B1B6A634AF1
:10214C0023F0040313627B68DB68002B15D0FFF7C8
:10215C0081FB38610AE0FFF77DFB02463B69D31A2D
:10216C0041F28832934201D90323ABE0574B1B6AEF
:10217C0003F00203002BEED014E0FFF76BFB386189
:10218C000AE0FFF767FB02463B69D31A41F288323B
:10219C00934201D9032395E04C4B1B6A03F00203D5
:1021AC00002BEED1FB7D012B05D1484BDB69474A57
:1021BC0023F08053D3617B68DB69002B00F08180B6
:1021CC00424B5B6803F00C03082B61D07B68DB6926
:1021DC00022B46D13F4B00221A60FFF73BFB3861C4
:1021EC0008E0FFF737FB02463B69D31A022B01D9F3
:1021FC00032367E0354B1B6803F00073002BF0D111
:10220C007B681B6AB3F5803F08D1304B5B6823F4C5
:10221C0000327B689B682D4913434B602B4B5B68EA
:10222C0023F474127B68196A7B685B6A0B43274939
:10223C0013434B60274B01221A60FFF70BFB3861ED
:10224C0008E0FFF707FB02463B69D31A022B01D9C2
:10225C00032337E01D4B1B6803F00073002BF0D0F9
:10226C002FE01C4B00221A60FFF7F4FA386108E0EB
:10227C00FFF7F0FA02463B69D31A022B01D903236C
:10228C0020E0124B1B6803F00073002BF0D118E018
:10229C007B68DB69012B01D1012313E00B4B5B68DD
:1022AC00FB60FB6803F480327B681B6A9A4206D1A0
:1022BC00FB6803F470127B685B6A9A4201D00123BD
:1022CC0000E0002318461837BD4680BD00100240C0
:1022DC00007000406000424280B584B000AF78606E
:1022EC0039607B68002B01D10123D0E06A4B1B685D
:1022FC0003F007033A689A4210D9674B1B6823F026
:10230C00070265493B6813430B60634B1B6803F082
:10231C0007033A689A4201D00123B8E07B681B6836
:10232C0003F00203002B20D07B681B6803F004032E
:10233C00002B05D0594B5B68584A43F4E06353605B
:10234C007B681B6803F00803002B05D0534B5B68BC
:10235C00524A43F460535360504B5B6823F0F002D5
:10236C007B689B684D4913434B607B681B6803F08B
:10237C000103002B40D07B685B68012B07D1474BD6
:10238C001B6803F40033002B15D101237FE07B681D
:10239C005B68022B07D1414B1B6803F00073002BC9
:1023AC0009D1012373E03D4B1B6803F00203002BA2
:1023BC0001D101236BE0394B5B6823F003027B688E
:1023CC005B68364913434B60FFF744FAF8600AE048
:1023DC00FFF740FA0246FB68D31A41F28832934267
:1023EC0001D9032353E02D4B5B6803F00C027B688F
:1023FC005B689B009A42EBD1274B1B6803F00703E9
:10240C003A689A4210D2244B1B6823F007022249E7
:10241C003B6813430B60204B1B6803F007033A68BF
:10242C009A4201D0012332E07B681B6803F004035D
:10243C00002B08D0194B5B6823F4E0627B68DB68E7
:10244C00164913434B607B681B6803F00803002B91
:10245C0009D0124B5B6823F460527B681B69DB006C
:10246C000E4913434B6000F021F802460B4B5B689E
:10247C001B0903F00F030A49CB5C22FA03F3094A48
:10248C001360094B1B681846FFF7A2F90023184686
:10249C001037BD4680BD00BF002002400010024036
:1024AC00C42D0008140000201800002080B487B050
:1024BC0000AF0023FB600023BB6000237B61002383
:1024CC007B6000233B611E4B5B68FB60FB6803F089
:1024DC000C03042B02D0082B03D027E0194B3B61D3
:1024EC0027E0FB689B0C03F00F03174AD35C7B605F
:1024FC00FB6803F48033002B10D0114B5B685B0C32
:10250C0003F00103114AD35CBB607B680D4A02FBEC
:10251C0003F2BB68B2FBF3F37B6104E07B680C4A0B
:10252C0002FB03F37B617B693B6102E0054B3B6182
:10253C0000BF3B6918461C37BD4680BC704700BFC6
:10254C000010024000127A00D42D0008E42D00087F
:10255C0000093D0080B485B000AF78600A4B1B6861
:10256C000A4AA2FB03235B0A7A6802FB03F3FB60B3
:10257C0000BFFB685A1EFA60002BF9D100BF00BFE8
:10258C001437BD4680BC704714000020D34D621038
:10259C0080B582B000AF78607B68002B01D101233D
:1025AC0041E07B6893F83D30DBB2002B06D17B68B1
:1025BC00002283F83C207868FEF766FE7B680222D6
:1025CC0083F83D207B681A687B68043319461046F3
:1025DC0000F056FA7B68012283F846207B680122C2
:1025EC0083F83E207B68012283F83F207B68012220
:1025FC0083F840207B68012283F841207B6801220C
:10260C0083F842207B68012283F843207B680122F7
:10261C0083F844207B68012283F845207B680122E3
:10262C0083F83D20002318460837BD4680BD0000C6
:10263C0080B485B000AF78607B6893F83D30DBB236
:10264C00012B01D0012335E07B68022283F83D2069
:10265C007B681B68DA687B681B6842F00102DA60F1
:10266C007B681B68164A934209D07B681B68B3F1E0
:10267C00804F04D07B681B68124A934211D17B684F
:10268C001B689B6803F00703FB60FB68062B10D0EC
:10269C007B681B681A687B681B6842F001021A6031
:1026AC0007E07B681B681A687B681B6842F00102B4
:1026BC001A60002318461437BD4680BC704700BF13
:1026CC00002C01400004004080B584B000AF78605D
:1026DC007B681B68DB68FB607B681B681B69BB60E5
:1026EC00BB6803F00203002B20D0FB6803F002034D
:1026FC00002B1BD07B681B686FF002021A617B6891
:10270C0001221A777B681B689B6903F00303002B7B
:10271C0003D0786800F098F905E0786800F08BF940
:10272C00786800F09AF97B6800221A77BB6803F08E
:10273C000403002B20D0FB6803F00403002B1BD0F8
:10274C007B681B686FF004021A617B6802221A779F
:10275C007B681B689B6903F44073002B03D078687B
:10276C0000F072F905E0786800F065F9786800F01F
:10277C0074F97B6800221A77BB6803F00803002BFE
:10278C0020D0FB6803F00803002B1BD07B681B6870
:10279C006FF008021A617B6804221A777B681B6849
:1027AC00DB6903F00303002B03D0786800F04CF9CD
:1027BC0005E0786800F03FF9786800F04EF97B6826
:1027CC0000221A77BB6803F01003002B20D0FB68A3
:1027DC0003F01003002B1BD07B681B686FF01002FA
:1027EC001A617B6808221A777B681B68DB6903F423
:1027FC004073002B03D0786800F026F905E0786868
:10280C0000F019F9786800F028F97B6800221A7733
:10281C00BB6803F00103002B0CD0FB6803F0010331
:10282C00002B07D07B681B686FF001021A61786877
:10283C00FEF730FCBB6803F08003002B0CD0FB6868
:10284C0003F08003002B07D07B681B686FF08002BD
:10285C001A61786800F06FFABB6803F04003002B34
:10286C000CD0FB6803F04003002B07D07B681B687F
:10287C006FF040021A61786800F0F8F8BB6803F05A
:10288C002003002B0CD0FB6803F02003002B07D097
:10289C007B681B686FF020021A61786800F042FABE
:1028AC0000BF1037BD4680BD80B584B000AF7860E6
:1028BC0039600023FB737B6893F83C30012B01D10A
:1028CC000223B4E07B68012283F83C207B6802225F
:1028DC0083F83D207B681B689B68BB60BB6823F05A
:1028EC007703BB60BB6823F47F43BB607B681B68CA
:1028FC00BA689A603B681B68B3F5005F3ED0B3F5CD
:10290C00005F00F28780B3F5805F00F08680B3F53E
:10291C00805F7FD8702B1AD0702B7BD8602B50D057
:10292C00602B77D8502B3CD0502B73D8402B58D0E1
:10293C00402B6FD8302B64D0302B6BD8202B60D031
:10294C00202B67D8002B5CD0102B5AD062E07B6810
:10295C0018683B6899683B685A683B68DB6800F00C
:10296C006AF97B681B689B68BB60BB6843F07703A4
:10297C00BB607B681B68BA689A604FE07B6818681C
:10298C003B6899683B685A683B68DB6800F053F910
:10299C007B681B689A687B681B6842F480429A606B
:1029AC003CE07B6818683B6859683B68DB681A46F2
:1029BC0000F0CAF87B681B685021184600F021F91A
:1029CC002CE07B6818683B6859683B68DB681A46E2
:1029DC0000F0E8F87B681B686021184600F011F9DC
:1029EC001CE07B6818683B6859683B68DB681A46D2
:1029FC0000F0AAF87B681B684021184600F001F92A
:102A0C000CE07B681A683B681B681946104600F09E
:102A1C00F8F803E00123FB7300E000BF7B680122A0
:102A2C0083F83D207B68002283F83C20FB7B184612
:102A3C001037BD4680BD80B483B000AF786000BF56
:102A4C000C37BD4680BC704780B483B000AF786053
:102A5C0000BF0C37BD4680BC704780B483B000AF5C
:102A6C00786000BF0C37BD4680BC704780B483B023
:102A7C0000AF786000BF0C37BD4680BC70470000CB
:102A8C0080B485B000AF786039607B681B68FB60F0
:102A9C007B682B4A934207D07B68B3F1804F03D0FD
:102AAC007B68284A934208D1FB6823F07003FB60D3
:102ABC003B685B68FA681343FB607B68204A93426F
:102ACC0007D07B68B3F1804F03D07B681D4A9342DB
:102ADC0008D1FB6823F44073FB603B68DB68FA6841
:102AEC001343FB60FB6823F080023B685B69134374
:102AFC00FB607B68FA681A603B689A687B68DA62EC
:102B0C003B681A687B689A627B680D4A934203D1D2
:102B1C003B681A697B681A637B6801225A617B687F
:102B2C001B6903F00103002B05D07B681B6923F0A4
:102B3C0001027B681A6100BF1437BD4680BC704728
:102B4C00002C01400004004080B487B000AFF86056
:102B5C00B9607A60FB681B6A7B61FB681B6A23F0B7
:102B6C000102FB681A62FB689B693B613B6923F0BD
:102B7C00F0033B617B681B013A6913433B617B6942
:102B8C0023F00A037B617A69BB6813437B61FB68A2
:102B9C003A699A61FB687A691A6200BF1C37BD46B4
:102BAC0080BC704780B487B000AFF860B9607A60C1
:102BBC00FB681B6A7B61FB681B6A23F01002FB68D5
:102BCC001A62FB689B693B613B6923F470433B6170
:102BDC007B681B033A6913433B617B6923F0A003B9
:102BEC007B61BB681B017A6913437B61FB683A69A3
:102BFC009A61FB687A691A6200BF1C37BD4680BCBB
:102C0C00704780B485B000AF786039607B689B6892
:102C1C00FB60FB6823F07003FB603A68FB681343AE
:102C2C0043F00703FB607B68FA689A6000BF1437B7
:102C3C00BD4680BC704780B487B000AFF860B96007
:102C4C007A603B60FB689B687B617B6923F47F4304
:102C5C007B613B681A027B681A43BB6813437A6931
:102C6C0013437B61FB687A699A6000BF1C37BD46D1
:102C7C0080BC704780B485B000AF786039607B68E9
:102C8C0093F83C30012B01D1022341E07B680122F7
:102C9C0083F83C207B68022283F83D207B681B680C
:102CAC005B68FB607B681B689B68BB60FB6823F000
:102CBC007003FB603B681B68FA681343FB607B681E
:102CCC001B68FA685A607B681B68144A934209D0E7
:102CDC007B681B68B3F1804F04D07B681B68104A7B
:102CEC0093420CD1BB6823F08003BB603B685B68EC
:102CFC00BA681343BB607B681B68BA689A607B68D0
:102D0C00012283F83D207B68002283F83C200023BD
:102D1C0018461437BD4680BC704700BF002C0140DC
:102D2C000004004080B483B000AF786000BF0C3763
:102D3C00BD4680BC704780B483B000AF786000BFE4
:102D4C000C37BD4680BC704770B500260C4D0D4C41
:102D5C00641BA410A64209D100F022F800260A4DEB
:102D6C000A4C641BA410A64205D170BD55F8043B57
:102D7C0098470136EEE755F8043B98470136F2E7E1
:102D8C00E82D0008E82D0008E82D0008EC2D0008BF
:102D9C0003460244934200D1704703F8011BF9E744
:102DAC00F8B500BFF8BC08BC9E467047F8B500BF2C
:082DBC00F8BC08BC9E467047FC
:102DC40000000000000000000102030406070809D7
:102DD40002030405060708090A0B0C0D0E0F101058
:042DE40001020000E8
:042DE80031010008AD
:042DEC000D010008CD
:102DF0000010014000100140001001400020004080
:102E00000080000000127A001000000001000000A5
:040000050800176573
:00000001FF
