:020000040800F2
:10000000002800203D230008E5200008ED2000081E
:10001000F5200008FD200008052100080000000070
:100020000000000000000000000000000D2100089A
:1000300019210008000000002521000831210008D6
:1000400085230008852300088523000885230008F0
:1000500085230008852300088523000885230008E0
:1000600085230008852300088523000885230008D0
:1000700085230008852300088523000885230008C0
:1000800085230008852300088523000885230008B0
:1000900085230008852300088523000885230008A0
:1000A0008523000885230008852300088523000890
:1000B0003D2100088523000800000000852300087A
:1000C00085230008000000000000000085230008D0
:1000D00000000000852300088523000800000000C0
:1000E0008523000885230008852300080000000000
:1000F0000000000000000000000000000000000000
:0C01000000000000000000005FF808F1A3
:10010C0010B5054C237833B9044B13B10448AFF345
:10011C0000800123237010BD2C0000200000000083
:10012C00BC39000808B5034B1BB103490348AFF3B6
:10013C00008008BD0000000030000020BC39000821
:10014C0080B500AF134B1B68002B10D1124B1B68F2
:10015C00184600F0B7F8104B5B68184600F064FACC
:10016C00002000F077F80B4B01221A600FE00A4BCD
:10017C009B68184600F0A6F8074BDB68184600F0A1
:10018C0053FA012000F066F8024B00221A6000BFFF
:10019C0080BD00BF480000204C00002080B485B01A
:1001AC0000AF786039607B68204A82FB03125211E1
:1001BC00DB17D31AFB603B681C4A82FB03125211FB
:1001CC00DB17D31ABB60FB68194A82FB031292102F
:1001DC00DB17D31A174A1360F968154B83FB0123FD
:1001EC009A10CB17D21A13469B0013445B00CA1A01
:1001FC00104B5A60BB680E4A82FB03129210DB173D
:10020C00D31A0C4A9360B968094B83FB01239A10EB
:10021C00CB17D21A13469B0013445B00CA1A054B2A
:10022C00DA6000BF1437BD4680BC70471F85EB51A8
:10023C00676666664C00002080B500AF022000F0B7
:10024C0009F80A2000F03EF80A2000F0EDF900BF92
:10025C0080BD000080B582B000AF78607B68002B59
:10026C0003D07B68012B0DD019E000224FF48041A4
:10027C00134802F086FB01224FF40041104802F0B3
:10028C0080FB19E001224FF480410D4802F079FB0C
:10029C0000224FF400410A4802F073FB0CE00122EB
:1002AC004FF48041064802F06CFB01224FF40041F0
:1002BC00034802F066FB00BF00BF0837BD4680BD97
:1002CC00000C014080B582B000AF78607B68092BD0
:1002DC0000F2808101A252F823F000BF1103000844
:1002EC0059030008A1030008E903000831040008C1
:1002FC0079040008C104000809050008510500082C
:10030C009905000800220121C64802F03AFB0022A0
:10031C000221C44802F035FB00220421C14802F03E
:10032C0030FB00220821BF4802F02BFB00221021D9
:10033C00BC4802F026FB00222021BA4802F021FB27
:10034C0001224021B74802F01CFB67E10122012188
:10035C00B44802F016FB00220221B24802F011FB55
:10036C0000220421AF4802F00CFB01220821AD4809
:10037C0002F007FB01221021AA4802F002FB012225
:10038C002021A84802F0FDFA01224021A54802F0E4
:10039C00F8FA43E100220121A24802F0F2FA00220D
:1003AC000221A04802F0EDFA012204219D4802F03E
:1003BC00E8FA002208219B4802F0E3FA00221021FF
:1003CC00984802F0DEFA01222021964802F0D9FA70
:1003DC0000224021934802F0D4FA1FE100220121AF
:1003EC00904802F0CEFA002202218E4802F0C9FA9F
:1003FC00002204218B4802F0C4FA0022082189480B
:10040C0002F0BFFA01221021864802F0BAFA01224A
:10041C002021844802F0B5FA00224021814802F0E4
:10042C00B0FAFBE0012201217E4802F0AAFA002278
:10043C0002217C4802F0A5FA00220421794802F03E
:10044C00A0FA01220821774802F09BFA0122102120
:10045C00744802F096FA00222021724802F091FAB8
:10046C00002240216F4802F08CFAD7E000220121D3
:10047C006C4802F086FA012202216A4802F081FAE5
:10048C0000220421674802F07CFA0022082165480A
:10049C0002F077FA01221021624802F072FA00226F
:1004AC002021604802F06DFA002240215D4802F0E4
:1004BC0068FAB3E0002201215A4802F062FA0122E4
:1004CC000221584802F05DFA00220421554802F03E
:1004DC0058FA00220821534802F053FA0022102146
:1004EC00504802F04EFA002220214E4802F049FA00
:1004FC00002240214B4802F044FA8FE000220121F7
:10050C00484802F03EFA00220221464802F039FA2D
:10051C0000220421434802F034FA01220821414808
:10052C0002F02FFA012210213E4802F02AFA012291
:10053C0020213C4802F025FA01224021394802F0E2
:10054C0020FA6BE000220121364802F01AFA002250
:10055C000221344802F015FA00220421314802F03D
:10056C0010FA002208212F4802F00BFA0022102169
:10057C002C4802F006FA002220212A4802F001FA47
:10058C0000224021274802F0FCF947E0002201211B
:10059C00244802F0F6F900220221224802F0F1F977
:1005AC00002204211F4802F0ECF9002208211D480A
:1005BC0002F0E7F9012210211A4802F0E2F90022B8
:1005CC002021184802F0DDF900224021154802F0E4
:1005DC00D8F923E001220121124802F0D2F90122BC
:1005EC000221104802F0CDF9012204210D4802F03D
:1005FC00C8F9012208210B4802F0C3F9012210218D
:10060C00084802F0BEF901222021064802F0B9F98F
:10061C0001224021034802F0B4F900BF00BF0837A3
:10062C00BD4680BD000C014080B582B000AF786043
:10063C007B68092B00F2BE8101A252F823F000BFA7
:10064C0075060008C90600081D0700087107000898
:10065C00C5070008190800086D080008C108000843
:10066C00150900086909000800228021D04802F011
:10067C0088F900224FF48071CD4802F082F90022F3
:10068C004FF40071CA4802F07CF900224FF48061EB
:10069C00C74802F076F900224FF40061C44802F01A
:1006AC0070F900224FF48051C14802F06AF901221E
:1006BC004FF40051BE4802F064F9A5E101228021FB
:1006CC00BB4802F05EF900224FF48071B84802F08A
:1006DC0058F900224FF40071B54802F052F901228A
:1006EC004FF48061B24802F04CF901224FF40061E2
:1006FC00AF4802F046F901224FF48051AC4802F0A9
:10070C0040F901224FF40051A94802F03AF97BE17B
:10071C0000228021A64802F034F900224FF48071A7
:10072C00A34802F02EF901224FF40071A04802F008
:10073C0028F900224FF480619D4802F022F9002232
:10074C004FF400619A4802F01CF901224FF48051D9
:10075C00974802F016F900224FF40051944802F029
:10076C0010F951E100228021914802F00AF900228F
:10077C004FF480718E4802F004F900224FF400719E
:10078C008B4802F0FEF800224FF48061884802F09A
:10079C00F8F801224FF40061854802F0F2F80122CA
:1007AC004FF48051824802F0ECF800224FF40051D3
:1007BC007F4802F0E6F827E1012280217C4802F014
:1007CC00E0F800224FF48071794802F0DAF8002248
:1007DC004FF40071764802F0D4F801224FF4806196
:1007EC00734802F0CEF801224FF40061704802F019
:1007FC00C8F800224FF480516D4802F0C2F8002274
:10080C004FF400516A4802F0BCF8FDE00022802150
:10081C00674802F0B6F801224FF48071644802F088
:10082C00B0F800224FF40071614802F0AAF80022DF
:10083C004FF480615E4802F0A4F801224FF400618D
:10084C005B4802F09EF800224FF48051584802F0A9
:10085C0098F800224FF40051554802F092F8D3E07A
:10086C0000228021524802F08CF801224FF4807152
:10087C004F4802F086F800224FF400714C4802F009
:10088C0080F800224FF48061494802F07AF8002287
:10089C004FF40061464802F074F800224FF4805186
:1008AC00434802F06EF800224FF40051404802F029
:1008BC0068F8A9E0002280213D4802F062F800228D
:1008CC004FF480713A4802F05CF800224FF400714A
:1008DC00374802F056F801224FF48061344802F098
:1008EC0050F801224FF40061314802F04AF801221D
:1008FC004FF480512E4802F044F801224FF400517D
:10090C002B4802F03EF87FE000228021284802F0BC
:10091C0038F800224FF48071254802F032F800229A
:10092C004FF40071224802F02CF800224FF4806141
:10093C001F4802F026F800224FF400611C4802F018
:10094C0020F800224FF48051194802F01AF80022C6
:10095C004FF40051164802F014F855E000228021A3
:10096C00134802F00EF800224FF48071104802F088
:10097C0008F800224FF400710D4802F002F8002232
:10098C004FF480610A4801F0FCFF01224FF4006132
:10099C00074801F0F6FF00224FF48051044801F0A3
:1009AC00F0FF00224FF40051014801F0EAFF2BE068
:1009BC00000C014001228021154801F0E2FF0122C8
:1009CC004FF48071124801F0DCFF01224FF40071EA
:1009DC000F4801F0D6FF01224FF480610C4801F062
:1009EC00D0FF01224FF40061094801F0CAFF012237
:1009FC004FF48051064801F0C4FF01224FF400511E
:100A0C00034801F0BEFF00BF00BF0837BD4680BDE4
:100A1C00000C014080B500AF40F61211024801F005
:100A2C00C8FF00BF80BD00BF0008014080B500AF0B
:100A3C0041F24421024801F0BCFF00BF80BD00BF61
:100A4C000008014080B500AF42F28841024801F035
:100A5C00B0FF00BF80BD00BF0008014080B500AFF3
:100A6C00002001F0B3FA0346002B08D020210548E2
:100A7C0001F09FFF4FF47A71002001F04FFA00BF94
:100A8C0080BD00BF0008014080B500AF00F04AFAFD
:100A9C0000F09AFD00F0BEFB00BF80BD80B500AF3A
:100AAC00064B0B221A60642001F00CFAFFF7C4FB12
:100ABC0001F0F6FB00F004F800BF80BDEC00002054
:100ACC0080B483B000AF00237B603FE0244A7B6896
:100ADC00012142F82310224A7B6852F82320214935
:100AEC007B6841F823201F4A7B6852F823201E495B
:100AFC007B6841F823201D4A7B68012142F82310B2
:100B0C001B4A7B68002142F823101A4A7B6800219B
:100B1C0042F82310184A7B68002142F82310174A28
:100B2C007B68002142F82310154A7B68002142F8AB
:100B3C002310144A7B68002142F82310124A7B6868
:100B4C00002142F823107B6801337B607B68022B09
:100B5C00BCDD00BF00BF0C37BD4680BC704700BF7A
:100B6C0074000020680000205C0000208000002041
:100B7C008C00002098000020A4000020B000002071
:100B8C00BC000020C8000020D400002080B582B03A
:100B9C0000AF00237B60DDE0734A7B6852F82320B2
:100BAC0072497B6841F82320714A7B6852F82320F4
:100BBC006D497B6841F823206E4A7B6852F82320EC
:100BCC006D497B6831F813301946104601F0C2FEAE
:100BDC0003461946664A7B6842F82310634A7B68D1
:100BEC0052F8232060497B6851F823309A4240F038
:100BFC00AE805D4A7B6852F823205D497B6851F8D2
:100C0C0023309A4240F0A3805C4A7B6852F8232040
:100C1C0057497B6851F823309A424ED0574A7B682B
:100C2C0052F82330002B34D1514A7B6852F82330D0
:100C3C00012B2ED1524A7B68012142F82310514AD4
:100C4C007B6852F823305A1C4E497B6841F82320AC
:100C5C004C4A7B6852F82330012B05D14A4A7B68F9
:100C6C00282142F8231014E0464A7B6852F82330BE
:100C7C00022B0ED1454A7B68012142F82310414AD0
:100C8C007B68002142F823103F4A7B68002142F820
:100C9C002310374A7B6852F8232038497B6841F887
:100CAC002320334A7B6852F82330002B2AD1384A50
:100CBC007B68642142F8231024E02D4A7B6852F8AB
:100CCC002330002B1ED1324A7B6852F82330002B84
:100CDC0018DD2F4A7B6852F823305A1E2C497B684A
:100CEC0041F823202A4A7B6852F82330002B09DC78
:100CFC00284A7B68012142F82310254A7B6832215F
:100D0C0042F82310204A7B6852F82330002B1EDD5A
:100D1C001D4A7B6852F823305A1E1B497B6841F8E8
:100D2C002320194A7B6852F82330002B0FD1154A27
:100D3C007B6852F82330012B04D1174A7B680121C0
:100D4C0042F823100F4A7B68002142F823107B687D
:100D5C0001337B607B68022B7FF71EAF00BF00BFA7
:100D6C000837BD4680BD00BF680000205C00002035
:100D7C0074000020000000200C00002080000020E7
:100D8C00B0000020C8000020D4000020BC000020CF
:100D9C008C000020A40000209800002080B483B0B8
:100DAC0000AF78607B68002B02DB7B68022B01DDD7
:100DBC0000230DE0094A7B6852F82330012B06D141
:100DCC00064A7B68002142F82310012300E000232F
:100DDC0018460C37BD4680BC704700BF98000020F9
:100DEC0080B483B000AF78607B68002B02DB7B683B
:100DFC00022B01DD00230DE0094A7B6852F82330F9
:100E0C00012B06D1064A7B68002142F823100123EE
:100E1C0000E0002318460C37BD4680BC704700BF6D
:100E2C00A400002080B483B000AF78607B68002BF6
:100E3C0002DB7B68022B01DD00230DE0094A7B6895
:100E4C0052F82330012B06D1064A7B68002142F868
:100E5C002310012300E0002318460C37BD4680BC4C
:100E6C00704700BFBC00002080B500AF00F034F824
:100E7C0000F014F800F002F800BF80BD80B500AFA0
:100E8C000020FFF78BFF0346002B02D0024B012200
:100E9C001A6000BF80BD00BFF000002080B500AF1D
:100EAC000B4B1B68162B07D0094B1B68172B03D059
:100EBC00074B1B68152B08D10220FFF7B3FF034625
:100ECC00002B02D0034B01221A6000BF80BD00BF73
:100EDC00EC000020F800002080B500AF0F4B1B6821
:100EEC00102B0FD00D4B1B68142B0BD00B4B1B680E
:100EFC00132B07D0094B1B68122B03D0074B1B6815
:100F0C00112B08D10120FFF749FF0346002B02D01B
:100F1C00034B01221A6000BF80BD00BFEC00002013
:100F2C00F400002098B500AFB54B1B680B3B042BAD
:100F3C0000F2588101A252F823F000BF5D0F0008A7
:100F4C009D0F00082F100008C91000085911000847
:100F5C00AC4B1B68002B00F04781A94B0C221A608C
:100F6C00A94B1B681946012000F0D8FFA74B1B6842
:100F7C001946022000F0D2FF2821042000F0CEFFF9
:100F8C000A21052000F0CAFF9E4B00221A602BE1BB
:100F9C0001F0DEF801F04CF9052001F017F80346DA
:100FAC00002B0FD0012001F029F80446022001F09B
:100FBC0025F8034619462046FFF7F0F86421052072
:100FCC0000F0ACFF042001F001F80346002B05D023
:100FDC00FFF7B6F82821042000F0A0FF022000F053
:100FEC00F5FF0346002B08D0854B0D221A60884B69
:100FFC001B681946022000F091FF824B1B68002BE6
:10100C0000F0F4807E4B10221A60FA21032000F0CD
:10101C0085FFFFF711F901F043F97A4B00221A60B2
:10102C00E4E001F021F9052000F0D0FF0346002B8D
:10103C000FD0012000F0E2FF0446022000F0DEFF9A
:10104C00034619462046FFF7A9F86421052000F055
:10105C0065FF042000F0BAFF0346002B05D0FFF714
:10106C006FF82821042000F059FF012000F0AEFF9A
:10107C000346002B0ED0624B0E221A60634B1B688A
:10108C001946012000F04AFF5F4B1B6819460220ED
:10109C0000F044FF5B4B1B68002B00F0A980584B01
:1010AC0010221A60FA21032000F038FFFFF7C4F871
:1010BC0001F0F6F8534B00221A6099E001F064F845
:1010CC0001F09AF8052000F081FF0346002B0FD0A9
:1010DC00012000F093FF0446022000F08FFF03462E
:1010EC0019462046FFF75AF86421052000F016FF38
:1010FC00042000F06BFF0346002B05D0FFF720F80F
:10110C002821042000F00AFF012000F05FFF0346B5
:10111C00002B08D03A4B0F221A603D4B1B68194626
:10112C00012000F0FBFE374B1B68002B62D0344BC8
:10113C0010221A60FA21032000F0F0FEFFF77CF871
:10114C0001F0AEF82F4B00221A6053E001F038F892
:10115C00052000F03BFF0346002B0FD0012000F0D0
:10116C004DFF0446022000F049FF03461946204675
:10117C00FFF714F86421052000F0D0FE042000F0E5
:10118C0025FF0346002B05D0FEF7DAFF28210420AB
:10119C0000F0C4FE012000F019FF0346002B0ED016
:1011AC00174B0C221A60184B1B681946012000F0D3
:1011BC00B5FE164B1B681946022000F0AFFE114B12
:1011CC001B68002B18D00E4B10221A60FA2103203A
:1011DC0000F0A4FEFFF730F801F062F8094B002292
:1011EC001A6009E000BF08E000BF06E000BF04E0A1
:1011FC0000BF02E000BF00E000BF00BF98BD00BF11
:10120C00EC000020F0000020140000201C00002046
:10121C001800002080B500AF884B1B68172B00F01E
:10122C001B81172B00F3B581152B03D0162B00F067
:10123C008280AEE1032000F0C9FE0346002B05D0EE
:10124C00FFF7E8FBFA21032000F068FE052000F010
:10125C00BDFE0346002B0CD0794B1B68642202FBAD
:10126C0003F364211846FEF799FF6421052000F072
:10127C0055FE042000F0AAFE0346002B05D0FEF715
:10128C005FFF2821042000F049FE0120FFF7A8FD94
:10129C000346002B05D10120FFF780FD0346002BF0
:1012AC0008D0674B1B68632B04DC654B1B68013350
:1012BC00634A13600220FFF793FD0346002B05D110
:1012CC000220FFF76BFD0346002B08D05C4B1B681C
:1012DC00022B04DD5A4B1B68013B594A1360594BD6
:1012EC001B68002B07D0554B16221A6000F0D8FF54
:1012FC00544B00221A60544B1B68002B00F04B819E
:10130C004E4B0C221A60514B1B681946012000F001
:10131C0005FE4F4B1B681946022000F0FFFD2821EB
:10132C00042000F0FBFD0A21052000F0F7FD464BE0
:10133C0000221A602FE1032000F048FE0346002B28
:10134C0005D0FFF773FBFA21032000F0E7FD052021
:10135C0000F03CFE0346002B0CD03E4B1B68642275
:10136C0002FB03F3C8211846FEF718FF6421052081
:10137C0000F0D4FD042000F029FE0346002B05D01C
:10138C00FEF7DEFE2821042000F0C8FD0120FFF747
:10139C0027FD0346002B05D10120FFF7FFFC034678
:1013AC00002B0AD02B4B1A68254B1B689A4204DA87
:1013BC00284B1B680133274A13600220FFF710FDEE
:1013CC000346002B05D10220FFF7E8FC0346002B57
:1013DC0008D0204B1B68012B04DD1E4B1B68013B06
:1013EC001C4A1360174B1B68002B07D0134B17229A
:1013FC001A6000F055FF134B00221A60124B1B6849
:10140C00002B00F0CA800D4B0C221A600F4B1B688E
:10141C001946012000F082FD0D4B1B681946022075
:10142C0000F07CFD2821042000F078FD0A21052025
:10143C0000F074FD044B00221A60AEE0EC000020BA
:10144C00E0000020F8000020F00000201400002034
:10145C001C000020E4000020032000F0B7FD034630
:10146C00002B05D0FFF7EEFAFA21032000F056FD11
:10147C00052000F0ABFD0346002B0DD0494B1B683B
:10148C00642202FB03F34FF496711846FEF786FEB6
:10149C006421052000F042FD042000F097FD034676
:1014AC00002B05D0FEF74CFE2821042000F036FD61
:1014BC000120FFF795FC0346002B05D10120FFF717
:1014CC006DFC0346002B0DD0374B1A68374B1B684D
:1014DC00D21A344B1B689A4204DD324B1B68013321
:1014EC00304A1360324B1B68002B33D0314B0C222B
:1014FC001A602D4B1B684FF47A7202FB03F32E4AD1
:10150C0013602A4B1B684FF47A7202FB03F32B4ACD
:10151C001360244B1B684FF47A7202FB03F3284AC6
:10152C001360254B1B681946012000F0F7FC244B77
:10153C001B681946022000F0F1FC2821042000F061
:10154C00EDFC0A21052000F0E9FC00F0A9FE184B87
:10155C0000221A601B4B1B68002B20D0154B0C2251
:10156C001A60154B1B681946012000F0D7FC144B70
:10157C001B681946022000F0D1FC2821042000F041
:10158C00CDFC0A21052000F0C9FC0E4B00221A608C
:10159C0005E000BF04E000BF02E000BF00E000BFB8
:1015AC0000BF80BDE8000020E0000020E400002027
:1015BC00F8000020EC00002014000020180000208F
:1015CC001C000020F000002080B500AF754B1B689C
:1015DC00103B042B00F2D98001A252F823F000BF7B
:1015EC000116000865160008B5160008FF1600085D
:1015FC004D170008032000F0E9FC0346002B05D032
:10160C00FFF714FAFA21032000F088FC664B1B68E4
:10161C00002B07D0634B11221A6000F041FE624B85
:10162C0000221A60614B1B68002B00F0B0805D4BF0
:10163C0015221A60FA21032000F070FC64210520A9
:10164C0000F06CFC2821042000F068FC00F028FE5F
:10165C00564B00221A609AE000F07AFD00F0E8FD8B
:10166C00514B1B68002B05D04E4B12221A604E4B6F
:10167C0000221A604D4B1B68002B00F08A80494BEE
:10168C0015221A60FA21032000F048FC6421052081
:10169C0000F044FC2821042000F040FC00F000FE87
:1016AC00424B00221A6074E000F0DEFD3E4B1B68DA
:1016BC00002B05D03B4B13221A603B4B00221A60C7
:1016CC003A4B1B68002B66D0364B15221A60FA2158
:1016DC00032000F023FC6421052000F01FFC2821CE
:1016EC00042000F01BFC00F0DBFD304B00221A60E4
:1016FC0051E000F081FD00F047FD2B4B1B68002BE7
:10170C0005D0284B14221A60274B00221A60274B55
:10171C001B68002B41D0234B15221A60FA210320A1
:10172C0000F0FCFB6421052000F0F8FB28210420CC
:10173C0000F0F4FB00F0B4FD1C4B00221A602CE00E
:10174C0000F03EFD184B1B68002B05D0154B1122E9
:10175C001A60154B00221A60144B1B68002B1ED00C
:10176C00104B15221A60FA21032000F0D7FB6421DC
:10177C00052000F0D3FB2821042000F0CFFB00F063
:10178C008FFD0A4B00221A6009E000BF08E000BF81
:10179C0006E000BF04E000BF02E000BF00E000BFB5
:1017AC0000BF80BDEC000020F4000020F000002001
:1017BC0080B500AF00F0E2FD00F034F800F0BAF8AC
:1017CC0000F06CF8FFF76AF900F036F901220021FD
:1017DC000E4800F097F9012200210D4800F092F913
:1017EC00012200210B4800F08DF90A2201210A4840
:1017FC0000F088F901220121084800F083F908481B
:10180C0001F01EFD00F01EFBFCE700BF791F000875
:10181C00990B0008750E0008690A0008950A000863
:10182C00FC00002080B590B000AF07F1180328220F
:10183C000021184602F090F83B1D00221A605A60F5
:10184C009A60DA601A610223BB610123BB62102328
:10185C00FB6200237B6307F11803184601F0C2F802
:10186C000346002B01D000F0E1F80F237B6000232E
:10187C00BB600023FB6000233B6100237B613B1DAD
:10188C000021184601F030FB0346002B01D000F07C
:10189C00CDF800BF4037BD4680BD000080B586B096
:1018AC0000AF07F1080300221A605A609A60DA60F0
:1018BC003B4600221A605A601D4B4FF080421A6062
:1018CC001B4B41F63F725A60194B00229A60184B21
:1018DC000922DA60164B00221A61154B00229A611C
:1018EC00134801F05DFC0346002B01D000F09EF87C
:1018FC004FF48053BB6007F1080319460C4801F004
:10190C00DBFD0346002B01D000F090F800233B6078
:10191C0000237B603B461946054801F0B3FF0346A4
:10192C00002B01D000F082F800BF1837BD4680BDF7
:10193C00FC00002080B588B000AF07F11003002236
:10194C001A605A609A60DA602F4B9B692E4A43F0FA
:10195C00100393612C4B9B6903F01003FB60FB6835
:10196C00294B9B69284A43F004039361264B9B69DE
:10197C0003F00403BB60BB68234B9B69224A43F012
:10198C0008039361204B9B6903F008037B607B6821
:10199C00002243F6FE711D4800F0F3FF00224FF6C3
:1019AC00FF711B4800F0EDFF4FF460433B610023D7
:1019BC007B610123BB6107F110031946154800F048
:1019CC004DFE43F6FE733B6101237B610023BB613B
:1019DC000223FB6107F1100319460C4800F03EFE90
:1019EC004FF6FF733B6101237B610023BB61022334
:1019FC00FB6107F110031946054800F02FFE00BFEC
:101A0C002037BD4680BD00BF0010024000080140D9
:101A1C00000C01400010014080B582B000AF78602E
:101A2C0000F050F800BF0837BD4680BD80B400AF51
:101A3C0072B600BF00BFFDE780B483B000AF0023D7
:101A4C007B6033E01E497A6813469B0013449B006D
:101A5C000B4400221A601A497A6813469B001344FF
:101A6C009B000B44043300221A6015497A68134614
:101A7C009B0013449B000B44083300221A6010494E
:101A8C007A6813469B0013449B000B440C330022D2
:101A9C001A700B497A6813469B0013449B000B4445
:101AAC00103300221A607B6801337B607B68092B42
:101ABC00C8DD00BF00BF0C37BD4680BC704700BFFF
:101ACC004401002080B400AF0D4B1B68002B13D0D9
:101ADC000B4B1B7B002B0FD1094B5B68002B04D0ED
:101AEC00074B5B68013B064A5360054B5B68002B58
:101AFC0002D1034B01221A7300BFBD4680BC704754
:101B0C0044010020B0B588B000AFF860B9607A60CD
:101B1C000023FB770023BB610023FB77E7E0FA7F10
:101B2C00774913469B0013449B000B4404331B68FA
:101B3C00BA691344BB61BA69BB689A427CD9FA7F13
:101B4C006F4913469B0013449B000B4404331A68E3
:101B5C00BB69D31ABA6813443B61FA7FB969BB6895
:101B6C00C91A674813469B0013449B000344043373
:101B7C00196009237B6117E07B695A1E60487969FB
:101B8C000B469B000B449B0018445D4913469B007D
:101B9C0013449B000B4404461D460FCD0FC42B6809
:101BAC0023607B69013B7B61FB7F7A699A42E3DCB2
:101BBC00FA7F534913469B0013449B000B44FA686D
:101BCC001A60FA7F4E4913469B0013449B000B444A
:101BDC0004333A691A60FA7F494913469B0013444F
:101BEC009B000B4408337A681A603B69002B0CBFCE
:101BFC0001230023DBB2FA7F1846414913469B00B0
:101C0C0013449B000B440C3302461A70FC7F00F00B
:101C1C0041F902463A4923469B0023449B000B445E
:101C2C0010331A60FA7F364913469B0013449B000D
:101C3C000B4410331B685FE0FA7F314913469B005D
:101C4C0013449B000B441B68002B4DD1FA7F2C498D
:101C5C0013469B0013449B000B44FA681A60FA7FEE
:101C6C00B968BB69C91A264813469B0013449B00EC
:101C7C00034404331960FA7F214913469B00134433
:101C8C009B000B4408337A681A60FA7F1C49134690
:101C9C009B0013449B000B4404331B68002B0CBFAC
:101CAC0001230023DBB2FA7F1846154913469B002B
:101CBC0013449B000B440C3302461A70FC7F00F05B
:101CCC00E9F802460E4923469B0023449B000B4433
:101CDC0010331A60FA7F0A4913469B0013449B0089
:101CEC000B4410331B6807E0FB7F0133FB77FB7F52
:101CFC00092B7FF614AF002318462037BD46B0BD24
:101D0C0044010020B0B485B000AF78600023FB73B1
:101D1C008BE0FA7B4A4913469B0013449B000B440F
:101D2C0010331B687A689A427CD1FB7B082B28D82D
:101D3C00FB7B5A1C424913469B0013449B000B44EB
:101D4C001B68002B1DD0FB7B5A1C3D4913469B0086
:101D5C0013449B000B4404331968FA7B3848134630
:101D6C009B0013449B00034404331B68FA7B013231
:101D7C001944334813469B0013449B00034404331B
:101D8C001960FB7BBB7317E0BB7B5A1CB97B2C48DF
:101D9C000B469B000B449B001844294913469B009F
:101DAC0013449B000B4404461D460FCD0FC42B68F7
:101DBC002360BB7B0133BB73BB7B082BE4D9BA7BA1
:101DCC001F4913469B0013449B000B4400221A60CE
:101DDC00BA7B1B4913469B0013449B000B440433F2
:101DEC0000221A60BA7B164913469B0013449B00D1
:101DFC000B44083300221A60BA7B114913469B002E
:101E0C0013449B000B440C3300221A70BA7B0C4910
:101E1C0013469B0013449B000B44103300221A60A2
:101E2C00012307E0FB7B0133FB73FB7B092B7FF664
:101E3C0070AF002318461437BD46B0BC704700BFC6
:101E4C0044010020B0B586B000AF114B1B7B002BBA
:101E5C0019D00F4B1B6898470D4B00221A730C4B73
:101E6C003C1D1D460FCD0FC42B6823607B691846A3
:101E7C00FFF748FFFB68002B05D07B68F968FA6810
:101E8C001846FFF73FFE00BF1837BD46B0BD00BF78
:101E9C004401002080B400AF094B1B680133084A91
:101EAC001360074B1B68002B04D1054B1B680133D7
:101EBC00034A1360024B1B681846BD4680BC704732
:101ECC000C02002080B485B000AF78607B68104AAB
:101EDC0082FB03129210DB17D31ABB600023FB604A
:101EEC000CE00C49FB68BA6841F823200A4AFB68ED
:101EFC00002142F82310FB680133FB60FB68052BC3
:101F0C00EFDD00BF00BF1437BD4680BC704700BF7B
:101F1C0067666666100200202802002080B483B039
:101F2C0000AF786039607B68002B13DB7B68052B76
:101F3C0010DC3B680A4A82FB03129210DB17D21AA0
:101F4C0008497B6841F82320074A7B68002142F846
:101F5C00231000E000BF0C37BD4680BC704700BFAB
:101F6C0067666666100200202802002080B483B0E9
:101F7C0000AF00237B601CE0124A7B6852F82330D0
:101F8C00002B13DD0F4A7B6852F823305A1E0D4983
:101F9C007B6841F823200B4A7B6852F82330002BD6
:101FAC0004DC094A7B68012142F823107B68013369
:101FBC007B607B68052BDFDD00BF00BF0C37BD46A7
:101FCC0080BC7047100200202802002080B483B02F
:101FDC0000AF78607B68002B02DB7B68052B01DD92
:101FEC00002303E0044A7B6852F8233018460C3770
:101FFC00BD4680BC704700BF2802002080B483B06F
:10200C0000AF78607B68002B02DB7B68052B01DD61
:10201C00002303E0044A7B6852F8233018460C373F
:10202C00BD4680BC704700BF1002002080B485B054
:10203C0000AF154B9B69144A43F001039361124B9B
:10204C009B6903F00103BB60BB680F4BDB690E4A55
:10205C0043F08053D3610C4BDB6903F080537B60FE
:10206C007B680A4B5B68FB60FB6823F0E063FB60FA
:10207C00FB6843F08063FB60044AFB68536000BF5D
:10208C001437BD4680BC7047001002400000014070
:10209C0080B584B000AF78607B681B68B3F1804F6B
:1020AC0013D10C4BDB690B4A43F00103D361094B91
:1020BC00DB6903F00103FB60FB68002200211C209C
:1020CC0000F095FA1C2000F0AEFA00BF1037BD46A8
:1020DC0080BD00BF0010024080B400AF00BFFDE720
:1020EC0080B400AF00BFFDE780B400AF00BFFDE7D8
:1020FC0080B400AF00BFFDE780B400AF00BFFDE7C8
:10210C0080B400AF00BFBD4680BC704780B400AF48
:10211C0000BFBD4680BC704780B400AF00BFBD4659
:10212C0080BC704780B500AF00F06EF900BF80BD79
:10213C0080B500AF024801F0CFF800BF80BD00BFF2
:10214C00FC00002080B400AF00BFBD4680BC7047CF
:10215C0080B500AF002202210A4800F012FC0122D7
:10216C000421084800F00DFC00224FF48071054852
:10217C0000F007FC01224FF40071024800F001FC52
:10218C0000BF80BD0008014080B500AF01220221D4
:10219C000A4800F0F6FB00220821084800F0F1FB89
:1021AC0001224FF48071054800F0EBFB00224FF444
:1021BC008061024800F0E5FB00BF80BD00080140D3
:1021CC0080B500AF012208210A4800F0DAFB00229A
:1021DC000421084800F0D5FB01224FF4806105482A
:1021EC0000F0CFFB00224FF40071024800F0C9FB55
:1021FC0000BF80BD0008014080B500AF0022102157
:10220C000A4800F0BEFB01224021084800F0B9FB4F
:10221C0000224FF40061054800F0B3FB01224FF49B
:10222C008051024800F0ADFB00BF80BD00080140AA
:10223C0080B500AF012210210A4800F0A2FB002259
:10224C008021084800F09DFB01224FF400610548F5
:10225C0000F097FB00224FF40051024800F091FB74
:10226C0000BF80BD0008014080B500AF0122802175
:10227C000A4800F086FB00224021084800F081FB50
:10228C0001224FF40051054800F07BFB00224FF473
:10229C008051024800F075FB00BF80BD0008014072
:1022AC0080B500AF01220221204800F06AFB012218
:1022BC0004211E4800F065FB012208211B4800F098
:1022CC0060FB01221021194800F05BFB0122402128
:1022DC00164800F056FB01228021144800F051FBF7
:1022EC0001224FF48071114800F04BFB01224FF496
:1022FC0000710E4800F045FB01224FF480610B4841
:10230C0000F03FFB01224FF40061084800F039FB5C
:10231C0001224FF48051054800F033FB01224FF4A9
:10232C000051024800F02DFB00BF80BD00080140A9
:10233C00FFF708FF0B480C490C4A002302E0D45865
:10234C00C4500433C4188C42F9D3094A094C0023F5
:10235C0001E013600432A242FBD301F005FBFFF74E
:10236C0027FA7047000000202C000020003A0008DB
:10237C002C00002044020020FEE7000080B500AFD6
:10238C00084B1B68074A43F010031360032000F04E
:10239C0023F90F2000F008F8FFF748FE0023184639
:1023AC0080BD00BF0020024080B582B000AF7860D5
:1023BC00124B1A68124B1B7819464FF47A73B3FB05
:1023CC00F1F3B2FBF3F3184600F03BF90346002B94
:1023DC0001D001230EE07B680F2B0AD8002279680C
:1023EC004FF0FF3000F003F9064A7B6813600023BE
:1023FC0000E0012318460837BD4680BD20000020B0
:10240C00280000202400002080B400AF054B1B786E
:10241C001A46054B1B681344034A136000BFBD46A4
:10242C0080BC7047280000204002002080B400AF20
:10243C00024B1B681846BD4680BC7047400200200A
:10244C0080B485B000AF78607B6803F00703FB6055
:10245C000C4BDB68BB60BA684FF6FF031340BB60E4
:10246C00FB681A02BB68134343F0BF6343F40033A9
:10247C00BB60044ABB68D36000BF1437BD4680BC48
:10248C00704700BF00ED00E080B400AF044BDB6888
:10249C001B0A03F007031846BD4680BC704700BFFB
:1024AC0000ED00E080B483B000AF0346FB7197F9F8
:1024BC000730002B0BDBFB7903F01F02064997F961
:1024CC0007305B09012000FA02F241F8232000BF1B
:1024DC000C37BD4680BC704700E100E080B483B08F
:1024EC0000AF03463960FB7197F90730002B0ADB0C
:1024FC003B68DAB20C4997F907301201D2B20B449F
:10250C0083F800230AE03B68DAB20849FB7903F050
:10251C000F03043B1201D2B20B441A7600BF0C37E6
:10252C00BD4680BC704700BF00E100E000ED00E05C
:10253C0080B489B000AFF860B9607A60FB6803F0D2
:10254C000703FB61FB69C3F10703042B28BF0423BA
:10255C00BB61FB690433062B02D9FB69033B00E02A
:10256C0000237B614FF0FF32BB6902FA03F3DA43BD
:10257C00BB681A407B699A404FF0FF317B6901FAC6
:10258C0003F3D9437B680B40134318462437BD46ED
:10259C0080BC704780B582B000AF78607B68013B2F
:1025AC00B3F1807F01D301230FE00A4A7B68013B22
:1025BC0053600F214FF0FF30FFF790FF054B0022C7
:1025CC009A60044B07221A60002318460837BD4650
:1025DC0080BD00BF10E000E080B582B000AF786035
:1025EC007868FFF72DFF00BF0837BD4680BD80B56A
:1025FC0086B000AF0346B9607A60FB7300237B6141
:10260C00FFF742FF78617A68B9687869FFF790FF45
:10261C00024697F90F3011461846FFF75FFF00BFCF
:10262C001837BD4680BD80B582B000AF0346FB7144
:10263C0097F907301846FFF735FF00BF0837BD463E
:10264C0080BD80B582B000AF78607868FFF7A2FFDC
:10265C00034618460837BD4680BD000080B48BB0D9
:10266C0000AF7860396000237B6200233B6261E13C
:10267C0001227B6A02FA03F3FB613B681B68FA696F
:10268C001340BB61BA69FB699A4240F050813B68C8
:10269C005B68974A93425ED0954A934275D8954AA7
:1026AC00934258D0934A93426FD8934A934252D054
:1026BC00914A934269D8914A93424CD08F4A9342A3
:1026CC0063D88F4A934246D08D4A93425DD8122BE1
:1026DC002AD8122B59D801A252F823F063270008EC
:1026EC003D2700084F27000891270008972700086E
:1026FC0097270008972700089727000897270008B6
:10270C0097270008972700089727000897270008A5
:10271C009727000897270008972700089727000895
:10272C004527000859270008764A934213D02CE01D
:10273C003B68DB683B6229E03B68DB6804333B6247
:10274C0024E03B68DB6808333B621FE03B68DB68D6
:10275C000C333B621AE03B689B68002B02D10423CC
:10276C003B6213E03B689B68012B05D108233B625D
:10277C007B68FA691A6109E008233B627B68FA6995
:10278C005A6103E000233B6200E000BFBB69FF2BF2
:10279C0001D87B6801E07B6804337B61BB69FF2B4C
:1027AC0002D87B6A9B0002E07B6A083B9B003B6182
:1027BC007B691A680F213B6901FA03F3DB431A406A
:1027CC00396A3B6901FA03F31A437B691A603B6867
:1027DC005B6803F08053002B00F0A9804A4B9B6987
:1027EC00494A43F001039361474B9B6903F0010392
:1027FC00BB60BB68454A7B6A9B08023352F82330A6
:10280C00FB607B6A03F003039B000F2202FA03F3C5
:10281C00DB43FA681340FB607B683D4A93420DD062
:10282C007B683C4A934207D07B683B4A934201D178
:10283C00022304E0032302E0012300E000237A6A70
:10284C0002F0030292009340FA681343FB602F4995
:10285C007B6A9B080233FA6841F823203B685B686B
:10286C0003F48013002B06D02C4B9A682B49BB69C0
:10287C0013438B6006E0294B9A68BB69DB432749FD
:10288C0013408B603B685B6803F40013002B06D08D
:10289C00224BDA682149BB691343CB6006E01F4B1E
:1028AC00DA68BB69DB431D491340CB603B685B684E
:1028BC0003F40033002B06D0184B5A681749BB6938
:1028CC0013434B6006E0154B5A68BB69DB43134955
:1028DC0013404B603B685B6803F48033002B1FD0C4
:1028EC000E4B1A680D49BB6913430B601FE000BF08
:1028FC0000003210000031100000221000002110E6
:10290C0000001210000011100010024000000140E5
:10291C0000080140000C014000100140000401407F
:10292C000B4B1A68BB69DB43094913400B607B6A8C
:10293C0001337B623B681A687B6A22FA03F3002B33
:10294C007FF496AE00BF00BF2C37BD4680BC7047ED
:10295C000004014080B485B000AF78600B467B80EA
:10296C007B689A687B881340002B02D00123FB7391
:10297C0001E00023FB73FB7B18461437BD4680BC7B
:10298C00704780B483B000AF78600B467B801346F1
:10299C007B707B78002B03D07A887B681A6103E00C
:1029AC007B881A047B681A6100BF0C37BD4680BC5B
:1029BC00704780B485B000AF78600B467B807B6835
:1029CC00DB68FB607A88FB6813401A04FB68D94308
:1029DC007B880B401A437B681A6100BF1437BD46D5
:1029EC0080BC704780B586B000AF78607B68002BE8
:1029FC0001D1012372E27B681B6803F00103002BF9
:102A0C0000F08780924B5B6803F00C03042B0CD016
:102A1C008F4B5B6803F00C03082B12D18C4B5B685B
:102A2C0003F48033B3F5803F0BD1894B1B6803F45F
:102A3C000033002B6CD07B685B68002B68D10123C2
:102A4C004CE27B685B68B3F5803F06D1804B1B681A
:102A5C007F4A43F4803313602EE07B685B68002B65
:102A6C000CD17B4B1B687A4A23F480331360784B70
:102A7C001B68774A23F4802313601DE07B685B6836
:102A8C00B3F5A02F0CD1724B1B68714A43F4802311
:102A9C0013606F4B1B686E4A43F4803313600BE07A
:102AAC006B4B1B686A4A23F480331360684B1B68BA
:102ABC00674A23F4802313607B685B68002B13D078
:102ACC00FFF7B4FC386108E0FFF7B0FC02463B6945
:102ADC00D31A642B01D9032300E25D4B1B6803F46A
:102AEC000033002BF0D014E0FFF7A0FC386108E0B5
:102AFC00FFF79CFC02463B69D31A642B01D90323D4
:102B0C00ECE1534B1B6803F40033002BF0D100E0D5
:102B1C0000BF7B681B6803F00203002B63D04C4B97
:102B2C005B6803F00C03002B0BD0494B5B6803F084
:102B3C000C03082B1CD1464B5B6803F48033002B31
:102B4C0016D1434B1B6803F00203002B05D07B68A6
:102B5C001B69012B01D00123C0E13D4B1B6823F005
:102B6C00F8027B685B69DB00394913430B603AE080
:102B7C007B681B69002B20D0364B01221A60FFF7B3
:102B8C0055FC386108E0FFF751FC02463B69D31A4B
:102B9C00022B01D90323A1E12D4B1B6803F0020387
:102BAC00002BF0D02A4B1B6823F0F8027B685B6982
:102BBC00DB00274913430B6015E0264B00221A60FB
:102BCC00FFF734FC386108E0FFF730FC02463B6944
:102BDC00D31A022B01D9032380E11D4B1B6803F090
:102BEC000203002BF0D17B681B6803F00803002B59
:102BFC003AD07B689B69002B19D0174B01221A60C5
:102C0C00FFF714FC386108E0FFF710FC02463B6943
:102C1C00D31A022B01D9032360E10D4B5B6A03F03D
:102C2C000203002BF0D0012000F09CFA1CE00A4BB0
:102C3C0000221A60FFF7FAFB38610FE0FFF7F6FB92
:102C4C0002463B69D31A022B08D9032346E100BF85
:102C5C00001002400000424280044242924B5B6AE8
:102C6C0003F00203002BE9D17B681B6803F004031B
:102C7C00002B00F0A6800023FB758B4BDB6903F067
:102C8C008053002B0DD1884BDB69874A43F080536E
:102C9C00D361854BDB6903F08053BB60BB680123B8
:102CAC00FB75824B1B6803F48073002B18D17F4B90
:102CBC001B687E4A43F480731360FFF7B7FB3861DF
:102CCC0008E0FFF7B3FB02463B69D31A642B01D92A
:102CDC00032303E1754B1B6803F48073002BF0D0C6
:102CEC007B68DB68012B06D16F4B1B6A6E4A43F085
:102CFC00010313622DE07B68DB68002B0CD16A4B5F
:102D0C001B6A694A23F001031362674B1B6A664A0C
:102D1C0023F0040313621CE07B68DB68052B0CD1E9
:102D2C00614B1B6A604A43F0040313625E4B1B6ADF
:102D3C005D4A43F0010313620BE05B4B1B6A5A4A7A
:102D4C0023F001031362584B1B6A574A23F0040308
:102D5C0013627B68DB68002B15D0FFF767FB3861CB
:102D6C000AE0FFF763FB02463B69D31A41F2883253
:102D7C00934201D90323B1E04B4B1B6A03F00203CE
:102D8C00002BEED014E0FFF751FB38610AE0FFF79F
:102D9C004DFB02463B69D31A41F28832934201D96A
:102DAC0003239BE0404B1B6A03F00203002BEED184
:102DBC00FB7D012B05D13C4BDB693B4A23F0805357
:102DCC00D3617B68DB69002B00F08780364B5B6836
:102DDC0003F00C03082B61D07B68DB69022B46D116
:102DEC00334B00221A60FFF721FB386108E0FFF734
:102DFC001DFB02463B69D31A022B01D903236DE05C
:102E0C00294B1B6803F00073002BF0D17B681B6A05
:102E1C00B3F5803F08D1244B5B6823F400327B6808
:102E2C009B68214913434B601F4B5B6823F474125E
:102E3C007B68196A7B685B6A0B431B4913434B60C5
:102E4C001B4B01221A60FFF7F1FA386108E0FFF71B
:102E5C00EDFA02463B69D31A022B01D903233DE05C
:102E6C00114B1B6803F00073002BF0D035E0104BB6
:102E7C0000221A60FFF7DAFA386108E0FFF7D6FA99
:102E8C0002463B69D31A022B01D9032326E0064BD9
:102E9C001B6803F00073002BF0D11EE07B68DB692C
:102EAC00012B07D1012319E00010024000700040F3
:102EBC00600042420B4B5B68FB60FB6803F48032A2
:102ECC007B681B6A9A4206D1FB6803F470127B681C
:102EDC005B6A9A4201D0012300E0002318461837A0
:102EEC00BD4680BD0010024080B584B000AF786054
:102EFC0039607B68002B01D10123D0E06A4B1B6841
:102F0C0003F007033A689A4210D9674B1B6823F009
:102F1C00070265493B6813430B60634B1B6803F066
:102F2C0007033A689A4201D00123B8E07B681B681A
:102F3C0003F00203002B20D07B681B6803F0040312
:102F4C00002B05D0594B5B68584A43F4E06353603F
:102F5C007B681B6803F00803002B05D0534B5B68A0
:102F6C00524A43F460535360504B5B6823F0F002B9
:102F7C007B689B684D4913434B607B681B6803F06F
:102F8C000103002B40D07B685B68012B07D1474BBA
:102F9C001B6803F40033002B15D101237FE07B6801
:102FAC005B68022B07D1414B1B6803F00073002BAD
:102FBC0009D1012373E03D4B1B6803F00203002B86
:102FCC0001D101236BE0394B5B6823F003027B6872
:102FDC005B68364913434B60FFF728FAF8600AE048
:102FEC00FFF724FA0246FB68D31A41F28832934267
:102FFC0001D9032353E02D4B5B6803F00C027B6873
:10300C005B689B009A42EBD1274B1B6803F00703CC
:10301C003A689A4210D2244B1B6823F007022249CB
:10302C003B6813430B60204B1B6803F007033A68A3
:10303C009A4201D0012332E07B681B6803F0040341
:10304C00002B08D0194B5B6823F4E0627B68DB68CB
:10305C00164913434B607B681B6803F00803002B75
:10306C0009D0124B5B6823F460527B681B69DB0050
:10307C000E4913434B6000F021F802460B4B5B6882
:10308C001B0903F00F030A49CB5C22FA03F3094A2C
:10309C001360094B1B681846FFF786F90023184686
:1030AC001037BD4680BD00BF00200240001002401A
:1030BC00D4390008200000202400002080B487B000
:1030CC0000AF0023FB600023BB6000237B61002367
:1030DC007B6000233B611E4B5B68FB60FB6803F06D
:1030EC000C03042B02D0082B03D027E0194B3B61B7
:1030FC0027E0FB689B0C03F00F03174AD35C7B6043
:10310C00FB6803F48033002B10D0114B5B685B0C15
:10311C0003F00103114AD35CBB607B680D4A03FBCF
:10312C0002F2BB68B2FBF3F37B6104E07B680C4AF0
:10313C0002FB03F37B617B693B6102E0054B3B6166
:10314C0000BF3B6918461C37BD4680BC704700BFAA
:10315C000010024000127A00E4390008F43900082B
:10316C0000093D0080B485B000AF78600A4B1B6845
:10317C000A4AA2FB03235B0A7A6802FB03F3FB6097
:10318C0000BFFB685A1EFA60002BF9D100BF00BFCC
:10319C001437BD4680BC704720000020D34D621010
:1031AC0080B582B000AF78607B68002B01D1012321
:1031BC0041E07B6893F83D30DBB2002B06D17B6895
:1031CC00002283F83C207868FEF762FF7B680222BD
:1031DC0083F83D207B681A687B68043319461046D7
:1031EC0000F056FA7B68012283F846207B680122A6
:1031FC0083F83E207B68012283F83F207B68012204
:10320C0083F840207B68012283F841207B680122EF
:10321C0083F842207B68012283F843207B680122DB
:10322C0083F844207B68012283F845207B680122C7
:10323C0083F83D20002318460837BD4680BD0000AA
:10324C0080B485B000AF78607B6893F83D30DBB21A
:10325C00012B01D0012335E07B68022283F83D204D
:10326C007B681B68DA687B681B6842F00102DA60D5
:10327C007B681B68164A934209D07B681B68B3F1C4
:10328C00804F04D07B681B68124A934211D17B6833
:10329C001B689B6803F00703FB60FB68062B10D0D0
:1032AC007B681B681A687B681B6842F001021A6015
:1032BC0007E07B681B681A687B681B6842F0010298
:1032CC001A60002318461437BD4680BC704700BFF7
:1032DC00002C01400004004080B584B000AF786041
:1032EC007B681B68DB68FB607B681B681B69BB60C9
:1032FC00BB6803F00203002B20D0FB6803F0020331
:10330C00002B1BD07B681B686FF002021A617B6874
:10331C0001221A777B681B689B6903F00303002B5F
:10332C0003D0786800F098F905E0786800F08BF924
:10333C00786800F09AF97B6800221A77BB6803F072
:10334C000403002B20D0FB6803F00403002B1BD0DC
:10335C007B681B686FF004021A617B6802221A7783
:10336C007B681B689B6903F44073002B03D078685F
:10337C0000F072F905E0786800F065F9786800F003
:10338C0074F97B6800221A77BB6803F00803002BE2
:10339C0020D0FB6803F00803002B1BD07B681B6854
:1033AC006FF008021A617B6804221A777B681B682D
:1033BC00DB6903F00303002B03D0786800F04CF9B1
:1033CC0005E0786800F03FF9786800F04EF97B680A
:1033DC0000221A77BB6803F01003002B20D0FB6887
:1033EC0003F01003002B1BD07B681B686FF01002DE
:1033FC001A617B6808221A777B681B68DB6903F407
:10340C004073002B03D0786800F026F905E078684B
:10341C0000F019F9786800F028F97B6800221A7717
:10342C00BB6803F00103002B0CD0FB6803F0010315
:10343C00002B07D07B681B686FF001021A6178685B
:10344C00FEF7EAFABB6803F08003002B0CD0FB6894
:10345C0003F08003002B07D07B681B686FF08002A1
:10346C001A61786800F06FFABB6803F04003002B18
:10347C000CD0FB6803F04003002B07D07B681B6863
:10348C006FF040021A61786800F0F8F8BB6803F03E
:10349C002003002B0CD0FB6803F02003002B07D07B
:1034AC007B681B686FF020021A61786800F042FAA2
:1034BC0000BF1037BD4680BD80B584B000AF7860CA
:1034CC0039600023FB737B6893F83C30012B01D1EE
:1034DC000223B4E07B68012283F83C207B68022243
:1034EC0083F83D207B681B689B68BB60BB6823F03E
:1034FC007703BB60BB6823F47F43BB607B681B68AE
:10350C00BA689A603B681B68B3F5005F3ED0B3F5B0
:10351C00005F00F28780B3F5805F00F08680B3F522
:10352C00805F7FD8702B1AD0702B7BD8602B50D03B
:10353C00602B77D8502B3CD0502B73D8402B58D0C5
:10354C00402B6FD8302B64D0302B6BD8202B60D015
:10355C00202B67D8002B5CD0102B5AD062E07B68F4
:10356C0018683B6899683B685A683B68DB6800F0F0
:10357C006AF97B681B689B68BB60BB6843F0770388
:10358C00BB607B681B68BA689A604FE07B68186800
:10359C003B6899683B685A683B68DB6800F053F9F4
:1035AC007B681B689A687B681B6842F480429A604F
:1035BC003CE07B6818683B6859683B68DB681A46D6
:1035CC0000F0CAF87B681B685021184600F021F9FE
:1035DC002CE07B6818683B6859683B68DB681A46C6
:1035EC0000F0E8F87B681B686021184600F011F9C0
:1035FC001CE07B6818683B6859683B68DB681A46B6
:10360C0000F0AAF87B681B684021184600F001F90D
:10361C000CE07B681A683B681B681946104600F082
:10362C00F8F803E00123FB7300E000BF7B68012284
:10363C0083F83D207B68002283F83C20FB7B1846F6
:10364C001037BD4680BD80B483B000AF786000BF3A
:10365C000C37BD4680BC704780B483B000AF786037
:10366C0000BF0C37BD4680BC704780B483B000AF40
:10367C00786000BF0C37BD4680BC704780B483B007
:10368C0000AF786000BF0C37BD4680BC70470000AF
:10369C0080B485B000AF786039607B681B68FB60D4
:1036AC007B682B4A934207D07B68B3F1804F03D0E1
:1036BC007B68284A934208D1FB6823F07003FB60B7
:1036CC003B685B68FA681343FB607B68204A934253
:1036DC0007D07B68B3F1804F03D07B681D4A9342BF
:1036EC0008D1FB6823F44073FB603B68DB68FA6825
:1036FC001343FB60FB6823F080023B685B69134358
:10370C00FB607B68FA681A603B689A687B68DA62CF
:10371C003B681A687B689A627B680D4A934203D1B6
:10372C003B681A697B681A637B6801225A617B6863
:10373C001B6903F00103002B05D07B681B6923F088
:10374C0001027B681A6100BF1437BD4680BC70470C
:10375C00002C01400004004080B487B000AFF8603A
:10376C00B9607A60FB681B6A7B61FB681B6A23F09B
:10377C000102FB681A62FB689B693B613B6923F0A1
:10378C00F0033B617B681B013A6913433B617B6926
:10379C0023F00A037B617A69BB6813437B61FB6886
:1037AC003A699A61FB687A691A6200BF1C37BD4698
:1037BC0080BC704780B487B000AFF860B9607A60A5
:1037CC00FB681B6A7B61FB681B6A23F01002FB68B9
:1037DC001A62FB689B693B613B6923F470433B6154
:1037EC007B681B033A6913433B617B6923F0A0039D
:1037FC007B61BB681B017A6913437B61FB683A6987
:10380C009A61FB687A691A6200BF1C37BD4680BC9E
:10381C00704780B485B000AF786039607B689B6876
:10382C00FB60FB6823F07003FB603A68FB68134392
:10383C0043F00703FB607B68FA689A6000BF14379B
:10384C00BD4680BC704780B487B000AFF860B960EB
:10385C007A603B60FB689B687B617B6923F47F43E8
:10386C007B613B681A027B681A43BB6813437A6915
:10387C0013437B61FB687A699A6000BF1C37BD46B5
:10388C0080BC704780B485B000AF786039607B68CD
:10389C0093F83C30012B01D1022341E07B680122DB
:1038AC0083F83C207B68022283F83D207B681B68F0
:1038BC005B68FB607B681B689B68BB60FB6823F0E4
:1038CC007003FB603B681B68FA681343FB607B6802
:1038DC001B68FA685A607B681B68144A934209D0CB
:1038EC007B681B68B3F1804F04D07B681B68104A5F
:1038FC0093420CD1BB6823F08003BB603B685B68D0
:10390C00BA681343BB607B681B68BA689A607B68B3
:10391C00012283F83D207B68002283F83C200023A1
:10392C0018461437BD4680BC704700BF002C0140C0
:10393C000004004080B483B000AF786000BF0C3747
:10394C00BD4680BC704780B483B000AF786000BFC8
:10395C000C37BD4680BC704703460244934200D1ED
:10396C00704703F8011BF9E770B500260C4D0D4BA1
:10397C005B1B9C10A64209D1002600F019F80A4DD9
:10398C000A4B5B1B9C10A64205D170BD55F8043B3D
:10399C0098470136EEE755F8043B98470136F2E7B5
:1039AC00F8390008F8390008F8390008FC39000823
:1039BC00F8B500BFF8BC08BC9E467047F8B500BF10
:0839CC00F8BC08BC9E467047E0
:1039D40000000000000000000102030406070809BB
:1039E40002030405060708090A0B0C0D0E0F10103C
:0439F40001020000CC
:0439F8003101000891
:0439FC000D010008B1
:103A00000010014000100140001001400020004063
:103A10000080000088130000D0070000B80B0000F1
:0C3A200000127A001000000001000000FD
:040000050800233D8F
:00000001FF
