:020000040800F2
:1000000000280020F5220008A5200008AB200008E9
:10001000B1200008B7200008BD2000080000000043
:10002000000000000000000000000000C3200008E5
:10003000CF20000800000000DB200008E7200008B7
:100040003D2300083D2300083D2300083D23000810
:100050003D2300083D2300083D2300083D23000800
:100060003D2300083D2300083D2300083D230008F0
:100070003D2300083D2300083D2300083D230008E0
:100080003D2300083D2300083D2300083D230008D0
:100090003D2300083D2300083D2300083D230008C0
:1000A0003D2300083D2300083D2300083D230008B0
:1000B000F52000083D230008000000003D23000853
:1000C0003D23000800000000000000003D23000860
:1000D000000000003D2300083D2300080000000050
:1000E0003D2300083D2300083D23000800000000D8
:1000F0000000000000000000000000000000000000
:0C01000000000000000000005FF808F1A3
:10010C0010B5054C237833B9044B13B10448AFF345
:10011C0000800123237010BD2C0000200000000083
:10012C006C39000808B5034B1BB103490348AFF306
:10013C00008008BD00000000300000206C39000871
:10014C0080B500AF134B1B68002B10D1124B1B68F2
:10015C00184600F0B7F8104B5B68184600F064FACC
:10016C00002000F077F80B4B01221A600FE00A4BCD
:10017C009B68184600F0A6F8074BDB68184600F0A1
:10018C0053FA012000F066F8024B00221A6000BFFF
:10019C0080BD00BF480000204C00002080B485B01A
:1001AC0000AF786039607B68204A82FB03125211E1
:1001BC00DB17D31AFB603B681C4A82FB03125211FB
:1001CC00DB17D31ABB60FB68194A82FB031292102F
:1001DC00DB17D31A174A1360F968154B83FB0123FD
:1001EC009A10CB17D21A13469B0013445B00CA1A01
:1001FC00104B5A60BB680E4A82FB03129210DB173D
:10020C00D31A0C4A9360B968094B83FB01239A10EB
:10021C00CB17D21A13469B0013445B00CA1A054B2A
:10022C00DA6000BF1437BD4680BC70471F85EB51A8
:10023C00676666664C00002080B500AF022000F0B7
:10024C0009F80A2000F03EF80A2000F0EDF900BF92
:10025C0080BD000080B582B000AF78607B68002B59
:10026C0003D07B68012B0DD019E000224FF48041A4
:10027C00134802F060FB01224FF40041104802F0D9
:10028C005AFB19E001224FF480410D4802F053FB58
:10029C0000224FF400410A4802F04DFB0CE0012211
:1002AC004FF48041064802F046FB01224FF4004116
:1002BC00034802F040FB00BF00BF0837BD4680BDBD
:1002CC00000C014080B582B000AF78607B68092BD0
:1002DC0000F2808101A252F823F000BF1103000844
:1002EC0059030008A1030008E903000831040008C1
:1002FC0079040008C104000809050008510500082C
:10030C009905000800220121C64802F014FB0022C6
:10031C000221C44802F00FFB00220421C14802F064
:10032C000AFB00220821BF4802F005FB0022102125
:10033C00BC4802F000FB00222021BA4802F0FBFA74
:10034C0001224021B74802F0F6FA67E101220121AF
:10035C00B44802F0F0FA00220221B24802F0EBFAA3
:10036C0000220421AF4802F0E6FA01220821AD4830
:10037C0002F0E1FA01221021AA4802F0DCFA012273
:10038C002021A84802F0D7FA01224021A54802F00A
:10039C00D2FA43E100220121A24802F0CCFA002259
:1003AC000221A04802F0C7FA012204219D4802F064
:1003BC00C2FA002208219B4802F0BDFA002210214B
:1003CC00984802F0B8FA01222021964802F0B3FABC
:1003DC0000224021934802F0AEFA1FE100220121D5
:1003EC00904802F0A8FA002202218E4802F0A3FAEB
:1003FC00002204218B4802F09EFA00220821894831
:10040C0002F099FA01221021864802F094FA012296
:10041C002021844802F08FFA00224021814802F00A
:10042C008AFAFBE0012201217E4802F084FA0022C4
:10043C0002217C4802F07FFA00220421794802F064
:10044C007AFA01220821774802F075FA012210216C
:10045C00744802F070FA00222021724802F06BFA04
:10046C00002240216F4802F066FAD7E000220121F9
:10047C006C4802F060FA012202216A4802F05BFA31
:10048C0000220421674802F056FA00220821654830
:10049C0002F051FA01221021624802F04CFA0022BB
:1004AC002021604802F047FA002240215D4802F00A
:1004BC0042FAB3E0002201215A4802F03CFA012230
:1004CC000221584802F037FA00220421554802F064
:1004DC0032FA00220821534802F02DFA0022102192
:1004EC00504802F028FA002220214E4802F023FA4C
:1004FC00002240214B4802F01EFA8FE0002201211D
:10050C00484802F018FA00220221464802F013FA79
:10051C0000220421434802F00EFA0122082141482E
:10052C0002F009FA012210213E4802F004FA0122DD
:10053C0020213C4802F0FFF901224021394802F009
:10054C00FAF96BE000220121364802F0F4F900229E
:10055C000221344802F0EFF900220421314802F064
:10056C00EAF9002208212F4802F0E5F900221021B7
:10057C002C4802F0E0F9002220212A4802F0DBF995
:10058C0000224021274802F0D6F947E00022012141
:10059C00244802F0D0F900220221224802F0CBF9C3
:1005AC00002204211F4802F0C6F9002208211D4830
:1005BC0002F0C1F9012210211A4802F0BCF9002204
:1005CC002021184802F0B7F900224021154802F00A
:1005DC00B2F923E001220121124802F0ACF9012208
:1005EC000221104802F0A7F9012204210D4802F063
:1005FC00A2F9012208210B4802F09DF901221021D9
:10060C00084802F098F901222021064802F093F9DB
:10061C0001224021034802F08EF900BF00BF0837C9
:10062C00BD4680BD000C014080B582B000AF786043
:10063C007B68092B00F2BE8101A252F823F000BFA7
:10064C0075060008C90600081D0700087107000898
:10065C00C5070008190800086D080008C108000843
:10066C00150900086909000800228021D04802F011
:10067C0062F900224FF48071CD4802F05CF900223F
:10068C004FF40071CA4802F056F900224FF4806111
:10069C00C74802F050F900224FF40061C44802F040
:1006AC004AF900224FF48051C14802F044F901226A
:1006BC004FF40051BE4802F03EF9A5E10122802121
:1006CC00BB4802F038F900224FF48071B84802F0B0
:1006DC0032F900224FF40071B54802F02CF90122D6
:1006EC004FF48061B24802F026F901224FF4006108
:1006FC00AF4802F020F901224FF48051AC4802F0CF
:10070C001AF901224FF40051A94802F014F97BE1C7
:10071C0000228021A64802F00EF900224FF48071CD
:10072C00A34802F008F901224FF40071A04802F02E
:10073C0002F900224FF480619D4802F0FCF800227F
:10074C004FF400619A4802F0F6F801224FF4805100
:10075C00974802F0F0F800224FF40051944802F050
:10076C00EAF851E100228021914802F0E4F80022DD
:10077C004FF480718E4802F0DEF800224FF40071C5
:10078C008B4802F0D8F800224FF48061884802F0C0
:10079C00D2F801224FF40061854802F0CCF8012216
:1007AC004FF48051824802F0C6F800224FF40051F9
:1007BC007F4802F0C0F827E1012280217C4802F03A
:1007CC00BAF800224FF48071794802F0B4F8002294
:1007DC004FF40071764802F0AEF801224FF48061BC
:1007EC00734802F0A8F801224FF40061704802F03F
:1007FC00A2F800224FF480516D4802F09CF80022C0
:10080C004FF400516A4802F096F8FDE00022802176
:10081C00674802F090F801224FF48071644802F0AE
:10082C008AF800224FF40071614802F084F800222B
:10083C004FF480615E4802F07EF801224FF40061B3
:10084C005B4802F078F800224FF48051584802F0CF
:10085C0072F800224FF40051554802F06CF8D3E0C6
:10086C0000228021524802F066F801224FF4807178
:10087C004F4802F060F800224FF400714C4802F02F
:10088C005AF800224FF48061494802F054F80022D3
:10089C004FF40061464802F04EF800224FF48051AC
:1008AC00434802F048F800224FF40051404802F04F
:1008BC0042F8A9E0002280213D4802F03CF80022D9
:1008CC004FF480713A4802F036F800224FF4007170
:1008DC00374802F030F801224FF48061344802F0BE
:1008EC002AF801224FF40061314802F024F8012269
:1008FC004FF480512E4802F01EF801224FF40051A3
:10090C002B4802F018F87FE000228021284802F0E2
:10091C0012F800224FF48071254802F00CF80022E6
:10092C004FF40071224802F006F800224FF4806167
:10093C001F4802F000F800224FF400611C4801F03F
:10094C00FAFF00224FF48051194801F0F4FF002205
:10095C004FF40051164801F0EEFF55E000228021C3
:10096C00134801F0E8FF00224FF48071104801F0A9
:10097C00E2FF00224FF400710D4801F0DCFF002271
:10098C004FF480610A4801F0D6FF01224FF4006158
:10099C00074801F0D0FF00224FF48051044801F0C9
:1009AC00CAFF00224FF40051014801F0C4FF2BE0B4
:1009BC00000C014001228021154801F0BCFF0122EE
:1009CC004FF48071124801F0B6FF01224FF4007110
:1009DC000F4801F0B0FF01224FF480610C4801F088
:1009EC00AAFF01224FF40061094801F0A4FF012283
:1009FC004FF48051064801F09EFF01224FF4005144
:100A0C00034801F098FF00BF00BF0837BD4680BD0A
:100A1C00000C014080B500AF00F04AFA00F09CFDDC
:100A2C0000F0C2FB00BF80BD80B500AF064B0B22AF
:100A3C001A60642001F026FAFFF7FEFB01F00CFCB3
:100A4C0000F004F800BF80BDEC00002080B483B03F
:100A5C0000AF00237B603FE0244A7B68012142F811
:100A6C002310224A7B6852F8232021497B6841F8E5
:100A7C0023201F4A7B6852F823201E497B6841F8CB
:100A8C0023201D4A7B68012142F823101B4A7B68F6
:100A9C00002142F823101A4A7B68002142F82310E7
:100AAC00184A7B68002142F82310174A7B68002102
:100ABC0042F82310154A7B68002142F82310144A8F
:100ACC007B68002142F82310124A7B68002142F80F
:100ADC0023107B6801337B607B68022BBCDD00BF7D
:100AEC0000BF0C37BD4680BC704700BF74000020AF
:100AFC00680000205C000020800000208C0000209A
:100B0C0098000020A4000020B0000020BC000020B1
:100B1C00C8000020D400002080B582B000AF0023B4
:100B2C007B60DDE0734A7B6852F8232072497B6856
:100B3C0041F82320714A7B6852F823206D497B6869
:100B4C0041F823206E4A7B6852F823206D497B685C
:100B5C0031F813301946104601F0D6FE03461946FB
:100B6C00664A7B6842F82310634A7B6852F823205C
:100B7C0060497B6851F823309A4240F0AE805D4A60
:100B8C007B6852F823205D497B6851F823309A42E8
:100B9C0040F0A3805C4A7B6852F8232057497B685D
:100BAC0051F823309A424ED0574A7B6852F8233082
:100BBC00002B34D1514A7B6852F82330012B2ED1B3
:100BCC00524A7B68012142F82310514A7B6852F843
:100BDC0023305A1C4E497B6841F823204C4A7B68D1
:100BEC0052F82330012B05D14A4A7B68282142F860
:100BFC00231014E0464A7B6852F82330022B0ED1A6
:100C0C00454A7B68012142F82310414A7B68002148
:100C1C0042F823103F4A7B68002142F82310374AE0
:100C2C007B6852F8232038497B6841F82320334AEB
:100C3C007B6852F82330002B2AD1384A7B68642118
:100C4C0042F8231024E02D4A7B6852F82330002B05
:100C5C001ED1324A7B6852F82330002B18DD2F4A04
:100C6C007B6852F823305A1E2C497B6841F82320AC
:100C7C002A4A7B6852F82330002B09DC284A7B680F
:100C8C00012142F82310254A7B68322142F82310B7
:100C9C00204A7B6852F82330002B1EDD1D4A7B68EE
:100CAC0052F823305A1E1B497B6841F82320194AFD
:100CBC007B6852F82330002B0FD1154A7B6852F811
:100CCC002330012B04D1174A7B68012142F82310F1
:100CDC000F4A7B68002142F823107B6801337B604C
:100CEC007B68022B7FF71EAF00BF00BF0837BD46E5
:100CFC0080BD00BF680000205C0000207400002054
:100D0C00000000200C00002080000020B00000201B
:100D1C00C8000020D4000020BC0000208C00002063
:100D2C00A40000209800002080B483B000AF78604D
:100D3C007B68002B02DB7B68022B01DD00230DE0BE
:100D4C00094A7B6852F82330012B06D1064A7B688E
:100D5C00002142F82310012300E0002318460C3731
:100D6C00BD4680BC704700BF9800002080B483B0A3
:100D7C0000AF78607B68002B02DB7B68022B01DD07
:100D8C0000230DE0094A7B6852F82330012B06D171
:100D9C00064A7B68002142F82310012300E000235F
:100DAC0018460C37BD4680BC704700BFA40000201D
:100DBC0080B483B000AF78607B68002B02DB7B686B
:100DCC00022B01DD00230DE0094A7B6852F8233029
:100DDC00012B06D1064A7B68002142F8231001231F
:100DEC0000E0002318460C37BD4680BC704700BF9E
:100DFC00BC00002080B500AF00F006F800F032F81F
:100E0C0000F012F800BF80BD80B500AF0020FFF7E6
:100E1C008BFF0346002B02D0024B01221A6000BF4D
:100E2C0080BD00BFF000002080B500AF0B4B1B68ED
:100E3C00162B07D0094B1B68172B03D0074B1B68CD
:100E4C00152B08D10220FFF7B3FF0346002B02D06D
:100E5C00034B01221A6000BF80BD00BFEC000020D4
:100E6C00F800002080B500AF0F4B1B68102B0FD083
:100E7C000D4B1B68142B0BD00B4B1B68132B07D083
:100E8C00094B1B68122B03D0074B1B68112B08D185
:100E9C000120FFF749FF0346002B02D0034B012230
:100EAC001A6000BF80BD00BFEC000020F4000020E1
:100EBC0098B500AFB74B1B680B3B042B00F25C8161
:100ECC0001A252F823F000BFE90E0008290F000818
:100EDC00BD0F000859100008EB100008AE4B1B6842
:100EEC00002B00F04B81AB4B0C221A60AB4B1B68F8
:100EFC001946012000F0F2FFA94B1B68194602208D
:100F0C0000F0ECFF2821042000F0E8FF0A21052066
:100F1C0000F0E4FFA04B00221A602FE101F0F4F87E
:100F2C0001F062F9052001F031F80346002B10D0D6
:100F3C00012001F043F80446022001F03FF803467B
:100F4C0019462046FFF72AF94FF4FA71052000F0F4
:100F5C00C5FF042001F01AF80346002B05D0FFF75B
:100F6C00EFF82821042000F0B9FF022001F00EF860
:100F7C000346002B08D0874B0D221A60894B1B6847
:100F8C001946022000F0AAFF834B1B68002B00F0CF
:100F9C00F780804B10221A60FA21032000F09EFF8C
:100FAC00FFF74AF901F058F97B4B00221A60E7E091
:100FBC0001F036F9052000F0E9FF0346002B10D0B4
:100FCC00012000F0FBFF0446022000F0F7FF03466F
:100FDC0019462046FFF7E2F84FF4FA71052000F0AD
:100FEC007DFF042000F0D2FF0346002B05D0FFF755
:100FFC00A7F82821042000F071FF012000F0C6FFA3
:10100C000346002B0ED0634B0E221A60644B1B68F8
:10101C001946012000F062FF604B1B681946022044
:10102C0000F05CFF5C4B1B68002B00F0AB80594B55
:10103C0010221A60FA21032000F050FFFFF7FCF891
:10104C0001F00AF9544B00221A609BE001F078F889
:10105C0001F0AEF8052000F099FF0346002B10D0EC
:10106C00012000F0ABFF0446022000F0A7FF03466E
:10107C0019462046FFF792F84FF4FA71052000F05C
:10108C002DFF042000F082FF0346002B05D0FFF754
:10109C0057F82821042000F021FF012000F076FFF2
:1010AC000346002B08D03B4B0F221A603D4B1B68AC
:1010BC001946012000F012FF374B1B68002B63D040
:1010CC00344B10221A60FA21032000F007FFFFF7BF
:1010DC00B3F801F0C1F8304B00221A6054E001F073
:1010EC004BF8052000F052FF0346002B10D00120D6
:1010FC0000F064FF0446022000F060FF034619462E
:10110C002046FFF74BF84FF4FA71052000F0E6FE8D
:10111C00042000F03BFF0346002B05D0FFF710F82E
:10112C002821042000F0DAFE012000F02FFF0346F6
:10113C00002B0ED0174B0C221A60184B1B6819464B
:10114C00012000F0CBFE164B1B681946022000F064
:10115C00C5FE114B1B68002B18D00E4B10221A60C9
:10116C00FA21032000F0BAFEFFF766F801F074F8DC
:10117C00094B00221A6009E000BF08E000BF06E03E
:10118C0000BF04E000BF02E000BF00E000BF00BFF2
:10119C0098BD00BFEC000020F000002014000020DF
:1011AC001C0000201800002080B500AF874B1B6886
:1011BC00172B00F01981172B00F3B281152B03D0DC
:1011CC00162B00F08180ABE1032000F0DFFE03461C
:1011DC00002B05D000F0B0FAFA21032000F07EFEBF
:1011EC00052000F0D3FE0346002B0DD0784B1B6876
:1011FC00642202FB03F364211846FEF7CFFF4FF481
:10120C00FA71052000F06AFE042000F0BFFE0346D0
:10121C00002B05D0FEF794FF2821042000F05EFE81
:10122C000120FFF7A3FD0346002B05D10120FFF79A
:10123C007BFD0346002B08D0654B1B68632B04DC3D
:10124C00634B1B680133624A13600220FFF78EFD6B
:10125C000346002B05D10220FFF766FD0346002B49
:10126C0008D05B4B1B68022B04DD594B1B68013B00
:10127C00574A1360574B1B68002B05D0534B162253
:10128C001A60544B00221A60534B1B68002B00F061
:10129C0049814E4B0C221A60504B1B681946012099
:1012AC0000F01CFE4E4B1B681946022000F016FE87
:1012BC002821042000F012FE0A21052000F00EFE69
:1012CC00454B00221A602DE1032000F05FFE03461F
:1012DC00002B05D000F03CFAFA21032000F0FEFDB3
:1012EC00052000F053FE0346002B0DD03D4B1B6830
:1012FC00642202FB03F3C8211846FEF74FFF4FF49C
:10130C00FA71052000F0EAFD042000F03FFE0346D0
:10131C00002B05D0FEF714FF2821042000F0DEFD81
:10132C000120FFF723FD0346002B05D10120FFF719
:10133C00FBFC0346002B0AD02A4B1A68244B1B6873
:10134C009A4204DA274B1B680133264A13600220A9
:10135C00FFF70CFD0346002B05D10220FFF7E4FC40
:10136C000346002B08D01F4B1B68012B04DD1D4BC3
:10137C001B68013B1B4A1360164B1B68002B05D0E6
:10138C00124B17221A60134B00221A60124B1B6867
:10139C00002B00F0C9800D4B0C221A600F4B1B6800
:1013AC001946012000F09AFD0D4B1B6819460220CE
:1013BC0000F094FD2821042000F090FD0A21052066
:1013CC0000F08CFD044B00221A60ADE0EC00002014
:1013DC00E0000020F8000020F000002014000020A5
:1013EC001C000020E4000020032000F0CFFD034689
:1013FC00002B05D000F0B8F9FA21032000F06EFDA7
:10140C00052000F0C3FD0346002B0ED0494B1B6892
:10141C00642202FB03F34FF496711846FEF7BEFEEE
:10142C004FF4FA71052000F059FD042000F0AEFDD8
:10143C000346002B05D0FEF783FE2821042000F084
:10144C004DFD0120FFF792FC0346002B05D1012036
:10145C00FFF76AFC0346002B0DD0374B1A68374B4D
:10146C001B68D21A354B1B689A4204DB334B1B6842
:10147C000133324A1360324B1B68002B31D0314B95
:10148C000C221A602C4B1B684FF47A7202FB03F38C
:10149C002D4A1360294B1B684FF47A7202FB03F33D
:1014AC002A4A1360234B1B684FF47A7202FB03F336
:1014BC00274A1360244B1B681946012000F00EFDCF
:1014CC00234B1B681946022000F008FD282104203C
:1014DC0000F004FD0A21052000F000FD184B00224D
:1014EC001A601C4B1B68002B20D0164B0C221A6068
:1014FC00154B1B681946012000F0F0FC144B1B68BF
:10150C001946022000F0EAFC2821042000F0E6FC39
:10151C000A21052000F0E2FC0E4B00221A6005E0C7
:10152C0000BF04E000BF02E000BF00E000BF00BF4E
:10153C0080BD00BFE8000020E0000020E400002097
:10154C00F8000020EC0000201400002018000020FF
:10155C001C000020F000002080B500AF734B1B680E
:10156C00103B042B00F2D48001A252F823F000BFF0
:10157C0091150008F315000841160008891600089B
:10158C00D5160008032000F001FD0346002B05D002
:10159C0000F0DEF8FA21032000F0A0FC644B1B687D
:1015AC00002B07D0614B11221A6000F055FE604BE6
:1015BC0000221A605F4B1B68002B00F0AB805B4B6A
:1015CC0015221A60FA21032000F088FC4FF4FA71FE
:1015DC00052000F083FC2821042000F07FFC554BF3
:1015EC0000221A6096E000F08FFD00F0FDFD504BDC
:1015FC001B68002B05D04D4B12221A604C4B00225D
:10160C001A604C4B1B68002B00F08680474B152250
:10161C001A60FA21032000F061FC4FF4FA710520E6
:10162C0000F05CFC2821042000F058FC414B002207
:10163C001A6071E000F0F4FD3D4B1B68002B05D0E7
:10164C003A4B13221A603A4B00221A60394B1B6832
:10165C00002B63D0354B15221A60FA21032000F0C1
:10166C003DFC4FF4FA71052000F038FC28210420D1
:10167C0000F034FC2F4B00221A604FE000F098FD74
:10168C0000F05EFD2A4B1B68002B05D0274B142263
:10169C001A60274B00221A60264B1B68002B3FD088
:1016AC00224B15221A60FA21032000F017FC4FF48C
:1016BC00FA71052000F012FC2821042000F00EFC29
:1016CC001C4B00221A602BE000F056FD184B1B68D7
:1016DC00002B05D0154B11221A60154B00221A60F5
:1016EC00144B1B68002B1DD0104B15221A60FA21CD
:1016FC00032000F0F3FB4FF4FA71052000F0EEFB31
:10170C002821042000F0EAFB0A4B00221A6009E0B1
:10171C0000BF08E000BF06E000BF04E000BF02E02D
:10172C0000BF00E000BF00BF80BD00BFEC00002088
:10173C00F4000020F000002080B500AF40F612113C
:10174C00024801F010F900BF80BD00BF0008014045
:10175C0080B500AF41F24421024801F004F900BF0A
:10176C0080BD00BF0008014080B500AF42F2884147
:10177C00024801F0F8F800BF80BD00BF000801402E
:10178C0080B500AF00F0D6FD00F02CF800F0B2F8F8
:10179C0000F064F8FFF748F900F02EF9012200215F
:1017AC000B4800F08FF9012200210A4800F08AF959
:1017BC0001220021084800F085F901220121074887
:1017CC0000F080F9064801F013FD00F01BFBFCE76C
:1017DC00391F0008250B0008010E0008210A00081B
:1017EC00F801002080B590B000AF07F11803282253
:1017FC000021184602F0ACF83B1D00221A605A601A
:10180C009A60DA601A610223BB610123BB62102368
:10181C00FB6200237B6307F11803184601F0BCF848
:10182C000346002B01D000F0E1F80F237B6000236E
:10183C00BB600023FB6000233B6100237B613B1DED
:10184C000021184601F028FB0346002B01D000F0C4
:10185C00CDF800BF4037BD4680BD000080B586B0D6
:10186C0000AF07F1080300221A605A609A60DA6030
:10187C003B4600221A605A601D4B4FF080421A60A2
:10188C001B4B41F63F725A60194B00229A60184B61
:10189C000922DA60164B00221A61154B00229A615C
:1018AC00134801F055FC0346002B01D000F09EF8C4
:1018BC004FF48053BB6007F1080319460C4801F044
:1018CC00D3FD0346002B01D000F090F800233B60C1
:1018DC0000237B603B461946054801F0ABFF0346ED
:1018EC00002B01D000F082F800BF1837BD4680BD38
:1018FC00F801002080B588B000AF07F1100300227A
:10190C001A605A609A60DA602F4B9B692E4A43F03A
:10191C00100393612C4B9B6903F01003FB60FB6875
:10192C00294B9B69284A43F004039361264B9B691E
:10193C0003F00403BB60BB68234B9B69224A43F052
:10194C0008039361204B9B6903F008037B607B6861
:10195C00002243F6FE711D4800F0EDFF00224FF609
:10196C00FF711B4800F0E7FF4FF460433B6100231D
:10197C007B610123BB6107F110031946154800F088
:10198C0049FE43F6FE733B6101237B610023BB617F
:10199C000223FB6107F1100319460C4800F03AFED4
:1019AC004FF6FF733B6101237B610023BB61022374
:1019BC00FB6107F110031946054800F02BFE00BF30
:1019CC002037BD4680BD00BF00100240000801401A
:1019DC00000C01400010014080B582B000AF78606F
:1019EC0000F050F800BF0837BD4680BD80B400AF92
:1019FC0072B600BFFEE7000080B483B000AF0023D6
:101A0C007B6033E01E497A6813469B0013449B00AD
:101A1C000B4400221A601A497A6813469B0013443F
:101A2C009B000B44043300221A6015497A68134654
:101A3C009B0013449B000B44083300221A6010498E
:101A4C007A6813469B0013449B000B440C33002212
:101A5C001A700B497A6813469B0013449B000B4485
:101A6C00103300221A607B6801337B607B68092B82
:101A7C00C8DD00BF00BF0C37BD4680BC704700BF3F
:101A8C00FC00002080B400AF0D4B1B68002B13D062
:101A9C000B4B1B7B002B0FD1094B5B68002B04D02D
:101AAC00074B5B68013B064A5360054B5B68002B98
:101ABC0002D1034B01221A7300BFBD4680BC704794
:101ACC00FC000020B0B588B000AFF860B9607A6057
:101ADC000023FB770023BB610023FB77E7E0FA7F51
:101AEC00774913469B0013449B000B4404331B683B
:101AFC00BA691344BB61BA69BB689A427CD9FA7F54
:101B0C006F4913469B0013449B000B4404331A6823
:101B1C00BB69D31ABA6813443B61FA7FB969BB68D5
:101B2C00C91A674813469B0013449B0003440433B3
:101B3C00196009237B6117E07B695A1E604879693B
:101B4C000B469B000B449B0018445D4913469B00BD
:101B5C0013449B000B4404461D460FCD0FC42B6849
:101B6C0023607B69013B7B61FB7F7A699A42E3DCF2
:101B7C00FA7F534913469B0013449B000B44FA68AD
:101B8C001A60FA7F4E4913469B0013449B000B448A
:101B9C0004333A691A60FA7F494913469B0013448F
:101BAC009B000B4408337A681A603B69002B0CBF0E
:101BBC0001230023DBB2FA7F1846414913469B00F0
:101BCC0013449B000B440C3302461A70FC7F00F04C
:101BDC0041F902463A4923469B0023449B000B449F
:101BEC0010331A60FA7F364913469B0013449B004E
:101BFC000B4410331B685FE0FA7F314913469B009E
:101C0C0013449B000B441B68002B4DD1FA7F2C49CD
:101C1C0013469B0013449B000B44FA681A60FA7F2E
:101C2C00B968BB69C91A264813469B0013449B002C
:101C3C00034404331960FA7F214913469B00134473
:101C4C009B000B4408337A681A60FA7F1C491346D0
:101C5C009B0013449B000B4404331B68002B0CBFEC
:101C6C0001230023DBB2FA7F1846154913469B006B
:101C7C0013449B000B440C3302461A70FC7F00F09B
:101C8C00E9F802460E4923469B0023449B000B4473
:101C9C0010331A60FA7F0A4913469B0013449B00C9
:101CAC000B4410331B6807E0FB7F0133FB77FB7F92
:101CBC00092B7FF614AF002318462037BD46B0BD64
:101CCC00FC000020B0B485B000AF78600023FB733B
:101CDC008BE0FA7B4A4913469B0013449B000B4450
:101CEC0010331B687A689A427CD1FB7B082B28D86E
:101CFC00FB7B5A1C424913469B0013449B000B442C
:101D0C001B68002B1DD0FB7B5A1C3D4913469B00C6
:101D1C0013449B000B4404331968FA7B3848134670
:101D2C009B0013449B00034404331B68FA7B013271
:101D3C001944334813469B0013449B00034404335B
:101D4C001960FB7BBB7317E0BB7B5A1CB97B2C481F
:101D5C000B469B000B449B001844294913469B00DF
:101D6C0013449B000B4404461D460FCD0FC42B6837
:101D7C002360BB7B0133BB73BB7B082BE4D9BA7BE1
:101D8C001F4913469B0013449B000B4400221A600E
:101D9C00BA7B1B4913469B0013449B000B44043332
:101DAC0000221A60BA7B164913469B0013449B0011
:101DBC000B44083300221A60BA7B114913469B006E
:101DCC0013449B000B440C3300221A70BA7B0C4951
:101DDC0013469B0013449B000B44103300221A60E3
:101DEC00012307E0FB7B0133FB73FB7B092B7FF6A5
:101DFC0070AF002318461437BD46B0BC704700BF07
:101E0C00FC000020B0B586B000AF114B1B7B002B43
:101E1C0019D00F4B1B6898470D4B00221A730C4BB3
:101E2C003C1D1D460FCD0FC42B6823607B691846E3
:101E3C00FFF748FFFB68002B05D07B68F968FA6850
:101E4C001846FFF73FFE00BF1837BD46B0BD00BFB8
:101E5C00FC00002080B400AF094B1B680133084A1A
:101E6C001360074B1B68002B04D1054B1B68013317
:101E7C00034A1360024B1B681846BD4680BC704772
:101E8C00C401002080B485B000AF78607B68104A34
:101E9C0082FB03129210DB17D31ABB600023FB608A
:101EAC000CE00C49FB68BA6841F823200A4AFB682D
:101EBC00002142F82310FB680133FB60FB68052B03
:101ECC00EFDD00BF00BF1437BD4680BC704700BFBC
:101EDC0067666666C8010020E001002080B483B00C
:101EEC0000AF786039607B68002B13DB7B68052BB7
:101EFC0010DC3B680A4A82FB03129210DB17D21AE1
:101F0C0008497B6841F82320074A7B68002142F886
:101F1C00231000E000BF0C37BD4680BC704700BFEB
:101F2C0067666666C8010020E001002080B483B0BB
:101F3C0000AF00237B601CE0124A7B6852F8233010
:101F4C00002B13DD0F4A7B6852F823305A1E0D49C3
:101F5C007B6841F823200B4A7B6852F82330002B16
:101F6C0004DC094A7B68012142F823107B680133A9
:101F7C007B607B68052BDFDD00BF00BF0C37BD46E7
:101F8C0080BC7047C8010020E001002080B483B001
:101F9C0000AF78607B68002B02DB7B68052B01DDD2
:101FAC00002303E0044A7B6852F8233018460C37B0
:101FBC00BD4680BC704700BFE001002080B483B0F8
:101FCC0000AF78607B68002B02DB7B68052B01DDA2
:101FDC00002303E0044A7B6852F8233018460C3780
:101FEC00BD4680BC704700BFC801002080B485B0DE
:101FFC0000AF154B9B69144A43F001039361124BDC
:10200C009B6903F00103BB60BB680F4BDB690E4A95
:10201C0043F08053D3610C4BDB6903F080537B603E
:10202C007B680A4B5B68FB60FB6823F0E063FB603A
:10203C00FB6843F08063FB60044AFB68536000BF9D
:10204C001437BD4680BC70470010024000000140B0
:10205C0080B584B000AF78607B681B68B3F1804FAB
:10206C0013D10C4BDB690B4A43F00103D361094BD1
:10207C00DB6903F00103FB60FB68002200211C20DC
:10208C0000F091FA1C2000F0AAFA00BF1037BD46F0
:10209C0080BD00BF0010024080B400AFFEE780B4EA
:1020AC0000AFFEE780B400AFFEE780B400AFFEE700
:1020BC0080B400AFFEE780B400AF00BFBD4680BC6B
:1020CC00704780B400AF00BFBD4680BC704780B481
:1020DC0000AF00BFBD4680BC704780B500AF00F0BC
:1020EC006FF900BF80BD000080B500AF024801F061
:1020FC00CBF800BF80BD00BFF801002080B400AF5A
:10210C0000BFBD4680BC704780B500AF00220221E5
:10211C000A4800F010FC01220421084800F00BFCD6
:10212C0000224FF48071054800F005FC01224FF4A9
:10213C000071024800F0FFFB00BF80BD00080140A9
:10214C0080B500AF012202210A4800F0F4FB002206
:10215C000821084800F0EFFB01224FF4807105487C
:10216C0000F0E9FB00224FF48061024800F0E3FB31
:10217C0000BF80BD0008014080B500AF01220821DE
:10218C000A4800F0D8FB00220421084800F0D3FBD9
:10219C0001224FF48061054800F0CDFB00224FF482
:1021AC000071024800F0C7FB00BF80BD0008014071
:1021BC0080B500AF002210210A4800F0BCFB0122C0
:1021CC004021084800F0B7FB00224FF4006105489D
:1021DC0000F0B1FB01224FF48051024800F0ABFB40
:1021EC0000BF80BD0008014080B500AF0122102166
:1021FC000A4800F0A0FB00228021084800F09BFB5D
:10220C0001224FF40061054800F095FB00224FF4C9
:10221C000051024800F08FFB00BF80BD0008014058
:10222C0080B500AF012280210A4800F084FB002217
:10223C004021084800F07FFB01224FF40051054873
:10224C0000F079FB00224FF48051024800F073FB40
:10225C0000BF80BD0008014080B500AF0122022103
:10226C00204800F068FB012204211E4800F063FBAB
:10227C00012208211B4800F05EFB012210211948A5
:10228C0000F059FB01224021164800F054FB0122BA
:10229C008021144800F04FFB01224FF4807111484B
:1022AC0000F049FB01224FF400710E4800F043FB93
:1022BC0001224FF480610B4800F03DFB01224FF4EA
:1022CC000061084800F037FB01224FF480510548AB
:1022DC0000F031FB01224FF40051024800F02BFBBF
:1022EC0000BF80BD00080140FFF708FF0B480C49F8
:1022FC000C4A002302E0D458C4500433C4188C4256
:10230C00F9D3094A094C002301E013600432A242BC
:10231C00FBD301F0F9FAFFF733FA70470000002005
:10232C002C000020B03900082C00002044020020B2
:10233C00FEE7000080B500AF084B1B68074A43F06E
:10234C0010031360032000F023F90F2000F008F8AD
:10235C00FFF74CFE0023184680BD00BF0020024052
:10236C0080B582B000AF7860124B1A68124B1B78A4
:10237C0019464FF47A73B3FBF1F3B2FBF3F318463F
:10238C0000F03BF90346002B01D001230EE07B68E3
:10239C000F2B0AD8002279684FF0FF3000F003F9B8
:1023AC00064A7B681360002300E0012318460837B7
:1023BC00BD4680BD20000020280000202400002005
:1023CC0080B400AF054B1B781A46054B1B681344B1
:1023DC00034A136000BFBD4680BC70472800002034
:1023EC004002002080B400AF024B1B681846BD466B
:1023FC0080BC70474002002080B485B000AF78608C
:10240C007B6803F00703FB600C4BDB68BB60BA68AE
:10241C004FF6FF031340BB60FB681A02BB68134303
:10242C0043F0BF6343F40033BB60044ABB68D36022
:10243C0000BF1437BD4680BC704700BF00ED00E004
:10244C0080B400AF044BDB681B0A03F0070318468B
:10245C00BD4680BC704700BF00ED00E080B483B087
:10246C0000AF0346FB7197F90730002B0BDBFB79B0
:10247C0003F01F02064997F907305B09012000FAA7
:10248C0002F241F8232000BF0C37BD4680BC7047D8
:10249C0000E100E080B483B000AF03463960FB710B
:1024AC0097F90730002B0ADB3B68DAB20C4997F935
:1024BC0007301201D2B20B4483F800230AE03B68C8
:1024CC00DAB20849FB7903F00F03043B1201D2B2D4
:1024DC000B441A7600BF0C37BD4680BC704700BF5A
:1024EC0000E100E000ED00E080B489B000AFF860DE
:1024FC00B9607A60FB6803F00703FB61FB69C3F109
:10250C000703042B28BF0423BB61FB690433062B90
:10251C0002D9FB69033B00E000237B614FF0FF32E3
:10252C00BB6902FA03F3DA43BB681A407B699A4031
:10253C004FF0FF317B6901FA03F3D9437B680B4001
:10254C00134318462437BD4680BC704780B582B013
:10255C0000AF78607B68013BB3F1807F01D301232E
:10256C000FE00A4A7B68013B53600F214FF0FF30AC
:10257C00FFF790FF054B00229A60044B07221A606C
:10258C00002318460837BD4680BD00BF10E000E0B0
:10259C0080B582B000AF78607868FFF72DFF00BF80
:1025AC000837BD4680BD80B586B000AF0346B96024
:1025BC007A60FB7300237B61FFF742FF78617A68D6
:1025CC00B9687869FFF790FF024697F90F3011460A
:1025DC001846FFF75FFF00BF1837BD4680BD80B5BA
:1025EC0082B000AF0346FB7197F907301846FFF72E
:1025FC0035FF00BF0837BD4680BD80B582B000AF47
:10260C0078607868FFF7A2FF034618460837BD4686
:10261C0080BD000080B48BB000AF786039600023BF
:10262C007B6200233B6248E101227B6A02FA03F3DE
:10263C00FB613B681B68FA691340BB61BA69FB69B3
:10264C009A4240F037813B685B68A34A93425ED064
:10265C00A14A934275D8A14A934258D09F4A9342BB
:10266C006FD89F4A934252D09D4A934269D89D4A53
:10267C0093424CD09B4A934263D89B4A934246D098
:10268C00994A93425DD8122B2AD8122B59D801A201
:10269C0052F823F01B270008F5260008072700082E
:1026AC00492700084F2700084F2700084F2700082C
:1026BC004F2700084F2700084F2700084F27000816
:1026CC004F2700084F2700084F2700084F27000806
:1026DC004F2700084F270008FD2600081127000887
:1026EC00824A934213D02CE03B68DB683B6229E0C2
:1026FC003B68DB6804333B6224E03B68DB680833EF
:10270C003B621FE03B68DB680C333B621AE03B68C2
:10271C009B68002B02D104233B6213E03B689B684F
:10272C00012B05D108233B627B68FA691A6109E029
:10273C0008233B627B68FA695A6103E000233B6221
:10274C0000E000BFBB69FF2B01D87B6801E07B6810
:10275C0004337B61BB69FF2B02D87B6A9B0002E0D0
:10276C007B6A083B9B003B617B691A680F213B69C4
:10277C0001FA03F3DB431A40396A3B6901FA03F3AC
:10278C001A437B691A603B685B6803F08053002B2B
:10279C0000F09080564B9B69554A43F001039361BE
:1027AC00534B9B6903F00103BB60BB68514A7B6AC6
:1027BC009B08023352F82330FB607B6A03F003035F
:1027CC009B000F2202FA03F3DB43FA681340FB6011
:1027DC007B68494A93420DD07B68484A934207D0A4
:1027EC007B68474A934201D1022304E0032302E0B1
:1027FC00012300E000237A6A02F003029200934066
:10280C00FA681343FB603B497B6A9B080233FA6806
:10281C0041F823203B685B6803F48013002B06D03F
:10282C00384B9A683749BB6913438B6006E0354BCC
:10283C009A68BB69DB43334913408B603B685B6828
:10284C0003F40013002B06D02E4BDA682D49BB691C
:10285C001343CB6006E02B4BDA68BB69DB43294999
:10286C001340CB603B685B6803F40033002B06D04D
:10287C00244B5A682349BB6913434B6006E0214B38
:10288C005A68BB69DB431F4913404B603B685B686C
:10289C0003F48033002B06D01A4B1A681949BB6914
:1028AC0013430B6006E0174B1A68BB69DB431549F1
:1028BC0013400B607B6A01337B623B681A687B6A4E
:1028CC0022FA03F3002B7FF4AFAE00BF00BF2C370E
:1028DC00BD4680BC704700BF0000321000003110B4
:1028EC000000221000002110000012100000111036
:1028FC00001002400000014000080140000C0140A3
:10290C00001001400004014080B485B000AF786035
:10291C000B467B807B689A687B881340002B02D027
:10292C000123FB7301E00023FB73FB7B1846143778
:10293C00BD4680BC704780B483B000AF78600B4656
:10294C007B8013467B707B78002B03D07A887B6866
:10295C001A6103E07B881A047B681A6100BF0C378C
:10296C00BD4680BC704780B485B000AF78600B4624
:10297C007B807B68DB68FB607A88FB6813401A04F9
:10298C00FB68D9437B880B401A437B681A6100BFF4
:10299C001437BD4680BC704780B586B000AF7860F8
:1029AC007B68002B01D101236CE27B681B6803F070
:1029BC000103002B00F08780924B5B6803F00C0343
:1029CC00042B0CD08F4B5B6803F00C03082B12D13B
:1029DC008C4B5B6803F48033B3F5803F0BD1894B90
:1029EC001B6803F40033002B6CD07B685B68002BF6
:1029FC0068D1012346E27B685B68B3F5803F06D162
:102A0C00804B1B687F4A43F4803313602EE07B6855
:102A1C005B68002B0CD17B4B1B687A4A23F4803308
:102A2C001360784B1B68774A23F4802313601DE0F6
:102A3C007B685B68B3F5A02F0CD1724B1B68714A95
:102A4C0043F4802313606F4B1B686E4A43F480334E
:102A5C0013600BE06B4B1B686A4A23F480331360E2
:102A6C00684B1B68674A23F4802313607B685B68A0
:102A7C00002B13D0FFF7B6FC386108E0FFF7B2FC6F
:102A8C0002463B69D31A642B01D90323FAE15D4B4F
:102A9C001B6803F40033002BF0D014E0FFF7A2FC0A
:102AAC00386108E0FFF79EFC02463B69D31A642BA1
:102ABC0001D90323E6E1534B1B6803F40033002BCD
:102ACC00F0D100E000BF7B681B6803F00203002B11
:102ADC0063D04C4B5B6803F00C03002B0BD0494BC1
:102AEC005B6803F00C03082B1CD1464B5B6803F4AA
:102AFC008033002B16D1434B1B6803F00203002BD1
:102B0C0005D07B681B69012B01D00123BAE13D4B39
:102B1C001B6823F0F8027B685B69DB0039491343BF
:102B2C000B603AE07B681B69002B20D0364B0122EE
:102B3C001A60FFF757FC386108E0FFF753FC0246B8
:102B4C003B69D31A022B01D903239BE12D4B1B6844
:102B5C0003F00203002BF0D02A4B1B6823F0F80281
:102B6C007B685B69DB00274913430B6015E0264B40
:102B7C0000221A60FFF736FC386108E0FFF732FCE0
:102B8C0002463B69D31A022B01D903237AE11D4B70
:102B9C001B6803F00203002BF0D17B681B6803F069
:102BAC000803002B3AD07B689B69002B19D0174B7C
:102BBC0001221A60FFF716FC386108E0FFF712FCDF
:102BCC0002463B69D31A022B01D903235AE10D4B60
:102BDC005B6A03F00203002BF0D0012000F09AFA9C
:102BEC001CE00A4B00221A60FFF7FCFB38610FE077
:102BFC00FFF7F8FB02463B69D31A022B08D90323D3
:102C0C0040E100BF001002400000424280044242FA
:102C1C009E4B5B6A03F00203002BE9D17B681B68B7
:102C2C0003F00403002B00F0A6800023FB75974BE8
:102C3C00DB6903F08053002B0DD1944BDB69934A75
:102C4C0043F08053D361914BDB6903F08053BB603D
:102C5C00BB680123FB758E4B1B6803F48073002B40
:102C6C0018D18B4B1B688A4A43F480731360FFF7AF
:102C7C00B9FB386108E0FFF7B5FB02463B69D31A94
:102C8C00642B01D90323FDE0814B1B6803F4807393
:102C9C00002BF0D07B68DB68012B06D17B4B1B6AC9
:102CAC007A4A43F0010313622DE07B68DB68002B4A
:102CBC000CD1764B1B6A754A23F001031362734BDC
:102CCC001B6A724A23F0040313621CE07B68DB6806
:102CDC00052B0CD16D4B1B6A6C4A43F00403136239
:102CEC006A4B1B6A694A43F0010313620BE0674BA2
:102CFC001B6A664A23F001031362644B1B6A634A26
:102D0C0023F0040313627B68DB68002B15D0FFF7FC
:102D1C0069FB38610AE0FFF765FB02463B69D31A91
:102D2C0041F28832934201D90323ABE0574B1B6A23
:102D3C0003F00203002BEED014E0FFF753FB3861D5
:102D4C000AE0FFF74FFB02463B69D31A41F2883287
:102D5C00934201D9032395E04C4B1B6A03F0020309
:102D6C00002BEED1FB7D012B05D1484BDB69474A8B
:102D7C0023F08053D3617B68DB69002B00F08180EA
:102D8C00424B5B6803F00C03082B61D07B68DB695A
:102D9C00022B46D13F4B00221A60FFF723FB386110
:102DAC0008E0FFF71FFB02463B69D31A022B01D93F
:102DBC00032367E0354B1B6803F00073002BF0D145
:102DCC007B681B6AB3F5803F08D1304B5B6823F4FA
:102DDC0000327B689B682D4913434B602B4B5B681F
:102DEC0023F474127B68196A7B685B6A0B4327496E
:102DFC0013434B60274B01221A60FFF7F3FA38613B
:102E0C0008E0FFF7EFFA02463B69D31A022B01D90F
:102E1C00032337E01D4B1B6803F00073002BF0D02D
:102E2C002FE01C4B00221A60FFF7DCFA386108E037
:102E3C00FFF7D8FA02463B69D31A022B01D90323B8
:102E4C0020E0124B1B6803F00073002BF0D118E04C
:102E5C007B68DB69012B01D1012313E00B4B5B6811
:102E6C00FB60FB6803F480327B681B6A9A4206D1D4
:102E7C00FB6803F470127B685B6A9A4201D00123F1
:102E8C0000E0002318461837BD4680BD00100240F4
:102E9C00007000406000424280B584B000AF7860A2
:102EAC0039607B68002B01D10123D0E06A4B1B6891
:102EBC0003F007033A689A4210D9674B1B6823F05A
:102ECC00070265493B6813430B60634B1B6803F0B7
:102EDC0007033A689A4201D00123B8E07B681B686B
:102EEC0003F00203002B20D07B681B6803F0040363
:102EFC00002B05D0594B5B68584A43F4E063536090
:102F0C007B681B6803F00803002B05D0534B5B68F0
:102F1C00524A43F460535360504B5B6823F0F00209
:102F2C007B689B684D4913434B607B681B6803F0BF
:102F3C000103002B40D07B685B68012B07D1474B0A
:102F4C001B6803F40033002B15D101237FE07B6851
:102F5C005B68022B07D1414B1B6803F00073002BFD
:102F6C0009D1012373E03D4B1B6803F00203002BD6
:102F7C0001D101236BE0394B5B6823F003027B68C2
:102F8C005B68364913434B60FFF72CFAF8600AE094
:102F9C00FFF728FA0246FB68D31A41F288329342B3
:102FAC0001D9032353E02D4B5B6803F00C027B68C3
:102FBC005B689B009A42EBD1274B1B6803F007031D
:102FCC003A689A4210D2244B1B6823F0070222491C
:102FDC003B6813430B60204B1B6803F007033A68F4
:102FEC009A4201D0012332E07B681B6803F0040392
:102FFC00002B08D0194B5B6823F4E0627B68DB681C
:10300C00164913434B607B681B6803F00803002BC5
:10301C0009D0124B5B6823F460527B681B69DB00A0
:10302C000E4913434B6000F021F802460B4B5B68D2
:10303C001B0903F00F030A49CB5C22FA03F3094A7C
:10304C001360094B1B681846FFF78AF900231846D2
:10305C001037BD4680BD00BF00200240001002406A
:10306C0084390008200000202400002080B487B0A0
:10307C0000AF0023FB600023BB6000237B610023B7
:10308C007B6000233B611E4B5B68FB60FB6803F0BD
:10309C000C03042B02D0082B03D027E0194B3B6107
:1030AC0027E0FB689B0C03F00F03174AD35C7B6093
:1030BC00FB6803F48033002B10D0114B5B685B0C66
:1030CC0003F00103114AD35CBB607B680D4A02FB21
:1030DC0003F2BB68B2FBF3F37B6104E07B680C4A40
:1030EC0002FB03F37B617B693B6102E0054B3B61B7
:1030FC0000BF3B6918461C37BD4680BC704700BFFB
:10310C000010024000127A0094390008A43900081B
:10311C0000093D0080B485B000AF78600A4B1B6895
:10312C000A4AA2FB03235B0A7A6802FB03F3FB60E7
:10313C0000BFFB685A1EFA60002BF9D100BF00BF1C
:10314C001437BD4680BC704720000020D34D621060
:10315C0080B582B000AF78607B68002B01D1012371
:10316C0041E07B6893F83D30DBB2002B06D17B68E5
:10317C00002283F83C207868FEF76AFF7B68022205
:10318C0083F83D207B681A687B6804331946104627
:10319C0000F056FA7B68012283F846207B680122F6
:1031AC0083F83E207B68012283F83F207B68012254
:1031BC0083F840207B68012283F841207B68012240
:1031CC0083F842207B68012283F843207B6801222C
:1031DC0083F844207B68012283F845207B68012218
:1031EC0083F83D20002318460837BD4680BD0000FB
:1031FC0080B485B000AF78607B6893F83D30DBB26B
:10320C00012B01D0012335E07B68022283F83D209D
:10321C007B681B68DA687B681B6842F00102DA6025
:10322C007B681B68164A934209D07B681B68B3F114
:10323C00804F04D07B681B68124A934211D17B6883
:10324C001B689B6803F00703FB60FB68062B10D020
:10325C007B681B681A687B681B6842F001021A6065
:10326C0007E07B681B681A687B681B6842F00102E8
:10327C001A60002318461437BD4680BC704700BF47
:10328C00002C01400004004080B584B000AF786091
:10329C007B681B68DB68FB607B681B681B69BB6019
:1032AC00BB6803F00203002B20D0FB6803F0020381
:1032BC00002B1BD07B681B686FF002021A617B68C5
:1032CC0001221A777B681B689B6903F00303002BB0
:1032DC0003D0786800F098F905E0786800F08BF975
:1032EC00786800F09AF97B6800221A77BB6803F0C3
:1032FC000403002B20D0FB6803F00403002B1BD02D
:10330C007B681B686FF004021A617B6802221A77D3
:10331C007B681B689B6903F44073002B03D07868AF
:10332C0000F072F905E0786800F065F9786800F053
:10333C0074F97B6800221A77BB6803F00803002B32
:10334C0020D0FB6803F00803002B1BD07B681B68A4
:10335C006FF008021A617B6804221A777B681B687D
:10336C00DB6903F00303002B03D0786800F04CF901
:10337C0005E0786800F03FF9786800F04EF97B685A
:10338C0000221A77BB6803F01003002B20D0FB68D7
:10339C0003F01003002B1BD07B681B686FF010022E
:1033AC001A617B6808221A777B681B68DB6903F457
:1033BC004073002B03D0786800F026F905E078689C
:1033CC0000F019F9786800F028F97B6800221A7768
:1033DC00BB6803F00103002B0CD0FB6803F0010366
:1033EC00002B07D07B681B686FF001021A617868AC
:1033FC00FEF7F2FABB6803F08003002B0CD0FB68DD
:10340C0003F08003002B07D07B681B686FF08002F1
:10341C001A61786800F06FFABB6803F04003002B68
:10342C000CD0FB6803F04003002B07D07B681B68B3
:10343C006FF040021A61786800F0F8F8BB6803F08E
:10344C002003002B0CD0FB6803F02003002B07D0CB
:10345C007B681B686FF020021A61786800F042FAF2
:10346C0000BF1037BD4680BD80B584B000AF78601A
:10347C0039600023FB737B6893F83C30012B01D13E
:10348C000223B4E07B68012283F83C207B68022293
:10349C0083F83D207B681B689B68BB60BB6823F08E
:1034AC007703BB60BB6823F47F43BB607B681B68FE
:1034BC00BA689A603B681B68B3F5005F3ED0B3F501
:1034CC00005F00F28780B3F5805F00F08680B3F573
:1034DC00805F7FD8702B1AD0702B7BD8602B50D08C
:1034EC00602B77D8502B3CD0502B73D8402B58D016
:1034FC00402B6FD8302B64D0302B6BD8202B60D066
:10350C00202B67D8002B5CD0102B5AD062E07B6844
:10351C0018683B6899683B685A683B68DB6800F040
:10352C006AF97B681B689B68BB60BB6843F07703D8
:10353C00BB607B681B68BA689A604FE07B68186850
:10354C003B6899683B685A683B68DB6800F053F944
:10355C007B681B689A687B681B6842F480429A609F
:10356C003CE07B6818683B6859683B68DB681A4626
:10357C0000F0CAF87B681B685021184600F021F94E
:10358C002CE07B6818683B6859683B68DB681A4616
:10359C0000F0E8F87B681B686021184600F011F910
:1035AC001CE07B6818683B6859683B68DB681A4606
:1035BC0000F0AAF87B681B684021184600F001F95E
:1035CC000CE07B681A683B681B681946104600F0D3
:1035DC00F8F803E00123FB7300E000BF7B680122D5
:1035EC0083F83D207B68002283F83C20FB7B184647
:1035FC001037BD4680BD80B483B000AF786000BF8B
:10360C000C37BD4680BC704780B483B000AF786087
:10361C0000BF0C37BD4680BC704780B483B000AF90
:10362C00786000BF0C37BD4680BC704780B483B057
:10363C0000AF786000BF0C37BD4680BC70470000FF
:10364C0080B485B000AF786039607B681B68FB6024
:10365C007B682B4A934207D07B68B3F1804F03D031
:10366C007B68284A934208D1FB6823F07003FB6007
:10367C003B685B68FA681343FB607B68204A9342A3
:10368C0007D07B68B3F1804F03D07B681D4A93420F
:10369C0008D1FB6823F44073FB603B68DB68FA6875
:1036AC001343FB60FB6823F080023B685B691343A8
:1036BC00FB607B68FA681A603B689A687B68DA6220
:1036CC003B681A687B689A627B680D4A934203D107
:1036DC003B681A697B681A637B6801225A617B68B4
:1036EC001B6903F00103002B05D07B681B6923F0D9
:1036FC0001027B681A6100BF1437BD4680BC70475D
:10370C00002C01400004004080B487B000AFF8608A
:10371C00B9607A60FB681B6A7B61FB681B6A23F0EB
:10372C000102FB681A62FB689B693B613B6923F0F1
:10373C00F0033B617B681B013A6913433B617B6976
:10374C0023F00A037B617A69BB6813437B61FB68D6
:10375C003A699A61FB687A691A6200BF1C37BD46E8
:10376C0080BC704780B487B000AFF860B9607A60F5
:10377C00FB681B6A7B61FB681B6A23F01002FB6809
:10378C001A62FB689B693B613B6923F470433B61A4
:10379C007B681B033A6913433B617B6923F0A003ED
:1037AC007B61BB681B017A6913437B61FB683A69D7
:1037BC009A61FB687A691A6200BF1C37BD4680BCEF
:1037CC00704780B485B000AF786039607B689B68C7
:1037DC00FB60FB6823F07003FB603A68FB681343E3
:1037EC0043F00703FB607B68FA689A6000BF1437EC
:1037FC00BD4680BC704780B487B000AFF860B9603C
:10380C007A603B60FB689B687B617B6923F47F4338
:10381C007B613B681A027B681A43BB6813437A6965
:10382C0013437B61FB687A699A6000BF1C37BD4605
:10383C0080BC704780B485B000AF786039607B681D
:10384C0093F83C30012B01D1022341E07B6801222B
:10385C0083F83C207B68022283F83D207B681B6840
:10386C005B68FB607B681B689B68BB60FB6823F034
:10387C007003FB603B681B68FA681343FB607B6852
:10388C001B68FA685A607B681B68144A934209D01B
:10389C007B681B68B3F1804F04D07B681B68104AAF
:1038AC0093420CD1BB6823F08003BB603B685B6820
:1038BC00BA681343BB607B681B68BA689A607B6804
:1038CC00012283F83D207B68002283F83C200023F2
:1038DC0018461437BD4680BC704700BF002C014011
:1038EC000004004080B483B000AF786000BF0C3798
:1038FC00BD4680BC704780B483B000AF786000BF19
:10390C000C37BD4680BC704770B500260C4D0D4C75
:10391C00641BA410A64209D100F022F800260A4D1F
:10392C000A4C641BA410A64205D170BD55F8043B8B
:10393C0098470136EEE755F8043B98470136F2E715
:10394C00A8390008A8390008A8390008AC390008C3
:10395C0003460244934200D1704703F8011BF9E778
:10396C00F8B500BFF8BC08BC9E467047F8B500BF60
:08397C00F8BC08BC9E46704730
:10398400000000000000000001020304060708090B
:1039940002030405060708090A0B0C0D0E0F10108C
:0439A400010200001C
:0439A80031010008E1
:0439AC000D01000801
:1039B00000100140001001400010014000200040B4
:1039C0000080000088130000D0070000B80B000042
:0C39D00000127A0010000000010000004E
:04000005080022F5D8
:00000001FF
