:020000040800F2
:1000000000280020F51E0008291900082F190008F3
:10001000351900083B1900084119000800000000CC
:100020000000000000000000000000004719000868
:1000300053190008000000005F1900086B19000840
:100040003D1F00083D1F00083D1F00083D1F000820
:100050003D1F00083D1F00083D1F00083D1F000810
:100060003D1F00083D1F00083D1F00083D1F000800
:100070003D1F00083D1F00083D1F00083D1F0008F0
:100080003D1F00083D1F00083D1F00083D1F0008E0
:100090003D1F00083D1F00083D1F00083D1F0008D0
:1000A0003D1F00083D1F00083D1F00083D1F0008C0
:1000B000791900083D1F0008000000003D1F0008DE
:1000C0003D1F000800000000000000003D1F000868
:1000D000000000003D1F00083D1F00080000000058
:1000E0003D1F00083D1F00083D1F000800000000E4
:1000F0000000000000000000000000000000000000
:0C01000000000000000000005FF808F1A3
:10010C0010B5054C237833B9044B13B10448AFF345
:10011C0000800123237010BD20000020000000008F
:10012C006C35000808B5034B1BB103490348AFF30A
:10013C00008008BD00000000240000206C35000881
:10014C0080B500AF01224FF48041084802F0F3F96A
:10015C0001224FF40041054802F0EDF90A2000F0AD
:10016C00CFF80A2000F07EFA00BF80BD000C0140E1
:10017C0080B500AF184B1B68002B15D1092000F07F
:10018C00BFF8092000F06EFA00224FF480411348AA
:10019C0002F0D1F901224FF40041104802F0CBF9E2
:1001AC000D4B01221A6014E0092000F0A9F8092077
:1001BC0000F058FA01224FF48041084802F0BBF9D4
:1001CC0000224FF40041054802F0B5F9024B002221
:1001DC001A6000BF80BD00BF3C000020000C014035
:1001EC0080B500AF1C4B1B68002B19D11B4B1B6837
:1001FC00184600F085F8194B5B68184600F032FA87
:10020C0000224FF48041164802F095F901224FF478
:10021C000041134802F08FF90F4B01221A6018E0CD
:10022C000E4B9B68184600F06BF80C4BDB681846BD
:10023C0000F018FA01224FF48041094802F07BF9D2
:10024C0000224FF40041064802F075F9024B0022DF
:10025C001A6000BF80BD00BF3C00002040000020A1
:10026C00000C014080B485B000AF786039607B68C9
:10027C00204A82FB03125211DB17D31AFB603B6836
:10028C001C4A82FB03125211DB17D31ABB60FB68AA
:10029C00194A82FB03129210DB17D31A174A136008
:1002AC00F968154B83FB01239A10CB17D21A13460E
:1002BC009B0013445B00CA1A104B5A60BB680E4A71
:1002CC0082FB03129210DB17D31A0C4A9360B968A5
:1002DC00094B83FB01239A10CB17D21A13469B00B0
:1002EC0013445B00CA1A054BDA6000BF1437BD46D5
:1002FC0080BC70471F85EB51676666664000002026
:10030C0080B582B000AF78607B68092B00F28081E9
:10031C0001A252F823F000BF4D030008950300081A
:10032C00DD030008250400086D040008B50400086E
:10033C00FD040008450500088D050008D5050008DA
:10034C0000220121C64802F0F6F800220221C4481E
:10035C0002F0F1F800220421C14802F0ECF800226E
:10036C000821BF4802F0E7F800221021BC4802F037
:10037C00E2F800222021BA4802F0DDF801224021E7
:10038C00B74802F0D8F867E101220121B44802F025
:10039C00D2F800220221B24802F0CDF8002204214A
:1003AC00AF4802F0C8F801220821AD4802F0C3F8AA
:1003BC0001221021AA4802F0BEF801222021A848EF
:1003CC0002F0B9F801224021A54802F0B4F843E14B
:1003DC0000220121A24802F0AEF800220221A0481E
:1003EC0002F0A9F8012204219D4802F0A4F8002291
:1003FC0008219B4802F09FF800221021984802F037
:10040C009AF801222021964802F095F8002240210A
:10041C00934802F090F81FE100220121904802F06D
:10042C008AF8002202218E4802F085F8002204216D
:10043C008B4802F080F800220821894802F07BF8F2
:10044C0001221021864802F076F8012220218448EE
:10045C0002F071F800224021814802F06CF8FBE0B8
:10046C00012201217E4802F066F8002202217C481C
:10047C0002F061F800220421794802F05CF80122B4
:10048C000821774802F057F801221021744802F035
:10049C0052F800222021724802F04DF8002240212F
:1004AC006F4802F048F8D7E0002201216C4802F0B6
:1004BC0042F8012202216A4802F03DF80022042190
:1004CC00674802F038F800220821654802F033F83A
:1004DC0001221021624802F02EF8002220216048EF
:1004EC0002F029F8002240215D4802F024F8B3E024
:1004FC00002201215A4802F01EF80122022158481C
:10050C0002F019F800220421554802F014F80022D8
:10051C000821534802F00FF800221021504802F035
:10052C000AF8002220214E4802F005F80022402152
:10053C004B4802F000F88FE000220121484801F0FE
:10054C00FAFF00220221464801F0F5FF00220421A7
:10055C00434801F0F0FF01220821414801F0EBFF74
:10056C00012210213E4801F0E6FF012220213C48E7
:10057C0001F0E1FF01224021394801F0DCFF6BE082
:10058C0000220121364801F0D6FF00220221344816
:10059C0001F0D1FF00220421314801F0CCFF0022F0
:1005AC0008212F4801F0C7FF002210212C4801F030
:1005BC00C2FF002220212A4801F0BDFF0022402169
:1005CC00274801F0B8FF47E000220121244801F040
:1005DC00B2FF00220221224801F0ADFF00220421CB
:1005EC001F4801F0A8FF002208211D4801F0A3FFBD
:1005FC00012210211A4801F09EFF002220211848E8
:10060C0001F099FF00224021154801F094FF23E0EE
:10061C0001220121124801F08EFF01220221104813
:10062C0001F089FF012204210D4801F084FF012211
:10063C0008210B4801F07FFF01221021084801F02E
:10064C007AFF01222021064801F075FF012240218A
:10065C00034801F070FF00BF00BF0837BD4680BDE6
:10066C00000C014080B582B000AF78607B68092B2C
:10067C0000F2BE8101A252F823F000BFB1060008BF
:10068C000507000859070008AD0700080108000815
:10069C0055080008A9080008FD08000851090008C1
:1006AC00A509000800228021D04801F044FF002257
:1006BC004FF48071CD4801F03EFF00224FF40071E1
:1006CC00CA4801F038FF00224FF48061C74801F09E
:1006DC0032FF00224FF40061C44801F02CFF0022CD
:1006EC004FF48051C14801F026FF01224FF4005114
:1006FC00BE4801F020FFA5E101228021BB4801F09A
:10070C001AFF00224FF48071B84801F014FF002248
:10071C004FF40071B54801F00EFF01224FF48061D7
:10072C00B24801F008FF01224FF40061AF4801F01C
:10073C0002FF01224FF48051AC4801F0FCFE012273
:10074C004FF40051A94801F0F6FE7BE10022802114
:10075C00A64801F0F0FE00224FF48071A34801F08E
:10076C00EAFE01224FF40071A04801F0E4FE0022E1
:10077C004FF480619D4801F0DEFE00224FF40061D1
:10078C009A4801F0D8FE01224FF48051974801F0AD
:10079C00D2FE00224FF40051944801F0CCFE51E1FE
:1007AC0000228021914801F0C6FE00224FF4807196
:1007BC008E4801F0C0FE00224FF400718B4801F00E
:1007CC00BAFE00224FF48061884801F0B4FE012289
:1007DC004FF40061854801F0AEFE01224FF48051C8
:1007EC00824801F0A8FE00224FF400517F4801F02E
:1007FC00A2FE27E1012280217C4801F09CFE002210
:10080C004FF48071794801F096FE00224FF400718C
:10081C00764801F090FE01224FF48061734801F09C
:10082C008AFE01224FF40061704801F084FE002220
:10083C004FF480516D4801F07EFE00224FF40051C0
:10084C006A4801F078FEFDE000228021674801F043
:10085C0072FE01224FF48071644801F06CFE00229C
:10086C004FF40071614801F066FE00224FF4806184
:10087C005E4801F060FE01224FF400615B4801F01C
:10088C005AFE00224FF48051584801F054FE0022C9
:10089C004FF40051554801F04EFED3E00022802168
:1008AC00524801F048FE01224FF480714F4801F08C
:1008BC0042FE00224FF400714C4801F03CFE002235
:1008CC004FF48061494801F036FE00224FF400617C
:1008DC00464801F030FE00224FF48051434801F0AD
:1008EC002AFE00224FF40051404801F024FEA9E0FA
:1008FC00002280213D4801F01EFE00224FF4807141
:10090C003A4801F018FE00224FF40071374801F00C
:10091C0012FE01224FF48061344801F00CFE0122DA
:10092C004FF40061314801F006FE01224FF4805172
:10093C002E4801F000FE01224FF400512B4801F02B
:10094C00FAFD7FE000228021284801F0F4FD00220E
:10095C004FF48071254801F0EEFD00224FF4007138
:10096C00224801F0E8FD00224FF480611F4801F09D
:10097C00E2FD00224FF400611C4801F0DCFD002276
:10098C004FF48051194801F0D6FD00224FF400516C
:10099C00164801F0D0FD55E000228021134801F0EB
:1009AC00CAFD00224FF48071104801F0C4FD0022F2
:1009BC004FF400710D4801F0BEFD00224FF4806130
:1009CC000A4801F0B8FD01224FF40061074801F01C
:1009DC00B2FD00224FF48051044801F0ACFD00221E
:1009EC004FF40051014801F0A6FD2BE0000C014032
:1009FC0001228021154801F09EFD01224FF48071E7
:100A0C00124801F098FD01224FF400710F4801F0DB
:100A1C0092FD01224FF480610C4801F08CFD012203
:100A2C004FF40061094801F086FD01224FF480511A
:100A3C00064801F080FD01224FF40051034801F0FB
:100A4C007AFD00BF00BF0837BD4680BD000C0140D9
:100A5C0080B500AF2021024801F085FD00BF80BDAC
:100A6C000008014080B500AF40F61211024801F0B9
:100A7C007AFD00BF80BD00BF0008014080B500AF0B
:100A8C0041F24421024801F06EFD00BF80BD00BF61
:100A9C000008014080B500AF42F28841024801F0E5
:100AAC0062FD00BF80BD00BF0008014080B500AFF3
:100ABC004FF40251024801F056FD00BF80BD00BF4B
:100ACC000008014080B483B000AF00237B603FE09E
:100ADC00244A7B68012142F82310224A7B6852F891
:100AEC00232021497B6841F823201F4A7B6852F858
:100AFC0023201E497B6841F823201D4A7B68012175
:100B0C0042F823101B4A7B68002142F823101A4A32
:100B1C007B68002142F82310184A7B68002142F8B8
:100B2C002310174A7B68002142F82310154A7B6872
:100B3C00002142F82310144A7B68002142F823104C
:100B4C00124A7B68002142F823107B6801337B60DA
:100B5C007B68022BBCDD00BF00BF0C37BD4680BCE0
:100B6C00704700BF680000205C000020500000208F
:100B7C0074000020800000208C00002098000020D1
:100B8C00A4000020B0000020BC000020C800002001
:100B9C0080B582B000AF00237B60DDE0734A7B68D8
:100BAC0052F8232072497B6841F82320714A7B68F4
:100BBC0052F823206D497B6841F823206E4A7B68EC
:100BCC0052F823206D497B6831F8133019461046D2
:100BDC0001F09AFC03461946664A7B6842F82310DA
:100BEC00634A7B6852F8232060497B6851F82330B4
:100BFC009A4240F0AE805D4A7B6852F823205D49F2
:100C0C007B6851F823309A4240F0A3805C4A7B68A1
:100C1C0052F8232057497B6851F823309A424ED022
:100C2C00574A7B6852F82330002B34D1514A7B68E9
:100C3C0052F82330012B2ED1524A7B68012142F805
:100C4C002310514A7B6852F823305A1C4E497B685A
:100C5C0041F823204C4A7B6852F82330012B05D1F4
:100C6C004A4A7B68282142F8231014E0464A7B68E4
:100C7C0052F82330022B0ED1454A7B68012142F8F1
:100C8C002310414A7B68002142F823103F4A7B68BD
:100C9C00002142F82310374A7B6852F82320384948
:100CAC007B6841F82320334A7B6852F82330002BB1
:100CBC002AD1384A7B68642142F8231024E02D4A5B
:100CCC007B6852F82330002B1ED1324A7B6852F8D5
:100CDC002330002B18DD2F4A7B6852F823305A1E24
:100CEC002C497B6841F823202A4A7B6852F8233030
:100CFC00002B09DC284A7B68012142F82310254A85
:100D0C007B68322142F82310204A7B6852F823304A
:100D1C00002B1EDD1D4A7B6852F823305A1E1B49DE
:100D2C007B6841F82320194A7B6852F82330002B4A
:100D3C000FD1154A7B6852F82330012B04D1174A86
:100D4C007B68012142F823100F4A7B68002142F88E
:100D5C0023107B6801337B607B68022B7FF71EAF0F
:100D6C0000BF00BF0837BD4680BD00BF5C0000203F
:100D7C005000002068000020000000200C00002023
:100D8C0074000020A4000020BC000020C80000203B
:100D9C00B000002080000020980000208C00002073
:100DAC0080B483B000AF78607B68002B02DB7B687B
:100DBC00022B01DD00230DE0094A7B6852F8233039
:100DCC00012B06D1064A7B68002142F8231001232F
:100DDC0000E0002318460C37BD4680BC704700BFAE
:100DEC008C00002080B483B000AF78607B68002B4F
:100DFC0002DB7B68022B01DD00230DE0094A7B68D6
:100E0C0052F82330012B06D1064A7B68002142F8A8
:100E1C002310012300E0002318460C37BD4680BC8C
:100E2C00704700BF9800002080B483B000AF78609A
:100E3C007B68002B02DB7B68022B01DD00230DE0BD
:100E4C00094A7B6852F82330012B06D1064A7B688D
:100E5C00002142F82310012300E0002318460C3730
:100E6C00BD4680BC704700BFB000002080B500AF0D
:100E7C000020FFF795FF0346002B23D0144B0122D3
:100E8C001A60144B1B68013B032B1DD801A252F8AE
:100E9C0023F000BFB10E0008B90E0008C10E000807
:100EAC00C90E00080C4B02221A600EE00A4B0322FA
:100EBC001A600AE0084B04221A6006E0064B012275
:100ECC001A6002E000BF00E000BF00BF80BD00BFA1
:100EDC00EC000020E4000020E800002080B500AF0A
:100EEC00174B1B68032B29D10120FFF759FF034631
:100EFC00002B05D10120FFF775FF0346002B03D013
:100F0C00104B01221A7019E00220FFF749FF03462B
:100F1C00002B05D10220FFF765FF0346002B03D001
:100F2C00084B02221A7009E00220FFF77DFF0346EE
:100F3C00002B03D0034B03221A70FFE700BF80BDC8
:100F4C00E4000020F000002080B500AF074B1B68C8
:100F5C00042B08D10120FFF767FF0346002B02D0BA
:100F6C00034B01221A6000BF80BD00BFE4000020CB
:100F7C00F400002080B500AF40F6B8324FF4FA61AF
:100F8C0041F2883000F0F2FD00BF80BD80B500AFAB
:100F9C00424B1B78022B49D0022B76DC002B02D063
:100FAC00012B2AD071E0032000F032FC0346002B09
:100FBC0005D0FFF757FDFA21032000F0D1FB0420E8
:100FCC0000F026FC0346002B05D0FFF7D1F850218A
:100FDC00042000F0C5FB324B1B68002B57D02F4B65
:100FEC0001221A702F4B00221A70FFF7A9F800F09B
:100FFC00CDFC2B4B00221A6049E000F0CBFE284BB5
:10100C001B68002B45D0254B02221A70FFF798F86D
:10101C0000F0BCFCFA21032000F0A2FB50210420BC
:10102C0000F09EFB1E4B00221A6032E0032000F001
:10103C00EFFB0346002B05D0FFF720FDFA21032020
:10104C0000F08EFB042000F0E3FB0346002B05D0E0
:10105C00FFF78EF85021042000F082FB104B1B6828
:10106C00002B18D00D4B00221A70FFF769F800F016
:10107C008DFCFA21032000F073FB5021042000F0BA
:10108C006FFB074B00221A6005E000BF04E000BFB5
:10109C0002E000BF00E000BF00BF80BDF1000020F7
:1010AC00F40000202801002080B500AFA54B1B7870
:1010BC000B3B032B00F2438101A252F823F000BF3B
:1010CC00DD10000899110008591200081F130008C0
:1010DC00032000F09DFB0346002B05D0FFF7C2FC5C
:1010EC00FA21032000F03CFB052000F091FB0346A5
:1010FC00002B0DD0944B1B68642202FB03F364217C
:10110C001846FFF7AFF84FF4FA71052000F028FBF2
:10111C00042000F07DFB0346002B05D0FFF760F8A0
:10112C005021042000F01CFB884B1B78032B1AD099
:10113C00032B22DC012B02D0022B0AD01DE0824BA8
:10114C001B68622B1BDC804B1B6801337E4A1360CF
:10115C0015E07D4B1B68012B13DD7B4B1B68013BA2
:10116C00794A13600DE000F011FC764B0C221A70DA
:10117C00FA21032000F0F4FA04E000BF02E000BF03
:10118C0000E000BF714B00221A70D9E0032000F080
:10119C003FFB0346002B05D0FFF770FCFA21032020
:1011AC0000F0DEFA052000F033FB0346002B0DD0D7
:1011BC00674B1B68642202FB03F3C8211846FFF738
:1011CC0051F84FF4FA71052000F0CAFA042000F02F
:1011DC001FFB0346002B05D0FFF702F8502104201B
:1011EC0000F0BEFA594B1B78032B1CD0032B24DCCC
:1011FC00012B02D0022B0CD01FE0554B1A68524B1E
:10120C001B689A421BDA524B1B680133504A13601D
:10121C0015E04F4B1B68012B13DD4D4B1B68013B3D
:10122C004B4A13600DE000F0B1FB464B0D221A70D7
:10123C00FA21032000F094FA04E000BF02E000BFA2
:10124C0000E000BF414B00221A7079E0032000F04F
:10125C00DFFA0346002B05D0FFF71CFCFA21032014
:10126C0000F07EFA052000F0D3FA0346002B0ED0D6
:10127C00384B1B68642202FB03F34FF4967118463B
:10128C00FEF7F0FF4FF4FA71052000F069FA042024
:10129C0000F0BEFA0346002B05D0FEF7A1FF50214B
:1012AC00042000F05DFA294B1B78032B1FD0032B75
:1012BC0026DC012B02D0022B0FD021E0224B1A6826
:1012CC00234B1B68D21A234B1B689A421ADD214B05
:1012DC001B6801331F4A136014E01E4B1B68012B63
:1012EC0012DD1C4B1B68013B1A4A13600CE000F02A
:1012FC004DFB194B00221A70124B0E221A7004E08F
:10130C0000BF02E000BF00E000BF104B00221A70CB
:10131C0016E00D4B1B684FF47A7202FB03F00C4B7A
:10132C001B684FF47A7202FB03F10A4B1B684FF4F3
:10133C007A7202FB03F31A4600F018FC00E000BFBF
:10134C0000BF80BD12000020D4000020F00000205F
:10135C00D8000020DC0000202801002080B582B0DD
:10136C0000AF78607B68013B032B2ED801A252F8AA
:10137C0023F000BF911300089B130008AB13000867
:10138C00C113000800F002FBFEF7DAFE1EE0FEF7C8
:10139C00D7FE00F0FBFA0F4B00221A7016E0FEF796
:1013AC00CFFE00F0F3FA0C4B0B221A70094B002203
:1013BC001A700BE0FEF7C4FE00F0E8FA054B0022B1
:1013CC001A70064B00221A7000E000BF00BF0837ED
:1013DC00BD4680BD2801002012000020F100002035
:1013EC0080B582B000AF78607B68013B032B14D8CA
:1013FC0001A252F823F000BF2714000815140008AE
:10140C001B14000821140008FFF7B4FD06E0FFF7D9
:10141C004BFE03E0FFF7BAFD00E000BF00BF08374A
:10142C00BD4680BD80B500AF002000F0F1F9034649
:10143C00002B06D0FFF70CFB4FF47A71002000F064
:10144C008FF9104B1A68104B1B689A4208D00E4B40
:10145C001B681846FFF782FF0B4B1B68094A136089
:10146C00094B1B681846FFF7BBFF084B1B68002B8A
:10147C0006D0074B1B68044A1360044B00221A6009
:10148C0000BF80BDE0000020E4000020EC00002044
:10149C00E800002080B500AF064B01221A60064B15
:1014AC0001221A60FFF70EFB642000F02DF900BF3B
:1014BC0080BD00BFE4000020E800002080B500AF34
:1014CC0000F038FD00F00EF800F094F800F046F84B
:1014DC00034801F08DFCFFF7DDFFFFF7A3FFFCE7EE
:1014EC002C01002080B590B000AF07F11803282222
:1014FC000021184602F02CF83B1D00221A605A609D
:10150C009A60DA601A610223BB610123BB6210236B
:10151C00FB6200237B6307F11803184601F03CF8CB
:10152C000346002B01D000F0E9F80F237B60002369
:10153C00BB600023FB6000233B6100237B613B1DF0
:10154C000021184601F0A8FA0346002B01D000F048
:10155C00D5F800BF4037BD4680BD000080B586B0D1
:10156C0000AF07F1080300221A605A609A60DA6033
:10157C003B4600221A605A601D4B4FF080421A60A5
:10158C001B4B41F63F725A60194B00229A60184B64
:10159C000922DA60164B00221A61154B00229A615F
:1015AC00134801F0D5FB0346002B01D000F0A6F840
:1015BC004FF48053BB6007F1080319460C4801F047
:1015CC0053FD0346002B01D000F098F800233B603C
:1015DC0000237B603B461946054801F02BFF034670
:1015EC00002B01D000F08AF800BF1837BD4680BD33
:1015FC002C01002080B588B000AF07F11003002249
:10160C001A605A609A60DA602F4B9B692E4A43F03D
:10161C00100393612C4B9B6903F01003FB60FB6878
:10162C00294B9B69284A43F004039361264B9B6921
:10163C0003F00403BB60BB68234B9B69224A43F055
:10164C0008039361204B9B6903F008037B607B6864
:10165C00002243F6FE711D4800F06DFF00224FF68C
:10166C00FF711B4800F067FF4FF460433B610023A0
:10167C007B610123BB6107F110031946154800F08B
:10168C00C9FD43F6FE733B6101237B610023BB6103
:10169C000223FB6107F1100319460C4800F0BAFD58
:1016AC004FF6FF733B6101237B610023BB61022377
:1016BC00FB6107F110031946054800F0ABFD00BFB4
:1016CC002037BD4680BD00BF00100240000801401D
:1016DC00000C01400010014080B582B000AF786072
:1016EC0000F066F8FFF754FAFFF7C0FBFFF7F6FBC4
:1016FC00FFF72AFC00BF0837BD4680BD80B400AFA1
:10170C0072B600BFFEE7000080B485B000AF786011
:10171C007B68104A82FB03129210DB17D31ABB6052
:10172C000023FB600CE00C49FB68BA6841F82320ED
:10173C000A4AFB68002142F82310FB680133FB6066
:10174C00FB68052BEFDD00BF00BF1437BD4680BC26
:10175C00704700BF67666666F80000201001002025
:10176C0080B483B000AF786039607B68002B13DBEA
:10177C007B68052B10DC3B680A4A82FB0312921033
:10178C00DB17D21A08497B6841F82320074A7B688B
:10179C00002142F8231000E000BF0C37BD4680BC8E
:1017AC00704700BF67666666F800002010010020D5
:1017BC0080B483B000AF00237B601CE0124A7B68CE
:1017CC0052F82330002B13DD0F4A7B6852F823307C
:1017DC005A1E0D497B6841F823200B4A7B6852F84E
:1017EC002330002B04DC094A7B68012142F82310CA
:1017FC007B6801337B607B68052BDFDD00BF00BF9E
:10180C000C37BD4680BC7047F8000020100100204A
:10181C0080B483B000AF78607B68002B02DB7B6800
:10182C00052B01DD002303E0044A7B6852F82330CA
:10183C0018460C37BD4680BC704700BF1001002015
:10184C0080B483B000AF78607B68002B02DB7B68D0
:10185C00052B01DD002303E0044A7B6852F823309A
:10186C0018460C37BD4680BC704700BFF8000020FE
:10187C0080B485B000AF154B9B69144A43F001034B
:10188C009361124B9B6903F00103BB60BB680F4B68
:10189C00DB690E4A43F08053D3610C4BDB6903F0D8
:1018AC0080537B607B680A4B5B68FB60FB6823F0B2
:1018BC00E063FB60FB6843F08063FB60044AFB68F9
:1018CC00536000BF1437BD4680BC70470010024007
:1018DC000000014080B584B000AF78607B681B6865
:1018EC00B3F1804F13D10C4BDB690B4A43F001036E
:1018FC00D361094BDB6903F00103FB60FB68002239
:10190C0000211C2000F04FFC1C2000F068FC00BFE4
:10191C001037BD4680BD00BF0010024080B400AF40
:10192C00FEE780B400AFFEE780B400AFFEE780B402
:10193C0000AFFEE780B400AFFEE780B400AF00BF9D
:10194C00BD4680BC704780B400AF00BFBD4680BCB4
:10195C00704780B400AF00BFBD4680BC704780B5F7
:10196C0000AF00F02DFB00BF80BD000080B500AFC4
:10197C00024801F089FA00BF80BD00BF2C01002095
:10198C0080B400AF00BFBD4680BC704780B500AFCF
:10199C0001220221204800F0CEFD012204211E4824
:1019AC0000F0C9FD012208211B4800F0C4FD0122F2
:1019BC001021194800F0BFFD01224021164800F00B
:1019CC00BAFD01228021144800F0B5FD01224FF42C
:1019DC008071114800F0AFFD01224FF400710E48E8
:1019EC0000F0A9FD01224FF480610B4800F0A3FD2B
:1019FC0001224FF40061084800F09DFD01224FF4D4
:101A0C008051054800F097FD01224FF40051024827
:101A1C0000F091FD00BF80BD0008014080B500AF13
:101A2C00002202210A4800F086FD01220421084808
:101A3C0000F081FD00224FF48071054800F07BFD21
:101A4C0001224FF40071024800F075FD00BF80BD0B
:101A5C000008014080B500AF012202210A4800F0C5
:101A6C006AFD00220821084800F065FD01224FF4B0
:101A7C008071054800F05FFD00224FF48061024840
:101A8C0000F059FD00BF80BD0008014080B500AFDB
:101A9C00012208210A4800F04EFD002204210848CA
:101AAC0000F049FD01224FF48061054800F043FD30
:101ABC0000224FF40071024800F03DFD00BF80BDD4
:101ACC000008014080B500AF002210210A4800F048
:101ADC0032FD01224021084800F02DFD00224FF478
:101AEC000061054800F027FD01224FF480510248A7
:101AFC0000F021FD00BF80BD0008014080B500AFA3
:101B0C00012210210A4800F016FD0022802108480D
:101B1C0000F011FD01224FF40061054800F00BFDAF
:101B2C0000224FF40051024800F005FD00BF80BDBB
:101B3C000008014080B500AF012280210A4800F066
:101B4C00FAFC00224021084800F0F5FC01224FF479
:101B5C000051054800F0EFFC00224FF48051024880
:101B6C0000F0E9FC00BF80BD0008014090B585B0D5
:101B7C0000AFF860B9607A60854B1B78042B00F2DB
:101B8C00FA8001A252F823F0A91B0008D11B00080F
:101B9C003D1C0008AB1C0008151D00087C4B0122E5
:101BAC001A70F9680120FFF7DBFD79680220FFF756
:101BBC00D7FD0A210420FFF7D3FD0A210520FFF7EA
:101BCC00CFFDE1E0FFF72AFFFFF798FF0520FFF7B5
:101BDC001FFE0346002B10D00120FFF731FE0446F8
:101BEC000220FFF72DFE034619462046FEF73AFB6E
:101BFC004FF4FA710520FFF7B3FD0420FFF708FE40
:101C0C000346002B05D0FEF7EBFA50210420FFF71A
:101C1C00A7FD0220FFF7FCFD0346002B00F0AD8072
:101C2C005B4B02221A70B9680220FFF799FDA4E001
:101C3C00FFF780FF0520FFF7EBFD0346002B10D0CC
:101C4C000120FFF7FDFD04460220FFF7F9FD0346D6
:101C5C0019462046FEF706FB4FF4FA710520FFF7F4
:101C6C007FFD0420FFF7D4FD0346002B05D0FEF7C3
:101C7C00B7FA50210420FFF773FD0120FFF7C8FDD0
:101C8C000346002B7BD0424B03221A70796801204B
:101C9C00FFF766FDF9680220FFF762FD6FE0FFF7C2
:101CAC00D9FEFFF70FFF0520FFF7B2FD0346002B0F
:101CBC0010D00120FFF7C4FD04460220FFF7C0FD41
:101CCC00034619462046FEF7CDFA4FF4FA7105206B
:101CDC00FFF746FD0420FFF79BFD0346002B05D0C4
:101CEC00FEF77EFA50210420FFF73AFD0120FFF7A2
:101CFC008FFD0346002B44D0254B04221A70B96883
:101D0C000120FFF72DFD3CE0FFF7C0FE0520FFF79B
:101D1C007FFD0346002B10D00120FFF791FD0446F8
:101D2C000220FFF78DFD034619462046FEF79AFA6E
:101D3C004FF4FA710520FFF713FD0420FFF768FD3F
:101D4C000346002B05D0FEF74BFA50210420FFF779
:101D5C0007FD0120FFF75CFD0346002B13D00C4B55
:101D6C0001221A70F9680120FFF7FAFC7968022049
:101D7C00FFF7F6FC07E000BF06E000BF04E000BF81
:101D8C0002E000BF00E000BF00BF1437BD4690BDAD
:101D9C002801002080B500AF514B1B78062B00F2B8
:101DAC008E8001A252F823F0D11D0008051E0008F8
:101DBC004D1E0008651E0008B31E0008211E0008F9
:101DCC00811E00080320FFF723FD0346002B05D0DE
:101DDC00FEF748FEFA210320FFF7C2FC0120FEF7B4
:101DEC00DFFF0346002B6CD03D4B01221A70FA2109
:101DFC000320FFF7B5FC64E0FFF710FEFFF77EFE53
:101E0C000120FEF7CDFF0346002B5CD0344B05229E
:101E1C001A7058E00320FFF7FBFC0346002B05D09B
:101E2C00FEF744FEFA210320FFF79AFC0120FEF78F
:101E3C00B7FF0346002B48D0294B02221A7044E00E
:101E4C00FFF778FE0120FEF7ABFF0346002B3ED0D8
:101E5C00234B03221A703AE0FFF734FEFFF7FAFD2A
:101E6C000120FEF79DFF0346002B32D01C4B0622AF
:101E7C001A702EE00320FFF7CBFC0346002B08D092
:101E8C004FF48161174800F06EFBFA210320FFF735
:101E9C0067FC0120FEF784FF0346002B1BD0104B80
:101EAC0004221A7017E0FFF7F1FD0120FEF778FF0E
:101EBC000346002B11D00A4B01221A700DE000BF13
:101ECC000CE000BF0AE000BF08E000BF06E000BF66
:101EDC0004E000BF02E000BF00E000BF00BF80BD17
:101EEC002801002000080140FFF74AFD0B480C496F
:101EFC000C4A002302E0D458C4500433C4188C425A
:101F0C00F9D3094A094C002301E013600432A242C0
:101F1C00FBD301F0F9FAFFF7D1FA7047000000206B
:101F2C0020000020B035000820000020780100209F
:101F3C00FEE7000080B500AF084B1B68074A43F072
:101F4C0010031360032000F023F90F2000F008F8B1
:101F5C00FFF78EFC0023184680BD00BF0020024016
:101F6C0080B582B000AF7860124B1A68124B1B78A8
:101F7C0019464FF47A73B3FBF1F3B2FBF3F3184643
:101F8C0000F03BF90346002B01D001230EE07B68E7
:101F9C000F2B0AD8002279684FF0FF3000F003F9BC
:101FAC00064A7B681360002300E0012318460837BB
:101FBC00BD4680BD140000201C000020180000202D
:101FCC0080B400AF054B1B781A46054B1B681344B5
:101FDC00034A136000BFBD4680BC70471C00002044
:101FEC007401002080B400AF024B1B681846BD463C
:101FFC0080BC70477401002080B485B000AF78605D
:10200C007B6803F00703FB600C4BDB68BB60BA68B2
:10201C004FF6FF031340BB60FB681A02BB68134307
:10202C0043F0BF6343F40033BB60044ABB68D36026
:10203C0000BF1437BD4680BC704700BF00ED00E008
:10204C0080B400AF044BDB681B0A03F0070318468F
:10205C00BD4680BC704700BF00ED00E080B483B08B
:10206C0000AF0346FB7197F90730002B0BDBFB79B4
:10207C0003F01F02064997F907305B09012000FAAB
:10208C0002F241F8232000BF0C37BD4680BC7047DC
:10209C0000E100E080B483B000AF03463960FB710F
:1020AC0097F90730002B0ADB3B68DAB20C4997F939
:1020BC0007301201D2B20B4483F800230AE03B68CC
:1020CC00DAB20849FB7903F00F03043B1201D2B2D8
:1020DC000B441A7600BF0C37BD4680BC704700BF5E
:1020EC0000E100E000ED00E080B489B000AFF860E2
:1020FC00B9607A60FB6803F00703FB61FB69C3F10D
:10210C000703042B28BF0423BB61FB690433062B94
:10211C0002D9FB69033B00E000237B614FF0FF32E7
:10212C00BB6902FA03F3DA43BB681A407B699A4035
:10213C004FF0FF317B6901FA03F3D9437B680B4005
:10214C00134318462437BD4680BC704780B582B017
:10215C0000AF78607B68013BB3F1807F01D3012332
:10216C000FE00A4A7B68013B53600F214FF0FF30B0
:10217C00FFF790FF054B00229A60044B07221A6070
:10218C00002318460837BD4680BD00BF10E000E0B4
:10219C0080B582B000AF78607868FFF72DFF00BF84
:1021AC000837BD4680BD80B586B000AF0346B96028
:1021BC007A60FB7300237B61FFF742FF78617A68DA
:1021CC00B9687869FFF790FF024697F90F3011460E
:1021DC001846FFF75FFF00BF1837BD4680BD80B5BE
:1021EC0082B000AF0346FB7197F907301846FFF732
:1021FC0035FF00BF0837BD4680BD80B582B000AF4B
:10220C0078607868FFF7A2FF034618460837BD468A
:10221C0080BD000080B48BB000AF786039600023C3
:10222C007B6200233B6248E101227B6A02FA03F3E2
:10223C00FB613B681B68FA691340BB61BA69FB69B7
:10224C009A4240F037813B685B68A34A93425ED068
:10225C00A14A934275D8A14A934258D09F4A9342BF
:10226C006FD89F4A934252D09D4A934269D89D4A57
:10227C0093424CD09B4A934263D89B4A934246D09C
:10228C00994A93425DD8122B2AD8122B59D801A205
:10229C0052F823F01B230008F5220008072300083E
:1022AC00492300084F2300084F2300084F23000840
:1022BC004F2300084F2300084F2300084F2300082A
:1022CC004F2300084F2300084F2300084F2300081A
:1022DC004F2300084F230008FD220008112300089B
:1022EC00824A934213D02CE03B68DB683B6229E0C6
:1022FC003B68DB6804333B6224E03B68DB680833F3
:10230C003B621FE03B68DB680C333B621AE03B68C6
:10231C009B68002B02D104233B6213E03B689B6853
:10232C00012B05D108233B627B68FA691A6109E02D
:10233C0008233B627B68FA695A6103E000233B6225
:10234C0000E000BFBB69FF2B01D87B6801E07B6814
:10235C0004337B61BB69FF2B02D87B6A9B0002E0D4
:10236C007B6A083B9B003B617B691A680F213B69C8
:10237C0001FA03F3DB431A40396A3B6901FA03F3B0
:10238C001A437B691A603B685B6803F08053002B2F
:10239C0000F09080564B9B69554A43F001039361C2
:1023AC00534B9B6903F00103BB60BB68514A7B6ACA
:1023BC009B08023352F82330FB607B6A03F0030363
:1023CC009B000F2202FA03F3DB43FA681340FB6015
:1023DC007B68494A93420DD07B68484A934207D0A8
:1023EC007B68474A934201D1022304E0032302E0B5
:1023FC00012300E000237A6A02F00302920093406A
:10240C00FA681343FB603B497B6A9B080233FA680A
:10241C0041F823203B685B6803F48013002B06D043
:10242C00384B9A683749BB6913438B6006E0354BD0
:10243C009A68BB69DB43334913408B603B685B682C
:10244C0003F40013002B06D02E4BDA682D49BB6920
:10245C001343CB6006E02B4BDA68BB69DB4329499D
:10246C001340CB603B685B6803F40033002B06D051
:10247C00244B5A682349BB6913434B6006E0214B3C
:10248C005A68BB69DB431F4913404B603B685B6870
:10249C0003F48033002B06D01A4B1A681949BB6918
:1024AC0013430B6006E0174B1A68BB69DB431549F5
:1024BC0013400B607B6A01337B623B681A687B6A52
:1024CC0022FA03F3002B7FF4AFAE00BF00BF2C3712
:1024DC00BD4680BC704700BF0000321000003110B8
:1024EC00000022100000211000001210000011103A
:1024FC00001002400000014000080140000C0140A7
:10250C00001001400004014080B485B000AF786039
:10251C000B467B807B689A687B881340002B02D02B
:10252C000123FB7301E00023FB73FB7B184614377C
:10253C00BD4680BC704780B483B000AF78600B465A
:10254C007B8013467B707B78002B03D07A887B686A
:10255C001A6103E07B881A047B681A6100BF0C3790
:10256C00BD4680BC704780B485B000AF78600B4628
:10257C007B807B68DB68FB607A88FB6813401A04FD
:10258C00FB68D9437B880B401A437B681A6100BFF8
:10259C001437BD4680BC704780B586B000AF7860FC
:1025AC007B68002B01D101236CE27B681B6803F074
:1025BC000103002B00F08780924B5B6803F00C0347
:1025CC00042B0CD08F4B5B6803F00C03082B12D13F
:1025DC008C4B5B6803F48033B3F5803F0BD1894B94
:1025EC001B6803F40033002B6CD07B685B68002BFA
:1025FC0068D1012346E27B685B68B3F5803F06D166
:10260C00804B1B687F4A43F4803313602EE07B6859
:10261C005B68002B0CD17B4B1B687A4A23F480330C
:10262C001360784B1B68774A23F4802313601DE0FA
:10263C007B685B68B3F5A02F0CD1724B1B68714A99
:10264C0043F4802313606F4B1B686E4A43F4803352
:10265C0013600BE06B4B1B686A4A23F480331360E6
:10266C00684B1B68674A23F4802313607B685B68A4
:10267C00002B13D0FFF7B6FC386108E0FFF7B2FC73
:10268C0002463B69D31A642B01D90323FAE15D4B53
:10269C001B6803F40033002BF0D014E0FFF7A2FC0E
:1026AC00386108E0FFF79EFC02463B69D31A642BA5
:1026BC0001D90323E6E1534B1B6803F40033002BD1
:1026CC00F0D100E000BF7B681B6803F00203002B15
:1026DC0063D04C4B5B6803F00C03002B0BD0494BC5
:1026EC005B6803F00C03082B1CD1464B5B6803F4AE
:1026FC008033002B16D1434B1B6803F00203002BD5
:10270C0005D07B681B69012B01D00123BAE13D4B3D
:10271C001B6823F0F8027B685B69DB0039491343C3
:10272C000B603AE07B681B69002B20D0364B0122F2
:10273C001A60FFF757FC386108E0FFF753FC0246BC
:10274C003B69D31A022B01D903239BE12D4B1B6848
:10275C0003F00203002BF0D02A4B1B6823F0F80285
:10276C007B685B69DB00274913430B6015E0264B44
:10277C0000221A60FFF736FC386108E0FFF732FCE4
:10278C0002463B69D31A022B01D903237AE11D4B74
:10279C001B6803F00203002BF0D17B681B6803F06D
:1027AC000803002B3AD07B689B69002B19D0174B80
:1027BC0001221A60FFF716FC386108E0FFF712FCE3
:1027CC0002463B69D31A022B01D903235AE10D4B64
:1027DC005B6A03F00203002BF0D0012000F09AFAA0
:1027EC001CE00A4B00221A60FFF7FCFB38610FE07B
:1027FC00FFF7F8FB02463B69D31A022B08D90323D7
:10280C0040E100BF001002400000424280044242FE
:10281C009E4B5B6A03F00203002BE9D17B681B68BB
:10282C0003F00403002B00F0A6800023FB75974BEC
:10283C00DB6903F08053002B0DD1944BDB69934A79
:10284C0043F08053D361914BDB6903F08053BB6041
:10285C00BB680123FB758E4B1B6803F48073002B44
:10286C0018D18B4B1B688A4A43F480731360FFF7B3
:10287C00B9FB386108E0FFF7B5FB02463B69D31A98
:10288C00642B01D90323FDE0814B1B6803F4807397
:10289C00002BF0D07B68DB68012B06D17B4B1B6ACD
:1028AC007A4A43F0010313622DE07B68DB68002B4E
:1028BC000CD1764B1B6A754A23F001031362734BE0
:1028CC001B6A724A23F0040313621CE07B68DB680A
:1028DC00052B0CD16D4B1B6A6C4A43F0040313623D
:1028EC006A4B1B6A694A43F0010313620BE0674BA6
:1028FC001B6A664A23F001031362644B1B6A634A2A
:10290C0023F0040313627B68DB68002B15D0FFF700
:10291C0069FB38610AE0FFF765FB02463B69D31A95
:10292C0041F28832934201D90323ABE0574B1B6A27
:10293C0003F00203002BEED014E0FFF753FB3861D9
:10294C000AE0FFF74FFB02463B69D31A41F288328B
:10295C00934201D9032395E04C4B1B6A03F002030D
:10296C00002BEED1FB7D012B05D1484BDB69474A8F
:10297C0023F08053D3617B68DB69002B00F08180EE
:10298C00424B5B6803F00C03082B61D07B68DB695E
:10299C00022B46D13F4B00221A60FFF723FB386114
:1029AC0008E0FFF71FFB02463B69D31A022B01D943
:1029BC00032367E0354B1B6803F00073002BF0D149
:1029CC007B681B6AB3F5803F08D1304B5B6823F4FE
:1029DC0000327B689B682D4913434B602B4B5B6823
:1029EC0023F474127B68196A7B685B6A0B43274972
:1029FC0013434B60274B01221A60FFF7F3FA38613F
:102A0C0008E0FFF7EFFA02463B69D31A022B01D913
:102A1C00032337E01D4B1B6803F00073002BF0D031
:102A2C002FE01C4B00221A60FFF7DCFA386108E03B
:102A3C00FFF7D8FA02463B69D31A022B01D90323BC
:102A4C0020E0124B1B6803F00073002BF0D118E050
:102A5C007B68DB69012B01D1012313E00B4B5B6815
:102A6C00FB60FB6803F480327B681B6A9A4206D1D8
:102A7C00FB6803F470127B685B6A9A4201D00123F5
:102A8C0000E0002318461837BD4680BD00100240F8
:102A9C00007000406000424280B584B000AF7860A6
:102AAC0039607B68002B01D10123D0E06A4B1B6895
:102ABC0003F007033A689A4210D9674B1B6823F05E
:102ACC00070265493B6813430B60634B1B6803F0BB
:102ADC0007033A689A4201D00123B8E07B681B686F
:102AEC0003F00203002B20D07B681B6803F0040367
:102AFC00002B05D0594B5B68584A43F4E063536094
:102B0C007B681B6803F00803002B05D0534B5B68F4
:102B1C00524A43F460535360504B5B6823F0F0020D
:102B2C007B689B684D4913434B607B681B6803F0C3
:102B3C000103002B40D07B685B68012B07D1474B0E
:102B4C001B6803F40033002B15D101237FE07B6855
:102B5C005B68022B07D1414B1B6803F00073002B01
:102B6C0009D1012373E03D4B1B6803F00203002BDA
:102B7C0001D101236BE0394B5B6823F003027B68C6
:102B8C005B68364913434B60FFF72CFAF8600AE098
:102B9C00FFF728FA0246FB68D31A41F288329342B7
:102BAC0001D9032353E02D4B5B6803F00C027B68C7
:102BBC005B689B009A42EBD1274B1B6803F0070321
:102BCC003A689A4210D2244B1B6823F00702224920
:102BDC003B6813430B60204B1B6803F007033A68F8
:102BEC009A4201D0012332E07B681B6803F0040396
:102BFC00002B08D0194B5B6823F4E0627B68DB6820
:102C0C00164913434B607B681B6803F00803002BC9
:102C1C0009D0124B5B6823F460527B681B69DB00A4
:102C2C000E4913434B6000F021F802460B4B5B68D6
:102C3C001B0903F00F030A49CB5C22FA03F3094A80
:102C4C001360094B1B681846FFF78AF900231846D6
:102C5C001037BD4680BD00BF00200240001002406E
:102C6C0084350008140000201800002080B487B0C0
:102C7C0000AF0023FB600023BB6000237B610023BB
:102C8C007B6000233B611E4B5B68FB60FB6803F0C1
:102C9C000C03042B02D0082B03D027E0194B3B610B
:102CAC0027E0FB689B0C03F00F03174AD35C7B6097
:102CBC00FB6803F48033002B10D0114B5B685B0C6A
:102CCC0003F00103114AD35CBB607B680D4A02FB25
:102CDC0003F2BB68B2FBF3F37B6104E07B680C4A44
:102CEC0002FB03F37B617B693B6102E0054B3B61BB
:102CFC0000BF3B6918461C37BD4680BC704700BFFF
:102D0C000010024000127A0094350008A435000827
:102D1C0000093D0080B485B000AF78600A4B1B6899
:102D2C000A4AA2FB03235B0A7A6802FB03F3FB60EB
:102D3C0000BFFB685A1EFA60002BF9D100BF00BF20
:102D4C001437BD4680BC704714000020D34D621070
:102D5C0080B582B000AF78607B68002B01D1012375
:102D6C0041E07B6893F83D30DBB2002B06D17B68E9
:102D7C00002283F83C207868FEF7ACFD7B680222C9
:102D8C0083F83D207B681A687B680433194610462B
:102D9C0000F056FA7B68012283F846207B680122FA
:102DAC0083F83E207B68012283F83F207B68012258
:102DBC0083F840207B68012283F841207B68012244
:102DCC0083F842207B68012283F843207B68012230
:102DDC0083F844207B68012283F845207B6801221C
:102DEC0083F83D20002318460837BD4680BD0000FF
:102DFC0080B485B000AF78607B6893F83D30DBB26F
:102E0C00012B01D0012335E07B68022283F83D20A1
:102E1C007B681B68DA687B681B6842F00102DA6029
:102E2C007B681B68164A934209D07B681B68B3F118
:102E3C00804F04D07B681B68124A934211D17B6887
:102E4C001B689B6803F00703FB60FB68062B10D024
:102E5C007B681B681A687B681B6842F001021A6069
:102E6C0007E07B681B681A687B681B6842F00102EC
:102E7C001A60002318461437BD4680BC704700BF4B
:102E8C00002C01400004004080B584B000AF786095
:102E9C007B681B68DB68FB607B681B681B69BB601D
:102EAC00BB6803F00203002B20D0FB6803F0020385
:102EBC00002B1BD07B681B686FF002021A617B68C9
:102ECC0001221A777B681B689B6903F00303002BB4
:102EDC0003D0786800F098F905E0786800F08BF979
:102EEC00786800F09AF97B6800221A77BB6803F0C7
:102EFC000403002B20D0FB6803F00403002B1BD031
:102F0C007B681B686FF004021A617B6802221A77D7
:102F1C007B681B689B6903F44073002B03D07868B3
:102F2C0000F072F905E0786800F065F9786800F057
:102F3C0074F97B6800221A77BB6803F00803002B36
:102F4C0020D0FB6803F00803002B1BD07B681B68A8
:102F5C006FF008021A617B6804221A777B681B6881
:102F6C00DB6903F00303002B03D0786800F04CF905
:102F7C0005E0786800F03FF9786800F04EF97B685E
:102F8C0000221A77BB6803F01003002B20D0FB68DB
:102F9C0003F01003002B1BD07B681B686FF0100232
:102FAC001A617B6808221A777B681B68DB6903F45B
:102FBC004073002B03D0786800F026F905E07868A0
:102FCC0000F019F9786800F028F97B6800221A776C
:102FDC00BB6803F00103002B0CD0FB6803F001036A
:102FEC00002B07D07B681B686FF001021A617868B0
:102FFC00FEF772FBBB6803F08003002B0CD0FB6860
:10300C0003F08003002B07D07B681B686FF08002F5
:10301C001A61786800F06FFABB6803F04003002B6C
:10302C000CD0FB6803F04003002B07D07B681B68B7
:10303C006FF040021A61786800F0F8F8BB6803F092
:10304C002003002B0CD0FB6803F02003002B07D0CF
:10305C007B681B686FF020021A61786800F042FAF6
:10306C0000BF1037BD4680BD80B584B000AF78601E
:10307C0039600023FB737B6893F83C30012B01D142
:10308C000223B4E07B68012283F83C207B68022297
:10309C0083F83D207B681B689B68BB60BB6823F092
:1030AC007703BB60BB6823F47F43BB607B681B6802
:1030BC00BA689A603B681B68B3F5005F3ED0B3F505
:1030CC00005F00F28780B3F5805F00F08680B3F577
:1030DC00805F7FD8702B1AD0702B7BD8602B50D090
:1030EC00602B77D8502B3CD0502B73D8402B58D01A
:1030FC00402B6FD8302B64D0302B6BD8202B60D06A
:10310C00202B67D8002B5CD0102B5AD062E07B6848
:10311C0018683B6899683B685A683B68DB6800F044
:10312C006AF97B681B689B68BB60BB6843F07703DC
:10313C00BB607B681B68BA689A604FE07B68186854
:10314C003B6899683B685A683B68DB6800F053F948
:10315C007B681B689A687B681B6842F480429A60A3
:10316C003CE07B6818683B6859683B68DB681A462A
:10317C0000F0CAF87B681B685021184600F021F952
:10318C002CE07B6818683B6859683B68DB681A461A
:10319C0000F0E8F87B681B686021184600F011F914
:1031AC001CE07B6818683B6859683B68DB681A460A
:1031BC0000F0AAF87B681B684021184600F001F962
:1031CC000CE07B681A683B681B681946104600F0D7
:1031DC00F8F803E00123FB7300E000BF7B680122D9
:1031EC0083F83D207B68002283F83C20FB7B18464B
:1031FC001037BD4680BD80B483B000AF786000BF8F
:10320C000C37BD4680BC704780B483B000AF78608B
:10321C0000BF0C37BD4680BC704780B483B000AF94
:10322C00786000BF0C37BD4680BC704780B483B05B
:10323C0000AF786000BF0C37BD4680BC7047000003
:10324C0080B485B000AF786039607B681B68FB6028
:10325C007B682B4A934207D07B68B3F1804F03D035
:10326C007B68284A934208D1FB6823F07003FB600B
:10327C003B685B68FA681343FB607B68204A9342A7
:10328C0007D07B68B3F1804F03D07B681D4A934213
:10329C0008D1FB6823F44073FB603B68DB68FA6879
:1032AC001343FB60FB6823F080023B685B691343AC
:1032BC00FB607B68FA681A603B689A687B68DA6224
:1032CC003B681A687B689A627B680D4A934203D10B
:1032DC003B681A697B681A637B6801225A617B68B8
:1032EC001B6903F00103002B05D07B681B6923F0DD
:1032FC0001027B681A6100BF1437BD4680BC704761
:10330C00002C01400004004080B487B000AFF8608E
:10331C00B9607A60FB681B6A7B61FB681B6A23F0EF
:10332C000102FB681A62FB689B693B613B6923F0F5
:10333C00F0033B617B681B013A6913433B617B697A
:10334C0023F00A037B617A69BB6813437B61FB68DA
:10335C003A699A61FB687A691A6200BF1C37BD46EC
:10336C0080BC704780B487B000AFF860B9607A60F9
:10337C00FB681B6A7B61FB681B6A23F01002FB680D
:10338C001A62FB689B693B613B6923F470433B61A8
:10339C007B681B033A6913433B617B6923F0A003F1
:1033AC007B61BB681B017A6913437B61FB683A69DB
:1033BC009A61FB687A691A6200BF1C37BD4680BCF3
:1033CC00704780B485B000AF786039607B689B68CB
:1033DC00FB60FB6823F07003FB603A68FB681343E7
:1033EC0043F00703FB607B68FA689A6000BF1437F0
:1033FC00BD4680BC704780B487B000AFF860B96040
:10340C007A603B60FB689B687B617B6923F47F433C
:10341C007B613B681A027B681A43BB6813437A6969
:10342C0013437B61FB687A699A6000BF1C37BD4609
:10343C0080BC704780B485B000AF786039607B6821
:10344C0093F83C30012B01D1022341E07B6801222F
:10345C0083F83C207B68022283F83D207B681B6844
:10346C005B68FB607B681B689B68BB60FB6823F038
:10347C007003FB603B681B68FA681343FB607B6856
:10348C001B68FA685A607B681B68144A934209D01F
:10349C007B681B68B3F1804F04D07B681B68104AB3
:1034AC0093420CD1BB6823F08003BB603B685B6824
:1034BC00BA681343BB607B681B68BA689A607B6808
:1034CC00012283F83D207B68002283F83C200023F6
:1034DC0018461437BD4680BC704700BF002C014015
:1034EC000004004080B483B000AF786000BF0C379C
:1034FC00BD4680BC704780B483B000AF786000BF1D
:10350C000C37BD4680BC704770B500260C4D0D4C79
:10351C00641BA410A64209D100F022F800260A4D23
:10352C000A4C641BA410A64205D170BD55F8043B8F
:10353C0098470136EEE755F8043B98470136F2E719
:10354C00A8350008A8350008A8350008AC350008D7
:10355C0003460244934200D1704703F8011BF9E77C
:10356C00F8B500BFF8BC08BC9E467047F8B500BF64
:08357C00F8BC08BC9E46704734
:10358400000000000000000001020304060708090F
:1035940002030405060708090A0B0C0D0E0F101090
:0435A4000102000020
:0435A80031010008E5
:0435AC000D01000805
:1035B00000100140001001400010014000200040B8
:1035C00000800B0000127A001000000001000000D3
:0400000508001EF5DC
:00000001FF
