:020000040800F2
:10000000002800205D2C000899290008A12900087B
:10001000A9290008B1290008B9290008000000003A
:10002000000000000000000000000000C1290008DE
:10003000CD29000800000000D9290008E5290008A2
:10004000A52C0008A52C0008A52C0008A52C00084C
:10005000A52C0008A52C0008A52C0008A52C00083C
:10006000A52C0008A52C0008A52C0008A52C00082C
:10007000A52C0008A52C0008A52C0008A52C00081C
:10008000A52C0008A52C0008A52C0008A52C00080C
:10009000A52C0008A52C0008A52C0008A52C0008FC
:1000A000A52C0008A52C0008A52C0008A52C0008EC
:1000B000F1290008A52C000800000000A52C00086C
:1000C000A52C00080000000000000000A52C00087E
:1000D00000000000A52C0008A52C0008000000006E
:1000E000A52C0008A52C0008A52C00080000000085
:1000F0000000000000000000000000000000000000
:0C01000000000000000000005FF808F1A3
:10010C0010B5054C237833B9044B13B10448AFF345
:10011C0000800123237010BD80000020000000002F
:10012C00B055000808B5034B1BB103490348AFF3A6
:10013C00008008BD0000000084000020B0550008BD
:10014C0080B500AF134B1B68002B10D1124B1B68F2
:10015C00184600F0B7F8104B5B68184600F072FABE
:10016C00002000F077F80B4B01221A600FE00A4BCD
:10017C009B68184600F0A6F8074BDB68184600F0A1
:10018C0061FA012000F066F8024B00221A6000BFF1
:10019C0080BD00BF9C000020A000002080B485B072
:1001AC0000AF786039607B68204A82FB03125211E1
:1001BC00DB17D31AFB603B681C4A82FB03125211FB
:1001CC00DB17D31ABB60FB68194A82FB031292102F
:1001DC00DB17D31A174A1360F968154B83FB0123FD
:1001EC009A10CB17D21A13469B0013445B00CA1A01
:1001FC00104B5A60BB680E4A82FB03129210DB173D
:10020C00D31A0C4A9360B968094B83FB01239A10EB
:10021C00CB17D21A13469B0013445B00CA1A054B2A
:10022C00DA6000BF1437BD4680BC70471F85EB51A8
:10023C0067666666A000002080B500AF022000F063
:10024C0009F80A2000F03EF80A2000F0FBF900BF84
:10025C0080BD000080B582B000AF78607B68002B59
:10026C0003D07B68012B0DD019E000224FF48041A4
:10027C00134803F03AF801224FF40041104803F000
:10028C0034F819E001224FF480410D4803F02DF8A9
:10029C0000224FF400410A4803F027F80CE0012239
:1002AC004FF48041064803F020F801224FF400413E
:1002BC00034803F01AF800BF00BF0837BD4680BDE5
:1002CC00000C014080B582B000AF78607B68092BD0
:1002DC0000F28A8101A252F823F000BF110300083A
:1002EC005B030008A5030008EF03000839040008AD
:1002FC0083040008CD0400081705000861050008F8
:10030C00AB05000800220121CC4802F0EEFF0022D0
:10031C000221CA4802F0E9FF00220421C74802F07A
:10032C00E4FF00220821C54802F0DFFF0022102163
:10033C00C24802F0DAFF00222021C04802F0D5FFAB
:10034C0001224FF40041BE4802F0CFFF71E10122BF
:10035C000121BA4802F0C9FF00220221B74802F07D
:10036C00C4FF00220421B54802F0BFFF012208217E
:10037C00B24802F0BAFF01221021B04802F0B5FFDA
:10038C0001222021AD4802F0B0FF01224FF40041C0
:10039C00AB4802F0AAFF4CE100220121A74802F071
:1003AC00A4FF00220221A54802F09FFF0122042194
:1003BC00A24802F09AFF00220821A04802F095FF03
:1003CC00002210219D4802F090FF012220219B4821
:1003DC0002F08BFF00224FF40041994802F085FF98
:1003EC0027E100220121954802F07FFF0022022123
:1003FC00924802F07AFF00220421904802F075FF27
:10040C00002208218D4802F070FF012210218B4838
:10041C0002F06BFF01222021884802F066FF0022C7
:10042C004FF40041864802F060FF02E101220121F5
:10043C00824802F05AFF00220221804802F055FF48
:10044C00002204217D4802F050FF012208217B4844
:10045C0002F04BFF01221021784802F046FF0022E7
:10046C002021764802F041FF00224FF400417448ED
:10047C0002F03BFFDDE000220121704802F035FF65
:10048C00012202216D4802F030FF002204216B484A
:10049C0002F02BFF00220821684802F026FF0122FF
:1004AC001021664802F021FF00222021634802F04F
:1004BC001CFF00224FF40041614802F016FFB8E027
:1004CC00002201215D4802F010FF012202215B484D
:1004DC0002F00BFF00220421584802F006FF002214
:1004EC000821564802F001FF00221021534802F067
:1004FC00FCFE00222021514802F0F7FE00224FF4AE
:10050C0000414F4802F0F1FE93E0002201214B48DC
:10051C0002F0EBFE00220221484802F0E6FE002227
:10052C000421464802F0E1FE01220821434802F072
:10053C00DCFE01221021414802F0D7FE01222021CD
:10054C003E4802F0D2FE01224FF400413C4802F03A
:10055C00CCFE6EE000220121384802F0C6FE0022DB
:10056C000221364802F0C1FE00220421334802F079
:10057C00BCFE00220821314802F0B7FE00221021F7
:10058C002E4802F0B2FE002220212C4802F0ADFED3
:10059C0000224FF400412A4802F0A7FE49E0002255
:1005AC000121264802F0A1FE00220221234802F07C
:1005BC009CFE00220421214802F097FE0022082113
:1005CC001E4802F092FE012210211C4802F08DFE02
:1005DC0000222021194802F088FE00224FF400412D
:1005EC00174802F082FE24E001220121134802F098
:1005FC007CFE01220221114802F077FE0122042127
:10060C000E4802F072FE012208210C4802F06DFE29
:10061C0001221021094802F068FE0122202107481E
:10062C0002F063FE01224FF40041054802F05DFE2A
:10063C0000BF00BF0837BD4680BD00BF000C0140A5
:10064C000008014080B582B000AF78607B68092B50
:10065C0000F2CA8101A252F823F000BF91060008F3
:10066C00E70600083D07000893070008E9070008A3
:10067C003F08000895080008EB080008410900082D
:10068C009709000800224FF48041D54802F02DFE56
:10069C0000224FF48071D34802F027FE00224FF461
:1006AC000071D04802F021FE00224FF48061CD4849
:1006BC0002F01BFE00224FF40061CA4802F015FE46
:1006CC0000224FF48051C74802F00FFE01224FF474
:1006DC000051C44802F009FEB1E101224FF48041FF
:1006EC00BF4802F002FE00224FF48071BD4802F0B8
:1006FC00FCFD00224FF40071BA4802F0F6FD012215
:10070C004FF48061B74802F0F0FD01224FF4006114
:10071C00B44802F0EAFD01224FF48051B14802F0D6
:10072C00E4FD01224FF40051AE4802F0DEFD86E1FB
:10073C0000224FF48041AA4802F0D7FD00224FF46A
:10074C008071A84802F0D1FD01224FF40071A54838
:10075C0002F0CBFD00224FF48061A24802F0C5FDEF
:10076C0000224FF400619F4802F0BFFD01224FF4BC
:10077C0080519C4802F0B9FD00224FF40051994879
:10078C0002F0B3FD5BE100224FF48041944802F08B
:10079C00ACFD00224FF48071924802F0A6FD0022BD
:1007AC004FF400718F4802F0A0FD00224FF48061DD
:1007BC008C4802F09AFD01224FF40061894802F046
:1007CC0094FD01224FF48051864802F08EFD0022E8
:1007DC004FF40051834802F088FD30E101224FF4C0
:1007EC0080417F4802F081FD00224FF480717D48EA
:1007FC0002F07BFD00224FF400717A4802F075FD87
:10080C0001224FF48061774802F06FFD01224FF412
:10081C000061744802F069FD00224FF48051714868
:10082C0002F063FD00224FF400516E4802F05DFDB2
:10083C0005E100224FF48041694802F056FD012287
:10084C004FF48071674802F050FD00224FF40071A4
:10085C00644802F04AFD00224FF48061614802F0C6
:10086C0044FD01224FF400615E4802F03EFD00227F
:10087C004FF480515B4802F038FD00224FF40051D8
:10088C00584802F032FDDAE000224FF4804154481F
:10089C0002F02BFD01224FF48071524802F025FD2D
:1008AC0000224FF400714F4802F01FFD00224FF45C
:1008BC0080614C4802F019FD00224FF40061494858
:1008CC0002F013FD00224FF48051464802F00DFD5A
:1008DC0000224FF40051434802F007FDAFE0002224
:1008EC004FF480413E4802F000FD00224FF480712D
:1008FC003C4802F0FAFC00224FF40071394802F037
:10090C00F4FC01224FF48061364802F0EEFC012227
:10091C004FF40061334802F0E8FC01224FF480519F
:10092C00304802F0E2FC01224FF400512D4802F055
:10093C00DCFC84E000224FF48041294802F0D5FC15
:10094C0000224FF48071274802F0CFFC00224FF4B4
:10095C000071244802F0C9FC00224FF48061214848
:10096C0002F0C3FC00224FF400611E4802F0BDFCF3
:10097C0000224FF480511B4802F0B7FC00224FF4C8
:10098C000051184802F0B1FC59E000224FF48041AC
:10099C00134802F0AAFC00224FF48071114802F0B7
:1009AC00A4FC00224FF400710E4802F09EFC0022C1
:1009BC004FF480610B4802F098FC01224FF4006167
:1009CC00084802F092FC00224FF48051054802F0D6
:1009DC008CFC00224FF40051024802F086FC2EE001
:1009EC0000080140000C014001224FF480411648E0
:1009FC0002F07BFC01224FF48071144802F075FC6C
:100A0C0001224FF40071114802F06FFC01224FF4E7
:100A1C0080610E4802F069FC01224FF400610B4822
:100A2C0002F063FC01224FF48051084802F05DFC97
:100A3C0001224FF40051054802F057FC00BF00BFE3
:100A4C000837BD4680BD00BF00080140000C0140C6
:100A5C0080B500AF40F61211024802F05EFC00BFF8
:100A6C0080BD00BF0008014080B500AF41F24421B9
:100A7C00024802F052FC00BF80BD00BF00080140DC
:100A8C0080B500AF42F28841024802F046FC00BF3C
:100A9C0080BD00BF0008014080B500AF002001F010
:100AAC00B1FE0346002B08D02021054802F035FC8E
:100ABC004FF47A71002001F04DFE00BF80BD00BFE5
:100ACC000008014080B500AF00F09EFB01F01EF85D
:100ADC0000F0D8FD00F078FA00BF80BD80B500AF03
:100AEC000D4B0B221A60642001F008FEFFF7A4FBEB
:100AFC0002F066F800F01AF800F0F4FA074B052241
:100B0C001A60074B02221A60064B03221A60064B2E
:100B1C0001221A6000BF80BDB0010020A40100209A
:100B2C00A8010020AC010020B401002080B483B0E7
:100B3C0000AF00237B603FE0244A7B68012142F830
:100B4C002310224A7B6852F8232021497B6841F804
:100B5C0023201F4A7B6852F823201E497B6841F8EA
:100B6C0023201D4A7B68012142F823101B4A7B6815
:100B7C00002142F823101A4A7B68002142F8231006
:100B8C00184A7B68002142F82310174A7B68002121
:100B9C0042F82310154A7B68002142F82310144AAE
:100BAC007B68002142F82310124A7B68002142F82E
:100BBC0023107B6801337B607B68032BBCDD00BF9B
:100BCC0000BF0C37BD4680BC704700BFD000002072
:100BDC00C0000020B0000020E0000020F000002049
:100BEC000001002010010020200100203001002015
:100BFC00400100205001002080B582B000AF0023DE
:100C0C007B60DDE0734A7B6852F8232072497B6875
:100C1C0041F82320714A7B6852F823206D497B6888
:100C2C0041F823206E4A7B6852F823206D497B687B
:100C3C0031F813301946104602F040FB03461946B2
:100C4C00664A7B6842F82310634A7B6852F823207B
:100C5C0060497B6851F823309A4240F0AE805D4A7F
:100C6C007B6852F823205D497B6851F823309A4207
:100C7C0040F0A3805C4A7B6852F8232057497B687C
:100C8C0051F823309A424ED0574A7B6852F82330A1
:100C9C00002B34D1514A7B6852F82330012B2ED1D2
:100CAC00524A7B68012142F82310514A7B6852F862
:100CBC0023305A1C4E497B6841F823204C4A7B68F0
:100CCC0052F82330012B05D14A4A7B68282142F87F
:100CDC00231014E0464A7B6852F82330022B0ED1C5
:100CEC00454A7B68012142F82310414A7B68002168
:100CFC0042F823103F4A7B68002142F82310374A00
:100D0C007B6852F8232038497B6841F82320334A0A
:100D1C007B6852F82330002B2AD1384A7B68642137
:100D2C0042F8231024E02D4A7B6852F82330002B24
:100D3C001ED1324A7B6852F82330002B18DD2F4A23
:100D4C007B6852F823305A1E2C497B6841F82320CB
:100D5C002A4A7B6852F82330002B09DC284A7B682E
:100D6C00012142F82310254A7B68322142F82310D6
:100D7C00204A7B6852F82330002B1EDD1D4A7B680D
:100D8C0052F823305A1E1B497B6841F82320194A1C
:100D9C007B6852F82330002B0FD1154A7B6852F830
:100DAC002330012B04D1174A7B68012142F8231010
:100DBC000F4A7B68002142F823107B6801337B606B
:100DCC007B68032B7FF71EAF00BF00BF0837BD4603
:100DDC0080BD00BFC0000020B0000020D00000206B
:100DEC000000002010000020E00000202001002066
:100DFC00400100205001002030010020F0000020B4
:100E0C00100100200001002080B483B000AF786096
:100E1C007B68002B02DB7B68032B01DD00230DE0DC
:100E2C00094A7B6852F82330012B06D1064A7B68AD
:100E3C00002142F82310012300E0002318460C3750
:100E4C00BD4680BC704700BF0001002080B483B059
:100E5C0000AF78607B68002B02DB7B68032B01DD25
:100E6C0000230DE0094A7B6852F82330012B06D190
:100E7C00064A7B68002142F82310012300E000237E
:100E8C0018460C37BD4680BC704700BF10010020CF
:100E9C0080B483B000AF78607B68002B02DB7B688A
:100EAC00032B01DD00230DE0094A7B6852F8233047
:100EBC00012B06D1064A7B68002142F8231001233E
:100ECC0000E0002318460C37BD4680BC704700BFBD
:100EDC003001002080B500AF00F05CF800F034F871
:100EEC0000F014F800F002F800BF80BD80B500AF30
:100EFC000020FFF789FF0346002B02D0024B012292
:100F0C001A6000BF80BD00BFB401002080B500AFE7
:100F1C000B4B1B68162B07D0094B1B68172B03D0E8
:100F2C00074B1B68152B08D10220FFF7B1FF0346B6
:100F3C00002B02D0034B01221A6000BF80BD00BF02
:100F4C00B0010020BC01002080B500AF0F4B1B6826
:100F5C00102B0FD00D4B1B68142B0BD00B4B1B689D
:100F6C00132B07D0094B1B68122B03D0074B1B68A4
:100F7C00112B08D10120FFF747FF0346002B02D0AD
:100F8C00034B01221A6000BF80BD00BFB0010020DE
:100F9C00B801002080B500AF094B1B680C2B03D0A7
:100FAC00074B1B680E2B08D10320FFF72DFF0346C0
:100FBC00002B02D0034B01221A6000BF80BD00BF82
:100FCC00B0010020C001002080B584B000AF414BBF
:100FDC001B68002B7AD03F4B00221A600023FB6069
:100FEC000023BB6000237B603B4B1B680C2B34D174
:100FFC00022001F01FFCF860FB68B3F5FA7F66DD98
:10100C00FB68A3F5FA737B6041F28831022001F092
:10101C00A1FB012001F00EFCB860BA687B689A4213
:10102C000BDDBA687B68D21A13469B0013445B0035
:10103C001946012001F08EFB03E00A21012001F08A
:10104C0089FB264B01221A60254B02221A604FF4B1
:10105C00FA71062001F07EFB39E01F4B1B680E2B4A
:10106C0035D1012001F0E6FBF860FB68B3F5FA7F9F
:10107C002DDDFB68A3F5FA737B6041F2883101200A
:10108C0001F068FB022001F0D5FBB860BA687B6800
:10109C009A420BDDBA687B68D21A13469B00134444
:1010AC005B001946022001F055FB03E00A210220E7
:1010BC0001F050FB094B01221A60094B01221A6006
:1010CC004FF4FA71062001F045FB00E000BF103729
:1010DC00BD4680BDC0010020B0010020C40100202D
:1010EC00C801002080B500AF00F0F6FE00BF80BD47
:1010FC0080B584B000AFF860B9607A603B60BB68C3
:10110C00FA680E490E4803F095FD3B687A680D4964
:10111C000D4803F08FFD0021012000F0A9FE0848C6
:10112C0000F002FF0021022000F0A2FE064800F0B1
:10113C00FBFE00BF1037BD4680BD00BFC855000880
:10114C0060010020DC5500088001002080B500AF54
:10115C000021012000F08CFE054800F0E5FE002186
:10116C00022000F085FE034800F0DEFE00BF80BDCB
:10117C00F05500080456000880B582B000AF7860C6
:10118C0039600021012000F073FE0A4800F0CCFE0B
:10119C003B687A680849094803F04CFD002102209D
:1011AC0000F066FE054800F0BFFE00BF0837BD46E4
:1011BC0080BD00BF185600082C5600088001002086
:1011CC0080B582B000AF786039600021012000F05A
:1011DC004FFE0A4800F0A8FE3B687A6808490948A7
:1011EC0003F028FD0021022000F042FE054800F02B
:1011FC009BFE00BF0837BD4680BD00BF40560008AF
:10120C00545600088001002090B583B000AFB14B5C
:10121C001B680B2B40F38480AE4B1B680F2B7FDCC1
:10122C00072001F0EFFA0346002B79D0AA4B7B6024
:10123C00A94B3B60A74B1B680C2B04D1A74B7B60C5
:10124C00A74B3B6019E0A34B1B680D2B04D1A34BA0
:10125C007B60A44B3B6010E09E4B1B680E2B04D1B3
:10126C009F4B7B609D4B3B6007E09A4B1B680F2BA1
:10127C0003D19C4B7B60994B3B609B4B1B68002BB9
:10128C0031D0062001F0BEFA0346002B0AD0974B52
:10129C001B68C3F10103954A13604FF4FA710620E1
:1012AC0001F058FA914B1B68002B02D0FFF74EFF50
:1012BC0032E0012001F0BEFA03468D4A82FB031294
:1012CC005211DB17D41A022001F0B4FA0346884AF3
:1012DC0082FB03125211DB17D31A3A682146786845
:1012EC00FFF706FF18E0012001F0A4FA0346804A3C
:1012FC0082FB03125211DB17D41A022001F09AFA66
:10130C0003467B4A82FB03125211DB17D31A3A684D
:10131C0021467868FFF7ECFEFA21072001F01AFA53
:10132C006C4B1B680B3B042B00F28F8101A252F813
:10133C0023F000BF551300089B130008331400085A
:10134C0015150008AB1500086A4B1B68002B00F044
:10135C007E81604B0C221A60674B1B68194601207A
:10136C0001F0F8F9654B1B681946022001F0F2F9FF
:10137C002821042001F0EEF90A21052001F0EAF9F8
:10138C005C4B00221A60584B00221A605FE101F09E
:10139C006FFB01F0DDFB052001F034FA0346002B56
:1013AC000FD0012001F046FA0446022001F042FA67
:1013BC00034619462046FEF7F1FE6421052001F094
:1013CC00C9F9042001F01EFA0346002B05D0FEF7E4
:1013DC00B7FE2821042001F0BDF9022001F012FA19
:1013EC000346002B08D03B4B0D221A60444B1B6864
:1013FC001946022001F0AEF93E4B1B68002B00F0A1
:10140C002881344B10221A60FA21032001F0A2F932
:10141C00FEF712FF01F0D4FB364B00221A60324B60
:10142C0000221A6015E101F0AFFB052001F0EAF98A
:10143C000346002B0FD0012001F0FCF904460220DA
:10144C0001F0F8F9034619462046FEF7A7FE642181
:10145C00052001F07FF9042001F0D4F90346002B9C
:10146C0005D0FEF76DFE2821042001F073F9012050
:10147C0001F0C8F90346002B15D0164B0E221A604A
:10148C001E4B1B681946012001F064F91A4B1B68AE
:10149C001946022001F05EF91A4B1B68022B02D18F
:1014AC00114B00221A60134B1B68002B00F0D380E9
:1014BC00084B10221A60FA21032001F04BF9FEF7B9
:1014CC00BBFE01F07DFB0B4B00221A60064B002289
:1014DC001A60C0E0B0010020685600086C56000885
:1014EC007056000878560008C4010020A0010020A6
:1014FC001F85EB51B40100201800002020000020B3
:10150C001C000020C801002001F0CEFA01F004FB01
:10151C00052001F077F90346002B0FD0012001F0D4
:10152C0089F90446022001F085F903461946204644
:10153C00FEF734FE6421052001F00CF9042001F0C3
:10154C0061F90346002B05D0FEF7FAFD2821042093
:10155C0001F000F9012001F055F90346002B08D0E9
:10156C00414B0F221A60414B1B681946012001F0B8
:10157C00F1F83F4B1B68002B6FD03B4B10221A60CD
:10158C00FA21032001F0E6F8FEF756FE01F018FBF5
:10159C00374B00221A60374B00221A605DE001F0D5
:1015AC009FFA052001F02EF90346002B0FD00120E5
:1015BC0001F040F90446022001F03CF903461946BB
:1015CC002046FEF7EBFD6421052001F0C3F8042052
:1015DC0001F018F90346002B05D0FEF7B1FD2821C8
:1015EC00042001F0B7F8012001F00CF90346002BA0
:1015FC0015D01D4B0C221A601F4B1B68194601207D
:10160C0001F0A8F81D4B1B681946022001F0A2F846
:10161C001B4B1B68012B02D1164B00221A60144B7A
:10162C001B68002B1BD0104B10221A60FA210320D0
:10163C0001F090F8FEF700FE01F0C2FA0C4B00220C
:10164C001A600C4B00221A6009E000BF08E000BFD2
:10165C0006E000BF04E000BF02E000BF00E000BFF6
:10166C0000BF0C37BD4690BDB00100201C0000200F
:10167C00B4010020C401002018000020200000202C
:10168C00C801002080B582B000AFA74B1B68142B9B
:10169C0032DDA54B1B68172B2EDC072001F0B2F8AE
:1016AC000346002B28D0A14B7B6000233B609E4B54
:1016BC001B68152B05D19E4B7B609E4B1B683B60BA
:1016CC0012E0994B1B68162B05D19B4B7B609B4BF7
:1016DC001B683B6008E0944B1B68172B04D1984B9C
:1016EC007B60984B1B683B6039687868FFF768FD36
:1016FC00FA21072001F02EF88B4B1B68172B00F0FA
:10170C002D81172B00F3E281152B03D0162B00F043
:10171C008580DBE1032001F075F80346002B05D032
:10172C00FFF796F9FA21032001F014F8052001F0D7
:10173C0069F80346002B0CD07E4B1B68642202FB1D
:10174C0003F364211846FEF729FD6421052001F0FE
:10175C0001F8042001F056F80346002B05D0FEF7E3
:10176C00EFFC2821042000F0F5FF0120FFF76EFBB1
:10177C000346002B05D10120FFF746FB0346002B47
:10178C0008D06C4B1B68632B04DC6A4B1B68013361
:10179C00684A13600220FFF759FB0346002B05D162
:1017AC000220FFF731FB0346002B08D0614B1B686E
:1017BC00022B04DD5F4B1B68013B5E4A1360624BDE
:1017CC001B68002B07D0584B16221A6001F0F8F951
:1017DC005D4B00221A605D4B1B68002B00F078817A
:1017EC00514B0C221A605A4B1B681946012000F011
:1017FC00B1FF584B1B681946022000F0ABFF2821A3
:10180C00042000F0A7FF0A21052000F0A3FF4F4B96
:10181C0000221A60504B00221A6059E1032000F09C
:10182C00F1FF0346002B05D0FFF71EF9FA21032028
:10183C0000F090FF052000F0E5FF0346002B0CD0D4
:10184C003E4B1B68642202FB03F3C8211846FEF7CB
:10185C00A5FC6421052000F07DFF042000F0D2FFE0
:10186C000346002B05D0FEF76BFC2821042000F06A
:10187C0071FF0120FFF7EAFA0346002B05D1012086
:10188C00FFF7C2FA0346002B0AD02C4B1A68294BDF
:10189C001B689A4204DA294B1B680133274A1360F0
:1018AC000220FFF7D3FA0346002B05D10220FFF7E5
:1018BC00ABFA0346002B08D0204B1B68012B04DD30
:1018CC001E4B1B68013B1D4A13601F4B1B68002BF2
:1018DC0007D0154B17221A6001F072F91A4B00222F
:1018EC001A601A4B1B68002B00F0F4800E4B0C2274
:1018FC001A60174B1B681946012000F02BFF154B83
:10190C001B681946022000F025FF2821042000F056
:10191C0021FF0A21052000F01DFF0C4B00221A604C
:10192C000D4B00221A60D5E0B00100208056000853
:10193C0084560008A401002088560008A801002045
:10194C008C560008AC010020BC010020B401002022
:10195C001800002020000020C4010020032000F00B
:10196C0051FF0346002B05D0FFF78AF8FA2103201C
:10197C0000F0F0FE052000F045FF0346002B0DD0D3
:10198C00584B1B68642202FB03F34FF49671184604
:10199C00FEF704FC6421052000F0DCFE042000F0BE
:1019AC0031FF0346002B05D0FEF7CAFB282104208B
:1019BC0000F0D0FE0120FFF749FA0346002B05D1B9
:1019CC000120FFF721FA0346002B0DD0464B1A6875
:1019DC00464B1B68D21A434B1B689A4204DD414BA1
:1019EC001B6801333F4A13600220FFF72FFA0346AE
:1019FC00002B05D10220FFF707FA0346002B08D075
:101A0C00384B1B68012B04DD364B1B68013B354AF8
:101A1C001360374B1B68002B36D0364B0C221A60E8
:101A2C00314B1B684FF47A7202FB03F3324A13609A
:101A3C002E4B1B684FF47A7202FB03F32F4A136090
:101A4C00284B1B684FF47A7202FB03F32C4A136089
:101A5C00294B1B681946012000F07CFE284B1B68A3
:101A6C001946022000F076FE2821042000F072FEB8
:101A7C000A21052000F06EFE01F0A2F81C4B00229A
:101A8C001A60204B00221A601F4B1B68002B23D0BE
:101A9C00184B0C221A60184B1B681946012000F0D9
:101AAC0059FE174B1B681946022000F053FE2821E3
:101ABC00042000F04FFE0A21052000F04BFE124BD3
:101ACC0000221A600F4B00221A6005E000BF04E0F0
:101ADC0000BF02E000BF00E000BF00BF0837BD46FA
:101AEC0080BD00BFAC010020A4010020A801002093
:101AFC00BC010020B0010020180000201C000020B8
:101B0C0020000020C4010020B401002080B582B068
:101B1C0000AF9F4B1B680F2B3CDD9D4B1B68142BA0
:101B2C0038DC072000F06EFE0346002B32D0994BB8
:101B3C007B60984B3B60964B1B68102B03D0944BEF
:101B4C001B68112B04D1944B7B60944B3B6019E0C8
:101B5C008F4B1B68122B04D18F4B7B60904B3B60DF
:101B6C0010E08B4B1B68132B04D18C4B7B608A4B86
:101B7C003B6007E0864B1B68142B03D1884B7B60C2
:101B8C00854B3B6039687868FFF7F6FAFA21072035
:101B9C0000F0E0FD7E4B1B68103B042B00F2E8804C
:101BAC0001A252F823F000BFC91B0008331C000827
:101BBC00891C0008D91C00082D1D0008032000F00A
:101BCC0021FE0346002B05D0FEF74EFFFA21032021
:101BDC0000F0C0FD734B1B68002B07D06C4B11221F
:101BEC001A6000F0EDFF6F4B00221A606E4B1B6801
:101BFC00002B00F0BF80664B15221A60FA210320DF
:101C0C0000F0A8FD6421052000F0A4FD282104208B
:101C1C0000F0A0FD00F0D4FF634B00221A60634B70
:101C2C0000221A60A6E000F023FF00F091FF5D4B4C
:101C3C001B68002B05D0564B12221A60594B002200
:101C4C001A60594B1B68002B00F09680504B1522E4
:101C5C001A60FA21032000F07DFD6421052000F0BC
:101C6C0079FD2821042000F075FD00F0A9FF4E4BF2
:101C7C0000221A604D4B00221A607DE000F084FFB8
:101C8C00484B1B68002B05D0414B13221A60454B67
:101C9C0000221A60444B1B68002B6FD03C4B152262
:101CAC001A60FA21032000F055FD6421052000F094
:101CBC0051FD2821042000F04DFD00F081FF3A4B2E
:101CCC0000221A60394B00221A6057E000F024FF02
:101CDC0000F0EAFE334B1B68002B05D02C4B142272
:101CEC001A60304B00221A602F4B1B68002B47D018
:101CFC00274B15221A60FA21032000F02BFD6421DA
:101D0C00052000F027FD2821042000F023FD00F021
:101D1C0057FF254B00221A60244B00221A602FE03B
:101D2C0000F0DEFE1F4B1B68002B05D0184B112258
:101D3C001A601C4B00221A601B4B1B68002B21D015
:101D4C00134B15221A60FA21032000F003FD6421C5
:101D5C00052000F0FFFC2821042000F0FBFC00F023
:101D6C002FFF114B00221A60104B00221A6009E061
:101D7C0000BF08E000BF06E000BF04E000BF02E0C7
:101D8C0000BF00E000BF00BF0837BD4680BD00BFEC
:101D9C00B001002090560008945600089856000890
:101DAC009C560008B8010020B4010020C40100209A
:101DBC0080B586B002AF0346FB71FB7923F00F03AD
:101DCC00FB73FB791B01BB73FB7B43F00C03DBB296
:101DDC003B72FB7B43F00803DBB27B72BB7B43F0B3
:101DEC000C03DBB2BB72BB7B43F00803DBB2FB72B0
:101DFC0007F108026423009304234E21034801F0E9
:101E0C00E9FB00BF1037BD4680BD00BFCC010020F0
:101E1C0080B586B002AF0346FB71FB7923F00F034C
:101E2C00FB73FB791B01BB73FB7B43F00D03DBB234
:101E3C003B72FB7B43F00903DBB27B72BB7B43F051
:101E4C000D03DBB2BB72BB7B43F00903DBB2FB724D
:101E5C0007F108026423009304234E21034801F088
:101E6C00B9FB00BF1037BD4680BD00BFCC010020C0
:101E7C0080B584B000AF786039607B68032B1FD8C5
:101E8C0001A252F823F000BFA51E0008AF1E0008E7
:101E9C00B91E0008C31E00083B68DBB2803BFB7315
:101EAC0011E03B68DBB2403BFB730CE03B68DBB200
:101EBC006C3BFB7307E03B68DBB22C3BFB7302E033
:101ECC008023FB7300BFFB7B1846FFF771FF00BF3D
:101EDC001037BD4680BD00BF80B500AF322000F08A
:101EEC003FFF3020FFF764FF052000F039FF302062
:101EFC00FFF75EFF012000F033FF3020FFF758FFA3
:101F0C002020FFF755FF2820FFF752FF0C20FFF78A
:101F1C004FFF0120FFF74CFF022000F021FF0620AD
:101F2C00FFF746FF00BF80BD80B582B000AF786080
:101F3C0006E07B685A1C7A601B781846FFF768FF2E
:101F4C007B681B78002BF4D100BF00BF0837BD465F
:101F5C0080BD000080B500AF00F0A0FE00F020F8BE
:101F6C0000F0D4F800F086F800F056F8FEF7B6FD55
:101F7C0000F07EF901220021064800F0DFF9012271
:101F8C000021054800F0DAF9044802F0C7FA00F025
:101F9C0075FBFCE7D10A0008A50A00082002002006
:101FAC0080B590B000AF07F1180328220021184625
:101FBC0002F062FE3B1D00221A605A609A60DA60E1
:101FCC001A610223BB610123BB621023FB62002355
:101FDC007B6307F11803184601F054FE0346002BEF
:101FEC0001D000F03FF90F237B600023BB6000237E
:101FFC00FB6000233B6100237B613B1D00211846E5
:10200C0002F0C2F80346002B01D000F02BF900BF00
:10201C004037BD4680BD000080B500AF124B134A5F
:10202C001A60114B124A5A600F4B00229A600E4BE9
:10203C000022DA600C4B4FF480421A610A4B0022EA
:10204C005A61094B00229A61074B0022DA61064B58
:10205C0000221A62044801F079F90346002B01D0E2
:10206C0000F000F900BF80BDCC01002000540040FE
:10207C00A086010080B586B000AF07F108030022EE
:10208C001A605A609A60DA603B4600221A605A6005
:10209C001D4B4FF080421A601B4B41F63F725A6049
:1020AC00194B00229A60184B0922DA60164B002259
:1020BC001A61154B00229A61134802F0DFF90346AE
:1020CC00002B01D000F0CEF84FF48053BB6007F129
:1020DC00080319460C4802F05DFB0346002B01D0A7
:1020EC0000F0C0F800233B6000237B603B461946A0
:1020FC00054802F035FD0346002B01D000F0B2F884
:10210C0000BF1837BD4680BD2002002080B58AB0C4
:10211C0000AF07F1140300221A605A609A60DA606B
:10212C00424B9B69414A43F0100393613F4B9B69BF
:10213C0003F010033B613B693C4B9B693B4A43F00A
:10214C0020039361394B9B6903F02003FB60FB6810
:10215C00364B9B69354A43F004039361334B9B69BF
:10216C0003F00403BB60BB68304B9B692F4A43F000
:10217C00080393612D4B9B6903F008037B607B681C
:10218C0000224FF6FE712A4801F0AFF800224FF6FC
:10219C003F71284801F0A9F84FF460437B6100239C
:1021AC00BB610123FB6107F114031946224800F0BF
:1021BC0009FF01237B610023BB610023FB6107F155
:1021CC00140319461D4800F0FDFE4FF6FE737B61AB
:1021DC000123BB610023FB6102233B6207F1140363
:1021EC001946134800F0EEFE4FF63F737B61012356
:1021FC00BB610023FB6102233B6207F11403194608
:10220C000C4800F0DFFE0E4B5B687B627B6A43F090
:10221C00E0637B627B6A43F400437B62084A7B6A1F
:10222C00536000BF2837BD4680BD00BF0010024080
:10223C0000080140000C0140001001400014014056
:10224C000000014080B582B000AF786000F056F815
:10225C0000F0A8FAFEF7D0FCFEF73CFE00BF0837F2
:10226C00BD4680BD80B400AF72B600BF00BFFDE7B5
:10227C0080B483B000AF00237B6033E01E497A68E2
:10228C0013469B0013449B000B4400221A601A490E
:10229C007A6813469B0013449B000B4404330022C2
:1022AC001A6015497A6813469B0013449B000B4433
:1022BC00083300221A6010497A6813469B001344B5
:1022CC009B000B440C3300221A700B497A6813469E
:1022DC009B0013449B000B44103300221A607B6854
:1022EC0001337B607B68092BC8DD00BF00BF0C3756
:1022FC00BD4680BC704700BF6802002080B400AFB0
:10230C000D4B1B68002B13D00B4B1B7B002B0FD1E1
:10231C00094B5B68002B04D0074B5B68013B064AFA
:10232C005360054B5B68002B02D1034B01221A73DF
:10233C0000BFBD4680BC704768020020B0B588B0B5
:10234C0000AFF860B9607A600023FB770023BB61B3
:10235C000023FB77E7E0FA7F774913469B00134491
:10236C009B000B4404331B68BA691344BB61BA6904
:10237C00BB689A427CD9FA7F6F4913469B00134481
:10238C009B000B4404331A68BB69D31ABA68134414
:10239C003B61FA7FB969BB68C91A674813469B0051
:1023AC0013449B0003440433196009237B6117E039
:1023BC007B695A1E604879690B469B000B449B0055
:1023CC0018445D4913469B0013449B000B44044680
:1023DC001D460FCD0FC42B6823607B69013B7B61CD
:1023EC00FB7F7A699A42E3DCFA7F534913469B00E0
:1023FC0013449B000B44FA681A60FA7F4E4913464B
:10240C009B0013449B000B4404333A691A60FA7F17
:10241C00494913469B0013449B000B4408337A68CC
:10242C001A603B69002B0CBF01230023DBB2FA7F3F
:10243C001846414913469B0013449B000B440C3334
:10244C0002461A70FC7F00F041F902463A492346D5
:10245C009B0023449B000B4410331A60FA7F3649CF
:10246C0013469B0013449B000B4410331B685FE026
:10247C00FA7F314913469B0013449B000B441B68A5
:10248C00002B4DD1FA7F2C4913469B0013449B0023
:10249C000B44FA681A60FA7FB968BB69C91A2648F6
:1024AC0013469B0013449B00034404331960FA7FCA
:1024BC00214913469B0013449B000B4408337A6854
:1024CC001A60FA7F1C4913469B0013449B000B4473
:1024DC0004331B68002B0CBF01230023DBB2FA7FF3
:1024EC001846154913469B0013449B000B440C33B0
:1024FC0002461A70FC7F00F0E9F802460E492346AA
:10250C009B0023449B000B4410331A60FA7F0A494A
:10251C0013469B0013449B000B4410331B6807E0CD
:10252C00FB7F0133FB77FB7F092B7FF614AF002376
:10253C0018462037BD46B0BD68020020B0B485B047
:10254C0000AF78600023FB738BE0FA7B4A4913469B
:10255C009B0013449B000B4410331B687A689A420F
:10256C007CD1FB7B082B28D8FB7B5A1C4249134699
:10257C009B0013449B000B441B68002B1DD0FB7B62
:10258C005A1C3D4913469B0013449B000B440433D7
:10259C001968FA7B384813469B0013449B0003448C
:1025AC0004331B68FA7B01321944334813469B00F1
:1025BC0013449B00034404331960FB7BBB7317E08B
:1025CC00BB7B5A1CB97B2C480B469B000B449B00D5
:1025DC001844294913469B0013449B000B440446A2
:1025EC001D460FCD0FC42B682360BB7B0133BB731F
:1025FC00BB7B082BE4D9BA7B1F4913469B001344C1
:10260C009B000B4400221A60BA7B1B4913469B00AB
:10261C0013449B000B44043300221A60BA7B164906
:10262C0013469B0013449B000B44083300221A6092
:10263C00BA7B114913469B0013449B000B440C338B
:10264C0000221A70BA7B0C4913469B0013449B0062
:10265C000B44103300221A60012307E0FB7B01338B
:10266C00FB73FB7B092B7FF670AF002318461437E6
:10267C00BD46B0BC704700BF68020020B0B586B044
:10268C0000AF114B1B7B002B19D00F4B1B689847CD
:10269C000D4B00221A730C4B3C1D1D460FCD0FC465
:1026AC002B6823607B691846FFF748FFFB68002BFB
:1026BC0005D07B68F968FA681846FFF73FFE00BF43
:1026CC001837BD46B0BD00BF6802002080B400AF13
:1026DC00094B1B680133084A1360074B1B68002B1E
:1026EC0004D1054B1B680133034A1360024B1B6872
:1026FC001846BD4680BC70473003002080B485B0BE
:10270C0000AF78607B68104A82FB03129210DB17D3
:10271C00D31ABB600023FB600CE00C49FB68BA6861
:10272C0041F823200A4AFB68002142F82310FB6879
:10273C000133FB60FB68072BEFDD00BF00BF1437D4
:10274C00BD4680BC704700BF6766666634030020D8
:10275C005403002080B483B000AF786039607B688C
:10276C00002B13DB7B68072B10DC3B680A4A82FBCF
:10277C0003129210DB17D21A08497B6841F8232008
:10278C00074A7B68002142F8231000E000BF0C3799
:10279C00BD4680BC704700BF676666663403002088
:1027AC005403002080B483B000AF00237B601CE096
:1027BC00124A7B6852F82330002B13DD0F4A7B68DA
:1027CC0052F823305A1E0D497B6841F823200B4ADE
:1027DC007B6852F82330002B04DC094A7B6801210A
:1027EC0042F823107B6801337B607B68072BDFDDAD
:1027FC0000BF00BF0C37BD4680BC704734030020BF
:10280C005403002080B483B000AF78607B68002B49
:10281C0002DB7B68072B01DD002303E0044A7B68A5
:10282C0052F8233018460C37BD4680BC704700BFA9
:10283C005403002080B483B000AF78607B68002B19
:10284C0002DB7B68072B01DD002303E0044A7B6875
:10285C0052F8233018460C37BD4680BC704700BF79
:10286C003403002080B485B000AF154B9B69144A2B
:10287C0043F001039361124B9B6903F00103BB60AE
:10288C00BB680F4BDB690E4A43F08053D3610C4B92
:10289C00DB6903F080537B607B680A4B5B68FB60F1
:1028AC00FB6823F0E063FB60FB6843F08063FB6034
:1028BC00044AFB68536000BF1437BD4680BC7047A8
:1028CC00001002400000014080B588B000AF786075
:1028DC0007F1100300221A605A609A60DA607B6874
:1028EC001B68154A934223D1144B9B69134A43F03E
:1028FC0008039361114B9B6903F00803FB60FB68B1
:10290C00C0233B6112237B610023BB6107F11003E1
:10291C0019460B4800F056FB084BDB69074A43F499
:10292C000013D361054BDB6903F40013BB60BB6878
:10293C0000BF2037BD4680BD00540040001002404F
:10294C00000C014080B584B000AF78607B681B68D8
:10295C00B3F1804F13D10C4BDB690B4A43F00103ED
:10296C00D361094BDB6903F00103FB60FB680022B8
:10297C0000211C2000F0EFFA1C2000F008FB00BF27
:10298C001037BD4680BD00BF0010024080B400AFC0
:10299C0000BFFDE780B400AF00BFFDE780B400AF1F
:1029AC0000BFFDE780B400AF00BFFDE780B400AF0F
:1029BC0000BFFDE780B400AF00BFBD4680BC7047D0
:1029CC0080B400AF00BFBD4680BC704780B400AF80
:1029DC0000BFBD4680BC704780B500AF00F0A4F9C5
:1029EC0000BF80BD80B500AF024801F0E3FD00BF21
:1029FC0080BD00BF2002002080B586B000AF78609B
:102A0C00144A154BD31A7B617B693B61134B1B68D2
:102A1C00002B02D1114B124A1A60104B1A687B68BA
:102A2C0013443A699A4207D202F02EF903460C225B
:102A3C001A604FF0FF3309E0084B1B68FB60074B33
:102A4C001A687B681344054A1360FB6818461837EC
:102A5C00BD4680BD00280020000400007403002047
:102A6C00C804002080B400AF00BFBD4680BC7047D6
:102A7C0080B500AF002202210A4800F036FC01228A
:102A8C000421084800F031FC00224FF48071054805
:102A9C0000F02BFC01224FF40071024800F025FCE1
:102AAC0000BF80BD0008014080B500AF01220221AB
:102ABC000A4800F01AFC00220821084800F015FC16
:102ACC0001224FF48071054800F00FFC00224FF4F6
:102ADC008061024800F009FC00BF80BD0008014085
:102AEC0080B500AF012208210A4800F0FEFB00224D
:102AFC000421084800F0F9FB01224FF480610548DD
:102B0C0000F0F3FB00224FF40071024800F0EDFBE3
:102B1C0000BF80BD0008014080B500AF002210212D
:102B2C000A4800F0E2FB01224021084800F0DDFBDE
:102B3C0000224FF40061054800F0D7FB01224FF44E
:102B4C008051024800F0D1FB00BF80BD000801405D
:102B5C0080B500AF012210210A4800F0C6FB00220C
:102B6C008021084800F0C1FB01224FF400610548A8
:102B7C0000F0BBFB00224FF40051024800F0B5FB03
:102B8C0000BF80BD0008014080B500AF012280214C
:102B9C000A4800F0AAFB00224021084800F0A5FBDF
:102BAC0001224FF40051054800F09FFB00224FF426
:102BBC008051024800F099FB00BF80BD0008014025
:102BCC0080B500AF01220221204800F08EFB0122CB
:102BDC0004211E4800F089FB012208211B4800F04B
:102BEC0084FB01221021194800F07FFB01224021B7
:102BFC00164800F07AFB01228021144800F075FB86
:102C0C0001224FF48071114800F06FFB01224FF448
:102C1C0000710E4800F069FB01224FF480610B48F3
:102C2C0000F063FB01224FF40061084800F05DFBEB
:102C3C0001224FF48051054800F057FB01224FF45C
:102C4C000051024800F051FB00BF80BD000801405C
:102C5C00FFF708FF0B480C490C4A002302E0D4583C
:102C6C00C4500433C4188C42F9D3094A094C0023CC
:102C7C0001E013600432A242FBD302F00BF8FFF721
:102C8C0069F97047000000208000002008570008F8
:102C9C0080000020C4040020FEE7000080B500AFD7
:102CAC00084B1B68074A43F010031360032000F025
:102CBC0047F90F2000F008F8FFF7D4FD0023184661
:102CCC0080BD00BF0020024080B582B000AF7860AC
:102CDC00124B1A68124B1B7819464FF47A73B3FBDC
:102CEC00F1F3B2FBF3F3184600F05FF90346002B47
:102CFC0001D001230EE07B680F2B0AD800227968E3
:102D0C004FF0FF3000F027F9064A7B681360002370
:102D1C0000E0012318460837BD4680BD2400002082
:102D2C002C0000202800002080B400AF054B1B783D
:102D3C001A46054B1B681344034A136000BFBD467B
:102D4C0080BC70472C0000207803002080B400AFBA
:102D5C00024B1B681846BD4680BC704778030020A8
:102D6C0080B584B000AF7860FFF7F0FFB8607B6887
:102D7C00FB60FB68B3F1FF3F05D00A4B1B781A468A
:102D8C00FB681344FB6000BFFFF7E0FF0246BB6823
:102D9C00D31AFA689A42F7D800BF00BF1037BD4665
:102DAC0080BD00BF2C00002080B485B000AF7860DF
:102DBC007B6803F00703FB600C4BDB68BB60BA68F5
:102DCC004FF6FF031340BB60FB681A02BB6813434A
:102DDC0043F0BF6343F40033BB60044ABB68D36069
:102DEC0000BF1437BD4680BC704700BF00ED00E04B
:102DFC0080B400AF044BDB681B0A03F007031846D2
:102E0C00BD4680BC704700BF00ED00E080B483B0CD
:102E1C0000AF0346FB7197F90730002B0BDBFB79F6
:102E2C0003F01F02064997F907305B09012000FAED
:102E3C0002F241F8232000BF0C37BD4680BC70471E
:102E4C0000E100E080B483B000AF03463960FB7151
:102E5C0097F90730002B0ADB3B68DAB20C4997F97B
:102E6C0007301201D2B20B4483F800230AE03B680E
:102E7C00DAB20849FB7903F00F03043B1201D2B21A
:102E8C000B441A7600BF0C37BD4680BC704700BFA0
:102E9C0000E100E000ED00E080B489B000AFF86024
:102EAC00B9607A60FB6803F00703FB61FB69C3F14F
:102EBC000703042B28BF0423BB61FB690433062BD7
:102ECC0002D9FB69033B00E000237B614FF0FF322A
:102EDC00BB6902FA03F3DA43BB681A407B699A4078
:102EEC004FF0FF317B6901FA03F3D9437B680B4048
:102EFC00134318462437BD4680BC704780B582B05A
:102F0C0000AF78607B68013BB3F1807F01D3012374
:102F1C000FE00A4A7B68013B53600F214FF0FF30F2
:102F2C00FFF790FF054B00229A60044B07221A60B2
:102F3C00002318460837BD4680BD00BF10E000E0F6
:102F4C0080B582B000AF78607868FFF72DFF00BFC6
:102F5C000837BD4680BD80B586B000AF0346B9606A
:102F6C007A60FB7300237B61FFF742FF78617A681C
:102F7C00B9687869FFF790FF024697F90F30114650
:102F8C001846FFF75FFF00BF1837BD4680BD80B500
:102F9C0082B000AF0346FB7197F907301846FFF774
:102FAC0035FF00BF0837BD4680BD80B582B000AF8D
:102FBC0078607868FFF7A2FF034618460837BD46CD
:102FCC0080BD000080B48BB000AF78603960002306
:102FDC007B6200233B6261E101227B6A02FA03F30C
:102FEC00FB613B681B68FA691340BB61BA69FB69FA
:102FFC009A4240F050813B685B68974A93425ED09E
:10300C00954A934275D8954A934258D0934A934225
:10301C006FD8934A934252D0914A934269D8914ABD
:10302C0093424CD08F4A934263D88F4A934246D0F6
:10303C008D4A93425DD8122B2AD8122B59D801A253
:10304C0052F823F0CB300008A5300008B730000848
:10305C00F9300008FF300008FF300008FF3000088E
:10306C00FF300008FF300008FF300008FF30000878
:10307C00FF300008FF300008FF300008FF30000868
:10308C00FF300008FF300008AD300008C1300008E8
:10309C00764A934213D02CE03B68DB683B6229E014
:1030AC003B68DB6804333B6224E03B68DB68083335
:1030BC003B621FE03B68DB680C333B621AE03B6809
:1030CC009B68002B02D104233B6213E03B689B6896
:1030DC00012B05D108233B627B68FA691A6109E070
:1030EC0008233B627B68FA695A6103E000233B6268
:1030FC0000E000BFBB69FF2B01D87B6801E07B6857
:10310C0004337B61BB69FF2B02D87B6A9B0002E016
:10311C007B6A083B9B003B617B691A680F213B690A
:10312C0001FA03F3DB431A40396A3B6901FA03F3F2
:10313C001A437B691A603B685B6803F08053002B71
:10314C0000F0A9804A4B9B69494A43F00103936103
:10315C00474B9B6903F00103BB60BB68454A7B6A24
:10316C009B08023352F82330FB607B6A03F00303A5
:10317C009B000F2202FA03F3DB43FA681340FB6057
:10318C007B683D4A93420DD07B683C4A934207D002
:10319C007B683B4A934201D1022304E0032302E003
:1031AC00012300E000237A6A02F0030292009340AC
:1031BC00FA681343FB602F497B6A9B080233FA6859
:1031CC0041F823203B685B6803F48013002B06D086
:1031DC002C4B9A682B49BB6913438B6006E0294B37
:1031EC009A68BB69DB43274913408B603B685B687B
:1031FC0003F40013002B06D0224BDA682149BB697B
:10320C001343CB6006E01F4BDA68BB69DB431D49F7
:10321C001340CB603B685B6803F40033002B06D093
:10322C00184B5A681749BB6913434B6006E0154BA2
:10323C005A68BB69DB43134913404B603B685B68BE
:10324C0003F48033002B1FD00E4B1A680D49BB6959
:10325C0013430B601FE000BF000032100000311060
:10326C0000002210000021100000121000001110AC
:10327C00001002400000014000080140000C014019
:10328C0000100140000401400B4B1A68BB69DB4382
:10329C00094913400B607B6A01337B623B681A68F7
:1032AC007B6A22FA03F3002B7FF496AE00BF00BFBB
:1032BC002C37BD4680BC70470004014080B485B0FB
:1032CC0000AF78600B467B807B689A687B881340E4
:1032DC00002B02D00123FB7301E00023FB73FB7B6B
:1032EC0018461437BD4680BC704780B483B000AF1D
:1032FC0078600B467B8013467B707B78002B03D069
:10330C007A887B681A6103E07B881A047B681A61EF
:10331C0000BF0C37BD4680BC704780B485B000AF91
:10332C0078600B467B807B68DB68FB607A88FB6887
:10333C0013401A04FB68D9437B880B401A437B6803
:10334C001A6100BF1437BD4680BC704780B584B08D
:10335C0000AF78607B68002B01D101232BE17B68E7
:10336C0093F83D30DBB2002B06D17B68002283F84A
:10337C003C207868FFF7A8FA7B68242283F83D206C
:10338C007B681B681A687B681B6822F001021A6054
:10339C007B681B681A687B681B6842F400421A60E1
:1033AC007B681B681A687B681B6822F400421A60F1
:1033BC0001F032F8F8607B685B68814A934207D869
:1033CC00FB68804A934294BF01230023DBB206E0E2
:1033DC00FB687D4A934294BF01230023DBB2002B90
:1033EC0001D00123E7E0FB68784AA2FB03239B0C86
:1033FC00BB607B681B685B6823F03F017B681B68C4
:10340C00BA680A435A607B681B681B6A23F03F0149
:10341C007B685B686A4A934202D8BB68013309E057
:10342C00BB684FF4967202FB03F3694AA2FB0323B9
:10343C009B0901337A6812680B4313627B681B6823
:10344C00DB6923F44F4222F0FF027B685B685C4926
:10345C008B4219D8FB68591E7B685B685B00B1FB1B
:10346C00F3F3591C40F6FC730B40002B0AD0FB689D
:10347C00591E7B685B685B00B1FBF3F30133C3F34C
:10348C000B0351E004234FE07B689B68002B11D1A8
:10349C00FB68581E7B6859680B465B000B44B0FBFD
:1034AC00F3F30133C3F30B03002B0CBF01230023F5
:1034BC00DBB212E0FB68581E7B6859680B469B0018
:1034CC000B4499000B44B0FBF3F30133C3F30B0330
:1034DC00002B0CBF01230023DBB2002B01D00123F6
:1034EC0022E07B689B68002B0ED1FB68581E7B6822
:1034FC0059680B465B000B44B0FBF3F30133C3F389
:10350C000B0343F400430FE0FB68581E7B685968BB
:10351C000B469B000B4499000B44B0FBF3F30133B7
:10352C00C3F30B0343F44043796809681343CB613D
:10353C007B681B681B6823F0C0017B68DA697B68B9
:10354C001B6A1A437B681B680A431A607B681B68FA
:10355C009B6823F4034323F0FF037A6811697A68AC
:10356C00D26811437A6812680B4393607B681B68BE
:10357C00DB6823F0FF017B685A697B689B691A43FF
:10358C007B681B680A43DA607B681B681A687B6877
:10359C001B6842F001021A607B6800221A647B6887
:1035AC00202283F83D207B6800221A637B6800226E
:1035BC0083F83E20002318461037BD4680BD00BF5F
:1035CC00A08601007F841E00FF083D0083DE1B43A4
:1035DC00D34D621080B588B002AFF8607A601A469D
:1035EC000B467B8113463B81FFF7B0FB7861FB6890
:1035FC0093F83D30DBB2202B40F0E0807B690093E8
:10360C00192301227049F86800F064F90346002B75
:10361C0001D00223D3E0FB6893F83C30012B01D19D
:10362C000223CCE0FB68012283F83C20FB681B687A
:10363C001B6803F00103012B07D0FB681B681A6899
:10364C00FB681B6842F001021A60FB681B681A6871
:10365C00FB681B6822F400621A60FB68212283F865
:10366C003D20FB68102283F83E20FB6800221A6480
:10367C00FB687A685A62FB683A895A85FB685B8DED
:10368C009AB2FB681A85FB68504ADA6279897B69C1
:10369C003A6AF86800F09CF80346002B01D001232D
:1036AC008DE000233B61FB681B685B693B61FB6839
:1036BC001B689B693B613B6966E07A69396AF8680B
:1036CC0000F022FA0346002B0DD0FB681B6C042B78
:1036DC0007D1FB681B681A68FB681B6842F4007210
:1036EC001A6001236BE0FB685B6A1A78FB681B6845
:1036FC001A61FB685B6A5A1CFB685A62FB685B8D3B
:10370C009BB2013B9AB2FB685A85FB681B8D013B4F
:10371C009AB2FB681A85FB681B685B6903F00403AB
:10372C00042B1BD1FB681B8D002B17D0FB685B6A2D
:10373C001A78FB681B681A61FB685B6A5A1CFB6889
:10374C005A62FB685B8D9BB2013B9AB2FB685A854F
:10375C00FB681B8D013B9AB2FB681A857A69396A42
:10376C00F86800F019FA0346002B0DD0FB681B6CAF
:10377C00042B07D1FB681B681A68FB681B6842F4B2
:10378C0000721A6001231AE0FB681B8D002B94D188
:10379C00FB681B681A68FB681B6842F400721A60AD
:1037AC00FB68202283F83D20FB68002283F83E2032
:1037BC00FB68002283F83C20002300E0022318461B
:1037CC001837BD4680BD00BF020010000000FFFF8F
:1037DC0080B588B002AFF8607A603B600B467B81A5
:1037EC00FB68DB6A7B617B69082B06D07B69012B4C
:1037FC0003D07B6913F5803F08D1FB681B681A68FE
:10380C00FB681B6842F480721A600BE0FB681B6B50
:10381C00122B07D1FB681B681A68FB681B6842F403
:10382C0080721A603B6800937B6800224FF0011194
:10383C00F86800F04FF80346002B0DD0FB681B68AE
:10384C001B6803F48073B3F5807F03D1FB684FF4DE
:10385C0000721A64032335E0FB681B69B3F5804FD3
:10386C0008D17B89DBB21A46FB681B6802F0FE02AA
:10387C001A611BE07B89DB11DBB203F00603DBB2C0
:10388C0063F00F03DAB2FB681B681A613B687A6855
:10389C000E49F86800F098F80346002B01D001237C
:1038AC0010E07B89DAB2FB681B681A613B687A68A6
:1038BC000749F86800F088F80346002B01D0012373
:1038CC0000E0002318461837BD4680BD08000100F3
:1038DC000200010080B584B000AFF860B9603B60B5
:1038EC001346FB7148E03B68B3F1FF3F44D0FFF750
:1038FC002DFA0246BB69D31A3A689A4202D33B6846
:10390C00002B39D1BB681B0CDBB2012B0DD1FB6832
:10391C001B685B69DA43BB6813409BB2002B0CBF7E
:10392C0001230023DBB21A460CE0FB681B689B6981
:10393C00DA43BB6813409BB2002B0CBF012300235E
:10394C00DBB21A46FB799A4216D1FB6800221A6345
:10395C00FB68202283F83D20FB68002283F83E2080
:10396C00FB681B6C43F02002FB681A64FB680022A6
:10397C0083F83C20012323E0BB681B0CDBB2012B3A
:10398C000DD1FB681B685B69DA43BB6813409BB2C3
:10399C00002B0CBF01230023DBB21A460CE0FB68A2
:1039AC001B689B69DA43BB6813409BB2002B0CBFAE
:1039BC0001230023DBB21A46FB799A4293D00023F1
:1039CC0018461037BD4680BD80B584B000AFF86096
:1039DC00B9607A603B6071E0FB681B685B6903F45B
:1039EC008063B3F5806F23D1FB681B681A68FB6892
:1039FC001B6842F400721A60FB681B686FF48062EB
:103A0C005A61FB6800221A63FB68202283F83D2070
:103A1C00FB68002283F83E20FB681B6C43F0040219
:103A2C00FB681A64FB68002283F83C20012367E0E2
:103A3C007B68B3F1FF3F41D0FFF788F902463B6842
:103A4C00D31A7A689A4202D37B68002B36D1BB68B2
:103A5C001B0CDBB2012B0CD1FB681B685B69DA43D6
:103A6C00BB6813409BB2002B14BF01230023DBB2B5
:103A7C000BE0FB681B689B69DA43BB6813409BB285
:103A8C00002B14BF01230023DBB2002B16D0FB68E4
:103A9C0000221A63FB68202283F83D20FB68002279
:103AAC0083F83E20FB681B6C43F02002FB681A6411
:103ABC00FB68002283F83C20012321E0BB681B0C2F
:103ACC00DBB2012B0CD1FB681B685B69DA43BB686A
:103ADC0013409BB2002B14BF01230023DBB20BE07D
:103AEC00FB681B689B69DA43BB6813409BB2002BD5
:103AFC0014BF01230023DBB2002B7FF46DAF002336
:103B0C0018461037BD4680BD80B584B000AFF86054
:103B1C00B9607A6034E0F86800F086F80346002B50
:103B2C0001D0012334E0BB68B3F1FF3F28D0FFF78D
:103B3C000DF902467B68D31ABA689A4202D3BB6865
:103B4C00002B1DD1FB681B685B6903F08003802B85
:103B5C0016D0FB6800221A63FB68202283F83D20F4
:103B6C00FB68002283F83E20FB681B6C43F02002AC
:103B7C00FB681A64FB68002283F83C20012307E0F1
:103B8C00FB681B685B6903F08003802BC3D10023A7
:103B9C0018461037BD4680BD80B584B000AFF860C4
:103BAC00B9607A6034E0F86800F03EF80346002B08
:103BBC0001D0012334E0BB68B3F1FF3F28D0FFF7FD
:103BCC00C5F802467B68D31ABA689A4202D3BB681E
:103BDC00002B1DD1FB681B685B6903F00403042BED
:103BEC0016D0FB6800221A63FB68202283F83D2064
:103BFC00FB68002283F83E20FB681B6C43F020021C
:103C0C00FB681A64FB68002283F83C20012307E060
:103C1C00FB681B685B6903F00403042BC3D100230E
:103C2C0018461037BD4680BD80B483B000AF7860B5
:103C3C007B681B685B6903F48063B3F5806F1BD1F1
:103C4C007B681B686FF480625A617B6800221A6380
:103C5C007B68202283F83D207B68002283F83E207D
:103C6C007B681B6C43F004027B681A647B6800223F
:103C7C0083F83C20012300E0002318460C37BD4696
:103C8C0080BC704780B586B000AF78607B68002B35
:103C9C0001D1012372E27B681B6803F00103002B46
:103CAC0000F08780924B5B6803F00C03042B0CD064
:103CBC008F4B5B6803F00C03082B12D18C4B5B68A9
:103CCC0003F48033B3F5803F0BD1894B1B6803F4AD
:103CDC000033002B6CD07B685B68002B68D1012310
:103CEC004CE27B685B68B3F5803F06D1804B1B6868
:103CFC007F4A43F4803313602EE07B685B68002BB3
:103D0C000CD17B4B1B687A4A23F480331360784BBD
:103D1C001B68774A23F4802313601DE07B685B6883
:103D2C00B3F5A02F0CD1724B1B68714A43F480235E
:103D3C0013606F4B1B686E4A43F4803313600BE0C7
:103D4C006B4B1B686A4A23F480331360684B1B6807
:103D5C00674A23F4802313607B685B68002B13D0C5
:103D6C00FEF7F4FF386108E0FEF7F0FF02463B690E
:103D7C00D31A642B01D9032300E25D4B1B6803F4B7
:103D8C000033002BF0D014E0FEF7E0FF386108E0C0
:103D9C00FEF7DCFF02463B69D31A642B01D90323DF
:103DAC00ECE1534B1B6803F40033002BF0D100E023
:103DBC0000BF7B681B6803F00203002B63D04C4BE5
:103DCC005B6803F00C03002B0BD0494B5B6803F0D2
:103DDC000C03082B1CD1464B5B6803F48033002B7F
:103DEC0016D1434B1B6803F00203002B05D07B68F4
:103DFC001B69012B01D00123C0E13D4B1B6823F053
:103E0C00F8027B685B69DB00394913430B603AE0CD
:103E1C007B681B69002B20D0364B01221A60FEF701
:103E2C0095FF386108E0FEF791FF02463B69D31A13
:103E3C00022B01D90323A1E12D4B1B6803F00203D4
:103E4C00002BF0D02A4B1B6823F0F8027B685B69CF
:103E5C00DB00274913430B6015E0264B00221A6048
:103E6C00FEF774FF386108E0FEF770FF02463B690D
:103E7C00D31A022B01D9032380E11D4B1B6803F0DD
:103E8C000203002BF0D17B681B6803F00803002BA6
:103E9C003AD07B689B69002B19D0174B01221A6012
:103EAC00FEF754FF386108E0FEF750FF02463B690D
:103EBC00D31A022B01D9032360E10D4B5B6A03F08B
:103ECC000203002BF0D0012000F0BAFA1CE00A4BE0
:103EDC0000221A60FEF73AFF38610FE0FEF736FF5A
:103EEC0002463B69D31A022B08D9032346E100BFD3
:103EFC00001002400000424280044242924B5B6A36
:103F0C0003F00203002BE9D17B681B6803F0040368
:103F1C00002B00F0A6800023FB758B4BDB6903F0B4
:103F2C008053002B0DD1884BDB69874A43F08053BB
:103F3C00D361854BDB6903F08053BB60BB68012305
:103F4C00FB75824B1B6803F48073002B18D17F4BDD
:103F5C001B687E4A43F480731360FEF7F7FE3861EA
:103F6C0008E0FEF7F3FE02463B69D31A642B01D935
:103F7C00032303E1754B1B6803F48073002BF0D013
:103F8C007B68DB68012B06D16F4B1B6A6E4A43F0D2
:103F9C00010313622DE07B68DB68002B0CD16A4BAC
:103FAC001B6A694A23F001031362674B1B6A664A5A
:103FBC0023F0040313621CE07B68DB68052B0CD137
:103FCC00614B1B6A604A43F0040313625E4B1B6A2D
:103FDC005D4A43F0010313620BE05B4B1B6A5A4AC8
:103FEC0023F001031362584B1B6A574A23F0040356
:103FFC0013627B68DB68002B15D0FEF7A7FE3861D7
:10400C000AE0FEF7A3FE02463B69D31A41F288325E
:10401C00934201D90323B1E04B4B1B6A03F002031B
:10402C00002BEED014E0FEF791FE38610AE0FEF7AB
:10403C008DFE02463B69D31A41F28832934201D974
:10404C0003239BE0404B1B6A03F00203002BEED1D1
:10405C00FB7D012B05D13C4BDB693B4A23F08053A4
:10406C00D3617B68DB69002B00F08780364B5B6883
:10407C0003F00C03082B61D07B68DB69022B46D163
:10408C00334B00221A60FEF761FE386108E0FEF740
:10409C005DFE02463B69D31A022B01D903236DE066
:1040AC00294B1B6803F00073002BF0D17B681B6A53
:1040BC00B3F5803F08D1244B5B6823F400327B6856
:1040CC009B68214913434B601F4B5B6823F47412AC
:1040DC007B68196A7B685B6A0B431B4913434B6013
:1040EC001B4B01221A60FEF731FE386108E0FEF727
:1040FC002DFE02463B69D31A022B01D903233DE066
:10410C00114B1B6803F00073002BF0D035E0104B03
:10411C0000221A60FEF71AFE386108E0FEF716FE60
:10412C0002463B69D31A022B01D9032326E0064B26
:10413C001B6803F00073002BF0D11EE07B68DB6979
:10414C00012B07D1012319E0001002400070004040
:10415C00600042420B4B5B68FB60FB6803F48032EF
:10416C007B681B6A9A4206D1FB6803F470127B6869
:10417C005B6A9A4201D0012300E0002318461837ED
:10418C00BD4680BD0010024080B584B000AF7860A1
:10419C0039607B68002B01D10123D0E06A4B1B688E
:1041AC0003F007033A689A4210D9674B1B6823F057
:1041BC00070265493B6813430B60634B1B6803F0B4
:1041CC0007033A689A4201D00123B8E07B681B6868
:1041DC0003F00203002B20D07B681B6803F0040360
:1041EC00002B05D0594B5B68584A43F4E06353608D
:1041FC007B681B6803F00803002B05D0534B5B68EE
:10420C00524A43F460535360504B5B6823F0F00206
:10421C007B689B684D4913434B607B681B6803F0BC
:10422C000103002B40D07B685B68012B07D1474B07
:10423C001B6803F40033002B15D101237FE07B684E
:10424C005B68022B07D1414B1B6803F00073002BFA
:10425C0009D1012373E03D4B1B6803F00203002BD3
:10426C0001D101236BE0394B5B6823F003027B68BF
:10427C005B68364913434B60FEF768FDF8600AE053
:10428C00FEF764FD0246FB68D31A41F28832934272
:10429C0001D9032353E02D4B5B6803F00C027B68C0
:1042AC005B689B009A42EBD1274B1B6803F007031A
:1042BC003A689A4210D2244B1B6823F00702224919
:1042CC003B6813430B60204B1B6803F007033A68F1
:1042DC009A4201D0012332E07B681B6803F004038F
:1042EC00002B08D0194B5B6823F4E0627B68DB6819
:1042FC00164913434B607B681B6803F00803002BC3
:10430C0009D0124B5B6823F460527B681B69DB009D
:10431C000E4913434B6000F021F802460B4B5B68CF
:10432C001B0903F00F030A49CB5C22FA03F3094A79
:10433C001360094B1B681846FEF7C6FC0023184691
:10434C001037BD4680BD00BF002002400010024067
:10435C00A0560008240000202800002080B487B05C
:10436C0000AF0023FB600023BB6000237B610023B4
:10437C007B6000233B611E4B5B68FB60FB6803F0BA
:10438C000C03042B02D0082B03D027E0194B3B6104
:10439C0027E0FB689B0C03F00F03174AD35C7B6090
:1043AC00FB6803F48033002B10D0114B5B685B0C63
:1043BC0003F00103114AD35CBB607B680D4A03FB1D
:1043CC0002F2BB68B2FBF3F37B6104E07B680C4A3E
:1043DC0002FB03F37B617B693B6102E0054B3B61B4
:1043EC0000BF3B6918461C37BD4680BC704700BFF8
:1043FC000010024000127A00B8560008C856000897
:10440C0000093D0080B400AF024B1B681846BD4646
:10441C0080BC70472400002080B500AFFFF7F2FF8E
:10442C000246054B5B681B0A03F007030349CB5C90
:10443C0022FA03F3184680BD00100240B056000863
:10444C0080B485B000AF78600A4B1B680A4AA2FBA7
:10445C0003235B0A7A6802FB03F3FB6000BFFB6873
:10446C005A1EFA60002BF9D100BF00BF1437BD46AD
:10447C0080BC704724000020D34D621080B582B000
:10448C0000AF78607B68002B01D1012341E07B6891
:10449C0093F83D30DBB2002B06D17B68002283F809
:1044AC003C207868FEF74EFA7B68022283F83D20A8
:1044BC007B681A687B6804331946104600F056FA7C
:1044CC007B68012283F846207B68012283F83E201A
:1044DC007B68012283F83F207B68012283F840200F
:1044EC007B68012283F841207B68012283F84220FB
:1044FC007B68012283F843207B68012283F84420E7
:10450C007B68012283F845207B68012283F83D20DB
:10451C00002318460837BD4680BD000080B485B026
:10452C0000AF78607B6893F83D30DBB2012B01D093
:10453C00012335E07B68022283F83D207B681B68F1
:10454C00DA687B681B6842F00102DA607B681B68E2
:10455C00164A934209D07B681B68B3F1804F04D094
:10456C007B681B68124A934211D17B681B689B685D
:10457C0003F00703FB60FB68062B10D07B681B68FD
:10458C001A687B681B6842F001021A6007E07B68BE
:10459C001B681A687B681B6842F001021A600023D2
:1045AC0018461437BD4680BC704700BF002C014034
:1045BC000004004080B584B000AF78607B681B6855
:1045CC00DB68FB607B681B681B69BB60BB6803F026
:1045DC000203002B20D0FB6803F00203002B1BD03E
:1045EC007B681B686FF002021A617B6801221A77E4
:1045FC007B681B689B6903F00303002B03D078686E
:10460C0000F098F905E0786800F08BF9786800F014
:10461C009AF97B6800221A77BB6803F00403002B1D
:10462C0020D0FB6803F00403002B1BD07B681B68B5
:10463C006FF004021A617B6802221A777B681B6890
:10464C009B6903F44073002B03D0786800F072F977
:10465C0005E0786800F065F9786800F074F97B681B
:10466C0000221A77BB6803F00803002B20D0FB68EC
:10467C0003F00803002B1BD07B681B686FF008024B
:10468C001A617B6804221A777B681B68DB6903F06C
:10469C000303002B03D0786800F04CF905E0786830
:1046AC0000F03FF9786800F04EF97B6800221A7729
:1046BC00BB6803F01003002B20D0FB6803F0100341
:1046CC00002B1BD07B681B686FF010021A617B6893
:1046DC0008221A777B681B68DB6903F44073002B94
:1046EC0003D0786800F026F905E0786800F019F935
:1046FC00786800F028F97B6800221A77BB6803F011
:10470C000103002B0CD0FB6803F00103002B07D036
:10471C007B681B686FF001021A617868FDF792FDE7
:10472C00BB6803F08003002B0CD0FB6803F0800304
:10473C00002B07D07B681B686FF080021A617868C9
:10474C0000F06FFABB6803F04003002B0CD0FB6841
:10475C0003F04003002B07D07B681B686FF040020E
:10476C001A61786800F0F8F8BB6803F02003002B9E
:10477C000CD0FB6803F02003002B07D07B681B6870
:10478C006FF020021A61786800F042FA00BF10370F
:10479C00BD4680BD80B584B000AF78603960002321
:1047AC00FB737B6893F83C30012B01D10223B4E0FE
:1047BC007B68012283F83C207B68022283F83D2031
:1047CC007B681B689B68BB60BB6823F07703BB608E
:1047DC00BB6823F47F43BB607B681B68BA689A6034
:1047EC003B681B68B3F5005F3ED0B3F5005F00F289
:1047FC008780B3F5805F00F08680B3F5805F7FD84B
:10480C00702B1AD0702B7BD8602B50D0602B77D8A4
:10481C00502B3CD0502B73D8402B58D0402B6FD8FA
:10482C00302B64D0302B6BD8202B60D0202B67D84A
:10483C00002B5CD0102B5AD062E07B6818683B6868
:10484C0099683B685A683B68DB6800F06AF97B68DA
:10485C001B689B68BB60BB6843F07703BB607B68DD
:10486C001B68BA689A604FE07B6818683B68996867
:10487C003B685A683B68DB6800F053F97B681B683F
:10488C009A687B681B6842F480429A603CE07B68C3
:10489C0018683B6859683B68DB681A4600F0CAF830
:1048AC007B681B685021184600F021F92CE07B68CE
:1048BC0018683B6859683B68DB681A4600F0E8F8F2
:1048CC007B681B686021184600F011F91CE07B68BE
:1048DC0018683B6859683B68DB681A4600F0AAF810
:1048EC007B681B684021184600F001F90CE07B68DE
:1048FC001A683B681B681946104600F0F8F803E08C
:10490C000123FB7300E000BF7B68012283F83D208C
:10491C007B68002283F83C20FB7B18461037BD4691
:10492C0080BD80B483B000AF786000BF0C37BD464B
:10493C0080BC704780B483B000AF786000BF0C3788
:10494C00BD4680BC704780B483B000AF786000BFB8
:10495C000C37BD4680BC704780B483B000AF786024
:10496C0000BF0C37BD4680BC7047000080B485B0DA
:10497C0000AF786039607B681B68FB607B682B4AF2
:10498C00934207D07B68B3F1804F03D07B68284AF1
:10499C00934208D1FB6823F07003FB603B685B68B3
:1049AC00FA681343FB607B68204A934207D07B680C
:1049BC00B3F1804F03D07B681D4A934208D1FB684A
:1049CC0023F44073FB603B68DB68FA681343FB60BD
:1049DC00FB6823F080023B685B691343FB607B68D8
:1049EC00FA681A603B689A687B68DA623B681A68F6
:1049FC007B689A627B680D4A934203D13B681A69C3
:104A0C007B681A637B6801225A617B681B6903F01F
:104A1C000103002B05D07B681B6923F001027B6826
:104A2C001A6100BF1437BD4680BC7047002C014092
:104A3C000004004080B487B000AFF860B9607A60C1
:104A4C00FB681B6A7B61FB681B6A23F00102FB6835
:104A5C001A62FB689B693B613B6923F0F0033B6185
:104A6C007B681B013A6913433B617B6923F00A03A2
:104A7C007B617A69BB6813437B61FB683A699A6115
:104A8C00FB687A691A6200BF1C37BD4680BC704750
:104A9C0080B487B000AFF860B9607A60FB681B6ABD
:104AAC007B61FB681B6A23F01002FB681A62FB68CF
:104ABC009B693B613B6923F470433B617B681B033F
:104ACC003A6913433B617B6923F0A0037B61BB68AC
:104ADC001B017A6913437B61FB683A699A61FB6835
:104AEC007A691A6200BF1C37BD4680BC704780B41F
:104AFC0085B000AF786039607B689B68FB60FB68B1
:104B0C0023F07003FB603A68FB68134343F0070320
:104B1C00FB607B68FA689A6000BF1437BD4680BCA6
:104B2C00704780B487B000AFF860B9607A603B60C2
:104B3C00FB689B687B617B6923F47F437B613B68EB
:104B4C001A027B681A43BB6813437A6913437B616F
:104B5C00FB687A699A6000BF1C37BD4680BC704701
:104B6C0080B485B000AF786039607B6893F83C30D6
:104B7C00012B01D1022341E07B68012283F83C2008
:104B8C007B68022283F83D207B681B685B68FB60B6
:104B9C007B681B689B68BB60FB6823F07003FB6041
:104BAC003B681B68FA681343FB607B681B68FA68F8
:104BBC005A607B681B68144A934209D07B681B6857
:104BCC00B3F1804F04D07B681B68104A93420CD120
:104BDC00BB6823F08003BB603B685B68BA68134317
:104BEC00BB607B681B68BA689A607B68012283F89B
:104BFC003D207B68002283F83C20002318461437A4
:104C0C00BD4680BC704700BF002C01400004004032
:104C1C0080B483B000AF786000BF0C37BD4680BC59
:104C2C00704780B483B000AF786000BF0C37BD46CE
:104C3C0080BC70470EB46FF0004110B500249DB0DD
:104C4C001FAB02900690079104910948094953F84B
:104C5C00042B0591006802A901931B9400F096F9AE
:104C6C00029B1C701DB0BDE8104003B0704700BF24
:104C7C00300000200802FFFF03460244934200D19B
:104C8C00704703F8011BF9E7014B1868704700BF28
:104C9C003000002070B500260C4D0D4B5B1B9C109A
:104CAC00A64209D1002600F07DFC0A4D0A4B5B1B85
:104CBC009C10A64205D170BD55F8043B98470136AF
:104CCC00EEE755F8043B98470136F2E70057000829
:104CDC000057000800570008045700087047704739
:104CEC0038B50546002940D051F8043C0C1F002B68
:104CFC00B8BFE41800F0DEF81C4A136833B96360DF
:104D0C0014602846BDE8384000F0DAB8A34208D950
:104D1C00206821188B4201BF19685B680918216053
:104D2C00EDE71A465B680BB1A342FAD9116850182B
:104D3C00A0420BD120680144501883421160E0D18D
:104D4C0018685B68084410605360DAE702D90C23DA
:104D5C002B60D6E7206821188B4201BF19685B686D
:104D6C000918216063605460CBE738BDC004002093
:104D7C0070B50F4E0C463168054611B900F0B0FB0A
:104D8C0030602146284600F0ABFB431C03D14FF0AA
:104D9C00FF34204670BDC41C24F00304A042F8D09C
:104DAC00211A284600F09CFB0130F2D1EFE700BF3E
:104DBC00BC0400202DE9F843CD1C25F00305083573
:104DCC000C2D38BF0C25002D064601DBA94204D959
:104DDC000C2333600020BDE8F883DFF8D48000F0AA
:104DEC0069F8D8F800301C4644BB29463046FFF71A
:104DFC00BFFF431C044658D1D8F800402746002F6B
:104E0C0043D1002C4BD023683946304604EB0309C0
:104E1C0000F066FB814542D1216830466D1A294667
:104E2C00FFF7A6FF01303AD023682B442360D8F853
:104E3C0000305A6862BBC8F800700FE02268521B41
:104E4C0020D40B2A17D96119A342256018BF5960C9
:104E5C00636808BFC8F8001062514B60304600F020
:104E6C002FF804F10B00231D20F00700C21A1CBF01
:104E7C001B1AA350AFE76268A3420CBFC8F800200E
:104E8C005A60EBE723466468AEE73C467F68B6E7BA
:104E9C001A465B68A342FBD100235360DEE70C2368
:104EAC003046336000F00CF894E70560D6E700BF9D
:104EBC00C00400200148FFF711BF00BFB804002058
:104ECC000148FFF70CBF00BFB80400202DE9F047E4
:104EDC001F468E688246BE420C469046334653D8D7
:104EEC00B1F90C0010F4906F2BD065692368096937
:104EFC0005EB4505A3EB010905EBD5757B1C6D1086
:104F0C004B44AB422A4684BF1D462A46430527D54F
:104F1C0011465046FFF74EFF064658B34A462169E4
:104F2C0000F0FCFAA38923F4906343F08003A3817F
:104F3C0026614E4426603B463E466561A5EB09055D
:104F4C00A5601F463A464146206800F0AFFA0020A3
:104F5C00A3689B1BA36023683B442360BDE8F087D8
:104F6C00504600F0E9FA06460028E1D15046216986
:104F7C00FFF7B6FE0C23CAF80030A3894FF0FF30C0
:104F8C0043F04003A381E9E73E46DBE72DE9F04718
:104F9C001F468B8906461B060D4614469CB010D541
:104FAC000B6973B94021FFF705FF2860286130B900
:104FBC000C2333604FF0FF301CB0BDE8F08740236A
:104FCC006B610023099320238DF8293030234FF097
:104FDC0001080397644F8DF82A302346994613F83D
:104FEC00012B0AB1252AF9D1B9EB040A0BD053468F
:104FFC00224629463046FFF769FF013000F0A480B5
:10500C00099A5244099299F80030002B00F09C80C8
:10501C0000234FF0FF32CDE9052309F10109049378
:10502C0007938DF853301A934C46052214F8011B44
:10503C004D4800F065FA049BD0B9D80644BF202235
:10504C008DF85320190744BF2B228DF8532099F863
:10505C0000202A2A13D04C4600204FF00A0C079A45
:10506C00214611F8013B303B092B49D968B913E0B3
:10507C00C01B08FA00F01843A1460490D4E7039A29
:10508C00111D12680391002A01DB079204E05242C1
:10509C0043F002030792049323782E2B0AD16378F2
:1050AC002A2B32D1039B02341A1D1B68039243EA4C
:1050BC00E3730593DFF8B49003224846217800F09F
:1050CC001FFA38B14022049BA0EB09008240134325
:1050DC000134049314F8011B062225488DF828107E
:1050EC0000F00EFA002835D0224818BB039B07337A
:1050FC0023F0070308330393099B034409936CE7DC
:10510C000C4601200CFB0232AAE700234FF00A0CDC
:10511C00194601340593204610F8012B303A092A20
:10512C0003D9002BC6D00591C4E7044601230CFB20
:10513C000121F0E703AB00932A4630460E4B04A93D
:10514C00AFF30080421CD7D1AB895B063FF532AF81
:10515C00099831E703AB00932A463046064B04A965
:10516C0000F07EF8EEE700BFCA560008D0560008E3
:10517C00D456000800000000D94E00082DE9F04775
:10518C00164698468A680B6907469342B8BF134681
:10519C00336091F843200C46DDF820900AB10133BE
:1051AC0033602368990642BF336802333360256845
:1051BC0015F0060506D104F1190AE36832689B1A4A
:1051CC00AB422BDC94F843302268003B18BF012320
:1051DC00920630D44146384604F14302C8470130A8
:1051EC0023D02368226903F00603042B14BF002587
:1051FC0033684FF0000608BFE56804F11A0408BFD5
:10520C00ED1A54F8123C08BF25EAE5759342C4BF69
:10521C009B1AED18B5421AD1002008E00123524622
:10522C0041463846C847013003D14FF0FF30BDE846
:10523C00F0870135C1E73020E11881F843005A1C92
:10524C0094F845102244023382F84310C2E701233C
:10525C00224641463846C8470130E6D00136D9E7E8
:10526C002DE9F0430D7E85B0782D904607460C460F
:10527C0099460C9E01F1430207D8622D0AD8002DE5
:10528C0000F0D780582D00F0BC8004F1420684F861
:10529C0042503BE0A5F16303152BF6D801A151F860
:1052AC0023F000BF095300081D5300089752000853
:1052BC009752000897520008975200081D53000897
:1052CC00975200089752000897520008975200080E
:1052DC002554000847530008D7530008975200087C
:1052EC00975200084754000897520008475300088B
:1052FC009752000897520008DF53000833681A1DB4
:10530C001B68326004F1420684F842300123A1E0AC
:10531C0033682068191D3160060601D51D6803E04D
:10532C004506FBD5B3F90050002D03DA2D236D4251
:10533C0084F843300A235B4811E02168336808067F
:10534C0053F8045B02D4490648BFADB23360237EE8
:10535C0054486F2B5CD10823002184F843106668F5
:10536C00002EA66005DB21682E4321F0040121608C
:10537C0050D01646B5FBF3F103FB115C10F80CC0D2
:10538C0006F801CDAC4663450D46F3D9082B0BD17D
:10539C002368DB0708D5236961689942DEBF302397
:1053AC0006F8013C06F1FF36921B2261434621466A
:1053BC003846CDF8009003AAFFF7E0FE01304ED13D
:1053CC004FF0FF3005B0BDE8F083236843F02003B5
:1053DC0023607825344884F845502368316813F0ED
:1053EC00800F51F8045B03D113F0400F18BFADB21E
:1053FC003160D90744BF43F0200323601DB1102353
:10540C00AAE72848E7E7236823F020032360F6E7A0
:10541C000A23A1E71646B9E733682568181D6169A8
:10542C0030602E061B6801D5196002E06806FBD5BA
:10543C001980002316462361B8E7336800211A1D32
:10544C0032601E686268304600F05AF808B1801B62
:10545C00606063682361002384F84330A6E732461A
:10546C00414638462369C8470130A9D023689B07B9
:10547C0013D4E068039B9842B8BF1846A2E70123F7
:10548C00324641463846C847013099D00135E36869
:10549C0003995B1AAB42F2DCEBE7002504F1190629
:1054AC00F5E700BFDB560008EC560008884210B543
:1054BC0001EB020402D98442234607D8431EA142C1
:1054CC0007D011F8012B03F8012FF8E702448242B0
:1054DC0000D110BD13F8011D02F8011DF7E7000003
:1054EC0038B50023054D044608462B60FDF784FAB9
:1054FC00431C02D12B6803B1236038BDB4040020D7
:10550C00034610B5C9B202449342184601D100209B
:10551C0003E0047801338C42F6D110BD0A44914269
:10552C0000F1FF3300D1704710B511F8014B9142D7
:10553C0003F8014FF9D110BD2DE9F041074614468F
:10554C000D4621B91146BDE8F041FFF733BC2AB92D
:10555C00FFF7C6FB25462846BDE8F08100F01AF897
:10556C008442064602D8B4EB500FF4D82146384694
:10557C00FFF720FC804608B94546ECE7B4422246CA
:10558C00294628BF3246FFF7C9FF29463846FFF7A0
:10559C00A7FBF1E751F8043C181F002BBCBF0B58BC
:1055AC00C0187047F8B500BFF8BC08BC9E467047E1
:0C55BC00F8B500BFF8BC08BC9E46704764
:1055C80052315F252D35733A202530326420202052
:1055D8000000000052325F252D35733A2025303205
:1055E8006420202000000000202058494E205155FA
:1055F800412044554F4E4720000000002020202025
:105608002020202020202020202020200000000012
:1056180020204D414E55414C204D4F4445202020DF
:105628000000000052313A252D33732020202052EB
:10563800323A252D337300002020434F4E46494708
:10564800204D4F44452020200000000053455420A1
:1056580025732054494D453A2025303264200000F6
:105668000000000052454400475245454E000000E6
:10567800414D4245520000000000000052454400E0
:10568800414D420047524500000000005245440089
:1056980047524500414D4200000000000000000054
:1056A80001020304060708090000000001020304C0
:1056B80002030405060708090A0B0C0D0E0F10104B
:1056C8000102232D302B2000686C4C00656667456D
:1056D8004647003031323334353637383941424362
:1056E8004445460030313233343536373839616213
:0856F800636465660000000018
:04570000310100086B
:045704000D0100088B
:105708000010014000100140001001400014014049
:10571800002000400080010088130000D00700002E
:10572800B80B000000127A00100000000100000011
:1057380034000020000000007C030020E403002067
:105748004C040020000000000000000000000000E1
:105758000000000000000000000000000000000041
:105768000000000000000000000000000000000031
:105778000000000000000000000000000000000021
:0400000508002C5D66
:00000001FF
