:020000040800F2
:1000000000280020751F0008ED180008F3180008EC
:10001000F9180008FF180008051900080000000082
:100020000000000000000000000000000B190008A4
:100030001719000800000000231900082F190008F4
:10004000BD1F0008BD1F0008BD1F0008BD1F000820
:10005000BD1F0008BD1F0008BD1F0008BD1F000810
:10006000BD1F0008BD1F0008BD1F0008BD1F000800
:10007000BD1F0008BD1F0008BD1F0008BD1F0008F0
:10008000BD1F0008BD1F0008BD1F0008BD1F0008E0
:10009000BD1F0008BD1F0008BD1F0008BD1F0008D0
:1000A000BD1F0008BD1F0008BD1F0008BD1F0008C0
:1000B0003D190008BD1F000800000000BD1F00081A
:1000C000BD1F00080000000000000000BD1F000868
:1000D00000000000BD1F0008BD1F00080000000058
:1000E000BD1F0008BD1F0008BD1F00080000000064
:1000F0000000000000000000000000000000000000
:0C01000000000000000000005FF808F1A3
:10010C0010B5054C237833B9044B13B10448AFF345
:10011C0000800123237010BD20000020000000008F
:10012C00EC35000808B5034B1BB103490348AFF38A
:10013C00008008BD0000000024000020EC35000801
:10014C0080B500AF01224FF48041084802F033FA29
:10015C0001224FF40041054802F02DFA0A2000F06C
:10016C00CFF80A2000F07EFA00BF80BD000C0140E1
:10017C0080B500AF184B1B68002B15D1092000F07F
:10018C00BFF8092000F06EFA00224FF480411348AA
:10019C0002F011FA01224FF40041104802F00BFA60
:1001AC000D4B01221A6014E0092000F0A9F8092077
:1001BC0000F058FA01224FF48041084802F0FBF994
:1001CC0000224FF40041054802F0F5F9024B0022E1
:1001DC001A6000BF80BD00BF3C000020000C014035
:1001EC0080B500AF1C4B1B68002B19D11B4B1B6837
:1001FC00184600F085F8194B5B68184600F032FA87
:10020C0000224FF48041164802F0D5F901224FF438
:10021C000041134802F0CFF90F4B01221A6018E08D
:10022C000E4B9B68184600F06BF80C4BDB681846BD
:10023C0000F018FA01224FF48041094802F0BBF992
:10024C0000224FF40041064802F0B5F9024B00229F
:10025C001A6000BF80BD00BF3C00002040000020A1
:10026C00000C014080B485B000AF786039607B68C9
:10027C00204A82FB03125211DB17D31AFB603B6836
:10028C001C4A82FB03125211DB17D31ABB60FB68AA
:10029C00194A82FB03129210DB17D31A174A136008
:1002AC00F968154B83FB01239A10CB17D21A13460E
:1002BC009B0013445B00CA1A104B5A60BB680E4A71
:1002CC0082FB03129210DB17D31A0C4A9360B968A5
:1002DC00094B83FB01239A10CB17D21A13469B00B0
:1002EC0013445B00CA1A054BDA6000BF1437BD46D5
:1002FC0080BC70471F85EB51676666664000002026
:10030C0080B582B000AF78607B68092B00F28081E9
:10031C0001A252F823F000BF4D030008950300081A
:10032C00DD030008250400086D040008B50400086E
:10033C00FD040008450500088D050008D5050008DA
:10034C0000220121C64802F036F900220221C448DD
:10035C0002F031F900220421C14802F02CF90022EC
:10036C000821BF4802F027F900221021BC4802F0F6
:10037C0022F900222021BA4802F01DF90122402165
:10038C00B74802F018F967E101220121B44802F0E4
:10039C0012F900220221B24802F00DF900220421C8
:1003AC00AF4802F008F901220821AD4802F003F928
:1003BC0001221021AA4802F0FEF801222021A848AF
:1003CC0002F0F9F801224021A54802F0F4F843E1CB
:1003DC0000220121A24802F0EEF800220221A048DE
:1003EC0002F0E9F8012204219D4802F0E4F8002211
:1003FC0008219B4802F0DFF800221021984802F0F7
:10040C00DAF801222021964802F0D5F8002240218A
:10041C00934802F0D0F81FE100220121904802F02D
:10042C00CAF8002202218E4802F0C5F800220421ED
:10043C008B4802F0C0F800220821894802F0BBF872
:10044C0001221021864802F0B6F8012220218448AE
:10045C0002F0B1F800224021814802F0ACF8FBE038
:10046C00012201217E4802F0A6F8002202217C48DC
:10047C0002F0A1F800220421794802F09CF8012234
:10048C000821774802F097F801221021744802F0F5
:10049C0092F800222021724802F08DF800224021AF
:1004AC006F4802F088F8D7E0002201216C4802F076
:1004BC0082F8012202216A4802F07DF80022042110
:1004CC00674802F078F800220821654802F073F8BA
:1004DC0001221021624802F06EF8002220216048AF
:1004EC0002F069F8002240215D4802F064F8B3E0A4
:1004FC00002201215A4802F05EF8012202215848DC
:10050C0002F059F800220421554802F054F8002258
:10051C000821534802F04FF800221021504802F0F5
:10052C004AF8002220214E4802F045F800224021D2
:10053C004B4802F040F88FE000220121484802F0BD
:10054C003AF800220221464802F035F80022042134
:10055C00434802F030F801220821414802F02BF800
:10056C00012210213E4802F026F8012220213C48AD
:10057C0002F021F801224021394802F01CF86BE00E
:10058C0000220121364802F016F8002202213448DC
:10059C0002F011F800220421314802F00CF800227C
:1005AC0008212F4802F007F8002210212C4802F0F5
:1005BC0002F8002220212A4801F0FDFF00224021F0
:1005CC00274801F0F8FF47E000220121244801F000
:1005DC00F2FF00220221224801F0EDFF002204214B
:1005EC001F4801F0E8FF002208211D4801F0E3FF3D
:1005FC00012210211A4801F0DEFF002220211848A8
:10060C0001F0D9FF00224021154801F0D4FF23E06E
:10061C0001220121124801F0CEFF012202211048D3
:10062C0001F0C9FF012204210D4801F0C4FF012291
:10063C0008210B4801F0BFFF01221021084801F0EE
:10064C00BAFF01222021064801F0B5FF012240210A
:10065C00034801F0B0FF00BF00BF0837BD4680BDA6
:10066C00000C014080B582B000AF78607B68092B2C
:10067C0000F2BE8101A252F823F000BFB1060008BF
:10068C000507000859070008AD0700080108000815
:10069C0055080008A9080008FD08000851090008C1
:1006AC00A509000800228021D04801F084FF002217
:1006BC004FF48071CD4801F07EFF00224FF40071A1
:1006CC00CA4801F078FF00224FF48061C74801F05E
:1006DC0072FF00224FF40061C44801F06CFF00224D
:1006EC004FF48051C14801F066FF01224FF40051D4
:1006FC00BE4801F060FFA5E101228021BB4801F05A
:10070C005AFF00224FF48071B84801F054FF0022C8
:10071C004FF40071B54801F04EFF01224FF4806197
:10072C00B24801F048FF01224FF40061AF4801F0DC
:10073C0042FF01224FF48051AC4801F03CFF0122F2
:10074C004FF40051A94801F036FF7BE100228021D3
:10075C00A64801F030FF00224FF48071A34801F04D
:10076C002AFF01224FF40071A04801F024FF00225F
:10077C004FF480619D4801F01EFF00224FF4006190
:10078C009A4801F018FF01224FF48051974801F06C
:10079C0012FF00224FF40051944801F00CFF51E17C
:1007AC0000228021914801F006FF00224FF4807155
:1007BC008E4801F000FF00224FF400718B4801F0CD
:1007CC00FAFE00224FF48061884801F0F4FE012209
:1007DC004FF40061854801F0EEFE01224FF4805188
:1007EC00824801F0E8FE00224FF400517F4801F0EE
:1007FC00E2FE27E1012280217C4801F0DCFE002290
:10080C004FF48071794801F0D6FE00224FF400714C
:10081C00764801F0D0FE01224FF48061734801F05C
:10082C00CAFE01224FF40061704801F0C4FE0022A0
:10083C004FF480516D4801F0BEFE00224FF4005180
:10084C006A4801F0B8FEFDE000228021674801F003
:10085C00B2FE01224FF48071644801F0ACFE00221C
:10086C004FF40071614801F0A6FE00224FF4806144
:10087C005E4801F0A0FE01224FF400615B4801F0DC
:10088C009AFE00224FF48051584801F094FE002249
:10089C004FF40051554801F08EFED3E00022802128
:1008AC00524801F088FE01224FF480714F4801F04C
:1008BC0082FE00224FF400714C4801F07CFE0022B5
:1008CC004FF48061494801F076FE00224FF400613C
:1008DC00464801F070FE00224FF48051434801F06D
:1008EC006AFE00224FF40051404801F064FEA9E07A
:1008FC00002280213D4801F05EFE00224FF4807101
:10090C003A4801F058FE00224FF40071374801F0CC
:10091C0052FE01224FF48061344801F04CFE01225A
:10092C004FF40061314801F046FE01224FF4805132
:10093C002E4801F040FE01224FF400512B4801F0EB
:10094C003AFE7FE000228021284801F034FE00228C
:10095C004FF48071254801F02EFE00224FF40071F7
:10096C00224801F028FE00224FF480611F4801F05C
:10097C0022FE00224FF400611C4801F01CFE0022F4
:10098C004FF48051194801F016FE00224FF400512B
:10099C00164801F010FE55E000228021134801F0AA
:1009AC000AFE00224FF48071104801F004FE002270
:1009BC004FF400710D4801F0FEFD00224FF48061F0
:1009CC000A4801F0F8FD01224FF40061074801F0DC
:1009DC00F2FD00224FF48051044801F0ECFD00229E
:1009EC004FF40051014801F0E6FD2BE0000C0140F2
:1009FC0001228021154801F0DEFD01224FF48071A7
:100A0C00124801F0D8FD01224FF400710F4801F09B
:100A1C00D2FD01224FF480610C4801F0CCFD012283
:100A2C004FF40061094801F0C6FD01224FF48051DA
:100A3C00064801F0C0FD01224FF40051034801F0BB
:100A4C00BAFD00BF00BF0837BD4680BD000C014099
:100A5C0080B500AF2021024801F0C5FD00BF80BD6C
:100A6C000008014080B500AF40F61211024801F0B9
:100A7C00BAFD00BF80BD00BF0008014080B500AFCB
:100A8C0041F24421024801F0AEFD00BF80BD00BF21
:100A9C000008014080B500AF42F28841024801F0E5
:100AAC00A2FD00BF80BD00BF0008014080B500AFB3
:100ABC004FF40251024801F096FD00BF80BD00BF0B
:100ACC000008014080B483B000AF00237B603FE09E
:100ADC00244A7B68012142F82310224A7B6852F891
:100AEC00232021497B6841F823201F4A7B6852F858
:100AFC0023201E497B6841F823201D4A7B68012175
:100B0C0042F823101B4A7B68002142F823101A4A32
:100B1C007B68002142F82310184A7B68002142F8B8
:100B2C002310174A7B68002142F82310154A7B6872
:100B3C00002142F82310144A7B68002142F823104C
:100B4C00124A7B68002142F823107B6801337B60DA
:100B5C007B68022BBCDD00BF00BF0C37BD4680BCE0
:100B6C00704700BF680000205C000020500000208F
:100B7C0074000020800000208C00002098000020D1
:100B8C00A4000020B0000020BC000020C800002001
:100B9C0080B582B000AF00237B60DDE0734A7B68D8
:100BAC0052F8232072497B6841F82320714A7B68F4
:100BBC0052F823206D497B6841F823206E4A7B68EC
:100BCC0052F823206D497B6831F8133019461046D2
:100BDC0001F0DAFC03461946664A7B6842F823109A
:100BEC00634A7B6852F8232060497B6851F82330B4
:100BFC009A4240F0AE805D4A7B6852F823205D49F2
:100C0C007B6851F823309A4240F0A3805C4A7B68A1
:100C1C0052F8232057497B6851F823309A424ED022
:100C2C00574A7B6852F82330002B34D1514A7B68E9
:100C3C0052F82330012B2ED1524A7B68012142F805
:100C4C002310514A7B6852F823305A1C4E497B685A
:100C5C0041F823204C4A7B6852F82330012B05D1F4
:100C6C004A4A7B68282142F8231014E0464A7B68E4
:100C7C0052F82330022B0ED1454A7B68012142F8F1
:100C8C002310414A7B68002142F823103F4A7B68BD
:100C9C00002142F82310374A7B6852F82320384948
:100CAC007B6841F82320334A7B6852F82330002BB1
:100CBC002AD1384A7B68642142F8231024E02D4A5B
:100CCC007B6852F82330002B1ED1324A7B6852F8D5
:100CDC002330002B18DD2F4A7B6852F823305A1E24
:100CEC002C497B6841F823202A4A7B6852F8233030
:100CFC00002B09DC284A7B68012142F82310254A85
:100D0C007B68322142F82310204A7B6852F823304A
:100D1C00002B1EDD1D4A7B6852F823305A1E1B49DE
:100D2C007B6841F82320194A7B6852F82330002B4A
:100D3C000FD1154A7B6852F82330012B04D1174A86
:100D4C007B68012142F823100F4A7B68002142F88E
:100D5C0023107B6801337B607B68022B7FF71EAF0F
:100D6C0000BF00BF0837BD4680BD00BF5C0000203F
:100D7C005000002068000020000000200C00002023
:100D8C0074000020A4000020BC000020C80000203B
:100D9C00B000002080000020980000208C00002073
:100DAC0080B483B000AF78607B68002B02DB7B687B
:100DBC00022B01DD00230DE0094A7B6852F8233039
:100DCC00012B06D1064A7B68002142F8231001232F
:100DDC0000E0002318460C37BD4680BC704700BFAE
:100DEC008C00002080B483B000AF78607B68002B4F
:100DFC0002DB7B68022B01DD00230DE0094A7B68D6
:100E0C0052F82330012B06D1064A7B68002142F8A8
:100E1C002310012300E0002318460C37BD4680BC8C
:100E2C00704700BF9800002080B483B000AF78609A
:100E3C007B68002B02DB7B68022B01DD00230DE0BD
:100E4C00094A7B6852F82330012B06D1064A7B688D
:100E5C00002142F82310012300E0002318460C3730
:100E6C00BD4680BC704700BFB000002080B500AF0D
:100E7C000020FFF795FF0346002B23D0144B0122D3
:100E8C001A60144B1B68013B032B1DD801A252F8AE
:100E9C0023F000BFB10E0008B90E0008C10E000807
:100EAC00C90E00080C4B02221A600EE00A4B0322FA
:100EBC001A600AE0084B04221A6006E0064B012275
:100ECC001A6002E000BF00E000BF00BF80BD00BFA1
:100EDC00EC000020E4000020E800002080B500AF0A
:100EEC000120FFF75DFF0346002B05D10120FFF722
:100EFC0079FF0346002B03D00F4B01221A7019E027
:100F0C000220FFF74DFF0346002B05D10220FFF70F
:100F1C0069FF0346002B03D0074B02221A7009E02D
:100F2C000220FFF781FF0346002B03D0024B032264
:100F3C001A70FFE700BF80BDF000002080B500AF45
:100F4C000120FFF771FF0346002B02D0024B012258
:100F5C001A6000BF80BD00BFF400002080B500AF58
:100F6C0040F6B8324FF4FA6141F2883000F0E0FDFF
:100F7C0000BF80BD80B500AF394B1B78022B3DD034
:100F8C00022B63DC002B02D0012B25D05EE003206A
:100F9C0000F020FC0346002B05D0FFF763FDFA217F
:100FAC00032000F0BFFB042000F014FC0346002BD0
:100FBC0005D0FFF7DDF85021042000F0B3FB294BDE
:100FCC001B68002B44D0264B01221A70264B0022A2
:100FDC001A70FFF7B5F83BE000F0C6FE214B1B681A
:100FEC00002B37D01E4B02221A70FA21032000F07E
:100FFC0099FB5021042000F095FB2BE0032000F01E
:10100C00E9FB0346002B05D0FFF738FDFA2103203E
:10101C0000F088FB042000F0DDFB0346002B05D01C
:10102C00FFF7A6F85021042000F07CFB0D4B1B6849
:10103C00002B11D00A4B00221A70FA21032000F069
:10104C0071FB5021042000F06DFB05E000BF04E0B3
:10105C0000BF02E000BF00E000BF00BF80BD00BFCA
:10106C00F1000020F40000202801002080B500AF22
:10107C00A54B1B780B3B032B00F2438101A252F8CA
:10108C0023F000BFA11000085D1100081D1200081C
:10109C00E3120008032000F09DFB0346002B05D053
:1010AC00FFF7E0FCFA21032000F03CFB052000F0E8
:1010BC0091FB0346002B0DD0944B1B68642202FB62
:1010CC0003F364211846FFF7CDF84FF4FA710520AD
:1010DC0000F028FB042000F07DFB0346002B05D01C
:1010EC00FFF77EF85021042000F01CFB884B1B7886
:1010FC00032B1AD0032B22DC012B02D0022B0AD09B
:10110C001DE0824B1B68622B1BDC804B1B68013380
:10111C007E4A136015E07D4B1B68012B13DD7B4B66
:10112C001B68013B794A13600DE000F011FC764B13
:10113C000C221A70FA21032000F0F4FA04E000BF2C
:10114C0002E000BF00E000BF714B00221A70D9E032
:10115C00032000F03FFB0346002B05D0FFF78EFC6D
:10116C00FA21032000F0DEFA052000F033FB0346E1
:10117C00002B0DD0674B1B68642202FB03F3C821C4
:10118C001846FFF76FF84FF4FA71052000F0CAFA11
:10119C00042000F01FFB0346002B05D0FFF720F8BE
:1011AC005021042000F0BEFA594B1B78032B1CD0A5
:1011BC00032B24DC012B02D0022B0CD01FE0554B4F
:1011CC001A68524B1B689A421BDA524B1B6801334C
:1011DC00504A136015E04F4B1B68012B13DD4D4B30
:1011EC001B68013B4B4A13600DE000F0B1FB464B12
:1011FC000D221A70FA21032000F094FA04E000BFCB
:10120C0002E000BF00E000BF414B00221A7079E001
:10121C00032000F0DFFA0346002B05D0FFF73AFC61
:10122C00FA21032000F07EFA052000F0D3FA0346E1
:10123C00002B0ED0384B1B68642202FB03F34FF4D7
:10124C0096711846FFF70EF84FF4FA71052000F06E
:10125C0069FA042000F0BEFA0346002B05D0FEF715
:10126C00BFFF5021042000F05DFA294B1B78032BA3
:10127C001FD0032B26DC012B02D0022B0FD021E038
:10128C00224B1A68234B1B68D21A234B1B689A42B9
:10129C001ADD214B1B6801331F4A136014E01E4BEF
:1012AC001B68012B12DD1C4B1B68013B1A4A136097
:1012BC000CE000F04DFB194B00221A70124B0E2261
:1012CC001A7004E000BF02E000BF00E000BF104B4A
:1012DC0000221A7016E00D4B1B684FF47A7202FB59
:1012EC0003F00C4B1B684FF47A7202FB03F10A4BB0
:1012FC001B684FF47A7202FB03F31A4600F018FCD9
:10130C0000E000BF00BF80BD12000020D400002010
:10131C00F0000020D8000020DC0000202801002074
:10132C0080B582B000AF78607B68013B032B2ED870
:10133C0001A252F823F000BF551300085F130008F8
:10134C006F1300088513000800F002FBFEF7F8FE8F
:10135C001EE0FEF7F5FE00F0FBFA0F4B00221A70B0
:10136C0016E0FEF7EDFE00F0F3FA0C4B0B221A70B0
:10137C00094B00221A700BE0FEF7E2FE00F0E8FACF
:10138C00054B00221A70064B00221A7000E000BFB9
:10139C0000BF0837BD4680BD280100201200002088
:1013AC00F100002080B582B000AF78607B68013B13
:1013BC00032B14D801A252F823F000BFEB13000842
:1013CC00D9130008DF130008E5130008FFF7C6FD6A
:1013DC0006E0FFF74BFE03E0FFF7CCFD00E000BF9B
:1013EC0000BF0837BD4680BD80B500AF002000F0BF
:1013FC00F1F90346002B06D0FFF72AFB4FF47A7164
:10140C00002000F08FF9104B1A68104B1B689A42A1
:10141C0008D00E4B1B681846FFF782FF0B4B1B685E
:10142C00094A1360094B1B681846FFF7BBFF084BB2
:10143C001B68002B06D0074B1B68044A1360044B37
:10144C0000221A6000BF80BDE0000020E4000020F4
:10145C00EC000020E800002080B500AF064B012214
:10146C001A60064B01221A60FFF72CFB642000F077
:10147C002DF900BF80BD00BFE4000020E800002073
:10148C0080B500AF00F096FD00F00EF800F094F877
:10149C0000F046F8034801F0EBFCFFF7DDFFFFF727
:1014AC00A3FFFCE72C01002080B590B000AF07F142
:1014BC00180328220021184602F08AF83B1D00224E
:1014CC001A605A609A60DA601A610223BB610123C8
:1014DC00BB621023FB6200237B6307F118031846E1
:1014EC0001F09AF80346002B01D000F0E9F80F2325
:1014FC007B600023BB600023FB6000233B61002367
:10150C007B613B1D0021184601F006FB0346002BB6
:10151C0001D000F0D5F800BF4037BD4680BD0000BB
:10152C0080B586B000AF07F1080300221A605A603C
:10153C009A60DA603B4600221A605A601D4B4FF0ED
:10154C0080421A601B4B41F63F725A60194B0022C5
:10155C009A60184B0922DA60164B00221A61154B5F
:10156C0000229A61134801F033FC0346002B01D092
:10157C0000F0A6F84FF48053BB6007F1080319463E
:10158C000C4801F0B1FD0346002B01D000F098F897
:10159C0000233B6000237B603B461946054801F065
:1015AC0089FF0346002B01D000F08AF800BF1837E2
:1015BC00BD4680BD2C01002080B588B000AF07F17E
:1015CC00100300221A605A609A60DA602F4B9B69F4
:1015DC002E4A43F0100393612C4B9B6903F01003CC
:1015EC00FB60FB68294B9B69284A43F00403936119
:1015FC00264B9B6903F00403BB60BB68234B9B69C0
:10160C00224A43F008039361204B9B6903F00803C3
:10161C007B607B68002243F6FE711D4800F0CBFF17
:10162C0000224FF6FF711B4800F0C5FF4FF46043DA
:10163C003B6100237B610123BB6107F11003194659
:10164C00154800F027FE43F6FE733B6101237B61D6
:10165C000023BB610223FB6107F1100319460C4800
:10166C0000F018FE4FF6FF733B6101237B610023F2
:10167C00BB610223FB6107F110031946054800F01A
:10168C0009FE00BF2037BD4680BD00BF00100240E0
:10169C0000080140000C01400010014080B582B0F0
:1016AC0000AF786000F066F8FFF772FAFFF7DEFB28
:1016BC00FFF714FCFFF742FC00BF0837BD4680BDA6
:1016CC0080B400AF72B600BFFEE7000080B485B0F6
:1016DC0000AF78607B68104A82FB03129210DB1714
:1016EC00D31ABB600023FB600CE00C49FB68BA68A2
:1016FC0041F823200A4AFB68002142F82310FB68BA
:10170C000133FB60FB68052BEFDD00BF00BF143716
:10171C00BD4680BC704700BF67666666F800002057
:10172C001001002080B483B000AF786039607B6812
:10173C00002B13DB7B68052B10DC3B680A4A82FB11
:10174C0003129210DB17D21A08497B6841F8232048
:10175C00074A7B68002142F8231000E000BF0C37D9
:10176C00BD4680BC704700BF67666666F800002007
:10177C001001002080B483B000AF00237B601CE01C
:10178C00124A7B6852F82330002B13DD0F4A7B681A
:10179C0052F823305A1E0D497B6841F823200B4A1E
:1017AC007B6852F82330002B04DC094A7B6801214A
:1017BC0042F823107B6801337B607B68052BDFDDEF
:1017CC0000BF00BF0C37BD4680BC7047F80000203E
:1017DC001001002080B483B000AF78607B68002BD0
:1017EC0002DB7B68052B01DD002303E0044A7B68E8
:1017FC0052F8233018460C37BD4680BC704700BFEA
:10180C001001002080B483B000AF78607B68002B9F
:10181C0002DB7B68052B01DD002303E0044A7B68B7
:10182C0052F8233018460C37BD4680BC704700BFB9
:10183C00F800002080B485B000AF154B9B69144AAA
:10184C0043F001039361124B9B6903F00103BB60EE
:10185C00BB680F4BDB690E4A43F08053D3610C4BD2
:10186C00DB6903F080537B607B680A4B5B68FB6031
:10187C00FB6823F0E063FB60FB6843F08063FB6074
:10188C00044AFB68536000BF1437BD4680BC7047E8
:10189C00001002400000014080B584B000AF7860B9
:1018AC007B681B68B3F1804F13D10C4BDB690B4A7F
:1018BC0043F00103D361094BDB6903F00103FB60C7
:1018CC00FB68002200211C2000F0ADFC1C2000F065
:1018DC00C6FC00BF1037BD4680BD00BF00100240E3
:1018EC0080B400AFFEE780B400AFFEE780B400AF79
:1018FC00FEE780B400AFFEE780B400AFFEE780B433
:10190C0000AF00BFBD4680BC704780B400AF00BFC5
:10191C00BD4680BC704780B400AF00BFBD4680BCE4
:10192C00704780B500AF00F08BFB00BF80BD00009E
:10193C0080B500AF024801F0E7FA00BF80BD00BFE0
:10194C002C01002080B400AF00BFBD4680BC7047A6
:10195C0080B500AF01220221204800F02CFE0122AC
:10196C0004211E4800F027FE012208211B4800F02C
:10197C0022FE01221021194800F01DFE01224021F7
:10198C00164800F018FE01228021144800F013FEC6
:10199C0001224FF48071114800F00DFE01224FF42A
:1019AC0000710E4800F007FE01224FF480610B48D5
:1019BC0000F001FE01224FF40061084800F0FBFD2D
:1019CC0001224FF48051054800F0F5FD01224FF43F
:1019DC000051024800F0EFFD00BF80BD000801403F
:1019EC0080B500AF002202210A4800F0E4FD01227C
:1019FC000421084800F0DFFD00224FF480710548F7
:101A0C0000F0D9FD01224FF40071024800F0D3FD23
:101A1C0000BF80BD0008014080B500AF012202214B
:101A2C000A4800F0C8FD00220821084800F0C3FD58
:101A3C0001224FF48071054800F0BDFD00224FF4E7
:101A4C008061024800F0B7FD00BF80BD0008014076
:101A5C0080B500AF012208210A4800F0ACFD00223D
:101A6C000421084800F0A7FD01224FF480610548CD
:101A7C0000F0A1FD00224FF40071024800F09BFD24
:101A8C0000BF80BD0008014080B500AF00221021CE
:101A9C000A4800F090FD01224021084800F08BFD1F
:101AAC0000224FF40061054800F085FD01224FF43F
:101ABC008051024800F07FFD00BF80BD000801404E
:101ACC0080B500AF012210210A4800F074FD0022FD
:101ADC008021084800F06FFD01224FF40061054899
:101AEC0000F069FD00224FF40051024800F063FD44
:101AFC0000BF80BD0008014080B500AF01228021ED
:101B0C000A4800F058FD00224021084800F053FD1F
:101B1C0001224FF40051054800F04DFD00224FF416
:101B2C008051024800F047FD00BF80BD0008014015
:101B3C0090B585B000AFF860B9607A60884B1B78BF
:101B4C00042B00F2008101A252F823F06D1B000857
:101B5C00A11B00080D1C00087B1C0008E51C0008DC
:101B6C00012241F244217F4800F025FD7C4B0122EB
:101B7C001A70F9680120FFF7D5FD79680220FFF78C
:101B8C00D1FD0A210420FFF7CDFD0A210520FFF726
:101B9C00C9FDE1E0FFF724FFFFF792FF0520FFF7F7
:101BAC0019FE0346002B10D00120FFF72BFE044634
:101BBC000220FFF727FE034619462046FEF752FB8C
:101BCC004FF4FA710520FFF7ADFD0420FFF702FE7C
:101BDC000346002B05D0FEF703FB50210420FFF732
:101BEC00A1FD0220FFF7F6FD0346002B00F0AD80AF
:101BFC005B4B02221A70B9680220FFF793FDA4E038
:101C0C00FFF77AFF0520FFF7E5FD0346002B10D008
:101C1C000120FFF7F7FD04460220FFF7F3FD034612
:101C2C0019462046FEF71EFB4FF4FA710520FFF70C
:101C3C0079FD0420FFF7CEFD0346002B05D0FEF7FF
:101C4C00CFFA50210420FFF76DFD0120FFF7C2FDF4
:101C5C000346002B7BD0424B03221A70796801207B
:101C6C00FFF760FDF9680220FFF75CFD6FE0FFF7FE
:101C7C00D3FEFFF709FF0520FFF7ACFD0346002B51
:101C8C0010D00120FFF7BEFD04460220FFF7BAFD7D
:101C9C00034619462046FEF7E5FA4FF4FA71052083
:101CAC00FFF740FD0420FFF795FD0346002B05D000
:101CBC00FEF796FA50210420FFF734FD0120FFF7C0
:101CCC0089FD0346002B44D0254B04221A70B968B9
:101CDC000120FFF727FD3CE0FFF7BAFE0520FFF7D8
:101CEC0079FD0346002B10D00120FFF78BFD044635
:101CFC000220FFF787FD034619462046FEF7B2FA8D
:101D0C004FF4FA710520FFF70DFD0420FFF762FD7B
:101D1C000346002B05D0FEF763FA50210420FFF791
:101D2C0001FD0120FFF756FD0346002B13D00C4B91
:101D3C0001221A70F9680120FFF7F4FC796802207F
:101D4C00FFF7F0FC07E000BF06E000BF04E000BFB7
:101D5C0002E000BF00E000BF00BF1437BD4690BDDD
:101D6C00280100200008014080B500AF7B4B1B7898
:101D7C00062B00F2E18001A252F823F0A51D000809
:101D8C00ED1D0008671E0008971E0008151F0008AF
:101D9C00231E0008CB1E00080320FFF71BFD034683
:101DAC00002B05D0FEF75EFEFA210320FFF7BAFCEC
:101DBC006B4B1B68042B40F0C1800120FEF7F0FF39
:101DCC000346002B00F0BA80644B01221A7050219C
:101DDC000420FFF7A7FCFA210320FFF7A3FCADE0DA
:101DEC00FFF7FEFDFFF76CFE0120FEF7D9FF03465F
:101DFC00002B02D0594B05221A700420FFF7EAFC85
:101E0C000346002B00F09C80FEF7B2F95021042011
:101E1C00FFF788FC94E00320FFF7DCFC0346002B63
:101E2C0005D0FEF743FEFA210320FFF77BFC0120CF
:101E3C00FEF7B6FF0346002B02D0484B02221A7065
:101E4C000420FFF7C7FC0346002B7BD0FEF790F96C
:101E5C0050210420FFF766FC74E0FFF74DFE0120D3
:101E6C00FEF79EFF0346002B02D03C4B03221A7058
:101E7C000420FFF7AFFC0346002B65D0FEF778F982
:101E8C0050210420FFF74EFC5EE0FFF7FDFDFFF74D
:101E9C00C3FD0120FEF784FF0346002B02D02F4B1D
:101EAC0006221A700420FFF795FC0346002B4DD038
:101EBC00FEF75EF950210420FFF734FC46E00320C6
:101ECC00FFF788FC0346002B08D04FF481612548AE
:101EDC0000F089FBFA210320FFF724FC0120FEF718
:101EEC005FFF0346002B02D01C4B04221A70042007
:101EFC00FFF770FC0346002B2AD0FEF739F950216E
:101F0C000420FFF70FFC23E0FFF7A2FD0120FEF7F2
:101F1C0047FF0346002B02D0104B01221A700420FD
:101F2C00FFF758FC0346002B14D0FEF721F9502183
:101F3C000420FFF7F7FB0DE000BF0CE000BF0AE048
:101F4C0000BF08E000BF06E000BF04E000BF02E0F5
:101F5C0000BF00E000BF00BF80BD00BF2801002013
:101F6C00E400002000080140FFF7ECFC0B480C4992
:101F7C000C4A002302E0D458C4500433C4188C42D9
:101F8C00F9D3094A094C002301E013600432A24240
:101F9C00FBD301F0F9FAFFF773FA70470000002049
:101FAC00200000203036000820000020780100209E
:101FBC00FEE7000080B500AF084B1B68074A43F0F2
:101FCC0010031360032000F023F90F2000F008F831
:101FDC00FFF730FC0023184680BD00BF00200240F4
:101FEC0080B582B000AF7860124B1A68124B1B7828
:101FFC0019464FF47A73B3FBF1F3B2FBF3F31846C3
:10200C0000F03BF90346002B01D001230EE07B6866
:10201C000F2B0AD8002279684FF0FF3000F003F93B
:10202C00064A7B681360002300E00123184608373A
:10203C00BD4680BD140000201C00002018000020AC
:10204C0080B400AF054B1B781A46054B1B68134434
:10205C00034A136000BFBD4680BC70471C000020C3
:10206C007401002080B400AF024B1B681846BD46BB
:10207C0080BC70477401002080B485B000AF7860DC
:10208C007B6803F00703FB600C4BDB68BB60BA6832
:10209C004FF6FF031340BB60FB681A02BB68134387
:1020AC0043F0BF6343F40033BB60044ABB68D360A6
:1020BC0000BF1437BD4680BC704700BF00ED00E088
:1020CC0080B400AF044BDB681B0A03F0070318460F
:1020DC00BD4680BC704700BF00ED00E080B483B00B
:1020EC0000AF0346FB7197F90730002B0BDBFB7934
:1020FC0003F01F02064997F907305B09012000FA2B
:10210C0002F241F8232000BF0C37BD4680BC70475B
:10211C0000E100E080B483B000AF03463960FB718E
:10212C0097F90730002B0ADB3B68DAB20C4997F9B8
:10213C0007301201D2B20B4483F800230AE03B684B
:10214C00DAB20849FB7903F00F03043B1201D2B257
:10215C000B441A7600BF0C37BD4680BC704700BFDD
:10216C0000E100E000ED00E080B489B000AFF86061
:10217C00B9607A60FB6803F00703FB61FB69C3F18C
:10218C000703042B28BF0423BB61FB690433062B14
:10219C0002D9FB69033B00E000237B614FF0FF3267
:1021AC00BB6902FA03F3DA43BB681A407B699A40B5
:1021BC004FF0FF317B6901FA03F3D9437B680B4085
:1021CC00134318462437BD4680BC704780B582B097
:1021DC0000AF78607B68013BB3F1807F01D30123B2
:1021EC000FE00A4A7B68013B53600F214FF0FF3030
:1021FC00FFF790FF054B00229A60044B07221A60F0
:10220C00002318460837BD4680BD00BF10E000E033
:10221C0080B582B000AF78607868FFF72DFF00BF03
:10222C000837BD4680BD80B586B000AF0346B960A7
:10223C007A60FB7300237B61FFF742FF78617A6859
:10224C00B9687869FFF790FF024697F90F3011468D
:10225C001846FFF75FFF00BF1837BD4680BD80B53D
:10226C0082B000AF0346FB7197F907301846FFF7B1
:10227C0035FF00BF0837BD4680BD80B582B000AFCA
:10228C0078607868FFF7A2FF034618460837BD460A
:10229C0080BD000080B48BB000AF78603960002343
:1022AC007B6200233B6248E101227B6A02FA03F362
:1022BC00FB613B681B68FA691340BB61BA69FB6937
:1022CC009A4240F037813B685B68A34A93425ED0E8
:1022DC00A14A934275D8A14A934258D09F4A93423F
:1022EC006FD89F4A934252D09D4A934269D89D4AD7
:1022FC0093424CD09B4A934263D89B4A934246D01C
:10230C00994A93425DD8122B2AD8122B59D801A284
:10231C0052F823F09B23000875230008872300083C
:10232C00C9230008CF230008CF230008CF230008BF
:10233C00CF230008CF230008CF230008CF230008A9
:10234C00CF230008CF230008CF230008CF23000899
:10235C00CF230008CF2300087D2300089123000819
:10236C00824A934213D02CE03B68DB683B6229E045
:10237C003B68DB6804333B6224E03B68DB68083372
:10238C003B621FE03B68DB680C333B621AE03B6846
:10239C009B68002B02D104233B6213E03B689B68D3
:1023AC00012B05D108233B627B68FA691A6109E0AD
:1023BC0008233B627B68FA695A6103E000233B62A5
:1023CC0000E000BFBB69FF2B01D87B6801E07B6894
:1023DC0004337B61BB69FF2B02D87B6A9B0002E054
:1023EC007B6A083B9B003B617B691A680F213B6948
:1023FC0001FA03F3DB431A40396A3B6901FA03F330
:10240C001A437B691A603B685B6803F08053002BAE
:10241C0000F09080564B9B69554A43F00103936141
:10242C00534B9B6903F00103BB60BB68514A7B6A49
:10243C009B08023352F82330FB607B6A03F00303E2
:10244C009B000F2202FA03F3DB43FA681340FB6094
:10245C007B68494A93420DD07B68484A934207D027
:10246C007B68474A934201D1022304E0032302E034
:10247C00012300E000237A6A02F0030292009340E9
:10248C00FA681343FB603B497B6A9B080233FA688A
:10249C0041F823203B685B6803F48013002B06D0C3
:1024AC00384B9A683749BB6913438B6006E0354B50
:1024BC009A68BB69DB43334913408B603B685B68AC
:1024CC0003F40013002B06D02E4BDA682D49BB69A0
:1024DC001343CB6006E02B4BDA68BB69DB4329491D
:1024EC001340CB603B685B6803F40033002B06D0D1
:1024FC00244B5A682349BB6913434B6006E0214BBC
:10250C005A68BB69DB431F4913404B603B685B68EF
:10251C0003F48033002B06D01A4B1A681949BB6997
:10252C0013430B6006E0174B1A68BB69DB43154974
:10253C0013400B607B6A01337B623B681A687B6AD1
:10254C0022FA03F3002B7FF4AFAE00BF00BF2C3791
:10255C00BD4680BC704700BF000032100000311037
:10256C0000002210000021100000121000001110B9
:10257C00001002400000014000080140000C014026
:10258C00001001400004014080B485B000AF7860B9
:10259C000B467B807B689A687B881340002B02D0AB
:1025AC000123FB7301E00023FB73FB7B18461437FC
:1025BC00BD4680BC704780B483B000AF78600B46DA
:1025CC007B8013467B707B78002B03D07A887B68EA
:1025DC001A6103E07B881A047B681A6100BF0C3710
:1025EC00BD4680BC704780B485B000AF78600B46A8
:1025FC007B807B68DB68FB607A88FB6813401A047D
:10260C00FB68D9437B880B401A437B681A6100BF77
:10261C001437BD4680BC704780B586B000AF78607B
:10262C007B68002B01D101236CE27B681B6803F0F3
:10263C000103002B00F08780924B5B6803F00C03C6
:10264C00042B0CD08F4B5B6803F00C03082B12D1BE
:10265C008C4B5B6803F48033B3F5803F0BD1894B13
:10266C001B6803F40033002B6CD07B685B68002B79
:10267C0068D1012346E27B685B68B3F5803F06D1E5
:10268C00804B1B687F4A43F4803313602EE07B68D9
:10269C005B68002B0CD17B4B1B687A4A23F480338C
:1026AC001360784B1B68774A23F4802313601DE07A
:1026BC007B685B68B3F5A02F0CD1724B1B68714A19
:1026CC0043F4802313606F4B1B686E4A43F48033D2
:1026DC0013600BE06B4B1B686A4A23F48033136066
:1026EC00684B1B68674A23F4802313607B685B6824
:1026FC00002B13D0FFF7B6FC386108E0FFF7B2FCF3
:10270C0002463B69D31A642B01D90323FAE15D4BD2
:10271C001B6803F40033002BF0D014E0FFF7A2FC8D
:10272C00386108E0FFF79EFC02463B69D31A642B24
:10273C0001D90323E6E1534B1B6803F40033002B50
:10274C00F0D100E000BF7B681B6803F00203002B94
:10275C0063D04C4B5B6803F00C03002B0BD0494B44
:10276C005B6803F00C03082B1CD1464B5B6803F42D
:10277C008033002B16D1434B1B6803F00203002B54
:10278C0005D07B681B69012B01D00123BAE13D4BBD
:10279C001B6823F0F8027B685B69DB003949134343
:1027AC000B603AE07B681B69002B20D0364B012272
:1027BC001A60FFF757FC386108E0FFF753FC02463C
:1027CC003B69D31A022B01D903239BE12D4B1B68C8
:1027DC0003F00203002BF0D02A4B1B6823F0F80205
:1027EC007B685B69DB00274913430B6015E0264BC4
:1027FC0000221A60FFF736FC386108E0FFF732FC64
:10280C0002463B69D31A022B01D903237AE11D4BF3
:10281C001B6803F00203002BF0D17B681B6803F0EC
:10282C000803002B3AD07B689B69002B19D0174BFF
:10283C0001221A60FFF716FC386108E0FFF712FC62
:10284C0002463B69D31A022B01D903235AE10D4BE3
:10285C005B6A03F00203002BF0D0012000F09AFA1F
:10286C001CE00A4B00221A60FFF7FCFB38610FE0FA
:10287C00FFF7F8FB02463B69D31A022B08D9032356
:10288C0040E100BF0010024000004242800442427E
:10289C009E4B5B6A03F00203002BE9D17B681B683B
:1028AC0003F00403002B00F0A6800023FB75974B6C
:1028BC00DB6903F08053002B0DD1944BDB69934AF9
:1028CC0043F08053D361914BDB6903F08053BB60C1
:1028DC00BB680123FB758E4B1B6803F48073002BC4
:1028EC0018D18B4B1B688A4A43F480731360FFF733
:1028FC00B9FB386108E0FFF7B5FB02463B69D31A18
:10290C00642B01D90323FDE0814B1B6803F4807316
:10291C00002BF0D07B68DB68012B06D17B4B1B6A4C
:10292C007A4A43F0010313622DE07B68DB68002BCD
:10293C000CD1764B1B6A754A23F001031362734B5F
:10294C001B6A724A23F0040313621CE07B68DB6889
:10295C00052B0CD16D4B1B6A6C4A43F004031362BC
:10296C006A4B1B6A694A43F0010313620BE0674B25
:10297C001B6A664A23F001031362644B1B6A634AA9
:10298C0023F0040313627B68DB68002B15D0FFF780
:10299C0069FB38610AE0FFF765FB02463B69D31A15
:1029AC0041F28832934201D90323ABE0574B1B6AA7
:1029BC0003F00203002BEED014E0FFF753FB386159
:1029CC000AE0FFF74FFB02463B69D31A41F288320B
:1029DC00934201D9032395E04C4B1B6A03F002038D
:1029EC00002BEED1FB7D012B05D1484BDB69474A0F
:1029FC0023F08053D3617B68DB69002B00F081806E
:102A0C00424B5B6803F00C03082B61D07B68DB69DD
:102A1C00022B46D13F4B00221A60FFF723FB386193
:102A2C0008E0FFF71FFB02463B69D31A022B01D9C2
:102A3C00032367E0354B1B6803F00073002BF0D1C8
:102A4C007B681B6AB3F5803F08D1304B5B6823F47D
:102A5C0000327B689B682D4913434B602B4B5B68A2
:102A6C0023F474127B68196A7B685B6A0B432749F1
:102A7C0013434B60274B01221A60FFF7F3FA3861BE
:102A8C0008E0FFF7EFFA02463B69D31A022B01D993
:102A9C00032337E01D4B1B6803F00073002BF0D0B1
:102AAC002FE01C4B00221A60FFF7DCFA386108E0BB
:102ABC00FFF7D8FA02463B69D31A022B01D903233C
:102ACC0020E0124B1B6803F00073002BF0D118E0D0
:102ADC007B68DB69012B01D1012313E00B4B5B6895
:102AEC00FB60FB6803F480327B681B6A9A4206D158
:102AFC00FB6803F470127B685B6A9A4201D0012375
:102B0C0000E0002318461837BD4680BD0010024077
:102B1C00007000406000424280B584B000AF786025
:102B2C0039607B68002B01D10123D0E06A4B1B6814
:102B3C0003F007033A689A4210D9674B1B6823F0DD
:102B4C00070265493B6813430B60634B1B6803F03A
:102B5C0007033A689A4201D00123B8E07B681B68EE
:102B6C0003F00203002B20D07B681B6803F00403E6
:102B7C00002B05D0594B5B68584A43F4E063536013
:102B8C007B681B6803F00803002B05D0534B5B6874
:102B9C00524A43F460535360504B5B6823F0F0028D
:102BAC007B689B684D4913434B607B681B6803F043
:102BBC000103002B40D07B685B68012B07D1474B8E
:102BCC001B6803F40033002B15D101237FE07B68D5
:102BDC005B68022B07D1414B1B6803F00073002B81
:102BEC0009D1012373E03D4B1B6803F00203002B5A
:102BFC0001D101236BE0394B5B6823F003027B6846
:102C0C005B68364913434B60FFF72CFAF8600AE017
:102C1C00FFF728FA0246FB68D31A41F28832934236
:102C2C0001D9032353E02D4B5B6803F00C027B6846
:102C3C005B689B009A42EBD1274B1B6803F00703A0
:102C4C003A689A4210D2244B1B6823F0070222499F
:102C5C003B6813430B60204B1B6803F007033A6877
:102C6C009A4201D0012332E07B681B6803F0040315
:102C7C00002B08D0194B5B6823F4E0627B68DB689F
:102C8C00164913434B607B681B6803F00803002B49
:102C9C0009D0124B5B6823F460527B681B69DB0024
:102CAC000E4913434B6000F021F802460B4B5B6856
:102CBC001B0903F00F030A49CB5C22FA03F3094A00
:102CCC001360094B1B681846FFF78AF90023184656
:102CDC001037BD4680BD00BF0020024000100240EE
:102CEC0004360008140000201800002080B487B0BF
:102CFC0000AF0023FB600023BB6000237B6100233B
:102D0C007B6000233B611E4B5B68FB60FB6803F040
:102D1C000C03042B02D0082B03D027E0194B3B618A
:102D2C0027E0FB689B0C03F00F03174AD35C7B6016
:102D3C00FB6803F48033002B10D0114B5B685B0CE9
:102D4C0003F00103114AD35CBB607B680D4A02FBA4
:102D5C0003F2BB68B2FBF3F37B6104E07B680C4AC3
:102D6C0002FB03F37B617B693B6102E0054B3B613A
:102D7C0000BF3B6918461C37BD4680BC704700BF7E
:102D8C000010024000127A001436000824360008A5
:102D9C0000093D0080B485B000AF78600A4B1B6819
:102DAC000A4AA2FB03235B0A7A6802FB03F3FB606B
:102DBC0000BFFB685A1EFA60002BF9D100BF00BFA0
:102DCC001437BD4680BC704714000020D34D6210F0
:102DDC0080B582B000AF78607B68002B01D10123F5
:102DEC0041E07B6893F83D30DBB2002B06D17B6869
:102DFC00002283F83C207868FEF74EFD7B680222A7
:102E0C0083F83D207B681A687B68043319461046AA
:102E1C0000F056FA7B68012283F846207B68012279
:102E2C0083F83E207B68012283F83F207B680122D7
:102E3C0083F840207B68012283F841207B680122C3
:102E4C0083F842207B68012283F843207B680122AF
:102E5C0083F844207B68012283F845207B6801229B
:102E6C0083F83D20002318460837BD4680BD00007E
:102E7C0080B485B000AF78607B6893F83D30DBB2EE
:102E8C00012B01D0012335E07B68022283F83D2021
:102E9C007B681B68DA687B681B6842F00102DA60A9
:102EAC007B681B68164A934209D07B681B68B3F198
:102EBC00804F04D07B681B68124A934211D17B6807
:102ECC001B689B6803F00703FB60FB68062B10D0A4
:102EDC007B681B681A687B681B6842F001021A60E9
:102EEC0007E07B681B681A687B681B6842F001026C
:102EFC001A60002318461437BD4680BC704700BFCB
:102F0C00002C01400004004080B584B000AF786014
:102F1C007B681B68DB68FB607B681B681B69BB609C
:102F2C00BB6803F00203002B20D0FB6803F0020304
:102F3C00002B1BD07B681B686FF002021A617B6848
:102F4C0001221A777B681B689B6903F00303002B33
:102F5C0003D0786800F098F905E0786800F08BF9F8
:102F6C00786800F09AF97B6800221A77BB6803F046
:102F7C000403002B20D0FB6803F00403002B1BD0B0
:102F8C007B681B686FF004021A617B6802221A7757
:102F9C007B681B689B6903F44073002B03D0786833
:102FAC0000F072F905E0786800F065F9786800F0D7
:102FBC0074F97B6800221A77BB6803F00803002BB6
:102FCC0020D0FB6803F00803002B1BD07B681B6828
:102FDC006FF008021A617B6804221A777B681B6801
:102FEC00DB6903F00303002B03D0786800F04CF985
:102FFC0005E0786800F03FF9786800F04EF97B68DE
:10300C0000221A77BB6803F01003002B20D0FB685A
:10301C0003F01003002B1BD07B681B686FF01002B1
:10302C001A617B6808221A777B681B68DB6903F4DA
:10303C004073002B03D0786800F026F905E078681F
:10304C0000F019F9786800F028F97B6800221A77EB
:10305C00BB6803F00103002B0CD0FB6803F00103E9
:10306C00002B07D07B681B686FF001021A6178682F
:10307C00FEF714FBBB6803F08003002B0CD0FB683D
:10308C0003F08003002B07D07B681B686FF0800275
:10309C001A61786800F06FFABB6803F04003002BEC
:1030AC000CD0FB6803F04003002B07D07B681B6837
:1030BC006FF040021A61786800F0F8F8BB6803F012
:1030CC002003002B0CD0FB6803F02003002B07D04F
:1030DC007B681B686FF020021A61786800F042FA76
:1030EC0000BF1037BD4680BD80B584B000AF78609E
:1030FC0039600023FB737B6893F83C30012B01D1C2
:10310C000223B4E07B68012283F83C207B68022216
:10311C0083F83D207B681B689B68BB60BB6823F011
:10312C007703BB60BB6823F47F43BB607B681B6881
:10313C00BA689A603B681B68B3F5005F3ED0B3F584
:10314C00005F00F28780B3F5805F00F08680B3F5F6
:10315C00805F7FD8702B1AD0702B7BD8602B50D00F
:10316C00602B77D8502B3CD0502B73D8402B58D099
:10317C00402B6FD8302B64D0302B6BD8202B60D0E9
:10318C00202B67D8002B5CD0102B5AD062E07B68C8
:10319C0018683B6899683B685A683B68DB6800F0C4
:1031AC006AF97B681B689B68BB60BB6843F077035C
:1031BC00BB607B681B68BA689A604FE07B681868D4
:1031CC003B6899683B685A683B68DB6800F053F9C8
:1031DC007B681B689A687B681B6842F480429A6023
:1031EC003CE07B6818683B6859683B68DB681A46AA
:1031FC0000F0CAF87B681B685021184600F021F9D2
:10320C002CE07B6818683B6859683B68DB681A4699
:10321C0000F0E8F87B681B686021184600F011F993
:10322C001CE07B6818683B6859683B68DB681A4689
:10323C0000F0AAF87B681B684021184600F001F9E1
:10324C000CE07B681A683B681B681946104600F056
:10325C00F8F803E00123FB7300E000BF7B68012258
:10326C0083F83D207B68002283F83C20FB7B1846CA
:10327C001037BD4680BD80B483B000AF786000BF0E
:10328C000C37BD4680BC704780B483B000AF78600B
:10329C0000BF0C37BD4680BC704780B483B000AF14
:1032AC00786000BF0C37BD4680BC704780B483B0DB
:1032BC0000AF786000BF0C37BD4680BC7047000083
:1032CC0080B485B000AF786039607B681B68FB60A8
:1032DC007B682B4A934207D07B68B3F1804F03D0B5
:1032EC007B68284A934208D1FB6823F07003FB608B
:1032FC003B685B68FA681343FB607B68204A934227
:10330C0007D07B68B3F1804F03D07B681D4A934292
:10331C0008D1FB6823F44073FB603B68DB68FA68F8
:10332C001343FB60FB6823F080023B685B6913432B
:10333C00FB607B68FA681A603B689A687B68DA62A3
:10334C003B681A687B689A627B680D4A934203D18A
:10335C003B681A697B681A637B6801225A617B6837
:10336C001B6903F00103002B05D07B681B6923F05C
:10337C0001027B681A6100BF1437BD4680BC7047E0
:10338C00002C01400004004080B487B000AFF8600E
:10339C00B9607A60FB681B6A7B61FB681B6A23F06F
:1033AC000102FB681A62FB689B693B613B6923F075
:1033BC00F0033B617B681B013A6913433B617B69FA
:1033CC0023F00A037B617A69BB6813437B61FB685A
:1033DC003A699A61FB687A691A6200BF1C37BD466C
:1033EC0080BC704780B487B000AFF860B9607A6079
:1033FC00FB681B6A7B61FB681B6A23F01002FB688D
:10340C001A62FB689B693B613B6923F470433B6127
:10341C007B681B033A6913433B617B6923F0A00370
:10342C007B61BB681B017A6913437B61FB683A695A
:10343C009A61FB687A691A6200BF1C37BD4680BC72
:10344C00704780B485B000AF786039607B689B684A
:10345C00FB60FB6823F07003FB603A68FB68134366
:10346C0043F00703FB607B68FA689A6000BF14376F
:10347C00BD4680BC704780B487B000AFF860B960BF
:10348C007A603B60FB689B687B617B6923F47F43BC
:10349C007B613B681A027B681A43BB6813437A69E9
:1034AC0013437B61FB687A699A6000BF1C37BD4689
:1034BC0080BC704780B485B000AF786039607B68A1
:1034CC0093F83C30012B01D1022341E07B680122AF
:1034DC0083F83C207B68022283F83D207B681B68C4
:1034EC005B68FB607B681B689B68BB60FB6823F0B8
:1034FC007003FB603B681B68FA681343FB607B68D6
:10350C001B68FA685A607B681B68144A934209D09E
:10351C007B681B68B3F1804F04D07B681B68104A32
:10352C0093420CD1BB6823F08003BB603B685B68A3
:10353C00BA681343BB607B681B68BA689A607B6887
:10354C00012283F83D207B68002283F83C20002375
:10355C0018461437BD4680BC704700BF002C014094
:10356C000004004080B483B000AF786000BF0C371B
:10357C00BD4680BC704780B483B000AF786000BF9C
:10358C000C37BD4680BC704770B500260C4D0D4CF9
:10359C00641BA410A64209D100F022F800260A4DA3
:1035AC000A4C641BA410A64205D170BD55F8043B0F
:1035BC0098470136EEE755F8043B98470136F2E799
:1035CC002836000828360008283600082C36000853
:1035DC0003460244934200D1704703F8011BF9E7FC
:1035EC00F8B500BFF8BC08BC9E467047F8B500BFE4
:0835FC00F8BC08BC9E467047B4
:10360400000000000000000001020304060708098E
:1036140002030405060708090A0B0C0D0E0F10100F
:04362400010200009F
:043628003101000864
:04362C000D01000884
:103630000010014000100140001001400020004037
:1036400000800B0000127A00100000000100000052
:0400000508001F755B
:00000001FF
